:100000000C9484040C94A1040C94A1040C94A104F9
:100010000C94A1040C94A1040C94A1040C94A104CC
:100020000C94A1040C94A1040C94A1230C94E3223D
:100030000C94E02B0C94A1040C94A1040C94A10446
:100040000C94A1040C94A1040C94A1040C94A1049C
:100050000C94A1040C949F2B0C94A1040C94A10467
:100060000C94A1040C94A1040C94A1040C94A1047C
:100070000C94A1040C94A1040C94A1040C94A1046C
:100080000C94A1040C94A1040C94A1040C94A1045C
:100090000C94A1040C94A1040C94A1040C94A1044C
:1000A0000C94A1040C94A1040C94A1042E0A310A0E
:1000B000340A370A3C0A410A3F0AEF0BF20BF50BF0
:1000C000F80BFB0BFE0B010CA211A211D111D111E7
:1000D0003B125712EC13EC136212401351135113DD
:1000E000F6201D21CB221D21CB2269218C21CB2280
:1000F00081229122000000000000000000000000AA
:1001000000000000000000000000000000000000EF
:1001100000000000000000007E0F00D4FFFFFFC7BA
:100120000000007800000000000000002A2B2800DA
:100130000000000000000000000000000000002996
:10014000000000002C1E3420212224342627252ED6
:10015000362D3738271E1F2021222324252633330E
:10016000362E37381F0405060708090A0B0C0D0E3A
:100170000F101112131415161718191A1B1C1D2F06
:100180003130232D350405060708090A0B0C0D0E26
:100190000F101112131415161718191A1B1C1D2FE6
:1001A0003130354C0102E00102E30102E10101219D
:1001B0000103E10103E30103E0000000000000008F
:1001C000000000000000000000570862330000003B
:1001D000000000003600126414000000000000005F
:1001E000370001570D00E30002570000130018000C
:1001F0000E000158000000001C000C001B00000055
:1002000000000000000000000000000000000000EE
:1002100000000000000000000000000009000700CE
:1002200005000000000000000A001600100002583F
:1002300000000000060017001A00E4000357000049
:100240001500110019000000000000000F000B72E3
:100250001D00000000000000000000000000000081
:100260000000010001000100010001000000010088
:1002700031001E001E020100010001002F021F00BC
:100280001F020100010001002F00200020020100D8
:100290000100010026020457210214500100010050
:1002A00038002200220200000100010001000000CD
:1002B0000100000001000100010000000100000039
:1002C000010001002E0023002302000001000100B4
:1002D0002702240024020100010001003000250053
:1002E0002502010001000100300226003500010056
:1002F000010001002D002700310201000100010072
:1003000001000100010001000000010001000100E6
:10031000010001000000010029002B003500010050
:1003200001000100F100EF00FB00010001000100ED
:10033000ED00EE00FC000100E2000100F200F00020
:100340002800135001000100F900FA0005570000D1
:100350000100010001000000010000000100010097
:10036000010000000100000001000100A900AA0036
:10037000A8000000010001004A000657AC0001007F
:10038000010001004E000757AB00E400E10001004E
:100390004B000857FD000000010001004D00095707
:1003A000FE0000000100010001000000010000004B
:1003B0000000010001000100000001000000010038
:1003C000C85CC95CC45C010001000100C65CC75C7C
:1003D000B05D000001000100CA5CCB5CC35C145C32
:1003E000005C0100CC5CCD5CB15D105001000100EF
:1003F0000000BD00BE00000001000100010000007F
:1004000001000000010001000100000001000000E7
:10041000010001000000095D620000000100010010
:100420005F005C00590012500100010060005D0097
:100430005A000000E200010061005E005B00010064
:1004400001000100000000000000010001000100A7
:100450000100000000000100000001000100010097
:10046000010001000000010029001D081D0A010013
:10047000010001000A5719085001010001000100A4
:10048000B25D52015101125001000100F900FA0061
:100490004F011050010001000000000000000000AA
:1004A0000100010001000000010000000100010046
:1004B0000100000001000000010001000100010036
:1004C0000100000001000100010001000100010025
:1004D0000100010001000100010001000100010014
:1004E0000100010001000100010001000100010004
:1004F00001000100010001000100010001000100F4
:10050000000000047F3F1F643214643214783C1EE4
:100510001E140A0505010980A101850319012AB7E6
:1005200000150126B700950175108100C0050C0962
:1005300001A101850419012AA002150126A0029536
:100540000175108100C005010906A1018506050796
:1005500019E029E7150025019508750181020507B5
:10056000190029EF1500250195F075018102050894
:1005700019012905950575019102950175039101F0
:10058000C005010902A1010901A1000509190129FC
:10059000081500250195087501810205010930093A
:1005A000311581257F950275088106093815812549
:1005B0007F950175088106050C0A38021581257F93
:1005C000950175088106C0C00660FF0961A1010997
:1005D00062150026FF009520750881020963150049
:1005E00026FF00952075089102C005010906A101AA
:1005F000050719E029E71500250195087501810215
:100600009501750881010507190029FF150026FFCE
:1006100000950675088100050819012905950575DD
:10062000019102950175039101C009027400040152
:1006300000A0FA09040000010301010009211101D1
:1006400000012240000705810308000109040100A0
:100650000203000000092111010001222200070508
:1006600083032000010705040320000109040200A0
:1006700001030102000921110100012247000705C1
:10068000820308000109040300010300000009219E
:1006900011010001226D00070585032000011201F0
:1006A00000020000000897327549010001020001B4
:1006B00022034500720067006F0044006F0078005D
:1006C000200045005A0020005300680069006E00B9
:1006D0006500000028035A00530041002000540028
:1006E0006500630068006E006F006C006F006700BB
:1006F000790020004C0061006200730000000403D8
:1007000009040001010101010101010102020202CB
:1007100002020202020303030303030303040404AB
:100720000404040405050505050606060606070774
:1007300007070708080808090909090A0A0A0B0B2C
:100740000B0C0C0C0D0D0D0E0E0E0F0F0F101011CB
:100750001111121213131414151516161717181851
:1007600019191A1A1B1B1C1D1D1E1E1F20202122B9
:1007700022232424252626272829292A2B2C2D2DFF
:100780002E2F30313232333435363738393A3B3C1C
:100790003D3E3F404142434445464748494A4C4D0F
:1007A0004E4F50515354555658595A5B5D5E5F61D8
:1007B0006264656668696B6C6D6F7072737577786B
:1007C0007A7B7D7E8082838587888A8C8E8F9193C9
:1007D0009596989A9C9EA0A2A3A5A7A9ABADAFB1F0
:1007E000B3B5B7BABCBEC0C2C4C6C9CBCDCFD1D4D5
:1007F000D6D8DBDDDFE2E4E7E9EBEEF0F3F5F8FA7B
:10080000FDFFFFAA7F55402223252628292A2C2DCB
:100810002F3032333536383A3B3D3E404243454730
:10082000494A4C4E5051535557595A5C5E60626468
:100830006668696B6D6F71737577797B7D7F818376
:100840008587898A8C8E90929496989A9C9E9FA177
:10085000A3A5A7A8AAACAEAFB1B3B4B6B8B9BBBC98
:10086000BEBFC1C2C3C5C6C7C9CACBCCCDCED0D10D
:10087000D2D2D3D4D5D6D7D7D8D9D9DADADBDBDB05
:10088000DCDCDCDCDCDDDDDDDDDCDCDCDCDCDBDBA6
:10089000DBDADAD9D9D8D7D7D6D5D4D3D2D2D1D0FA
:1008A000CECDCCCBCAC9C7C6C5C3C2C1BFBEBCBBF7
:1008B000B9B8B6B4B3B1AFAEACAAA8A7A5A3A19F6F
:1008C0009E9C9A98969492908E8C8A898785838133
:1008D0007F7D7B79777573716F6D6B696866646214
:1008E000605E5C5A5957555351504E4C4A494745E2
:1008F0004342403E3D3B3A3836353332302F2D2C83
:100900002A2928262523220011241FBECFEFDAE052
:10091000DEBFCDBF12E0A0E0B1E0ECEDF6E602C034
:1009200005900D92A239B107D9F724E0A2E9B2E00F
:1009300001C01D92A035B207E1F70E947F1A0C9406
:100940006C330C9400009C013A9521153F4130F521
:10095000BC0166277270AC01442754709C012227A9
:10096000387094FF0FC090FF02C080E101C080E0AA
:10097000672B09F08062452B09F08064232B79F006
:1009800080680895892F8170672B09F08260452B5C
:1009900009F08460232B19F08860089580E00895A1
:1009A000FC018081813041F49185911114C09285C0
:1009B000992389F082E00895823041F48185811184
:1009C00007C08285811106C083E0089586E00895FE
:1009D00085E0089584E00895CF93DF93EC010E94B1
:1009E000C62ECE01805E9109089710F0209731F451
:1009F000CE010E94A3040E94B52E05C0CE010E9424
:100A0000A3040E94A42EDF91CF9108958FE39CE967
:100A10000197F1F700C000008091AA02833029F00D
:100A2000853031F0813041F403C08BE198E002C0A1
:100A300086E098E00E94EC041092AA0208958FE3E9
:100A40009CE90197F1F700C000008091A802833073
:100A500059F028F4813071F0823061F00FC0843099
:100A600031F0853039F00AC08FE494E005C08FE49E
:100A700091E102C08FE490E00E94EC041092A80281
:100A800008958FE39CE90197F1F700C00000809181
:100A9000A602833059F028F4813071F0823061F081
:100AA0000FC0843031F0853039F00AC082E594E01F
:100AB00005C082E591E102C082E590E00E94EC046D
:100AC0001092A60208958FE39CE90197F1F700C008
:100AD00000008091A402833059F028F4813071F035
:100AE000823061F00FC0843031F0853039F00AC0B7
:100AF00081E594E005C081E591E102C081E590E0E7
:100B00000E94EC041092A40208958FE39CE90197DF
:100B1000F1F700C000008091A202833059F028F460
:100B2000813071F0823061F00FC0843031F0853057
:100B300039F00AC080E594E005C080E591E102C08B
:100B400080E590E00E94EC041092A20208958FE3E9
:100B50009CE90197F1F700C000008091A00283306A
:100B600071F028F4813059F0823049F00CC08430A3
:100B700019F0853021F007C08CE494E002C08CE4C9
:100B800090E00E94EC041092A00208958FE39CE98B
:100B90000197F1F700C0000080919E02833061F060
:100BA00018F4813049F00CC0843019F0853021F000
:100BB00007C081E29BE102C081E290E00E94EC0468
:100BC00010929E0208958FE39CE90197F1F700C00F
:100BD000000080919C02833071F028F4813059F03C
:100BE000823049F00CC0843019F0853021F007C004
:100BF0008AE294E002C08AE290E00E94EC04109243
:100C00009C0208958FE39CE90197F1F700C0000072
:100C100080919A02833071F028F4813059F082304B
:100C200049F00CC0843019F0853021F007C08CE207
:100C300094E002C08CE290E00E94EC0410929A02D0
:100C400008958FE39CE90197F1F700C000008091BF
:100C50009802833061F018F4813049F00CC0843080
:100C600019F0853021F007C084E098E002C084E0EC
:100C700090E00E94EC041092980208958FE39CE9A2
:100C80000197F1F700C0000080919602833029F0AF
:100C9000853031F0813041F403C085E390E002C03B
:100CA00084E390E00E94EC04109296020895CF93A2
:100CB000DF93EC01805E9109089710F0209731F4E2
:100CC000CE010E94A3040E94BC2E05C0CE010E944A
:100CD000A3040E94AB2E8C2F0E94FB2EDF91CF919C
:100CE0000895CF93DF93EC010E945706C933D105D5
:100CF00049F42FEF87EE93E0215080409040E1F7D8
:100D000000C00000CE010E94EC04DF91CF91089555
:100D1000CF93DF93EC018881833061F486E098E023
:100D20000E94710686E098E00E94710686E098E0D5
:100D30000E9471068881843020F086E098E00E944D
:100D40007106DF91CF910895CF93DF93EC018881F5
:100D5000833061F48FE490E00E9471068FE490E0AC
:100D60000E9471068FE490E00E94710688818430B1
:100D700020F08FE490E00E947106DF91CF910895FA
:100D8000CF93DF93EC018881833061F482E590E0BA
:100D90000E94710682E590E00E94710682E590E073
:100DA0000E9471068881843020F082E590E00E94E4
:100DB0007106DF91CF910895CF93DF93EC01888185
:100DC000833061F481E590E00E94710681E590E056
:100DD0000E94710681E590E00E947106888184304E
:100DE00020F081E590E00E947106DF91CF91089597
:100DF000CF93DF93EC018881833061F480E590E04C
:100E00000E94710680E590E00E94710680E590E006
:100E10000E9471068881843020F080E590E00E9475
:100E20007106DF91CF910895CF93DF93EC01888114
:100E3000833061F48CE490E00E9471068CE490E0D1
:100E40000E9471068CE490E00E94710688818430D3
:100E500020F08CE490E00E947106DF91CF9108951C
:100E6000CF93DF93EC018881833061F481E290E0DD
:100E70000E94710681E290E00E94710681E290E09A
:100E80000E9471068881843020F081E290E00E9407
:100E90007106DF91CF910895CF93DF93EC018881A4
:100EA000833061F48AE290E00E9471068AE290E069
:100EB0000E9471068AE290E00E9471068881843067
:100EC00020F08AE290E00E947106DF91CF910895B0
:100ED000CF93DF93EC018881833061F48CE290E062
:100EE0000E9471068CE290E00E9471068CE290E014
:100EF0000E9471068881843020F08CE290E00E948C
:100F00007106DF91CF910895CF93DF93EC01888133
:100F1000833061F484E090E00E94710684E090E008
:100F20000E94710684E090E00E94710688818430FE
:100F300020F084E090E00E947106DF91CF91089547
:100F4000CF93DF93EC018881833061F484E390E0F8
:100F50000E94710684E390E00E94710684E390E0B1
:100F60000E9471068881843020F084E390E00E9422
:100F70007106DF91CF9108950E94D0048093AA0258
:100F8000833029F0853031F0813061F407C08BE186
:100F900098E006C086E098E00E94710686E098E03E
:100FA0000E94570608950E94D0048093A8028330BF
:100FB00059F028F4813091F0823081F00895843026
:100FC00031F0853039F008958FE494E009C08FE462
:100FD00091E106C08FE490E00E9471068FE490E0FA
:100FE0000E94570608950E94D0048093A602833081
:100FF00059F028F4813091F0823081F008958430E6
:1010000031F0853039F0089582E594E009C082E539
:1010100091E106C082E590E00E94710682E590E0D1
:101020000E94570608950E94D0048093A402833042
:1010300059F028F4813091F0823081F008958430A5
:1010400031F0853039F0089581E594E009C081E5FB
:1010500091E106C081E590E00E94710681E590E093
:101060000E94570608950E94D0048093A202833004
:1010700059F028F4813091F0823081F00895843065
:1010800031F0853039F0089580E594E009C080E5BD
:1010900091E106C080E590E00E94710680E590E055
:1010A0000E94570608950E94D0048093A0028330C6
:1010B00059F028F48130A1F0823091F00895843005
:1010C00041F0853049F008958CE490E00E94570685
:1010D00007C08CE494E006C08CE490E00E947106A6
:1010E0008CE490E00E94570608950E94D0048093FB
:1010F0009E02833049F018F4813091F008958430D5
:1011000041F0853049F0089581E290E00E94570651
:1011100007C081E29BE106C081E290E00E94710677
:1011200081E290E00E94570608950E94D0048093C7
:101130009C02833059F028F48130A1F0823091F084
:101140000895843041F0853049F008958AE290E0B6
:101150000E94570607C08AE294E006C08AE290E047
:101160000E9471068AE290E00E94570608950E944C
:10117000D00480939A02833059F028F48130A1F092
:10118000823091F00895843041F0853049F008951F
:101190008CE290E00E94570607C08CE294E006C003
:1011A0008CE290E00E9471068CE290E00E9457066B
:1011B00008950E94D00480939802833049F018F477
:1011C000813091F00895843041F0853049F00895E0
:1011D00084E090E00E94570607C084E098E006C0D3
:1011E00084E090E00E94710684E090E00E9457063F
:1011F00008950E94D00480939602833029F08530B0
:1012000031F0813061F407C085E390E006C084E3EB
:1012100090E00E94710684E390E00E9457060895D2
:10122000A7E1B0E0E6E1F9E00C94AF304B8B5C8BCA
:101230006D8B7E8B8F8B61111092030486E09E0173
:10124000235F3F4FD901E82F1D92EA95E9F795E01A
:10125000FE017396D90101900D929A95E1F79C8950
:101260004E895F897B897D879E876F87598B488BE5
:10127000F901DE01179601900D928A95E1F7CE01F2
:1012800007960E94D81781113EC086E0FE0137966E
:10129000DE01119601900D928A95E1F7FF81E885B4
:1012A0006A857B856115710531F0EF3F31F481E08E
:1012B000FF3F19F403C081E001C080E080FD23C03E
:1012C0002091D30230E0C90101968770992740919F
:1012D000040350E08417950779F1F983EA837D834D
:1012E0006C8396E0929FD001939FB00D1124AC5275
:1012F000BD4FFE01319601900D929A95E1F78093D2
:10130000D3020E94651716E0809104039091D302E6
:101310008917F9F0189FC00111248C529D4F0E942B
:10132000D8178823B1F08091040390E0019687706C
:10133000992780930403E8CF0E948E2E1092D30247
:1013400010920403EDECF2E086E0DF011D928A9535
:10135000E9F76796E3E00C94CB30CF92DF92EF92FF
:10136000FF926C01EE24FF24C114D104E104F104C6
:1013700021F0C701B60120E101C020E0C72ED82E20
:10138000E92EFF24C114D104E104F10419F0285F0F
:10139000C701B6016B017C0154E0F694E794D79441
:1013A000C7945A95D1F7C114D104E104F10419F09E
:1013B0002C5FC701B6016B017C0142E0F694E79413
:1013C000D794C7944A95D1F7C114D104E104F1042C
:1013D00019F02E5FC701B601DC01CB01B695A795C8
:1013E00097958795892B8A2B8B2B09F02F5F822F5E
:1013F000FF90EF90DF90CF9008950E948E2E2FEFF8
:1014000084E39CE0215080409040E1F700C0000060
:101410009AE088E10FB6F894A895809360000FBE1B
:1014200090936000FFCFCF92DF92EF92FF926B011B
:101430007C010E94AD0956985E9825982D982698B3
:101440002E9827982F98482F50E0FA013197E730CF
:10145000F105E0F4EA5AFF4F0C941032259A2D9AC8
:1014600030C0269A2E9A3BC0279A2F9A46C0259ABA
:101470002D9A269A2E9A4FC0259A2D9A04C0259A05
:101480002D9A269A2E9A279A2F9A55C0823039F192
:1014900028F4882341F08130A1F04DC0833069F1F8
:1014A0008430C9F148C08091AC0281116CC00E94A7
:1014B000D62881E00E94D22820E040EE6AE880E051
:1014C00037C08091AC0281115EC00E94D62881E0B5
:1014D0000E94D22820E044EC6CE588E429C0809189
:1014E000AC02811150C00E94D62881E00E94D2280F
:1014F00020E04CED6EE785E91BC08091AC028111C4
:1015000042C00E94D62881E00E94D22820E04FEFFE
:101510006FEF89E20DC08091AC02811134C00E944E
:10152000D62881E00E94D22820E040ED68E98FEBC8
:101530000E94AB2628C08091AC02811124C088E0B3
:1015400090E00E944B316093FC037093FD03809305
:10155000FE039093FF03862F60FF13C0816080938A
:10156000FC0386950E94DF288091FC0386950E94EB
:10157000DF2821E04091FF036091FE038091FD038D
:10158000D7CF0E94DD25C701B601FF90EF90DF9015
:10159000CF90089580E290E0909317018093160118
:1015A0008091940281110EC00E94B82F81E0809337
:1015B00094022FEF83ED90E3215080409040E1F7BB
:1015C00000C0000064E670E080E40E94BE2F9093AB
:1015D000170180931601892B09F04EC064E670E074
:1015E00080E00E9433309093170180931601892B7D
:1015F00009F042C064E670E080E00E9433309093CE
:10160000170180931601892BB9F564E670E08FE32A
:101610000E9433309093170180931601892B61F556
:101620000E94883064E670E080E40E94BE2F9093B0
:10163000170180931601892BF9F464E670E08CE0C1
:101640000E9433309093170180931601892BA1F4E7
:1016500064E670E080E00E9433309093170180933D
:101660001601892B49F464E670E08FE30E94333061
:1016700090931701809316010E9488308091160183
:101680000895CF93DF9356985E9825982D982698C5
:101690002E9827982F98C8E8D0E08FEF90E0998394
:1016A0008883AAE8B0E011969C938E93ECE8F0E072
:1016B00091838083259A2D9A2FEF80E792E0215025
:1016C00080409040E1F700C00000269A2E9A2FEF4C
:1016D00080E792E0215080409040E1F700C0000098
:1016E000279A2F9A2FEF80E792E021508040904078
:1016F000E1F700C0000025982D982FEF80E792E0D9
:10170000215080409040E1F700C0000026982E98BC
:101710002FEF80E792E0215080409040E1F700C039
:10172000000027982F988091350387702FEF829FB4
:10173000C00111249595879595958795992799834B
:10174000888311969C938E939183808356985E989C
:1017500025982D9826982E9827982F98DF91CF912D
:101760000895CF93E82F873080F5809116019091EE
:101770001701892B09F047C0CE2F64E670E080E4A2
:101780000E94BE2F9093170180931601892BD1F4EC
:1017900064E670E082E10E943330909317018093F9
:1017A0001601892B79F481E090E001C0880FCA9579
:1017B000EAF764E670E080950E9433309093170159
:1017C000809316010E9488301EC090E0FC0137977C
:1017D000E730F105C0F4E35AFF4F0C941032209A21
:1017E000289811C0219A29980EC0229A2A980BC0D5
:1017F000239A2B9808C0529A5A9805C0539A5B981E
:1018000002C03E9A4698CF91089520982898219832
:10181000299822982A9823982B9852985A98539846
:101820005B983E9846980895CF93873040F5809115
:10183000160190911701892B59F564E670E081E457
:101840000E94BE2F9093170180931601892B11F0EF
:10185000C0E011C084E690E00E94633097FF05C0AD
:101860009093170180931601F3CFC82FC095109263
:101870001701109216010E9488308C2F0AC09FB168
:101880008FB1807F869586959370892B809501C056
:1018900080E0CF9108958098889A8198899A849859
:1018A0008C9A85988D9A86988E9A87988F9A0895A3
:1018B000A5E2B0E0EEE5FCE00C94A230FC018081F2
:1018C000918123813481232B31F09F3F31F491E0CA
:1018D0008F3F19F403C091E001C090E090FDCAC7AA
:1018E0007F0185E0DE01919601900D928A95E1F7E6
:1018F000D70112962C9189A19AA1222349F00E9426
:10190000242D182F682F89A19AA10E94A22D03C00F
:101910000E946D2D182F69A17AA1812F0E94831436
:101920008C01F7018281811108C09091A603D70133
:1019300012968C91911142C08DC0809118019091A6
:101940001901019691F369E2C62E61E0D62EA12C11
:10195000B12C9924939480911801909119018A15C2
:101960009B051CF3F6018681882309F18185928508
:101970008017910739F48091010490910204801737
:101980009107A9F0D6011F969C921F971C961C9355
:101990000E931B9751968C91811103C0C6010E9432
:1019A0006A2CC60106960E94892C10920304BFEF90
:1019B000AB1ABB0AE6E1CE0ED11CCDCF81113AC7DE
:1019C000E091AB02E330A0F481E08E0F8093AB0294
:1019D000F0E0EE0FFF1FE459FC4FD7018D919C9171
:1019E0009183808382E08983CE0101960E94D52471
:1019F000BFEFE3EDF0E3B150E040F040E1F700C0AD
:101A000000008091AB02833009F014C71092AB0242
:101A1000E2E7F3E0ACE6B3E0918111968C91119787
:101A200098132FC090818C9198132BC032961296E8
:101A300003E0E837F00781F784E0898381E0809351
:101A4000A7038EEF8A831092A603CE0101960E940F
:101A5000D524F0C69091A7039923C1F0882311F0F3
:101A600086E001C087E08983D7018C918A83119633
:101A70008C918B838EEF8C83CE0101960E94D524AE
:101A800005C083E089831092A703DBCFD7011296AC
:101A90009C910F3ABDE51B0709F040C0992309F45A
:101AA00070C19091350381E0890F8770987F8530F0
:101AB00020F4892B8093350302C0909335038091E5
:101AC00035038770BFEF8B9FC001112495958795D3
:101AD0009595879599279093890080938800909396
:101AE0008B0080938A0090938D0080938C004091AE
:101AF00035035091360360913703709138038FE0BE
:101B000090E00E947931609148037091490380917F
:101B10004A0390914B030E94130A33C1013BEDE548
:101B20001E0709F4CDC0023BFDE51F0731F0003B65
:101B30002DE5120709F4C8C0D1C0992309F421C1C9
:101B400024EAC22E21E0D22E3AE0432EF60124915F
:101B5000222309F416C1213009F04EC03196849138
:101B6000813069F4F2E0CF0ED11CF6018491893303
:101B700019F460E570E09CC060E070E099C08230CC
:101B800041F4F2E0CF0ED11CF60184910E94FB2EAD
:101B900093C0833041F4F2E0CF0ED11CF601849162
:101BA0000E94C62E89C0843009F085C0F2E0CF0EB5
:101BB000D11CF601249180E090E030E020533109FF
:101BC0002A30310570F4489EA001499E500D112421
:101BD000C901840F951FFFEFCF1ADF0AF601249188
:101BE000ECCF009709F468C0AFE9BFE01197F1F7B7
:101BF00000C000000197F5CFE22FF0E0EC5DFE4F52
:101C00005490822F86958695869590E0FC01EC5E37
:101C1000FE4F64902770712C022E02C07594679459
:101C20000A94E2F7B1E06B227724FC01EC5FFE4FEF
:101C30008490912C022E02C0959487940A94E2F726
:101C4000E1E08E229924FC01EC50FF4FA490B12CCE
:101C500002C0B594A7942A95E2F7F1E0AF22BB2425
:101C60006114710419F081EE0E94FB2E811491041D
:101C700009F4F7C586EE0E94FB2E29E3521609F4FB
:101C8000EAC560E070E0852D0E94A02F81149104C8
:101C900019F086EE0E94C62E6114710419F081EECF
:101CA0000E94C62EA114B10439F060E070E08CE20D
:101CB0000E94A02F01C06F013FEFC31AD30A46CF85
:101CC000992309F4B7C560C2992309F4B3C590916B
:101CD000AC0281E089278093AC02ACC598013755EE
:101CE0002F3F310511F008F04CC040911801509180
:101CF00019014217530724F4309319012093180156
:101D000086E1829F5001839FB00C1124D501A75D0D
:101D1000BE4F6D0150969C935097F7019281169695
:101D20008C911697992309F4B3C21A961C930E93BB
:101D300019978F5F16968C930E94D42BD6011E960E
:101D40009C938E931D978091260317968C931797DB
:101D50009091030480910404892B18968C93189712
:101D6000ED91FC911197C501815D9E4F309729F04F
:101D700054966D917C9155970995109302040093A8
:101D80000104D70112968C91882309F446C10430CE
:101D9000BDE51B0758F40B3FECE51E0780F4C801B6
:101DA00082509C45449708F006C209C00336FDE501
:101DB0001F0729F0073A2DE5120709F0FCC10E9420
:101DC0003616909311048093100401313CE51307FB
:101DD00009F4C9C008F043C009309CE5190709F4AB
:101DE0009EC008F50530BCE51B0709F488C080F4E7
:101DF0000330FCE51F0709F47BC008F07DC002300A
:101E00003CE5130709F0F9C0809110048160F3C02C
:101E100007308CE5180709F47AC008F07CC080917F
:101E200010048061E8C00D30ACE51A0709F489C0E0
:101E300058F40B30ECE51E0709F47BC008F07DC0B8
:101E400080911004886071C00F302CE5120709F4EE
:101E500082C008F084C080911004877FCCC00E3F00
:101E60008CE5180709F473C008F50531ACE51A07CD
:101E700009F487C068F40331ECE51E0709F477C064
:101E800008F097C00E948E2E809110048F77B3C007
:101E90000C3F2CE51207B9F108F056C00B3F8CE55A
:101EA000180709F0AAC08091110441C002309DE5D5
:101EB000190709F48AC058F40115BDE51B0709F498
:101EC0005BC008F06AC080911104826030C00336A4
:101ED000FDE51F0709F47FC0073A2DE5120709F455
:101EE00084C003303DE5130709F087C060E06EC091
:101EF0008091100482607FC08091100416C0809190
:101F00001004886078C08091110482604FC0809175
:101F10001004806270C08091100480646CC00E94C4
:101F20008E2E80911004806866C0846064C08160D9
:101F30003DC0809110048E7F5EC0809110048D7F23
:101F40005AC08091100416C08091110418C080916D
:101F500011048D7F2BC0809110048F7E4CC0809126
:101F600010048F7D48C0809110048F7B44C0809105
:101F70001004877F8B7F3FC0809111048D7F8E7FFF
:101F800015C08091100482FB222720F991E092274E
:101F900090FB82F990FB83F92EC080911104982F59
:101FA000909591708E7F892B90FB81F9809311041D
:101FB00024C00E948E2E8091100487FB222720F9D6
:101FC00091E0922790FB87F916C061E08EE090E0E7
:101FD0000E94673112C08091100484FB222720F9EF
:101FE00091E0922790FB84F906C080911004982F0D
:101FF000909590FB80F980931004609110041091EB
:10200000110484E090E00E946731612F82E290E049
:102010000E9467310E948E2E0DC48091040482724A
:102020000D3C9CE5190709F4A8C008F045C0073C21
:10203000BCE51B0709F48DC0D8F4043CFCE51F0780
:1020400009F47DC030F4033C3CE5130709F46BC090
:102050002DC1053C9CE5190709F476C0063CACE5AA
:102060001A0709F023C148E557E262E677E289C022
:102070000A3CBCE51B0709F476C078F4083CFCE593
:102080001F0709F46BC0093C2CE5120709F00EC1CB
:102090004BE457E26EE377E274C00B3C3CE5130778
:1020A00009F466C00C3C9CE5190709F0FFC049EB38
:1020B00055E26BEC75E265C0023DACE51A0709F428
:1020C0006BC0A0F40F3CECE51E0709F45FC008F4F8
:1020D0005BC0003D2CE5120709F45BC0013D3CE507
:1020E000130709F0E3C06EE089E05EC0053D8CE5B2
:1020F000180709F457C060F4033DACE51A0709F46A
:102100004EC0043DBCE51B0709F0D0C088E150C0BB
:10211000063DECE51E0709F44AC00F35FDE51F0733
:1021200009F488C3C3C08091FC0380FF03C00E94F0
:10213000DD2580C381608093FC03869539C043EE22
:1021400058E26DEE78E21DC04DEE58E263EE78E2A3
:1021500018C042E657E268E577E213C04EE357E263
:102160006BE477E20EC044E257E261E377E209C034
:1021700041E357E264E277E204C04BEC55E269EBDD
:1021800075E20E94012D56C381E012C065E082E035
:102190000BC068E086E008C064E18FE005C067E13D
:1021A00085E102C062E289E10E94EE2C43C383E232
:1021B0000E94DF283FC30C352DE5120709F462C0E9
:1021C00060F401158CE51807A9F00F3D9CE519078F
:1021D00009F06CC00E9447164AC00E35ADE51A07DB
:1021E00009F448C008F450C0093AEDE51E0709F4A7
:1021F0003EC05CC00E948E2EFFEF04E31CE0F15055
:1022000000401040E1F700C00000F89481E08093A6
:10221000E00080E28093D8001092C9008FE19EE434
:102220000197F1F700C000001DBA109268001CBCB5
:1022300010BE1FBA10927A0010926E0010926F00BA
:1022400010927100109272001092C9001092BC009E
:1022500014B817B81AB81DB810BA1092BC0015B847
:1022600018B81BB81EB811BA0C94003FE3C20E9404
:10227000FD09E0C28091110482FB882780F991E07A
:10228000892703C081E001C080E00E9449170EC089
:10229000882309F476CDFD018189882309F471CD65
:1022A000C501815D9E4F0E94892C6BCDF701828113
:1022B00000811181882349F0C8010E94242DD82E65
:1022C000682FC8010E94A22D04C0C8010E946D2D74
:1022D000D82EB8018D2D0E9483140E949C148C016D
:1022E000982EF701D280B580B2949FE0B9228091F8
:1022F00005038770B9F0DD20A9F0812F807F80343D
:1023000021F080E2800F883068F08091110482FF14
:1023100009C082E00E942C17809105038770CC24AD
:10232000C3948111C12CA12EA2948FE0A8228A2DE2
:1023300090E08C30910508F04FC2FC01EC59FF4F42
:102340000C941032812F807F1F70882311F012951A
:10235000107FDD20B9F0112309F42BC280E2800F39
:10236000883010F0911006C080910404182B10934F
:10237000040405C080910304182B109303040E94E9
:10238000D71617C2802F0E94C62E112309F424C22B
:10239000005E812F083060F1992051F10E94C9162A
:1023A00029C0812F807F1F70803211F01295107F1D
:1023B000992021F0F1E09F16D9F147C080911104D6
:1023C00082FD1BC0DD2069F0112339F080910404E7
:1023D000182B109304040E94D71680E00E94FB2E55
:1023E000FBC180E00E94C62E112309F4F5C1812FA4
:1023F0000E94D0160E94D716EFC1DD2081F0809197
:102400002603BB2051F001E0B01207C0182B1817AB
:1024100009F4E2C110932603DFC1812B10C0BB2059
:1024200021F021E0B21609F4D7C10E94C3161FC0E3
:10243000DD2041F031E03B1508F4CEC1812F0E9430
:10244000BC2ECAC1B110C8C112C0DD2019F0BB201A
:10245000A9F3AFC1BB2059F0093309F0BAC18FEF1E
:1024600097EEA3E081509040A040E1F7B0C1812FEA
:102470000E94B52EB1C1812F86958695837019F083
:10248000813059F0A9C1DD2019F0C801937002C054
:1024900080E090E00E94472CA5C1DD2019F0C80122
:1024A000937002C080E090E00E94312C9BC1802F8D
:1024B000DD2019F00E94262802C00E946C270E948D
:1024C000F82890C1812F837009F069C0D11088C1AC
:1024D000902F929596959770990F990F802F8F70E6
:1024E000882E912CA12CB12C092E04C0880C991C8B
:1024F000AA1CBB1C0A94D2F704FF12C04FE050E0A4
:1025000060E070E004C0440F551F661F771F9A9566
:10251000D2F7DB01CA0180959095A095B09503C0D4
:1025200080E090E0DC0116951695412F4370423013
:1025300019F1C8F400912703109128032091290371
:1025400030912A03413059F088299929AA29BB29B9
:10255000BC01CD0160237123822393230AC0802A0A
:10256000912AA22AB32ABC01CD01682979298A2996
:102570009B290E94632E34C188299929AA29BB2945
:1025800000912703109128032091290330912A03F9
:10259000BC01CD016027712782279327EACFDD2078
:1025A00019F0812F817001C08695882309F418C124
:1025B000902F929596959770990F990F802F8F7005
:1025C000882E912CA12CB12C092E04C0880C991CAA
:1025D000AA1CBB1C0A94D2F704FF12C04FE050E0C3
:1025E00060E070E004C0440F551F661F771F9A9586
:1025F000D2F7DB01CA0180959095A095B09503C0F4
:1026000080E090E0DC0116951695412F4370423032
:10261000D9F068F5009148031091490320914A03CD
:1026200030914B03413059F088299929AA29BB29B7
:10263000BC01CD0160237123822393231EC0802A15
:10264000912AA22AB32A13C088299929AA29BB2929
:10265000009148031091490320914A0330914B03A4
:10266000BC01CD01602771278227932706C0BC01DA
:10267000CD01682979298A299B290E94D82DB0C0CB
:102680001F70DD2039F0812F0E94412E802F0E9483
:10269000BC2EA6C0802F0E94B52E812F0E941B2E1B
:1026A0009FC0802FB2EF9B1609F441C0B91538F0D6
:1026B000E0EF9E1659F0F1EF9F16A1F175C023EFE0
:1026C0009216E1F134EF931649F16EC0DD2009F165
:1026D000B11082C01F7181E090E0A0E0B0E0AC01D9
:1026E000BD0104C0440F551F661F771F1A95D2F70E
:1026F0008091480390914903A0914A03B0914B0304
:102700008A019B01082719272A273B27C901B801FD
:1027100029C021E02B1508F45FC0DCCF80911104A3
:1027200082FD23C0DD2029F0812F8F7130C0DD2094
:10273000D9F3812F8F710E941B2E4EC0DD2079F0BE
:102740001F7181E090E0A0E0B0E0BC01CD0104C0C9
:10275000660F771F881F991F1A95D2F703C060E094
:1027600070E0CB010E94D82D37C0DD2099F01F7199
:10277000812F0E94412E8091110482FF07C038E012
:10278000139FC0011124836080930503812F0E9451
:10279000412E22C081E00E942C1781E08B15E0F4CD
:1027A00082E00E942C1718C0DD2029F0BB2009F41C
:1027B000BBCF802F13CEBB2009F4BBCF893349F4A4
:1027C0009FEFA7EEB3E09150A040B040E1F700C00A
:1027D0000000802F0E94C62E88EF8A0D843010F4EE
:1027E0000E945D2CCC20A9F08091050380FD11C0D2
:1027F000F70112828595859585950E94412EC70126
:102800000E94580C809105038595859585950E94B9
:102810001B2E85E0F701DE01119601900D928A953D
:10282000E1F709811A81C8010E946D2DB8010E944B
:10283000831420C0809105038770E1F0D7011296C0
:102840008C918823B9F08091110482FF13C082E03B
:102850000E942C170FC060E570E089E30E94A02F52
:1028600018CAF9E35F120DCA60E570E089E30E94BF
:10287000A02F12CAA596E0E10C94BE3080E0089526
:102880009091100492FF0DC0282F2871283019F460
:10289000877F846006C0282F2471243011F48B7F39
:1028A000886093FF0DC0282F2871283119F4877E86
:1028B000846106C0282F2471243111F48B7E886135
:1028C0002091110420FF0DC0382F3871383019F4D1
:1028D000877F816006C0382F3171313011F48E7FCF
:1028E000886021FF0DC0282F2871283119F4877EB8
:1028F000816106C0282F2171213111F48E7E8861FB
:1029000094FD877E08957E30A0F4663090F494E5BF
:10291000899FF001112486E0789FE00DF11D1124BC
:10292000E60FF11DEE0FFF1FE654FE4F85919491C7
:10293000089580E090E00895CF93DF938238910569
:1029400069F1B0F48133910509F46FC048F489321C
:10295000910509F465C08A32910509F46BC08AC0FB
:102960008533910509F457C089339105B9F082C0C8
:10297000833E910571F138F4803E9105B1F0823EBD
:10298000910511F177C0863E9105B9F1873E910519
:10299000C9F1843E910509F06DC024C02091100456
:1029A00020FD53C021FD51C065C08091100480FD01
:1029B00046C08091110480FF48C08091100484FDBE
:1029C00050C183EE90E04FC18091100482FF3AC065
:1029D000F4CF8091100482FD35C08091110480FDF8
:1029E00034C0EBCF8091110481FF35C08091100479
:1029F00084FD37C187EE90E036C18091100483FFDB
:102A000027C0F4CF8091100483FD22C0809111046F
:102A100081FD21C0EBCF8091100485FD1FC021C036
:102A20008091100485FD1DC019C08091100486FDA1
:102A30001BC01DC08091100486FD19C015C089E31C
:102A400090E011C182EE90E00EC180EE90E00BC1EB
:102A500086EE90E008C184EE90E005C189E290E046
:102A600002C185E390E0FFC08AE290E0FCC081E310
:102A700090E0F9C0811531E5930708F069C0811530
:102A800040E59407F0F09C0174E0369527957A951F
:102A9000E1F7922F9370482F437021E030E002C09D
:102AA000220F331F4A95E2F73C68392B982F9F700D
:102AB0009695969540E2949FC0011124822B932B0A
:102AC000D2C0883E910568F5803E910508F0CBC0E4
:102AD000883A9105B8F4853A910548F0855AE82F6F
:102AE000F0E0E55EFD4F808190E09064BCC08130F5
:102AF000910509F4B3C008F4B4C08430910508F41A
:102B0000B0C0B1C08F3B910508F0ABC0885AE82F28
:102B1000F0E0EE0FFF1FE25EFD4F80819181946433
:102B2000A2C0811520E2920758F4811531E0930785
:102B300008F099C08D3E910508F493C0906593C04C
:102B4000811540E4940708F48CC09F70906A8BC094
:102B5000811525E5920708F042C0811534E59307F9
:102B600028F0982F8827846F906A7DC0811543E5EF
:102B70009407B0F09C012370332741E050E002C07D
:102B8000440F551F2A95E2F7282F2695269580E2B7
:102B9000289F90011124CA01822B932B9A6863C04D
:102BA000811522E5920728F4982F8827816F906A73
:102BB0005AC09C012370332741E050E002C0440F0B
:102BC000551F2A95E2F7282F2695269580E2289F03
:102BD00090011124CA01822B932B9C6844C0EC0104
:102BE000811539E59307A8F48115984528F09C2FA5
:102BF0008827806F906A37C0C11586E5D80788F5A9
:102C00008C2F0E9440148F7190E0982F882790623B
:102C10002AC081152AE5920790F48C2F8F700E94AC
:102C2000401494E0D695C7959A95E1F7CF70D0E01F
:102C3000DC2FCC27D0699E01282BC90114C09056E7
:102C40008115904270F48D2F8F710E944014282FAF
:102C50002F71CE0199279062922B05C081E090E000
:102C600002C080E090E0DF91CF910895CF9384E09F
:102C700090E00E944331C82F82E290E00E944331ED
:102C80002C2F30E0A901582BCA01CF91089568EE8E
:102C90007EEF80E090E00E94853160E082E090E08D
:102CA0000E94673160E083E090E00E9467311092FB
:102CB0002703109228031092290310922A0360E040
:102CC00084E090E00E94673164E082E290E00E943C
:102CD000673160E085E090E00E94673160E086E067
:102CE00090E00E9467316FEF87E090E00E946731CB
:102CF00040E050E0BA0188E090E00E94793160E065
:102D00008DE090E00E94673140E050E0BA0188E138
:102D100090E00E94793160E087E190E00E946731A5
:102D200040E050E0BA018CE190E00E94793160E02F
:102D300070E080E290E00E94853140E050E0BA010E
:102D400088E190E00E9479311092350310923603A9
:102D5000109237031092380384E08093350340913A
:102D600035035091360360913703709138038FE03B
:102D700090E00E94793140E050E0BA0183E190E0B8
:102D80000E947931089580912603811110922603C3
:102D900008958095909103048923809303040895F6
:102DA0008095909104048923809304040895909160
:102DB000040480910304982B9093AD028091260324
:102DC0008823D9F0892B8093AD0280911A01882342
:102DD00031F08091100487FF02C08EE101C086E0CF
:102DE000EFEAF2E090E0815028F021912223D9F31C
:102DF0009F5FF9CF91110E94C31640E250E066E058
:102E000073E08DEA92E00E945F33892B21F180E22A
:102E1000EDEAF2E0A6E0B3E001900D928A95E1F7C9
:102E2000E0910704F09108043097A9F080911A010D
:102E3000882359F08091100487FF07C08091AD026C
:102E40008093AE0286E08093AD020280F381E02D94
:102E50008DEA92E0099508952091050380958223DB
:102E600080930503982F977099F430E0482F082E2F
:102E7000000C550B2417350759F09091110492FF5F
:102E800007C08595859585950E941B2E1092050398
:102E90000895CF93C0911104C2FB992790F9981718
:102EA00091F080FBC2F9C09311046091100484E09A
:102EB00090E00E9467316C2F82E290E00E946731BF
:102EC00082E00E942C17CF91089580910403909185
:102ED000D302891719F08F5F8770FBCF08950F9386
:102EE0001F93CF93DF938091D20282958F7009F068
:102EF0005AC08091CF02882309F455C08091040301
:102F00001091D3026091CD027091CE02C091D00297
:102F1000D091D10291E06F3F09F090E0292F06E0B7
:102F2000811709F440C0209721F07F3F21F030E065
:102F300003C031E001C0322F90E030FD31C0089F66
:102F4000F001099FF00D1124DF01AC52BD4F119625
:102F50003C911197371324C03C91361321C012962F
:102F60003C91129731111CC013964D915C911497AE
:102F70004C1B5D0B483C510598F48091D2028F7038
:102F800080618093D202E752FD4F80818F70806113
:102F900080838DEC92E00E94580C0E94651703C05C
:102FA00001968770BDCFDF91CF911F910F9108954A
:102FB000A1E1B0E0EEEDF7E10C94A7308C0185E0E3
:102FC000F801DE011D9601900D928A95E1F7F80156
:102FD000E2809091CD026091CE024091D00250915A
:102FE000D1024115510531F06F3F31F481E09F3F2F
:102FF00019F403C081E001C080E0F82FF1709F2E2A
:1030000080FD1BC1F80130812181C380D4808DEC0B
:10301000A82E82E0B82EF090CF02F601E41BF50B4B
:10302000FF2009F4C7C08091D202E83CF10508F006
:1030300092C0482F407F09F051C0621311C0931312
:103040000FC0FE2CE1100CC08F7080618093D20203
:10305000C5010E94580C8091D202F80185832AC1D3
:10306000C114D10431F02F3F31F481E03F3F19F416
:1030700003C081E001C080E080FD03C081E08E25B7
:1030800002C080E090E0F82FF170FF2E80FF1CC09E
:10309000809104034091D30256E0841709F4E8C0FC
:1030A00090E0589FF001599FF00D1124EC52FD4F14
:1030B0006181261306C06081631303C06281E6123A
:1030C00003C001968770E9CFFE2CEE2009F4F2C010
:1030D0008091D20281608093D20249C0621306C0FF
:1030E000931304C0E11002C0F80186C0C8010E9419
:1030F0006E2E882351F1EE2041F12091D202822FD1
:1031000082958F7090E0029774F08091CD0290913B
:10311000CE0298878F831986DB86CA862C87CE01DC
:1031200007960E94580C86E0F801ADECB2E00190E1
:103130000D928A95E1F70E946F170AC06217C9F0D5
:10314000C8010E946E2E81111EC0C8010E94580C39
:10315000FF24F394AFC0482F407F81F78DEC92E0BD
:103160000E94580C86E0F50111928A95E9F7F12C3E
:10317000A1C09313E5CFE110E3CFF8018583C80127
:103180000E94580C54C0EE2001F32091D202822FED
:1031900082958F7090E0029734F28091CD029091E9
:1031A000CE029A8389831B82DD82CC822E83CE015C
:1031B0000196B7CFE83CF105D0F5FE2CEE2029F2C0
:1031C000621327C0931325C02091D20220FD18C09E
:1031D000822F82958F70482F50E04115510581F064
:1031E000F80125834F30510541F08F5F982F92955C
:1031F000907F822F8F70892B8583C8010E94580C85
:1032000086E0F801ADECB2E001900D928A95E1F70D
:1032100051C0C8010E946E2E811185CF8091D202CB
:1032200081608093D202C8010E94580C43C086E09E
:10323000F50111928A95E9F73DC0EE2009F485CF9A
:10324000C8010E946E2EF82E882309F47ECF86E0F6
:10325000F801ADECB2E001900D928A95E1F7809112
:10326000CD029091CE020E94602D0E946F1722C065
:103270003D872E878D859E850E94602D292F229562
:103280002F70223028F49F7039F0811105C00BC0D7
:10329000243028F49F7049F4805E883020F0C80103
:1032A0000E94580C9F2CF92C05C0F8019581907F45
:1032B00099F7F9CF8F2D6196EBE00C94C330A0E025
:1032C000B0E0E5E6F9E10C94A93080911601909107
:1032D0001701892B91F080912B038F5F80932B0333
:1032E00081110BC00E94CA0A90E09093170180934D
:1032F0001601892B11F40E94410B09E313E07801B8
:10330000B12CC0E087E0C82ECC0E8C2F0E94B10BF0
:103310008C2D0E94B10B8C2F0E94140C8F73F7011F
:103320009081891721F08083DD24D39401C0D12CB2
:103330008C2D0E94140C8F73F7019781891719F057
:10334000878381E001C080E0D82ABD280E94050C57
:10335000CF5FFFEFEF1AFF0AC730A1F6C0912F032E
:10336000CC23C9F10E94D42B20912D0330912E0340
:10337000AC01421B530B9A0190932E0380932D03B3
:103380004F3F510509F020F4452B09F4AEC002C0AF
:103390002FEF30E010922F0310922C03E0913303B3
:1033A000F0913403AF01425F5F4F90E030E08081E5
:1033B000882341F0281718F010829C2F03C0821B2D
:1033C00080833C2F3196E417F50789F730932F035C
:1033D00090932C038AC0BB2009F47EC00E94D42B9A
:1033E00090932E0380932D03E0913303F0913403E7
:1033F00080912F03AEE4B3E09F01225F3F4F4EE187
:10340000E80199918E015C91591731F05081511169
:1034100003C040839C9381E031961196E217F30735
:1034200079F780932F032091A60380913103909127
:103430003203222309F43FC0892B31F425982D98BB
:1034400026982E9827982F988091310390913203D7
:103450009170892B79F480913003882319F0269894
:103460002E9802C0269A2E9A9091300381E08927E7
:1034700080933003809131039091320381309847DB
:1034800080F01092A60360914803709149038091E7
:103490004A0390914B030E94130A10923203109238
:1034A000310380913103909132030196909332035E
:1034B000809331031EC0892BE1F0109232031092E9
:1034C0003103609148037091490380914A039091C0
:1034D0004B030E94130A0DC080E090912C039923A6
:1034E00009F4A1CF811180CF79CFB1107DCF81E0D8
:1034F000F4CF8B2DCDB7DEB7E9E00C94C530ACE549
:10350000B0E0E5E8FAE10C94A53085B7806885BFA6
:1035100085B7806885BF84B7877F84BF0FB6F8946E
:10352000A89580916000886180936000109260008F
:103530000FBE90E080E80FB6F894809361009093FE
:1035400061000FBE8EE394E1909393028093920208
:103550000E9427230E9446238091E200846080938A
:10356000E20078948091A8038823A1F01091E900EB
:103570001F709091EC00892F817090FD80E8182BCE
:103580001092E9008091E80083FD0E9413201F70D3
:103590001093E90082E084BD93E095BD9AEF97BD5A
:1035A00080936E000E94CA0A90E090931701809366
:1035B00016010E94050C0E944B0CE9E3F3E0AEE417
:1035C000B3E011921D9223E0E734F207D1F78EE0C9
:1035D00090E00E9431328093330390933403FC01D6
:1035E0000E961192E817F907E1F789EA80938000B7
:1035F00089E08093810024982C983F988AB18F7C31
:103600008AB96E98479A8BB180638BB9769A8FE0AE
:1036100090E00E944B3160933503709336038093A2
:1036200037039093380367703FEF639FB001112415
:103630007595679575956795772770938900609361
:10364000880070938B0060938A0070938D00609364
:103650008C000E94410B80E090E00E945131883E36
:103660009E4F11F00E94471682E090E00E94433185
:1036700080935C030E94361690931104809310048B
:1036800083E090E00E944331682F70E080E090E09A
:103690000E94632E609148037091490380914A0310
:1036A00090914B030E94130A80914703811135C00A
:1036B00080E090E00E945131883E9E4F21F00E94B0
:1036C00047160E94F62588E090E00E944B316093F7
:1036D000FC037093FD038093FE039093FF036E7FC2
:1036E00071F40E94F62588E090E00E944B316093CF
:1036F000FC037093FD038093FE039093FF030E94ED
:1037000093251092BC038091FC0380FF03C0869533
:103710000E94D22881E08093470360914803709112
:10372000490380914A0390914B030E94130A8AE057
:1037300091E09093080480930704B8E1EB2EF12CFC
:1037400010E4D12E8091A803853009F07BC0CC24F1
:10375000C39400E112E18091A803853009F065C0AF
:103760008091A803843009F43DC01092BC0380917D
:103770004D03811116C0C0924D038091FC03982F18
:10378000917090934C038E7F8093FC03FFEF20E7B2
:1037900032E0F15020403040E1F700C000000E94CC
:1037A000012510920B040FB6F894A895E0926000E2
:1037B0000FBED092600083B7817F846083BF83B7E0
:1037C000816083BF7894889583B78E7F83BF0FB65F
:1037D000F894A895809160008861809360001092B1
:1037E00060000FBE80919C03882309F4B4CF0E942F
:1037F000CA0A90E090931701809316010E94050C6D
:103800000E944B0CEEE4F3E0119243E0EC35F40738
:10381000D9F70E945F19EEE4F3E08191811127C38B
:1038200083E0EC35F807C9F796CF0E948E2E0E94F0
:103830005D2C10924D0380914C0381110E94D6287B
:103840000E9481280E945F19882359F08FB7F8944D
:1038500040910C0450910D0460910E0470910F047E
:103860008FBFEDE5F3E0AEE4B3E000E010E0302F11
:103870002D9191919227A1F180E0BB24B394492F1F
:103880004B2151F164968FAF649765963FAF659772
:103890002B2181E009F480E066968FAF66970E9445
:1038A000D42B8160782F68969FAF8EAF689764960F
:1038B0004FAD649765965FAD659766966FAD6697F9
:1038C00068968FAD68970E941009F801E35AFC4F83
:1038D0008081B826B0822AC08F5FBB0C863079F613
:1038E0000F5F1F4F0E30110509F0C1CF8FEF6996A2
:1038F0008FAF69976A968FAF6A976B961FAE6B977B
:103900000E94D42B8160782F6D969FAF8EAF6D97FC
:1039100069964FAD69976A965FAD6A976B966FAD82
:103920006B976D968FAD6D970E941009809118016D
:1039300090911901019641F1C12CA6E17A2E1BC08C
:103940007A9CF0017B9CF00D1124E75DFE4F82888C
:1039500093888114910419F4F8EC8F2E912C7A9CA1
:1039600080017B9C100D1124075D1E4FF80186819C
:1039700081110FC0C394AC2CB12C8091180190918F
:1039800019018A159B05E4F68091BC03811119C0C9
:10399000ABC0858596850E94C52B8816990650F781
:1039A000F8018189811103C0C8010E946A2C7A9CA8
:1039B000C0017B9C900D1124815D9E4F0E94892C3B
:1039C000D9CF8091BB03E091FC03E695E81BE0931F
:1039D000B703823059F4F0E0E05FFA4FE4910E2F24
:1039E00010E0E0E6AE2EEBE2BE2E59C0863059F470
:1039F000F0E0E35FFA4FE4910E2F10E070E5A72EA0
:103A00007BE2B72E4CC0893061F4E695F0E0E65FCA
:103A1000FA4FE4910E2F10E06CEEA62E6AE2B62E5D
:103A20003EC08F3061F4E695F0E0E95FFA4FE49133
:103A30000E2F10E056E8A52E5AE2B52E30C0853183
:103A400059F4F0E0EC5FFA4FE4910E2F10E046E3FA
:103A5000A42E4AE2B42E23C08831A1F0833249F467
:103A6000E2E0F5E00591149136E1A32E3BE2B32E9E
:103A700016C0843271F404EF11E023E8A22E29E28B
:103A8000B22E0DC008E210E09BEBA92E99E2B92EF0
:103A900006C000ED17E082E2A82E89E2B82E8091E0
:103AA000B803882361F01092B8030E94D42B90933E
:103AB000B6038093B5031092BA031092B9030E9423
:103AC000D42BE091B503F091B6038E1B9F0B8F3F73
:103AD0009F4750F40E0F1F1F1093B6030093B503BA
:103AE00085EB93E0F501099585E0E0EBF3E0DE017D
:103AF000119601900D928A95E1F71092B103109200
:103B0000B2031092B3031092B4031A81111104C0CE
:103B10008B81882309F452C08091AE039091AF034A
:103B20000E94C52B9C019091AA03992309F4B5C169
:103B30002531310508F442C09F3F19F09F5F9093F3
:103B4000AA03112361F00E940328111614F09FEFBD
:103B500001C091E0899F802D11248093B1031B81C6
:103B6000112361F00E940328111614F09FEF01C089
:103B700091E0899F802D11248093B2033091B1038D
:103B80003323E1F02091B2032223C1F045EB34034B
:103B9000C0011124992319F09093B10303C081E06F
:103BA0008093B10335EB2303C0011124992319F04D
:103BB0009093B20303C081E08093B2031C81111182
:103BC00004C08D81882309F452C08091AC03909188
:103BD000AD030E94C52B9C019091A903992309F480
:103BE00060C12531310508F442C09F3F19F09F5F45
:103BF0009093A903112361F00E94E327111614F09A
:103C00009FEF01C091E0899F802D11248093B30321
:103C10001D81112361F00E94E327111614F09FEF1C
:103C200001C091E0899F802D11248093B4033091CD
:103C3000B3033323E1F02091B4032223C1F045EB19
:103C40003403C0011124992319F09093B30303C0E6
:103C500081E08093B30335EB2303C0011124992342
:103C600019F09093B40303C081E08093B40345E05E
:103C700050E0BE016F5F7F4F80EB93E00E945F33A7
:103C8000892BA9F48091B10381110FC08091B203F7
:103C900081110BC08091B303811107C081E0909125
:103CA000B403911103C080E001C081E080FD0E9457
:103CB000F82885E0FE013196A0EBB3E001900D926B
:103CC0008A95E1F70E945D2C90916B038913809394
:103CD0006B038091A803843009F034CD8093E90010
:103CE0008091E80082FF2ECD8091E80085FF22C000
:103CF0000E94782481111CC000E210E05E0141E2C4
:103D0000A40EB11C08C08091F100F50181935F0100
:103D10000150110969F08091E80085FDF4CF809190
:103D2000E8008B778093E8000E947824882399F339
:103D300091E001C090E08091E8008B778093E800EB
:103D4000992309F4FFCC89A18130E9F158F182303F
:103D500021F0843009F47DC0F5CC8BA19AA1909319
:103D60006C0380936D038DA19CA190936E0380934F
:103D70006F038FA19EA1909370038093710342E122
:103D800050E063E270E0CE018F5B9F4F0E943331C1
:103D900084E0898381E08093A7038EEF8A83109269
:103DA000A6030CC019828CE0ECE4F2E0DE0112966E
:103DB00001900D928A95E1F78EEF8D87CE010196E5
:103DC0000E94D524BFCC02E713E00E94CE2CF8015C
:103DD000819391938F01F3E008371F07B1F781E0DA
:103DE0008983909172039A83909173039B8390913E
:103DF00074039C83909175039D83909176039E83B9
:103E0000909177039F839EEF98878093A603CE01BE
:103E100001960E94D52442E150E063E270E0CE01B9
:103E200001960E943331FE01319682E183301CF00D
:103E30009189928B01C0128A815031978F3FB1F7DF
:103E400042E150E063E270E0CE0101960E945731FA
:103E500079CC8091A703882309F474CC60E070E0EA
:103E6000CB010E94D82D8AA10E94412E6BCC09BDA6
:103E700019BD09B400FEFDCF8091D8008F7D8093DD
:103E8000D8008091E00082608093E0008091E000A3
:103E900081FDFCCF0E948E2E5ECC232B09F04ECEEE
:103EA0008DCE2139314008F0A2CEE1CE80919E0323
:103EB00087FF11C08091E80082FD05C08091A803B2
:103EC0008111F8CF11C08091E8008B770BC08091F1
:103ED000A803882349F08091E80080FFF8CF809103
:103EE000E8008E778093E8000895982F973068F562
:103EF0009093E900981739F07091EC002091ED0053
:103F00005091F00003C0242F762F50E021FD02C015
:103F10009F5FECCF3091EB003E7F3093EB00309110
:103F2000ED003D7F3093ED003091EB003160309338
:103F3000EB007093EC002093ED005093F000209183
:103F4000EE0027FDE5CF80E008958F708093E900B3
:103F500081E008952091A4033091A5032617370727
:103F600048F06115710539F42091E8002E7720930F
:103F7000E80001C0B901FC0120E06115710579F18B
:103F80008091A8038823F1F18530F1F18091E80058
:103F900083FD3CC08091E80082FD2EC08091E80046
:103FA00080FFEBCF2091F3008091F20090E0922B04
:103FB0006115710551F08830910538F421912093F5
:103FC000F100615071090196F3CF21E0089709F0E3
:103FD00020E08091E8008E778093E800CECF211119
:103FE000CFCF0AC08091A803882361F0853061F0AB
:103FF0008091E80083FD0AC08091E80082FFF2CF43
:1040000080E0089582E0089583E0089581E00895B6
:104010000895BC0184E00E94742B0895BC0183E0E4
:104020000E94742B0895AAE2B0E0E9E1F0E20C945A
:10403000AF30EEE9F3E086EA93E02091F1002193BE
:104040008E179F07D1F780919F03833009F463C0D7
:1040500030F4813071F0823009F49DC0B4C08A30F0
:1040600009F489C08B3009F46EC0893009F0ABC007
:1040700020C080919E03813A09F0A5C08091E8009C
:10408000877F8093E8008091A2039091A303892BFE
:1040900021F460E28BE793E003C060E080E090E011
:1040A00070E00E94AA1F8091E8008B778093E8005F
:1040B0008AC080919E03813209F085C08091A2035D
:1040C0009091A303009719F0039709F07CC08091A9
:1040D000E800877F8093E8008091E80082FD05C0BA
:1040E0008091A8038111F8CF6EC02091F3008091D8
:1040F000F20090E0922B029731F48091F100813030
:1041000011F0863021F48091F10080937A03809140
:10411000E8008B7754C080919E03813A09F053C028
:104120008091A2039091A303892B09F04CC0809148
:10413000E800877F8093E8008091E80080FFFCCF53
:1041400080911A0137C080919E038132E1F5809100
:10415000A2039091A303892BB1F58091E800877F9A
:104160008093E8000E94561F8091A00380931A015B
:104170000E948E2E28C080919E03813221F580916D
:10418000E800877F8093E8000E94561F8091A1037A
:104190008093790318C080919E03813AA1F48091A5
:1041A000E800877F8093E8008091E80080FFFCCFE3
:1041B000809179038093F1008091E8008E7780935D
:1041C000E8000E94561F8091E80083FFE4C18091BF
:1041D0009E0390919F03492F50E04A30510508F00B
:1041E000DAC1FA01E059FF4F0C941032803821F007
:1041F000823809F0D0C108C080919B0390919C0344
:10420000992389F082600FC08091A2038F7087305C
:1042100008F0C1C18093E9008091EB0085FB8827FD
:1042200080F91092E9009091E800977F9093E80060
:104230008093F1001092F10070C1282F2D7F09F0BA
:10424000AAC1882319F0823061F0A5C18091A00332
:10425000813009F0A0C1933009F080E080939C0385
:104260002EC08091A00381112AC08091A2038F707B
:104270002FEF280F263008F08EC18093E90020919F
:10428000EB0020FF1CC0933021F48091EB00806292
:1042900014C09091EB0090619093EB0021E030E02E
:1042A000A90102C0440F551F8A95E2F74093EA0026
:1042B0001092EA008091EB0088608093EB001092EE
:1042C000E9008091E800877F8093E8000E94561FF4
:1042D00062C1811160C11091A0031F778091E3003A
:1042E0008078812B8093E3008091E800877F809322
:1042F000E8000E94561F8091E80080FFFCCF80916B
:10430000E30080688093E300111102C082E001C0E5
:1043100083E08093A8033FC18058823008F03BC1FE
:104320002091A0033091A1032C3D53E0350779F58E
:1043300083E08A838AE289834FB7F894DE0113967B
:1043400020E03EE051E2E32FF0E050935700E4918B
:1043500020FF03C0E295EF703F5FEF708E2F90E07B
:10436000EA3010F0C79601C0C0968D939D932F5FE1
:10437000243149F74FBF8091E800877F8093E800A0
:104380006AE270E0CE0101960E94AA1FB4C080913B
:10439000A2039091A303432F552743305105A9F061
:1043A00068F44130510509F405C14230510509F066
:1043B000F2C084E790E0EAE2F6E04BC041325105FA
:1043C00029F14232510589F1E6C0C90199278130AE
:1043D0009105A1F058F0029709F0DDC0E0EBF6E09E
:1043E000E4918E2F90E0E0EBF6E030C0EEEFF6E0E7
:1043F000E4918E2F90E0EEEFF6E028C0E4EDF6E0D9
:10440000E4918E2F90E0E4EDF6E020C08430910539
:1044100008F0C1C0880F991FFC01EC59FD4F0190B5
:10442000F081E02D89E090E014C08430910508F01F
:10443000B2C0FC01EE0FFF1FE45AFD4F0190F08166
:10444000E02DDC01A85ABD4F8C9190E0009709F453
:10445000A2C02091E800277F2093E8002091A403C8
:104460003091A5032817390708F4C90140E00097E7
:1044700089F12091A803222309F43DC02530D9F108
:104480002091E80023FD37C02091E80022FD2FC0D5
:104490002091E80020FFEBCF4091F3002091F20043
:1044A00030E0342B009759F02830310540F4449126
:1044B0004093F100319601972F5F3F4FF3CF41E0DA
:1044C0002830310509F040E02091E8002E77209354
:1044D000E800CDCF4111CDCF0AC08091A803882339
:1044E00051F0853041F08091E80083FD04C0809157
:1044F000E80082FFF2CF8091E8008B778093E8009C
:104500004AC0803809F047C08091E800877F8093D7
:10451000E80080919D038093F1008091E8008E7700
:10452000D3CE811138C08091A0039091A103992727
:1045300002978CF58091E800877F8093E8001091C6
:10454000A00310939D030E94561F111106C0809175
:10455000E30087FD02C081E001C084E08093A803EE
:1045600042E061EC81E00E94751F42E061EC82E074
:104570000E94751F42E261EC85E00E94751F42E2D5
:1045800061EC83E00E94751F42E260EC84E00E94CF
:10459000751F8091A8038091E80083FF10C080916F
:1045A000E800877F8093E8008091EB008062809331
:1045B000EB0005C082E190E0EEE9F6E04ACFAA9672
:1045C000E3E00C94CB301F920F920FB60F921124A0
:1045D0002F933F934F935F936F937F938F939F930B
:1045E000AF93BF93CF93DF93EF93FF93C091E90015
:1045F000CF708091EC00D82FD17080FDD0E8109260
:10460000E9008091F000877F8093F00078940E9409
:1046100013201092E9008091F00088608093F000F0
:10462000CD2BCF70C093E900FF91EF91DF91CF9137
:10463000BF91AF919F918F917F916F915F914F91BA
:104640003F912F910F900FBE0F901F901895E8ED9E
:10465000F0E080818E7F80831092E2001092DA0079
:104660001092E100A0EEB0E08C9181608C9380818B
:104670008F77808319BCA7EDB0E08C918E7F8C93EF
:1046800080818F7E8083109278030895A0E0B0E04F
:10469000ECE4F3E20C94AA30C8EDD0E088818F7E80
:1046A0008883E7EDF0E080818160808384E082BFD1
:1046B00081E08093780388818E7F888302EE10E00A
:1046C000F80110821092DA0081EEC82ED12CF6018A
:1046D000108288818F778883888180688883888129
:1046E0008F7D888319BC1092A80310929D031092AD
:1046F0009C0310929B0390EEE92EF12CF701808130
:104700008B7F808388818160888342E060E080E0E5
:104710000E94751FF60180818E7F8083F801808161
:1047200081608083808188608083F70180818E7FB3
:104730008083888180618883CDB7DEB7E8E00C9400
:10474000C6301F920F920FB60F9211242F933F93F2
:104750004F935F936F937F938F939F93AF93BF9389
:10476000EF93FF938091E10082FF09C08091E20006
:1047700082FF05C08091E1008B7F8093E1008091F2
:10478000DA0080FF2AC08091D80080FF26C0809187
:10479000DA008E7F8093DA008091D90080FF18C004
:1047A00080E189BD82E189BD09B400FEFDCF81E0D1
:1047B0008093A8038091780381110FC00E94272362
:1047C0000E9446238091E20084608093E20005C04D
:1047D00019BC1092A803109278038091E10080FF29
:1047E00017C08091E20080FF13C08091E2008E7FAD
:1047F0008093E2008091E20080618093E2008091EA
:10480000D80080628093D80019BC85E08093A8030B
:104810008091E10084FF30C08091E20084FF2CC0D1
:1048200080E189BD82E189BD09B400FEFDCF8091A0
:10483000D8008F7D8093D8008091E1008F7E809397
:10484000E1008091E2008F7E8093E2008091E2009F
:1048500081608093E20080919D03882311F084E0C1
:1048600007C08091E30087FD02C081E001C083E0C2
:104870008093A8038091A8038091E10083FF27C063
:104880008091E20083FF23C08091E100877F8093C5
:10489000E10082E08093A80310929D038091E100E3
:1048A0008E7F8093E1008091E2008E7F8093E20012
:1048B0008091E20080618093E20042E060E080E06D
:1048C0000E94751F8091F00088608093F000FF9136
:1048D000EF91BF91AF919F918F917F916F915F9178
:1048E0004F913F912F910F900FBE0F901F901895F1
:1048F0002091E4003091E50095E64091EC00842F92
:10490000817040FF23C08091E80080FD1DC0809130
:10491000A803882399F0853099F08091EB0085FDFC
:1049200011C04091E4005091E5002417350729F3A8
:10493000915011F09A01E1CF84E0089582E008954A
:1049400083E0089581E0089580E008954091E800B3
:1049500042FFDDCF0895EF92FF920F931F93CF9305
:10496000DF937C018B010E947824811119C0E7013B
:1049700001151105A1F08091E80085FD0AC0809124
:10498000E8008E778093E8000E947824882381F3E2
:1049900007C089918093F10001501109E9CF80E0AF
:1049A000CDB7DEB7E6E00C94C830CF932091A803D2
:1049B000243029F5C091E900CF703091EC00232F0D
:1049C000217030FD20E8C22B23E02093E9002091E4
:1049D000E80020FF11C040E050E060E270E00E947B
:1049E000AB24882321F01092A6031092A703809194
:1049F000E8008E778093E800CF70C093E900CF91F4
:104A00000895EF92FF920F931F93CF93DF938091BE
:104A1000FC0380FF08C000EC13E08CEFE82E83E07D
:104A2000F82EF8010DC0E0ECF3E08CEF93E011827A
:104A300010821282138234968E179F07C1F7EBCF34
:104A4000928120813181892F291708F4822F38170C
:104A500008F4832F8383381B3183281B2083981B02
:104A600092833496EE16FF0659F70E94B82F64E63B
:104A700070E084E80E94BE2FC0ECD3E064E670E0F2
:104A800088810E94333064E670E089810E9433306F
:104A900064E670E08A810E94333064E670E08B81C6
:104AA0000E9433302496EC16FD0641F70E948830B0
:104AB000579A8BB18F779BB190682FB7F894E01617
:104AC000F10699F0F80131918F0148E09BB900009F
:104AD00000C037FF8BB9330F000000C000C000C01A
:104AE0008BB900C04A9591F7EACF2FBF8FE594E0CC
:104AF0000197F1F700C00000CDB7DEB7E6E00C94F7
:104B0000C8309091FC0390FF0DC0E0ECF3E081838E
:104B1000608342831382349693E0EC3FF907B9F740
:104B20000E94012508958091FC03282F269530E0EE
:104B30002115310519F48170826005C025323105D7
:104B400024F0817088648093FC030895CF92DF92F3
:104B5000EF92FF926B017C010E949325B701A601A1
:104B600088E090E00E947931FF90EF90DF90CF9045
:104B7000089580910004882319F0815080930004E7
:104B80006091FC037091FD038091FE039091FF03FF
:104B90000E94A625089580910004833018F48F5F49
:104BA000809300046091FC037091FD038091FE03EB
:104BB0009091FF030E94A6250895ECEFF3E0808119
:104BC0008E7F808360817181828193810E94A6257E
:104BD0001092BC032FEF80E792E02150804090407C
:104BE000E1F700C000000E9401250895ECEFF3E01A
:104BF00083E0808311828FEF8283838314826081BC
:104C00007181828193810E94A6250895A0E0B0E081
:104C1000ECE0F6E20C94A830E82EF62EE901E42F41
:104C2000F0E0611106C0EE5FF84FE4914E2F2E2F99
:104C300071C0062F10E0EE5FF84F4491F42FC42EA0
:104C4000D12C26E0829FC00111242FEF30E0B90162
:104C50000E948C305BEA5603C001579F900D1124CF
:104C60008E0D911D8E0D911D582F550F580FD90186
:104C7000A01BB10BAC9DC001AD9D900DBC9D900DD6
:104C80001124E92FF59ED0011124AB2FBB27790108
:104C9000EA1AFB0AEC9CD001ED9CB00DFC9CB00D17
:104CA00011245901A51AB108A09E7001A19EF00C13
:104CB000B09EF00C1124EF2CFF242E193F092C9DDF
:104CC00080012D9D100D3C9D100D1124212F62306F
:104CD000710591F048F461157105E1F061307105DD
:104CE000B9F4242F4B2F16C06430710569F040F0E1
:104CF0006630710579F00CC0242F492FE12F0AC0CE
:104D0000492FEF2F2B2F06C0292FE42F412F02C050
:104D1000292FEB2F49832883EA831B82CDB7DEB787
:104D2000EAE00C94C430A4E0B0E0E9E9F6E20C94C7
:104D3000B0309091FC0390FF0AC09E012F5F3F4F5F
:104D40000E9406264B8169818A810E9481252496D2
:104D5000E2E00C94CC30A4E0B0E0E1EBF6E20C949D
:104D6000A330F82E762EE42E622E9091FC0390FF55
:104D700067C0E92FE695AE2FB0E0A459BD4F8C91E6
:104D80008093BB039E7F923061F49E012F5F3F4F63
:104D90008F2D0E9406264B8169818A810E94812580
:104DA0003DC0823019F4E090FF0338C0863019F41A
:104DB000F090FD0333C08930D9F3893179F5E95199
:104DC0008E2F8170582EE695F0E0EE5FF74FE4915C
:104DD0000E2F10E080ECC82E83E0D82EA12CB12C31
:104DE0009FE0892E912CC501B4010E948C308F2D3B
:104DF000511002C0860F01C0861B96014E2D672DF3
:104E00000E940626A00EB11E84E0C80ED11C8CEFB5
:104E1000C81683E0D80639F70E940125F092FD03F9
:104E20007092FE03E092FF03662051F06091FC0354
:104E30007091FD038091FE039091FF030E94A625CF
:104E40002496EFE00C94BF30ECEFF3E043812CE0CC
:104E5000421B08F440E021E0628181810E94AB2680
:104E60000895ECEFF3E043812CE0420F08F44FEF9C
:104E700021E0628181810E94AB260895ECEFF3E08E
:104E800062812FEF621B08F460E021E043818181A1
:104E90000E94AB260895ECEFF3E062812FEF620FE2
:104EA00008F46FEF21E0438181810E94AB260895D1
:104EB000ECEFF3E0818121E0438162818C500E941C
:104EC000AB260895ECEFF3E0818121E0438162811C
:104ED000845F0E94AB2608958D3E39F49091B20311
:104EE00097FF35C01092B20359C08E3E29F49091BD
:104EF000B2031916BCF32BC09091B1038F3E29F475
:104F000097FF25C01092B10349C0803F19F41916CC
:104F1000CCF31DC09091B303893F29F41916BCF45A
:104F20001092B3033BC08A3F19F497FF10C0F8CF2B
:104F30008B3F39F49091B40397FF09C01092B403EA
:104F40002DC08C3F21F49091B4031916BCF39FE05F
:104F5000980F983080F421E030E0A90102C0440F9E
:104F6000551F9A95E2F7CA0180959091B003892365
:104F70008093B00313C08D3F21F48091AB038E7FEB
:104F80000BC08E3F21F48091AB038D7F05C08F3F16
:104F900029F48091AB038B7F8093AB038091B103A5
:104FA000811106C08091B203811102C01092AA0340
:104FB0008091B303811106C08091B403811102C0B6
:104FC0001092A90308958091AB0380FD18C081FD64
:104FD00014C082FD16C08091A903882381F08C3310
:104FE00080F427E0829FC00111246CE370E00E94EE
:104FF000FC31862F672B19F005C083E0089581E00E
:10500000089587E008958091AB0380FD17C081FD6E
:1050100017C082FD19C08091AA03882399F08C33B0
:1050200098F428E3829FC00111246CE370E00E9491
:10503000FC31862F672B49F481E008958EE00895B6
:105040008CE1089588E0089588E308958D3E21F469
:105050000E940328819504C08E3E29F40E940328F3
:105060008093B20308958F3E21F40E940328819516
:1050700004C0803F29F40E9403288093B10308955F
:10508000893F19F40E94E32705C08A3F31F40E944A
:10509000E32781958093B30308958B3F21F40E9409
:1050A000E327819504C08C3F29F40E94E327809375
:1050B000B40308959FE0980F983078F421E030E031
:1050C000A90102C0440F551F9A95E2F7CA019091B9
:1050D000B003892B8093B00308958D3F21F4809114
:1050E000AB0381600BC08E3F21F48091AB038260E3
:1050F00005C08F3F29F48091AB0384608093AB039C
:1051000008956091FC03669570E04BE050E08BE100
:1051100091E00E945233892B19F481E08093BC0303
:105120000E94D42B9093B6038093B5030895909179
:10513000FC0390FF36C09170811102C0926006C0DE
:10514000853210F0986402C0880F982B9093FC036E
:10515000662351F06091FC037091FD038091FE0382
:105160009091FF030E94A6256091FC03669570E074
:105170004BE050E08BE191E00E945233892B19F013
:105180001092BC0302C00E94812881E08093B80382
:1051900020E04091FF036091FE038091FD030E9497
:1051A000AB26089560E00E9497280895ECEFF3E0A5
:1051B00080818160808386950E94D228089561E075
:1051C0000E94972808958091FC038695815009F4E8
:1051D00084E261E00E94972808958091FC038695FF
:1051E0008F5F853208F081E061E00E949728089582
:1051F0000E94D42B2091B103211104C02091B2034D
:10520000222321F09093AF038093AE032091B30348
:10521000211104C02091B403222321F09093AD0307
:105220008093AC03E0910704F0910804309731F0CB
:105230000480F581E02D80EB93E00995089580913D
:105240007A030895089522E02093E9002FEF30912A
:10525000E800215035FD06C035ED3A95F1F7000024
:105260002111F5CF2091E80025FF0BC040E050E070
:1052700065E070E00E94AB248091E8008E77809317
:10528000E8000895CF93DF9320911A01222339F08B
:105290002091100427FF03C060E225E002C068E00F
:1052A00021E02093E9002FEF3091E800215035FDF7
:1052B00006C035ED3A95F1F700002111F5CF2091A8
:1052C000E80025FF1DC0EC0180911A01811105C085
:1052D00040E050E068E070E003C070E040E050E083
:1052E000CE010E94AB248091E8008E778093E80085
:1052F00080E2FE01ABE7B3E001900D928A95E1F701
:10530000DF91CF910895EF92FF920F931F93CF9368
:10531000DF938C01C0ECD3E0E12CF12CF801848107
:10532000F7E0EF16F1041CF4882339F002C0811174
:1053300004C09E014091FF0302C09E0140E06091C5
:10534000FE038091FD030E9406268FEFE81AF80AFB
:1053500024969FE0E916F10409F70E940125F8015F
:10536000848190E00196817099278483CDB7DEB760
:10537000E6E00C94C830A0E0B0E0E1ECF9E20C9477
:10538000A630EC014C81042F10E09801D8010E9456
:10539000DF319B01AC010E94AA316B017C01E0E28C
:1053A000F0E0E01BF10BA5E5B0E09B01AC010E9431
:1053B000AA314B015C019F01DF010E9416329B0163
:1053C000AC010E94B5319B01AC012C0D3D1D4E1D61
:1053D0005F1DC501B4010E94BD31822FF22E99E2FA
:1053E000921728F093E0299F900111240DC025E524
:1053F00030E0281B3109C901880F991F280F391F78
:1054000037FF02C02F5F3F4F35952795122F10951C
:1054100090ECC92E93E0D92E00E085E5E82EEF1838
:1054200001FD02C08E2D01C08F2D9601412F60918C
:10543000FE030E9406260F5F84E0C80ED11C0F30C9
:1054400079F70E9401258C81811102C091E003C08F
:10545000803219F49FEF9093280190912801890FD1
:105460008C83CDB7DEB7ECE00C94C2300F931F9362
:10547000CF93DF93C0ECD3E0FE0111821082128241
:105480001382349683E0EC3FF807B9F700E010E0B0
:105490008091BE03082E000C990B0817190794F091
:1054A00080912701082E000C990B8017910754F06A
:1054B0009E014091FF036091FE038091FD030E94D5
:1054C000062604C0198218821A821B820F5F1F4FA2
:1054D00024960F301105E1F60E94012580912601E6
:1054E0009091BE03980F9093BE0320912701280F3F
:1054F00020932701121614F49E301CF0819580939E
:105500002601DF91CF911F910F910895A0E0B0E0A7
:10551000ECE8FAE20C94A930FC01828180FF03C020
:10552000DD24DA9402C0DD24D39400EC13E0C0E063
:10553000D0E02FE0B22EF801118210821282138285
:1055400094E0E92EF12CC12C8091BD038C0D8031AB
:105550002CF06B2D0E94EE31892F02C087FD815FF8
:10556000082E000C990BC817D90791F48091FF03FE
:105570008E9DA0018F9D500D1124559547955595F1
:10558000479598016091FE038091FD030E940626D5
:10559000CD0CF1E0EF1AF108B9F621960C5F1F4F20
:1055A000CF30D10541F60E9401258091BD0391E0E5
:1055B000D91206C0811102C08EE007C0815005C01B
:1055C00090E00196BE010E94FC318093BD03CDB7EF
:1055D000DEB7E9E00C94C530EF92FF921F93CF93B2
:1055E000DF93EC0180ECE82E83E0F82E10E08C8154
:1055F00097014091FF036091FE03810F0E940626F0
:105600001F5E84E0E80EF11C1F3F89F70E94012510
:105610009A818C8190FF02C08F5F01C081508C8382
:10562000DF91CF911F91FF90EF900895A4E0B0E03B
:10563000ECE1FBE20C94AE308C018091BF03811150
:105640000AC09E012F5F3F4F4FEF6FEF0E9406266B
:105650008A818093BF03F8018481813051F028F062
:10566000823061F44091BF030AC08091BF0340E0E3
:1056700007C06091BF0340E080E003C040E080E0ED
:1056800060E00E948125F801848190E0019663E04A
:1056900070E00E94FC3184832496E4E00C94CA30CC
:1056A000CF93DF93EC01ECEFF3E0438162818C81D7
:1056B0000E9493268C818F5F8C83DF91CF91089518
:1056C000CF93DF93EC01EC81F0E0E95FF74F449179
:1056D000ECEFF3E0628181810E9493268C818F5FE1
:1056E0008C83DF91CF9108958093120470931404FA
:1056F000609313048091A803843001F585E08093C2
:10570000E9008FEF9091E800815095FD06C095ED7E
:105710009A95F1F700008111F5CF8091E80085FF9F
:105720000DC040E050E063E070E082E194E00E9450
:10573000AB248091E8008E778093E80008957894F8
:105740001F920F920FB60F9211248F939F93AF93D6
:10575000BF9380910C0490910D04A0910E04B09120
:105760000F040196A11DB11D80930C0490930D04AC
:10577000A0930E04B0930F04BF91AF919F918F91AE
:105780000F900FBE0F901F9018959C014FB7F89483
:1057900080910C0490910D04A0910E04B0910F041F
:1057A0004FBF821B930B08952FB7F89480910C0480
:1057B00090910D04A0910E04B0910F042FBF089595
:1057C0001F920F920FB60F9211248F939F93AF9356
:1057D000BF9380910B04811113C080910C049091B0
:1057E0000D04A0910E04B0910F044196A11DB11DAE
:1057F00080930C0490930D04A0930E04B0930F04B7
:10580000BF91AF919F918F910F900FBE0F901F90FE
:10581000189520911A012223C9F02091100427FF26
:1058200015C0262F2695269526952E31C8F4FC0105
:10583000E20FF11D677081E090E001C0880F6A956A
:10584000EAF780959281892382830895FC01069668
:105850002281621301C012823196E817F907C1F75D
:1058600008952091090430910A042817390771F02E
:1058700090930A0480930904E0910704F0910804CE
:10588000309721F00084F185E02D0995089520914D
:105890000504309106042817390771F09093060427
:1058A00080930504E0910704F0910804309721F0FB
:1058B0000680F781E02D09950895E0910704F091A5
:1058C0000804309729F00190F081E02D09950895A2
:1058D00080E00895CF93DF93EC0181E0898B909174
:1058E00004048F81892B809304049091030488859C
:1058F000892B809303040E94D716EA81FB81CE0195
:105900000696309719F06C897D890995DF91CF91C2
:105910000895EF92FF920F931F93CF93DF93FC01B3
:105920002285211136C0EC01E380F480F7E5FF1AEF
:1059300026E12E9DC0012F9D900D1124DC01A75D55
:10594000BE4F1496ED91FC911597815D9E4F309757
:1059500029F054966D917C915597099586E18E9D1D
:1059600080018F9D100D1124075D1E4FF801878166
:105970000E94D016F80180850E94C9160E94D71691
:10598000188219861B861E821D82109202041092B4
:105990000104CDB7DEB7E6E00C94C830CF93DF93B7
:1059A0000E94233166E070E00E94FC31D82F0E94F3
:1059B00023316EE070E00E94FC31C82F6D2F782FEC
:1059C00080E00E9483140497C59718F48D2F9C2FB4
:1059D00002C00E94CE2CDF91CF9108959091FC03DC
:1059E00090FF04C09695981748F003C0811106C037
:1059F00090E0961718F40E94ED2808950E94DF2881
:105A00000895882311F0FA0101C0FB01099508955A
:105A100080E090E00E94472C80E090E00E94312CD2
:105A2000109203040E94D716E0EBF3E085E0DF015B
:105A30001D928A95E9F71092AA031092A903109279
:105A4000AB030E94F8280895A0E0B0E0EAE2FDE28E
:105A50000C94A9308C01C0904803D0904903E09089
:105A60004A03F0904B038091270390912803A09163
:105A70002903B0912A03C82AD92AEA2AFB2ACFE1AE
:105A8000D0E0D701C6010C2E04C0B695A795979516
:105A900087950A94D2F780FD04C0219790F7B12C26
:105AA00009C0BC2EB8018C2F0E9483140E949C1444
:105AB000019799F38B2DCDB7DEB7E9E00C94C53093
:105AC000CF93DF93EC010E94242DBE010E9483142A
:105AD0000E949C14DF91CF910895292F9E3080F56C
