:100000000C946F040C948C040C948C040C948C044D
:100010000C948C040C948C040C948C040C948C0420
:100020000C948C040C948C040C94E6180C942417F7
:100030000C94502B0C948C040C948C040C948C0415
:100040000C948C040C948C040C948C040C948C04F0
:100050000C948C040C94C6130C948C040C948C0497
:100060000C948C040C948C040C948C040C948C04D0
:100070000C948C040C948C040C948C040C948C04C0
:100080000C948C040C948C040C948C040C948C04B0
:100090000C948C040C948C040C948C040C948C04A0
:1000A0000C948C040C948C040C948C0400010101BD
:1000B0000101010101010202020202020202020325
:1000C00003030303030303040404040404040505F5
:1000D00005050506060606060707070707080808B8
:1000E00008090909090A0A0A0B0B0B0C0C0C0D0D67
:1000F0000D0E0E0E0F0F0F101011111112121313FF
:100100001414151516161717181819191A1A1B1B77
:100110001C1D1D1E1E1F20202122222324242526D3
:1001200026272829292A2B2C2D2D2E2F303132320B
:10013000333435363738393A3B3C3D3E3F40414217
:10014000434445464748494A4C4D4E4F50515354FD
:10015000555658595A5B5D5E5F61626465666869B1
:100160006B6C6D6F7072737577787A7B7D7E808231
:10017000838587888A8C8E8F91939596989A9C9E7A
:10018000A0A2A3A5A7A9ABADAFB1B3B5B7BABCBE8A
:10019000C0C2C4C6C9CBCDCFD1D4D6D8DBDDDFE257
:1001A000E4E7E9EBEEF0F3F5F8FAFDFFFFAA7F557F
:1001B000402223252628292A2C2D2F30323335366C
:1001C000383A3B3D3E4042434547494A4C4E5051E8
:1001D000535557595A5C5E6062646668696B6D6F0F
:1001E00071737577797B7D7F81838587898A8C8E12
:1001F00090929496989A9C9E9FA1A3A5A7A8AAAC1A
:10020000AEAFB1B3B4B6B8B9BBBCBEBFC1C2C3C553
:10021000C6C7C9CACBCCCDCED0D1D2D2D3D4D5D6F5
:10022000D7D7D8D9D9DADADBDBDBDCDCDCDCDCDD28
:10023000DDDDDDDCDCDCDCDCDBDBDBDADAD9D9D80C
:10024000D7D7D6D5D4D3D2D2D1D0CECDCCCBCAC9A4
:10025000C7C6C5C3C2C1BFBEBCBBB9B8B6B4B3B1D3
:10026000AFAEACAAA8A7A5A3A19F9E9C9A9896946E
:1002700092908E8C8A89878583817F7D7B79777543
:1002800073716F6D6B6968666462605E5C5A595722
:10029000555351504E4C4A4947454342403E3D3BE1
:1002A0003A3836353332302F2D2C2A29282625236B
:1002B000220000000000000000000000000000001C
:1002C00000000000007E0F00D4FFFFFFC700000009
:1002D0007800000000000000002A2B280000000029
:1002E00000000000000000000000000029000000E5
:1002F000002C1E3420212224342627252E362D378B
:1003000038271E1F202122232425263333362E375B
:10031000381F0405060708090A0B0C0D0E0F1011F3
:1003200012131415161718191A1B1C1D2F31302300
:100330002D350405060708090A0B0C0D0E0F1011C8
:1003400012131415161718191A1B1C1D2F313035CE
:100350004C0102E30102E10101210103E10103E398
:100360000029002B003900E100000F0000010014FB
:100370000004001D00E000010001001A0016001B2F
:1003800000E20028000100080007000600E3002C3E
:1003900000010015000900190000410100010017CB
:1003A000000A00050000000100085D4A0000004D41
:1003B000000000010001004B0000004E00000001A1
:1003C0000001001C000B00110000000100010018DA
:1003D000000D0010000042010001000C000E00366C
:1003E0000000432A00010012000F0037000100281E
:1003F0000001001300330038000100010001002952
:10040000003400E5000100000001000100010001CE
:1004100000010000003A0035001E001E020100012C
:10042000003B002D021F001F02010001003C002DB7
:100430000020002002010001003D002602210021D1
:1004400002010001003E002F0022002202000001F4
:1004500000320001000000010000000100640044BF
:100460000000004500000001003F00300023002391
:1004700002000001004000270224002402010001C4
:100480000041002E00250025020100010042002E3F
:10049000022600350201000100430031002700312F
:1004A000020100010001004C0001000100010000F8
:1004B0000001000100010001000100000001000135
:1004C0000001000100010001000100F400F2000140
:1004D00000010001000100F000F100F60001000140
:1004E000000100F500F3000100010001000100011E
:1004F00000010001000000010001000100000001F6
:1005000000000001000100010000000100000001E6
:100510000001002F5D2800A800000001000100017B
:10052000005000AA0001000100010001005100A9D3
:100530000001000100010001005200AC00010001B7
:1005400000010001004F00AB0001000100010001AB
:100550000001000100010000000100010001000194
:100560000001000000010001000100010001002E57
:100570005D01000100010001000100C95C010001F2
:100580000001000100010001000100010001000163
:100590000001002D5D01000100010001000000C309
:1005A0005C010001000000010000002C5D01000161
:1005B00000000001000000C25C01000100010062B7
:1005C0000000002B5D01005F005C0059000100018C
:1005D00000010060005D005A000100C55C0100617F
:1005E000005E005B000100C65C010001000100012B
:1005F00000010001000100010001000100010000F4
:100600000032190A00047F3F1F64321464321478E8
:100610003C1E1E140A050A00000000000306B2007A
:10062000080001000000A800080002000200A0006D
:100630001400030057494E555342000000000000CB
:10064000000000008400040007002A004400650048
:10065000760069006300650049006E007400650063
:1006600072006600610063006500470055004900A4
:1006700044007300000050007B0039004400420039
:10068000370046003100460044002D003700450089
:10069000370041002D0034003000300038002D00BC
:1006A00039003300360042002D0036004200410080
:1006B000360043003100390041003300300038007B
:1006C00063007D00000000001B0301636F6E66691C
:1006D000677572652E6572676F646F782D657A2E07
:1006E000636F6D0005010902A10185020901A100E6
:1006F00005091901290515002501950575018102D6
:100700009501750381010501093009311581257FA6
:1007100095027508810609381581257F95017508B0
:100720008106050C0A38021581257F95017508811F
:1007300006C0C005010980A101850319012AB7007F
:10074000150126B700950175108100C0050C09013F
:10075000A101850419012AA002150126A002950114
:1007600075108100C005010906A10185050507195D
:10077000E029E71500250195087501810205071993
:100780000029EF1500250195F07501810205081972
:10079000012905950575019102950175039101C027
:1007A00005010906A101050719E029E71500250142
:1007B00095087501810295017508810105071900E9
:1007C00029FF150026FF0095067508810005081908
:1007D000012905950575019102950175039101C0E7
:1007E00009025200030100A0FA09040000010301FC
:1007F00001000921110100012240000705810308C1
:10080000000A090401000103000000092111010090
:100810000122BC000705820320000A09040200022D
:10082000FF0000000705830340000507050403409F
:1008300000051201100200000008973275490100FE
:10084000010203010403300000002203450072008E
:1008500067006F0044006F007800200045005A00D8
:1008600020005300680069006E006500000030033E
:100870005A005300410020005400650063006800E6
:100880006E006F006C006F006700790020004C0064
:10089000610062007300200049006E0063000000E8
:1008A00004030904050F3900021C100500DF60DD98
:1008B000D88945C74C9CD2659D9E648A9F000003E1
:1008C00006B20045001810050038B60834A909A082
:1008D000478BFDA0768815B6650001420000112403
:1008E0001FBECFEFDAE0DEBFCDBF24E0A6E3B2E06B
:1008F00001C01D92A331B207E1F712E0A0E0B1E020
:10090000ECE1FEE502C005900D92A633B107D9F7E0
:100910000E94D5260C94C62E0C940000E8EDF0E061
:1009200080818E7F80831092E2001092DA00109214
:10093000E100A0EEB0E08C9181608C9380818F7794
:10094000808319BCA7EDB0E08C918E7F8C93808161
:100950008F7E80831092DE0308952091E400309111
:10096000E50095E6A9012091EC00822F817020FF1F
:1009700006C08091E80080FF06C080E008952091C5
:10098000E80022FD1AC080910504882389F0853093
:1009900089F08091EB0085FD0FC02091E40030913B
:1009A000E50042175307F9F29150E1F684E008950B
:1009B00082E0089583E0089581E00895EF92FF9228
:1009C0000F931F93CF937C018B010E94AD04C82F1E
:1009D000882371F08C2FCF911F910F91FF90EF9092
:1009E0000895F70181917F018093F1000150110971
:1009F0000115110579F38091E80085FDF2CF809112
:100A0000E8008E778093E8000E94AD04882381F38C
:100A1000C82FE0CF8091070487FF13C08091E800C2
:100A200082FF06C08091E8008B778093E80004C0C5
:100A3000809105048111F2CF0895809105048823E7
:100A4000D9F38091E80080FFF8CF8091E8008E779D
:100A5000ECCF982F9093E900242F762F50E0891740
:100A600031F07091EC002091ED005091F00021FDEB
:100A700007C09F5F973071F78093E90081E0089588
:100A80003091EB003E7F3093EB003091ED003D7FE5
:100A90003093ED003091EB0031603093EB007093B8
:100AA000EC002093ED005093F0002091EE0027FD24
:100AB000E0CF80E00895CF92DF92EF92FF920F9304
:100AC0001F93CF93DF93C8EDD0E088818F7E88831A
:100AD000E7EDF0E080818160808384E082BF81E087
:100AE0008093DE0388818E7F888302EE10E0F80118
:100AF00010821092DA0081EEC82ED12CF6011082FD
:100B000088818F77888388818068888388818F7DBA
:100B1000888319BC109205041092060410920404F4
:100B20001092030490EEE92EF12CF70180818B7F67
:100B3000808388818160888342E060E080E00E9459
:100B40002905F60180818E7F8083F8018081816094
:100B50008083808188608083F70180818E7F80839D
:100B6000888180618883DF91CF911F910F91FF90E1
:100B7000EF90DF90CF900895FC0180910D0490914B
:100B80000E0486179707A0F06115710529F480916E
:100B9000E8008E778093E80090E06115710551F4CC
:100BA000911108C08091E80082FF35C080E008956F
:100BB000BC01F2CF809105048823C9F18530C9F1C9
:100BC0008091E80083FD31C08091E80082FDEACF8A
:100BD0008091E80080FFE1CF8091F3002091F20046
:100BE000382F6115710519F02830310558F091E062
:100BF0002830310509F090E08091E8008E778093ED
:100C0000E800CBCF84918093F10031966150710957
:100C10002F5F3F4FE6CF80910504882341F0853058
:100C200041F08091E80083FFBDCF81E0089582E02C
:100C3000089583E00895FC0180910D0490910E04C5
:100C400086179707A0F06115710529F49091E800C7
:100C50009E779093E80090E06115710551F4911131
:100C600008C08091E80082FF34C080E00895BC0194
:100C7000F2CF809105048823C1F18530C1F18091C4
:100C8000E80083FD30C08091E80082FDEACF8091CA
:100C9000E80080FFE1CF8091F3002091F200382F2F
:100CA0006115710519F02830310558F091E02830B0
:100CB000310509F090E02091E8002E772093E800BC
:100CC000CBCF81918093F100615071092F5F3F4F2D
:100CD000E7CF80910504882341F0853041F0809171
:100CE000E80083FFBECF81E0089582E0089583E0AD
:100CF000089508958091E203089520910504243019
:100D000099F423E02093E90070E050E040E00E9475
:100D1000DE04882321F01092DC031092DD03809121
:100D2000E8008E778093E80008959091C303803F98
:100D300059F48091C40387FF0DC01092C403911130
:100D40000BC01092BE0308C0813F81F48091C403A0
:100D500018169CF3992381F08091C5039091C603E6
:100D6000892B09F064C01092BB030895823F49F4B7
:100D700097FFF0CF1092C3038091C4038111ECCF91
:100D8000E0CF833F19F41916ACF3E4CF2091C503EB
:100D9000893F29F41216F4F61092C503DBCF8A3F7F
:100DA00019F427FFD7CFF8CF2091C6038B3F29F442
:100DB00027FFD0CF1092C603CDCF8C3F19F4121667
:100DC000CCF3C8CF843F31F48091C2038E7F8093EF
:100DD000C203C0CF853F21F48091C2038D7FF7CF3E
:100DE000863F21F48091C2038B7FF1CF873F21F4AE
:100DF0008091C203877FEBCF883F21F48091C203AB
:100E00008F7EE5CF8D3F31F4809181038E7F80937B
:100E10008103A0CF8E3F21F4809181038D7FF7CF96
:100E20008F3F09F097CF809181038B7FF0CF08959A
:100E30008091810380FD1AC081FD14C082FD14C021
:100E40008091BB03882391F08C3370F427E0829F5C
:100E5000C00111246CE370E00E945E2C862F672B8A
:100E600029F0089583E0089587E0089581E00895CA
:100E70008091810380FD16C081FD16C082FD18C0DF
:100E80008091BE03882391F08C3390F423E2829FFB
:100E9000C00111246CE370E00E945E2C862F672B4A
:100EA00049F0089588E0089581E1089585E0089566
:100EB00083E2089581E00895803F31F40E9438076D
:100EC00081958093C4030895813F19F40E943807E7
:100ED000F8CF823F31F40E94380781958093C30395
:100EE0000895833F19F40E943807F8CF893F29F409
:100EF0000E9418078093C50308958A3F21F40E9439
:100F000018078195F7CF8B3F31F40E941807819520
:100F10008093C60308958C3F19F40E941807F8CFF8
:100F2000843F31F48091C20381608093C2030895AD
:100F3000853F21F48091C2038260F7CF863F21F480
:100F40008091C2038460F1CF873F21F48091C20376
:100F50008860EBCF883F21F48091C2038061E5CFA8
:100F60008D3F31F4809181038160809381030895E6
:100F70008E3F21F4809181038260F7CF8F3FB9F7D4
:100F8000809181038460F1CF9C014FB7F8948091E8
:100F90007D0390917E03A0917F03B09180034FBFAA
:100FA000821B930B0895209124012223C9F02091E4
:100FB0009A0327FF15C0E62FE695E695E695EE31F4
:100FC000D8F4E80FF92FF11D677021E030E001C07F
:100FD000220F6A95EAF720958281282322830895BB
:100FE000FC01329608962191621303C0DF0111972C
:100FF0001C92E817F907B9F70895209124012223DC
:10100000C1F020919A0327FF14C0E62FE695E695DC
:10101000E695EE31F8F4E80FF92FF11D677021E045
:1010200030E001C0220F6A95EAF78281822B828329
:101030000895FC0132962FEF30E04191641751F092
:101040002F3F19F4411101C0232F3F5F3630A9F71C
:101050002F3F09F40895820F911D27FD9A95FC01F9
:1010600062830895CF92DF92EF92FF926C01EE249B
:10107000FF2420E0C114D104E104F10419F0C701F8
:10108000B60120E1C72ED82EE92EFF24C114D104C9
:10109000E104F10419F0285FC701B6016B017C017E
:1010A00054E0F694E794D794C7945A95D1F7C114B5
:1010B000D104E104F10419F02C5FC701B6016B0102
:1010C0007C0142E0F694E794D794C7944A95D1F70F
:1010D000C114D104E104F10419F02E5FC701B60177
:1010E0009695879577956795672B682B692B09F0FF
:1010F0002F5F822FFF90EF90DF90CF900895809127
:10110000780381111092780308958091770390916C
:101110007603892B90917503892B809336029091E9
:1011200078039923A1F0892B8093360280912401C2
:10113000882341F180919A0387FF24C08EE1E8E380
:10114000F2E090E0815000F591110E947F08E0915B
:101150009D03F0919E033097E1F080912401882354
:1011600059F080919A0387FF07C0809136028093DF
:10117000370285E0809336020280F381E02D86E31A
:1011800092E0099486E0DBCF21912223D9F29F5F80
:10119000D9CF0895E92FEE0FE90FEE0F8E0F982F9C
:1011A000977086958695869525E0829FF00111249B
:1011B000E35CFC4F50E040E080E0219130E0092EFC
:1011C00002C0369527950A94E2F721703327042E42
:1011D00001C0220F0A94EAF7822B4F5F5F4F453020
:1011E000510559F70895E92FEE0FE90FEE0F8E0F15
:1011F000982F977041E001C0440F9A95EAF78695C1
:101200008695869595E0899FF0011124E35CFC4F5B
:1012100030E020E070E05191DF011197CB01022E08
:1012200002C0969587950A94E2F78170819585278B
:10123000842385278C932F5F3F4F2530310559F745
:10124000089580913C0390910B03981301C0089579
:101250008F5F8770FACF882341F080959091760355
:101260008923809376030C9485080895882339F0A8
:1012700090917603982B909376030C9485080895AB
:10128000882341F080959091770389238093770399
:101290000C9485080895882339F090917703982B52
:1012A000909377030C94850808952091EE02309175
:1012B000EF022817390771F09093EF028093EE0246
:1012C000E0919D03F0919E03309721F00084F18519
:1012D000E02D099408952091EC023091ED02281739
:1012E000390771F09093ED028093EC02E0919D0339
:1012F000F0919E03309721F00680F781E02D09944C
:101300000895E0919D03F0919E03309721F00190A4
:10131000F081E02D099480E00895FA01811101C067
:10132000FB0109948091B403982F9E7F29F481706A
:1013300082608093B40308958635E8F381708465F4
:10134000F8CFAF92BF92DF92EF92FF920F931F936D
:10135000CF93DF93082F162FE901E42FF0E0E45537
:10136000FF4F611111C0E4915E2F4E2F4983E88336
:101370005A831B82DF91CF911F910F91FF90EF90C5
:10138000DF90BF90AF900895E62EF12C4491D42EBB
:10139000E42FF0E026E0829FC00111242FEF30E01F
:1013A000B9010E944A2C802F90E0880F991F55E5C3
:1013B000569FD001579FB00D11248A1B9B0B982F6D
:1013C000990F890F5901AE18BF08AE9ED001AF9E8C
:1013D000B00DBE9EB00D11245B2F189F800111240B
:1013E000012F11275901A01AB10AAE9E8001AF9EAC
:1013F000100DBE9E100D11245901A81AB108AE9C03
:10140000C001AF9C900DBE9C900D1124892F99278F
:10141000281B390B2E9FC0012F9F900D3E9F900DD2
:101420001124E92F62307105A1F050F461157105A6
:1014300009F49CCF6130710581F0EB2F512F96CFCD
:101440006430710569F080F06630710509F48ECF63
:10145000F4CFE42F4B2F592F89CFE42F412F86CF84
:10146000EB2F542F492F82CF4B2F5D2DE12F7ECFB5
:1014700090919A0392FF06C0282F28712830F9F422
:10148000877F846093FF06C0282F28712831F1F4EC
:10149000877E846120919B0320FF06C0382F38711E
:1014A0003830D9F4877F816021FF06C0282F28714A
:1014B0002831D1F4877E816194FD877E0895282F9D
:1014C00024712430F9F68B7F8860DCCF282F2471BB
:1014D000243101F78B7E8861DDCF382F31713130B7
:1014E00019F78E7F8860E0CF282F2171213121F7F5
:1014F0008E7E8861E1CFCF93DF93972F70E026E057
:10150000929F600D711D1124FB0134E5839FE00D56
:10151000F11D1124EE0FFF1FEF59FC4FC591D4911F
:10152000CE01C238D105B9F1E8F5C133D10509F4CE
:1015300099C050F5C932D10509F48DC0CA32D10520
:1015400009F497C0C11542E5D40708F0C4C0C1151D
:1015500021E5D20708F038C1C83ED10508F09DC08A
:10156000C03ED10568F5C83AD10508F089C0C53A32
:10157000D10508F005C1C130D10511F1209709F45A
:1015800043C02497E8F440C0C533D10509F45CC0DA
:10159000C933D105B9F620919A03237089F080EE02
:1015A00090E00EC0C33ED10591F168F4C03ED10574
:1015B000F9F0C23ED10531F620919A0322FD20C0F8
:1015C000DF91CF910895C63ED10561F1C73ED105A7
:1015D00081F1C43ED10509F0B5CF20919B0321FFD5
:1015E000EFCF80919A0384FD0FC087EE90E0E8CFA3
:1015F00020919A0320FD19C130919B0330FFE0CF69
:1016000083EE90E024FFDCCF90E080E0D9CF209102
:101610009A0322FD0DC130919B0330FDC0CF24FF02
:10162000CFCFF2CF20919A0323FFCACF24FDECCF76
:10163000DCCF20919A0323FDFEC030919B0331FF44
:10164000EECF84EE90E0BCCF20919A0325FFB8CF77
:1016500089E290E0B5CF20919A0325FFB1CF85E3D1
:1016600090E0AECF20919A0326FFAACF8AE290E0C5
:10167000A7CF20919A0326FFA3CF81E390E0A0CFCC
:10168000CF3BD10508F6C85AD0E0CC0FDD1FC95FAB
:10169000DD4F88819981946493CFC11530E2D307DF
:1016A00060F4C11541E0D40708F08ACFCE019065FF
:1016B000C03FD10508F084CFA7CFC11580E4D8077B
:1016C00008F4A2CFC11590E5D90708F061C0CE019A
:1016D0009F70906A75CFC11526E5D20718F5C11520
:1016E00035E5D30708F086C0C11544E5D40708F0F6
:1016F0007CC09C2F96959695AE0143705527C115D9
:10170000D34508F466C021E030E002C0220F331F49
:101710004A95E2F740E2949FC0011124822B932B5B
:101720009A684ECFC1159AE5D90778F4C11529E515
:10173000D20708F069C0C11538E5D30708F464CFB3
:101740009C2F8827806F906A3BCFC1154BE5D4074B
:1017500008F45ACFC1158CE5D80708F462C0CE0151
:1017600090568115904208F04FCF8D2F8F710E94B7
:10177000380A90E0982F882788279F718C2B42C0C9
:10178000C55AD0E0CC5FDD4F888190E0906418CFDF
:101790009E01E4E036952795EA95E1F723708C2FBA
:1017A00086958695837030E2839FC0011124922B29
:1017B000C37021E030E002C0220F331FCA95E2F768
:1017C000822B932B9C68FCCE9C2F8827816F906A7C
:1017D000F7CE21E030E002C0220F331F4A95E2F736
:1017E00040E2949FC0011124EBCF9C2F8827846F87
:1017F000906AE6CE8C2F0E94380A90E0982F8827B6
:1018000088279F719062DCCE8C2F8F700E94380ADF
:1018100034E0D695C7953A95E1F7CF709C2F906943
:10182000CFCECE0199279066CBCE89E390E0C8CE8B
:1018300082EE90E0C5CE86EE90E0C2CEBF92CF920F
:10184000DF92EF92FF920F931F93CF93DF938C0160
:10185000C090D703D090D803E090D903F090DA037A
:101860008091790390917A03A0917B03B0917C03DE
:10187000C82AD92AEA2AFB2ACFE1D0E0BC2ED70118
:10188000C6010C2E04C0B695A795979587950A9426
:10189000D2F780FD0EC0219788F7B12C8B2DDF91F8
:1018A000CF911F910F91FF90EF90DF90CF90BF905D
:1018B0000895B8018C2F0E947B0A019761F3EECF47
:1018C000CF93DF93EC010E941E0CBE01DF91CF91FC
:1018D0000C947B0A0E94600C292F2F7092959F70A8
:1018E00092509E3078F4E92FF0E0E853F14D0C94DB
:1018F000722C803F19F020F4883E20F481E0089596
:10190000843FE1F380E00895883EC0F3813FD1F742
:10191000F5CF822F869586958695089527982F98DE
:10192000089526982E98089525982D9808955698EC
:101930005E980895279A2F9A0895269A2E9A0895C8
:10194000259A2D9A089520982898219829982298C8
:101950002A9823982B9852985A9853985B983E98B7
:10196000469808958098889A8198899A84988C9A44
:1019700085988D9A86988E9A87988F9A0895CF9396
:10198000DF9300D00F92CDB7DEB79091050494306D
:1019900019F589837B836A8382E08093E9008FEF66
:1019A0009091E800815095FD06C095ED9A95F1F76C
:1019B00000008111F5CF8091E80085FF0DC050E057
:1019C00040E063E070E0CE0101960E94DE04809169
:1019D000E8008E778093E8000F900F900F90DF91D2
:1019E000CF910895BC0184E00C94BF0CBC0183E04E
:1019F0000C94BF0C9C0182E08093E9009FEF8091E2
:101A0000E800915085FD06C085ED8A95F1F700004C
:101A10009111F5CF8091E80085FF0CC050E040E0C7
:101A200066E070E0C9010E94DE048091E8008E77D4
:101A30008093E8000895CF93DF93EC018091240117
:101A40008823B1F180919A0387FF32C060E282E07F
:101A50008093E9008FEF9091E800815095FD06C0DA
:101A600095ED9A95F1F700008111F5CF8091E8008E
:101A700085FF1BC08091240170E050E040E081119F
:101A800004C050E040E068E070E0CE010E94DE0457
:101A90008091E8008E778093E80080E2FE01A3EE5B
:101AA000B3E001900D928A95E1F7DF91CF9108950F
:101AB00068E081E0CDCFEF92FF920F931F93CF9319
:101AC000DF930E94970C0E94940C0E94910C0E943C
:101AD0008E0C88E8E82EF12C8FEF90E0F7019183CF
:101AE00080830AE810E0F80191838083CCE8D0E09D
:101AF000998388830E94A00CFFEF20E782E0F150D9
:101B000020408040E1F700C000000E949D0C9FEF44
:101B1000E0E7F2E09150E040F040E1F700C0000063
:101B20000E949A0C2FEF80E792E021508040904075
:101B3000E1F700C000000E94940CEFEFF0E722E014
:101B4000E150F0402040E1F700C000000E94910CFD
:101B50008FEF90E7E2E081509040E040E1F700C075
:101B600000000E948E0C809188038770FFEF8F9F8A
:101B7000C001112495958795959587959927F7012B
:101B800091838083F80191838083998388830E9465
:101B9000970C0E94940C0E94910CDF91CF911F91A1
:101BA0000F91FF90EF900C948E0CCF9384E090E017
:101BB0000E941B2EC82F81E290E00E941B2E982FBE
:101BC0008C2FCF910895CF92DF92EF92FF926B010D
:101BD0007C010E949209B701A60188E090E0FF9085
:101BE000EF90DF90CF900C94412E8091B803882322
:101BF00019F081508093B8036091B4037091B503DC
:101C00008091B6039091B7030C94E30D8091B803D3
:101C1000833018F48F5F8093B8036091B4037091A0
:101C2000B5038091B6039091B7030C94E30DE4EBF8
:101C3000F3E083E0808311828FEF828383831482B9
:101C400060817181828193810C94E30D6FEE7EEF50
:101C500090E080E00E944D2E60E082E090E00E94E3
:101C60002F2E60E083E090E00E942F2E10927903E7
:101C700010927A0310927B0310927C0360E084E060
:101C800090E00E942F2E60E081E290E00E942F2ED3
:101C900060E085E090E00E942F2E60E086E090E01A
:101CA0000E942F2E6FEF87E090E00E942F2E40E0E1
:101CB00050E0BA0188E090E00E94412E60E08DE0A3
:101CC00090E00E942F2E40E050E0BA0188E190E0C1
:101CD0000E94412E60E087E190E00E942F2E40E0BC
:101CE00050E0BA018CE190E00E94412E60E080E279
:101CF00090E00E942F2E1092880310928903109278
:101D00008A0310928B0384E0806180938803409162
:101D100088035091890360918A0370918B038FE04F
:101D200090E00E94412E40E050E0BA0183E190E053
:101D30000C94412ECF93C82F873070F580911801F5
:101D400090911901892B89F564E670E080E40E9486
:101D50007D2B9093190180931801892BD1F464E6AF
:101D600070E082E10E94D92B9093190180931801B1
:101D7000892B79F481E090E001C0880FCA95EAF7D9
:101D800064E670E080950E94D92B909319018093AE
:101D90001801CF910C942C2C8A30B9F040F4883083
:101DA00071F0893079F0209A2898CF9108958C307D
:101DB00091F070F08D30B9F73E9A4698F6CF219A9F
:101DC0002998F3CF229A2A98F0CF239A2B98EDCF17
:101DD000529A5A98EACF539A5B98E7CFCF93DF9302
:101DE0008091B40380FD0BC0E3E6F2E01182108223
:101DF00012821382349652E0EF39F507B9F7C3E641
:101E0000D2E0FE01928120813181892F291708F4C7
:101E1000822F381708F4832F8383381B3183281BC4
:101E20002083981B9283349682E0EF39F80751F7AC
:101E30000E94772B64E670E084E80E947D2B64E6C4
:101E400070E088810E94D92B64E670E089810E944D
:101E5000D92B64E670E08A810E94D92B64E670E099
:101E60008B810E94D92B249692E0CF39D90739F77C
:101E70000E942C2C579A3BB13F772BB120684FB76B
:101E8000F89483E692E0FC015191CF0168E02BB910
:101E9000000000C057FF3BB9550F000000C000C054
:101EA00000C03BB900C06A9591F7F2E08F399F07F7
:101EB00051F74FBF8FE594E00197F1F700C00000A4
:101EC000DF91CF9108958F929F92AF92BF92CF9260
:101ED000DF92EF92FF920F931F93CF93DF93FC015A
:101EE000B280948081E08483CFE9D2E003E612E0FF
:101EF0008BE4A82E88248394EE24EA94F12C2BE41E
:101F0000C22ED12C91101DC01B821A8298014A81C9
:101F1000698188810E94A10925960C5F1F4F82E08C
:101F2000CA3ED80779F7DF91CF911F910F91FF90AB
:101F3000EF90DF90CF90BF90AF909F908F900C94D8
:101F4000EE0E2B81222309F121502B833C818A2D17
:101F5000821B311101C0822F9091B703899FC0016C
:101F60001124B6010E944A2C6A83211104C0332334
:101F700011F01C82AB8222E02B1540F28091B50358
:101F800088838091B6038983C1CF0E94D32C82308D
:101F900091400CF0BBCF82E08B15C0F40E94D32C93
:101FA000B7010E945E2C888322E02B1590F40E94DA
:101FB000D32C2091B6032695622F70E00E945E2CF0
:101FC000280F29831A82AB828C82A0CF8091B5031F
:101FD000EACF2091B603F5CFEF92FF921F93CF93F4
:101FE000DF93EC0183E6E82E82E0F82E10E08C818E
:101FF00097014091B7036091B603810F0E94A10938
:102000001F5E84E0E80EF11C1F3F89F70E94EE0E70
:102010009A818C8190FF08C08F5F8C83DF91CF9174
:102020001F91FF90EF9008958150F7CFBF92CF920C
:10203000DF92EF92FF920F931F93CF93DF93FC01F8
:102040008281DD24DA9480FD02C0DD24D39403E68E
:1020500012E0D0E0C0E02FE0B22EF8011182108231
:102060001282138294E0E92EF12CC12C809160023F
:102070008C0D80310CF43DC06B2D0E943C2C892FBF
:10208000082E000C990B8C179D0791F48091B703D3
:102090008E9DA0018F9D500D112455954795559506
:1020A000479598016091B6038091B5030E94A109FC
:1020B000CD0CF1E0EF1AF108C9F621960C5F1F4F25
:1020C000CF30D10551F60E94EE0E8091600291E072
:1020D000D91215C0811111C08EE080936002DF918A
:1020E000CF911F910F91FF90EF90DF90CF90BF9015
:1020F000089587FFC5CF815FC3CF8150EECF90E0B9
:102100000196BE010E945E2CE8CF0F931F93CF93E0
:10211000DF93C3E6D2E0FE011182108212821382A5
:10212000349682E0EF39F807B9F710E000E08091CB
:102130006102082E000C990B081719078CF1809189
:102140001601082E000C990B801791074CF19E0187
:102150004091B7036091B6038091B5030E94A10935
:102160000F5F1F4F24960F30110509F70E94EE0EE6
:102170008091150190916102980F909361022091D6
:102180001601280F20931601121614F49E301CF02D
:10219000819580931501DF91CF911F910F91089543
:1021A000198218821A821B82DBCF8F929F92AF9284
:1021B000BF92CF92DF92EF92FF920F931F93CF9334
:1021C000DF93EC014C81042F10E09801D8010E94AC
:1021D000B72E9B01AC010E94822E4B015C01E0E214
:1021E000F0E0E01BF10BA5E5B0E0AC019B010E9423
:1021F000822E6B017C019F01DF010E94782C9B01E4
:10220000AC010E948D2E9B01AC01280D391D4A1D89
:102210005B1DC701B6010E94952EF22E822F90E021
:1022200039E23F15D8F143E0249F90011124359500
:102230002795122F109593E6C92E92E0D92E00E033
:1022400085E5E82EEF188E2D01FD8F2D9601412F8B
:102250006091B6030E94A1090F5F54E0C50ED11C26
:102260000F3089F70E94EE0E9C8181E0992319F0CE
:10227000903219F48FEF8093170180911701890F25
:102280008C83DF91CF911F910F91FF90EF90DF90A2
:10229000CF90BF90AF909F908F90089525E530E04C
:1022A000A901481B590BCA019A01220F331F280F9D
:1022B000391F37FFBCCF2F5F3F4FB9CFEF92FF924F
:1022C0000F931F93CF93DF938C01C3E6D2E0F12CE1
:1022D000E12CF80194816091B6038091B503F7E099
:1022E000EF16F104FCF49923F9F09E014091B70335
:1022F0000E94A1092FEFE21AF20A24968FE0E81655
:10230000F10439F70E94EE0EF801848190E0019605
:10231000817099278483DF91CF911F910F91FF9056
:10232000EF900895992309F39E0140E0E1CF909149
:10233000B40390FF0DC0E3E6F2E081836083428343
:102340001382349692E0EF39F907B9F70C94EE0E48
:1023500008950F931F93CF93DF9300D000D0CDB794
:10236000DEB78C018091620281110AC09E012F5F4D
:102370003F4F4FEF6FEF0E94A1098A818093620265
:10238000F8016481613069F08091620240E0662367
:1023900061F040E0623011F44091620280E060E060
:1023A00004C06091620240E080E00E949711F80151
:1023B000848190E0019663E070E00E945E2C84834B
:1023C0000F900F900F900F90DF91CF911F910F9171
:1023D0000895CF93DF9300D000D0CDB7DEB79091B2
:1023E000B40390FF0AC09E012F5F3F4F0E94A109D6
:1023F0004B8169818A810E9497110F900F900F90F5
:102400000F90DF91CF910895CF93DF93EC01EC8192
:10241000F0E0EF54FE4F4491E4EBF3E06281818100
:102420000E94E9118C818F5F8C83DF91CF91089599
:10243000CF93DF93EC01E4EBF3E0438162818C8185
:102440000E94E9118C818F5F8C83DF91CF91089579
:102450005F926F927F928F929F92AF92BF92CF9234
:10246000DF92EF92FF920F931F93CF93DF9300D0F1
:1024700000D0CDB7DEB7182F762E042F622E9091A4
:10248000B40390FF29C0E92FE695AE2FB0E0AF5C12
:10249000BE4F8C918093B9039E7F923089F59E0147
:1024A0002F5F3F4F812F0E94A1094B8169818A8153
:1024B0000E9497111093B5037092B6030093B7036F
:1024C000662051F06091B4037091B5038091B6031A
:1024D0009091B7030E94E30D0F900F900F900F9013
:1024E000DF91CF911F910F91FF90EF90DF90CF90F0
:1024F000BF90AF909F908F907F906F905F90089566
:10250000823019F40091B703D5CF863019F41091B9
:10251000B503D0CF8930D9F3893161F6E9518E2FD7
:102520008170582EE695F0E0E455FE4FA590B490EA
:10253000BB2483E6E82E82E0F82ED12CC12C9FE04C
:10254000892E912CC601B4010E944A2C812F511072
:1025500013C0860F9701402F672D0E94A109CA0C56
:10256000DB1C84E0E80EF11C8FE9E81682E0F80637
:1025700049F70E94EE0E9ECF861BECCFE4EBF3E012
:1025800043812CE0421B08F440E021E0628181811C
:102590000C942812E4EBF3E043812CE0420F08F4A2
:1025A0004FEF21E0628181810C942812E4EBF3E08B
:1025B00062812FEF621B08F460E021E0438181819A
:1025C0000C942812E4EBF3E062812FEF620F08F421
:1025D0006FEF21E0438181810C942812E4EBF3E05A
:1025E000818121E0438162818C500C942812E4EBBC
:1025F000F3E0818121E043816281845F0C942812A1
:10260000E4EBF3E080818E7F808360817181828141
:1026100093810E94E30D1092BA032FEF80E792E0BE
:10262000215080409040E1F700C000000C94EE0E75
:1026300080E290E0909319018093180180915602F6
:1026400081110EC00E94772B81E0809356022FEFFC
:1026500083ED90E3215080409040E1F700C00000FE
:1026600064E670E080E40E947D2B909319018093D2
:102670001801892B09F04EC064E670E080E00E94EA
:10268000D92B9093190180931801892B09F042C02E
:1026900064E670E080E00E94D92B9093190180934A
:1026A0001801892BB9F564E670E08FE30E94D92BFD
:1026B0009093190180931801892B61F50E942C2CAD
:1026C00064E670E080E40E947D2B90931901809372
:1026D0001801892BF9F464E670E08CE00E94D92B94
:1026E0009093190180931801892BA1F464E670E09E
:1026F00080E00E94D92B9093190180931801892BB7
:1027000049F464E670E08FE30E94D92B909319019D
:10271000809318010E942C2C809118010895CF936A
:10272000873050F58091180190911901C0E0892BF4
:1027300071F464E670E081E40E947D2B90931901AE
:1027400080931801892B31F0C0E00E942C2C8C2F33
:10275000CF91089584E690E00E94082C97FF05C071
:102760009093190180931801EFCFC82FC095109254
:10277000190110921801E9CFCFB18FB186958695D6
:102780008C73C3708C2BC82FC095E1CF78941F92A7
:102790001FB61F9211248F939F93AF93BF93809185
:1027A0007D0390917E03A0917F03B09180030196F9
:1027B000A11DB11D80937D0390937E03A0937F03A1
:1027C000B0938003BF91AF919F918F911F901FBED7
:1027D0001F9018952FB7F89480917D0390917E03F8
:1027E000A0917F03B09180032FBF08950E94EA1348
:1027F0009C019091C3038091C403982B21F03093E6
:10280000C0032093BF039091C5038091C603982B0A
:1028100021F03093BD032093BC03E0919D03F09120
:102820009E03309749F082E08093C1030480F581D4
:10283000E02D81EC93E009940895109276031092B4
:1028400075030E94850886E0E1ECF3E0DF011D924C
:102850008A95E9F71092BE031092BB031092810390
:102860000E94F61390E080E00E946B0990E080E007
:102870000C9455096093790370937A0380937B03DA
:1028800090937C030C941D14109277038091240183
:10289000E8E3F2E0882359F080919A0387FF07C0AC
:1028A0008EE1DF011D928A95E9F70C941D1486E0F4
:1028B000F8CF1F93CF93DF93CDB7DEB7AA970FB6AC
:1028C000F894DEBF0FBECDBF87E094E02091F10009
:1028D000FC012193CF01F4E08F309F07B9F780917D
:1028E0000804893009F444C018F5823009F4B7C0EF
:1028F000833009F46CC0813031F580910704813A4E
:1029000011F58091E800877F8093E80080910B04A7
:1029100090910C04892B41F560E283EE93E070E026
:102920000E941B068091E8008B778093E8000BC023
:102930008B3009F469C008F481C0823409F4A0C066
:10294000853409F4BAC08091E80083FF65C28091A4
:102950000704909108049A3008F05EC2E92FF0E075
:10296000EA52F14D0C94722C60E090E080E0D7CFF9
:1029700080910704813239F780910B0490910C0407
:10298000029708F78091E800877F8093E8008091A4
:10299000E80082FF17C09091F3008091F200029747
:1029A00029F48091F1008B7F813021F48091F10036
:1029B0008093E2038091E8008B778093E8000E9487
:1029C0000A05C1CF809105048111E1CFBCCF809170
:1029D0000704813A09F0B7CF80910B0490910C0461
:1029E000892B09F0B0CF8091E800877F8093E800C1
:1029F0008091E80080FFFCCF809124018093F1005A
:102A00008091E8008E77D9CF80910704813209F058
:102A10009ACF80910B0490910C04892B09F093CFED
:102A20008091E800877F8093E8000E940A058091EA
:102A30000904809324010E94441485CF80910704E7
:102A4000813209F080CF8091E800877F8093E80091
:102A50000E940A0580910A048093E10374CF80915B
:102A60000704813A09F06FCF8091E800877F809357
:102A7000E8008091E80080FFFCCF8091E103BECFA9
:102A800080910704803C09F05ECF80910B04909107
:102A90000C04029739F58091090490910A04892B5E
:102AA00009F58091E800877F8093E8006BE170E092
:102AB00088EC96E00E94BC0582CF80910704803CA0
:102AC00009F041CF80910B0490910C04079751F4C9
:102AD0008091E800877F8093E80062EB70E086E1F8
:102AE00096E0E8CF8091EB0080628093EB002BCFE3
:102AF000803899F0823809F08FC180910B048F7073
:102B0000873008F089C18093E9008091EB0085FB54
:102B1000882780F91092E90006C080910304909103
:102B20000404911182609091E800977F9093E800EF
:102B30008093F1001092F1008091E8008E7768C1D7
:102B4000882309F456C1823009F066C180910904D6
:102B5000811159C180910B048F702FEF280F2630FF
:102B600008F05AC18093E9002091EB0020FF4BC18F
:102B7000933031F48091EB0080628093EB0043C18D
:102B80009091EB0090619093EB0021E030E001C068
:102B9000220F8A95EAF72093EA001092EA008091CA
:102BA000EB008860EACF811137C1109109041F77CB
:102BB0008091E3008078812B8093E3008091E8008E
:102BC000877F8093E8000E940A058091E80080FFDB
:102BD000FCCF8091E30080688093E30082E01111D4
:102BE00083E08093050418C18058823008F014C136
:102BF0008091090490910A048C3D23E09207A1F58D
:102C000083E08A838AE289834FB7F894DE011396C2
:102C100020E03EE051E2E32FF0E050935700E491D2
:102C200020FF03C0E295EF703F5FEF708E2F90E0C2
:102C3000EA30C0F0C7968D939D932F5F243159F7EA
:102C40004FBF8091E800877F8093E8006AE270E0E0
:102C5000CE0101960E941B068091E8008B7780933D
:102C6000E800DAC0C096E7CF40910B0450910C0405
:102C7000292F33272330310569F1A0F421303105A4
:102C800009F46CC062E570E080EE97E02230310517
:102C900009F0C2C02091E800277F2093E8000E943D
:102CA000BC05DACF2132310509F440C022323105AA
:102CB00009F448C02F30310509F0AEC0E6EAF8E06B
:102CC000E4916E2F70E084EA98E06115710509F4D3
:102CD000A3C0E0CF992781309105C1F0009771F032
:102CE00082309105D9F0039709F096C0E4E4F8E04A
:102CF000E4916E2F70E084E498E0E7CFE0EAF8E03A
:102D0000E4916E2F70E080EA98E0DFCFEEE6F8E025
:102D1000E4916E2F70E08EE698E0D7CFEAE4F8E019
:102D2000E4916E2F70E08AE498E0CFCF4115510511
:102D3000D1F04130510509F06FC069E070E08BE0DF
:102D400098E0A8CF4115510599F04130510509F09F
:102D500063C06CEB70E084EE96E09CCF62E170E0C3
:102D600082E398E097CF69E070E082EF97E092CF3E
:102D700060E470E080EA97E08DCF803809F04CC0C5
:102D80008091E800877F8093E8008091060480931B
:102D9000F100D2CE811140C0109109041230E0F54B
:102DA0008091E800877F8093E800109306040E94DA
:102DB0000A05112311F084E005C08091E30087FD2E
:102DC000FACF81E08093050442E061EC81E00E944B
:102DD000290542E261EC82E00E94290542E361ECB0
:102DE00083E00E94290542E360EC84E00E9429050B
:102DF00013C080910904813079F481E0933009F0A7
:102E000080E0809304041092E9008091E800877FBD
:102E10008093E8000E940A058091E80083FF0AC0C1
:102E20008091E800877F8093E8008091EB008062CA
:102E30008093EB00AA960FB6F894DEBF0FBECDBF0D
:102E4000DF91CF911F9108951F920F920FB60F92AD
:102E500011242F933F934F935F936F937F938F939F
:102E60009F93AF93BF93CF93DF93EF93FF93D09153
:102E7000E900DF708091EC00C82FC17080FDC0E8D0
:102E80001092E9008091F000877F8093F0007894A1
:102E90000E9459141092E9008091F000886080939C
:102EA000F000CD2BCF70C093E900FF91EF91DF913F
:102EB000CF91BF91AF919F918F917F916F915F91D2
:102EC0004F913F912F910F900FBE0F901F9018952B
:102ED0008823B1F19CEF980F913A38F4682F86E37C
:102EE00092E00E94D3070C94850890E2980F9830E6
:102EF00088F4877021E030E0A90102C0440F551F1B
:102F00008A95E2F7CA01809590917703892380938F
:102F10007703E9CF9BE5980F933020F490E080E0B1
:102F20000C946B0998E5980F973120F490E080E0BD
:102F30000C945509803F20F00E9495060C94F613DE
:102F40000895CF93C82F882309F46EC08CEF8C0F9F
:102F5000813AB8F580912401882311F180919A0378
:102F600087FF1EC0EC2FE695E695E695F0E0EA5C5B
:102F7000FD4F828190E04C2F477021E030E002C08D
:102F8000220F331F4A95E2F782239323892B89F07E
:102F90006C2F86E392E00E94D3070E94850809C047
:102FA000E8E3F2E08191C81799F382E0EE33F80785
:102FB000C9F76C2F86E392E00E94FD07CF910C9435
:102FC000850880E28C0F883068F4C77021E030E01B
:102FD00001C0220FCA95EAF780917703822B809374
:102FE0007703ECCFEBE5EC0FE33040F4F0E0EC5F7F
:102FF000FD4F808190E0CF910C946B09E8E5EC0FD8
:10300000E73150F4F0E0EE0FFF1FE95FFD4F8081E4
:103010009181CF910C945509C03F30F08C2F0E94C4
:103020005C07CF910C94F613CF910895CF93C82FDE
:103030000E94A117C93349F42FEF87EE93E0215086
:1030400080409040E1F700C000008C2FCF910C949D
:1030500068170F931F93CF93DF93C42FD22FFC01D8
:1030600082818823A1F0409300030E94EA13909389
:10307000EB028093EA02C77081E001C0880FCA9515
:10308000EAF7DF91CF911F910F910C944B091091AA
:103090000003141335C08091EA029091EB020E9464
:1030A000C407883C910560F5C0E2CD0F1D17B9F04B
:1030B00080E2810F883040F4177081E001C0880FF2
:1030C0001A95EAF70E944009C83048F481E09D2F24
:1030D000977001C0880F9A95EAF70E944B09802FDC
:1030E0000E941618C83098F4D77081E001C0880F8C
:1030F000DA95EAF7DF91CF911F910F910C94400977
:10310000C77081E001C0880FCA95EAF7F3CFDF915D
:10311000CF911F910F9108956091B403669570E06F
:103120004BE050E08AE091E00E940E2E892B19F4CA
:1031300081E08093BA030E94EA139093AF038093D7
:10314000AE0308959091B40390FF36C09170811141
:1031500029C092609093B403662351F06091B40348
:103160007091B5038091B6039091B7030E94E30D6F
:103170006091B403669570E04BE050E08AE091E026
:103180000E940E2E892BA9F01092BA0381E0809341
:10319000B10320E04091B7036091B6038091B5037D
:1031A0000C9428128B3210F09465D4CF880F982B92
:1031B000D1CF0E948C18EACF0895E4EBF3E0808130
:1031C0008160808360E086950C94A2181F920F9214
:1031D0000FB60F9211242F933F934F935F936F93EA
:1031E0007F938F939F93AF93BF93EF93FF938091C0
:1031F000E10082FF09C08091E20082FF05C080915A
:10320000E1008B7F8093E1008091DA0080FF24C091
:103210008091D80080FF20C08091DA008E7F80935B
:10322000DA008091D90080FFA8C080E189BD82E1E9
:1032300089BD09B400FEFDCF81E080930504809133
:10324000DE03811109C00E948E040E945B058091FB
:10325000E20084608093E2008091E10080FF17C06B
:103260008091E20080FF13C08091E2008E7F809306
:10327000E2008091E20080618093E2008091D800BA
:1032800080628093D80019BC85E08093050480910A
:10329000E10084FF36C08091E20084FF32C080E10B
:1032A00089BD82E189BD89B5982F917080FFFBCFE0
:1032B0008091D8008F7D8093D8008091E1008F7E2F
:1032C0008093E1008091E2008F7E8093E200809104
:1032D000E20081608093E20080910604882309F473
:1032E00052C084E0809305040E9444140E94810926
:1032F0001092E0038091DF0381110E94DD180E948B
:103300008C188091E10083FF27C08091E20083FF49
:1033100023C08091E100877F8093E10082E0809369
:103320000504109206048091E1008E7F8093E100F5
:103330008091E2008E7F8093E2008091E2008061C4
:103340008093E20042E060E080E00E9429058091E5
:10335000F00088608093F000FF91EF91BF91AF91F2
:103360009F918F917F916F915F914F913F912F919D
:103370000F900FBE0F901F90189519BC1092050466
:103380001092DE0369CF8091E30087FD93E0909374
:103390000504AACF61E00C94A218E4EBF3E080816D
:1033A0008160808386950C94CA198091B4038695B8
:1033B000815009F48AE261E00C94A2188091B40370
:1033C00086958F5F8B3208F081E061E00C94A21843
:1033D0009091B40390FF07C09695981720F0961728
:1033E00010F40C94DE190C94CA19CF92DF92EF926C
:1033F000FF92CF93DF936B017C010E943208D82F9C
:103400000E94970C0E94940C0E94910C0E948E0CBA
:10341000C091FE02EFEFED0FE73008F05FC0F0E083
:10342000E052F14D0C94722C0E94A00CC11166C0A8
:103430000E94DD1860E081E00E94A21820E044ECC8
:103440006CE588E459C00E949D0CC11157C00E94D0
:10345000DD1860E081E00E94A21820E04CED6EE7EC
:1034600085E94AC00E949A0CC11148C00E94DD182B
:1034700060E081E00E94A21820E04FEF6FEF89E248
:103480003BC00E94A00C0E949D0CC11137C088E077
:1034900090E00E94232E6093B4037093B503809351
:1034A000B6039093B70360FF32C00E94CD1980919C
:1034B000B40386950E94CA1921E04091B703609138
:1034C000B6038091B50318C00E94A00C0E949A0C0C
:1034D000DCCF0E94A00C0E949D0CF8CFD111D5CF5B
:1034E000C1110CC00E94DD1860E081E00E94A218AA
:1034F00020E040EE6AE880E00E942812C701B60191
:10350000DF91CF91FF90EF90DF90CF9008950E94D0
:103510000013F4CFCF92DF92EF92FF92CF93DF931D
:1035200000D000D0CDB7DEB70E94F5196B017C0149
:103530008091DB03882321F08091DC03811115C089
:10354000C092D703D092D803E092D903F092DA0365
:103550000E941D140F900F900F900F90DF91CF914C
:10356000FF90EF90DF90CF900895198282E08A83D8
:10357000C701B6010E9432088B838EEF8C8364E012
:10358000CE0101960E947D06DBCF0F931F9341E091
:1035900050E060E070E004C0440F551F661F771FC5
:1035A0008A95D2F7CB01BA01609570958095909578
:1035B0000091D7031091D8032091D9033091DA03F9
:1035C00060237123822393231F910F910C948A1AF5
:1035D000909174038095892380937403282F27701A
:1035E00071F4282F082E000C330B9217130639F0B4
:1035F0008595859585950E94C51A10927403089546
:103600000F931F9341E050E060E070E004C0440F6E
:10361000551F661F771F8A95D2F78091D703909127
:10362000D803A091D903B091DA038A019B01082B3A
:10363000192B2A2B3B2BC901B8011F910F910C9418
:103640008A1A4F925F926F927F928F929F92AF925F
:10365000BF92CF92DF92EF92FF920F931F93CF937F
:10366000DF9300D000D00F92CDB7DEB77C01FC0114
:1036700083819481892B39F01081D180812F8D2114
:103680008F3F09F077C70F900F900F900F900F901A
:10369000DF91CF911F910F91FF90EF90DF90CF902E
:1036A000BF90AF909F908F907F906F905F904F9062
:1036B00008950E941E0C082F682F89819A810E940C
:1036C000F308E12FF0E026E0D29EE00DF11D112479
:1036D00034E5039FE00DF11D1124EE0FFF1FEF599C
:1036E000FC4F059114918091DB03882321F0809198
:1036F000DC0381112BC7F70182810932FDE51F0729
:1037000009F09CC08823C9F18091880391E0980F4B
:103710009770887F953008F4892B80938803809177
:10372000880387702FEF829FC0011124959587959C
:103730009595879599279093890080938800909319
:103740008B0080938A0090938D0080938C00409131
:1037500088035091890360918A0370918B038FE0F5
:1037600090E00E94412E6091D7037091D803809120
:10377000D9039091DA030E94F519F7018281882319
:1037800009F455C19801215E3C452530310508F00A
:103790004EC16FE1600F609384038CE090E00E9463
:1037A0002F2EF7019281992309F40CC71092000380
:1037B0000230FCE51F0708F4EEC606312CE51207BF
:1037C00038F098012A5F3C452730310508F0E3C600
:1037D0000E94D50D90939B0380939A030F303CE594
:1037E000130709F49EC208F018C208309CE51907B7
:1037F00009F481C208F0EDC10430FCE51F0709F4AB
:103800006EC208F0D3C102303CE5130709F45FC271
:1038100003301C4509F45FC260919A0310919B0329
:1038200084E090E00E942F2E612F81E290E00E94C0
:103830002F2E0E944414C7C081E18EC60C323DE594
:10384000130709F4CEC088F40A32EDE51E0709F427
:10385000B2C00B32FDE51F0709F08FCF882309F4B2
:10386000B2C081E00E94CA19AEC00E322DE5120727
:1038700009F4D1C008F4C3C00F329DE5190709F05F
:103880007CCF882309F479CFF1E5CF2EF3E0DF2E4A
:10389000AAE06A2EF6012491222309F46ECF21308A
:1038A00009F048C031968491813059F4F2E0CF0E8E
:1038B000D11CF60184910E9416189FEFC91AD90AEB
:1038C000E9CF823041F4F2E0CF0ED11CF6018491B1
:1038D0000E94A117F2CF833041F4F2E0CF0ED11C49
:1038E000F60184910E946817E8CF843009F061C026
:1038F000F2E0CF0ED11CF601249190E080E0F601B9
:1039000031962053330B2A30310548F00197A8F245
:10391000EFE9FFE03197F1F700C00000F7CF689EB4
:10392000A001699E500D1124C901840F951F249197
:103930006F01E5CFE22FF0E0EF52FD4F7490822F40
:1039400086958695869590E0FC01EF53FD4F849017
:103950002770912C022E02C0959487940A94E2F766
:1039600031E083229924FC01EF54FD4FA490B12C47
:1039700002C0B594A7942A95E2F781E0A822BB245F
:103980008114910419F081EE0E94A117A114B104D1
:1039900019F086EE0E94A117872D0E941618AB28F9
:1039A00019F086EE0E946817892809F486CF81EE07
:1039B00099CF6F0182CF882331F08091FE0291E090
:1039C00089278093FE0280917403877009F45BCE8F
:1039D000F7018281882309F456CE82E00E94E81A1A
:1039E00052CE882381F30E94CD1981E00E94CA192A
:1039F00021E04FEF6FEF8CEA0E942812E4CF88237A
:103A000011F30E94CD1981E00E94CA1921E040E81B
:103A10006FEF86E5F1CF8823B1F20E94CD1981E0E6
:103A20000E94CA1921E04FEF6FEF8BE1E5CF17FF3E
:103A300074C0882309F4B5CE809177038093FF0288
:103A40001092770380918403813009F441C0882368
:103A5000D9F1823009F449C0843009F44DC08FE3B4
:103A60009CE90197F1F700C000005801E894B7F80D
:103A7000ECE0CE2ED12C95010C2C02C0369527956A
:103A80000A94E2F72F7087E290E029F0822F90E00D
:103A90002A30B8F54D960E94161894E0C91AD1083C
:103AA000ECEFCE16EFEFDE0631F780918403813024
:103AB00071F1882341F1823031F1843061F18091DC
:103AC000FF02809377036DCE82EE0E94A117C7CFCD
:103AD00083E00E94360988E10E94A11788E10E94D4
:103AE000681783E00E942B09BACF82EE0E94A117CB
:103AF00087E50E941618B3CF86EE0E94161888E15B
:103B0000F8CF0697C8CF82EE0E946817D8CF8CE214
:103B10000E941618D4CF88E2FBCF033FFCE51F07B5
:103B200069F1B0F4083D3CE5130711F1093D8CE55E
:103B30001807B1F1073D9CE5190709F032CE06E2FE
:103B400021EE41EE67ED7CE5C7010E9429183BCFCD
:103B5000053FECE51E07F1F0B8F0063F2CE5120733
:103B600009F01FCE07E225EE46EE66EF7CE5ECCFCE
:103B700007E225EE45EE68ED7CE5E6CF06E221EEB4
:103B800040EE63EF7CE5E0CF07E225EE44EE64EF24
:103B90007CE5DACF06E221EE42EE65EF7CE5D4CF9C
:103BA00008E221E045EE69ED7CE5CECF80919A03F5
:103BB000806106309CE5190709F447C080919A039B
:103BC000886007301C4508F440C080919A038062E9
:103BD0003CC00B30FCE51F0709F49BC068F40930BA
:103BE0003CE5130709F48BC00A301C4509F014CEDC
:103BF00080919A038C6029C080919A038B7F0D304D
:103C00009CE5190711F180919A038D7F0E301C45B8
:103C1000E0F080919A03877F18C00A3FFCE51F07F8
:103C200009F461C060F502313CE5130709F481C075
:103C300078F400319CE5190709F477C080919A0364
:103C40008F7B01311C4509F0E7CD80939A03E4CDC9
:103C50000431FCE51F0709F47AC008F470C005318F
:103C60001C4509F0D9CD80919A0382FB992790F9E0
:103C700021E0922790FB82F990FB83F9E6CF0D3F7C
:103C80008CE5180709F449C070F40B3FECE51E07FA
:103C900071F180919B038E7F0C3F1C4509F0BCCDD8
:103CA00080939B03B9CD0F3F2CE5120709F44BC05D
:103CB00060F101151D4509F0AFCD80919B03982F50
:103CC000909591708E7F892B90FB81F9E9CF80913F
:103CD0009A038160BACF80919A038260B6CF8091B7
:103CE0009A038460B2CF80919B038160D9CF809189
:103CF0009B038260D5CF80919A038064A6CF0E94F7
:103D0000441480919A038068A0CF80919B038360C4
:103D1000C7CF80919A038E7F98CF80919B038D7F30
:103D2000BFCF80919A038F7E90CF80919A038F7D31
:103D30008CCF0E94441480919A038F7786CF809114
:103D40009A03837F82CF80919B038C7FA9CF0E94AF
:103D5000441490919A03892F97FB87F9805875CF67
:103D6000992309F4B9C0809177038272F801E25C6B
:103D7000FC45E431F10508F05AC0E951F14D0C94CD
:103D8000722C8091B40380FF03C00E9400131BCEED
:103D90000E94CD1918CE45ED59E16EED79E10E94F2
:103DA0008D0911CE4EED59E165ED79E1F8CF4EEE7A
:103DB00052E167EF72E1F3CF47EF52E16EEE72E14D
:103DC000EECF46ED52E162EE72E1E9CF42EE52E112
:103DD00066ED72E1E4CF4EEB52E16AEC72E1DFCFC7
:103DE0004AEC52E16EEB72E1DACF45EF5DE066E05E
:103DF0007EE0D5CF46E05EE065EF7DE0D0CF65E0C8
:103E000082E00E94E819DFCD68E086E0FACF6EE03C
:103E100089E0F7CF64E18FE0F4CF67E185E1F1CF8E
:103E200088E120CD62E289E1ECCF83E21BCD0E3D3B
:103E3000ECE51E0709F446C00830FDE51F0709F44C
:103E400044C001151C4509F047C00E9444143FEFCF
:103E500084E39CE0315080409040E1F700C00000D6
:103E6000F89481E08093E00080E28093D800109283
:103E7000C900EFE1FEE43197F1F700C000001DBA80
:103E8000109268001CBC10BE1FBA10927A001092EB
:103E90006E0010926F0010927100109272001092DA
:103EA000C9001092BC0014B817B81AB81DB810BADF
:103EB0001092BC0015B818B81BB81EB811BA0C94F3
:103EC000003F81CD0E94260E7ECD8091DD0391E0E2
:103ED00089278093DD0377CDF70100811181992334
:103EE00009F444C0C8010E941E0CD82E682FC801D6
:103EF0000E94F308B8018D2D0E947B0A082FD92E4D
:103F0000B82EF701C580C2947FE0C722128111113B
:103F100010927603809174038770C1F01123B1F081
:103F20008D2D807F803449F090E2900F983070F0B2
:103F3000803619F4F6EFBF1649F082E00E94E81AC5
:103F4000809174038770AA24A3948111A12C9D2CC5
:103F500092945FE095226BE0462E491408F441C02C
:103F6000E92DF0E0E550F14D0C94722CC8010E944F
:103F7000CA08D82EBFCF2D2D2F70C22E8D2D807F39
:103F800019F0C29440EFC4221123C9F0CC2069F08B
:103F900080E2800F883010F0B1100BC08091770361
:103FA000C82AC09277030E948508802F0E94A1171B
:103FB00018C080917603C82AC0927603F4CF802F70
:103FC0000E946817CC2069F0C094005E083010F0A1
:103FD000B11057C080917703C822C09277030E9426
:103FE0008508292D2850330B2430310510F40E9408
:103FF0008109112379F08D2D807F803619F436EFF9
:10400000B31641F080910203823009F097C283E039
:1040100080930203AA20A9F08091740380FD11C04F
:10402000F70112828595859585950E94001BC70131
:104030000E94211B809174038595859585950E942A
:10404000C51A85E0F701DE01119601900D928A955F
:10405000E1F789819A810E94CA089A81E981F0E09A
:1040600026E0929FE00DF11D112434E5839FE00DC1
:10407000F11D1124EE0FFF1FEF59FC4F8591949114
:1040800002CB80917603C822C0927603A8CF3D2D43
:104090003F70832E8D2D807F803219F0829430EF17
:1040A0008322BB2041F081E0B81631F1112381F168
:1040B000CC2049F17ACF112391F090917803892F88
:1040C0008829C11003C00E944B098BCFE1E0CE12BA
:1040D000FACF981709F485CF8093780382CFC11067
:1040E00006C00E947F08882D0E9440097ACFF1E027
:1040F000CF1609F476CFF5CF112339F04424439439
:104100004C1408F46ECF882DDECFC1106ACFEBCFF0
:10411000CC2049F329E3522EB51009C02FEF37EE1A
:1041200083E0215030408040E1F700C00000802F44
:104130000E94681756CF8D2D86958695837069F0FD
:10414000813009F04ECF802F9D2D9370111102C048
:1041500090E080E00E94550944CF802F9D2D937000
:10416000111102C090E080E00E946B093ACF802FCD
:10417000112329F00E945C070E94F61332CF0E949F
:104180009506FACF8D2D837009F067C0111129CFE4
:10419000202F229526952770220F220F402F4F7037
:1041A00050E070E060E0022E04C0440F551F661F0F
:1041B000771F0A94D2F780E090E0DC0104FF0FC083
:1041C0008FE090E0A0E0B0E004C0880F991FAA1F24
:1041D000BB1F2A95D2F780959095A095B0952D2D6F
:1041E000269526952370223029F1D8F44090790342
:1041F00050907A0360907B0370907C03213069F0CB
:10420000842B952BA62BB72BBC01CD0164217521E6
:10421000862197210E943A14E4CE44295529662923
:1042200077292A013B01482A592A6A2A7B2AC30195
:10423000B201F0CF842B952BA62BB72B409079039E
:1042400050907A0360907B0370907C03BC01CD0199
:104250006425752586259725DDCF8695112311F0D8
:104260008D2D8170882309F4BCCE202F22952695B0
:104270002770220F220F402F4F7050E070E060E057
:10428000022E04C0440F551F661F771F0A94D2F7F1
:1042900080E090E0DC0104FF0FC08FE090E0A0E040
:1042A000B0E004C0880F991FAA1FBB1F2A95D2F740
:1042B00080959095A095B0952D2D269526952370E7
:1042C000223029F1D8F44090D7035090D803609061
:1042D000D9037090DA03213069F0842B952BA62B3B
:1042E000B72BBC01CD0164217521862197210E9445
:1042F0008A1A77CE44295529662977292A013B0154
:10430000482A592A6A2A7B2AC301B201F0CF842B9A
:10431000952BA62BB72B4090D7035090D8036090D5
:10432000D9037090DA03BC01CD016425752586257B
:104330009725DDCF2D2D2F70C22E112329F0822F2E
:104340000E94001B802FBFCE802F0E9440098C2D21
:104350000E94C51A46CE802F32EFB31609F452C020
:104360003B1578F090EFB91629F1E1EFBE1609F48C
:1043700041C0112309F46AC0C11017CE8D2D8F7171
:104380003EC0F3EFBF1609F442C094EF492EB410BB
:10439000F0CF112309F44FC00D2D0F71802F0E9413
:1043A000001B28E0029FC0011124836080937403E6
:1043B000802F25C01123C1F0C11013CE2D2D2F71D8
:1043C00061E070E080E090E004C0660F771F881F16
:1043D000991F2A95D2F74090D7035090D803609048
:1043E000D9037090DA03A1CF552453945C1408F4D8
:1043F000F8CDE4CF8D2D8F71112309F4A9CF0E9440
:10440000001BEFCD8D2D8F711123C9F3A1CF60E07B
:1044100070E0CB01112309F46ACF2D2D2F7161E0DB
:1044200070E080E090E004C0660F771F881F991F3E
:104430002A95D2F75CCF81E00E94E81A31E03C1562
:1044400008F0CFCD82E00E94E81ACBCDCC2059F005
:10445000893309F06CCE8FEF97EEE3E08150904006
:10446000E040E1F762CE8D2D8F7172CFE0E1E00F79
:10447000E73008F03EC0F0E0E95FF04D0C94722C9C
:10448000112309F4AECD8091040391E08927809334
:104490000403A7CD10930403A4CD81E08127F7CFB7
:1044A00011119FCD81E0F3CF11119BCD1092040328
:1044B00098CD112321F082E080930203F3CF809105
:1044C0000203823021F481E0809302038ACD83309D
:1044D00009F087CD10920203E9CF112339F08091C2
:1044E0000303882381F2109203037BCDCC2059F281
:1044F00078CD80910303CC20A9F0882341F08091EE
:10450000040391E089278093040310920303802F12
:1045100011114CCD0E94681786E0F70111928A951F
:10452000E9F75FCD882309F45CCD11115ACD809154
:10453000040391E0892780930403D5CF813009F0EB
:1045400069CD109202031092040364CDF7018281B9
:104550001982811171C982E18A83F70180818B837D
:1045600081818C838EEF8D8365E0CE0101960E9460
:104570007D06C1C885E0DE01119601900D928A95F5
:10458000E1F7F701228189819A81211192C80E9465
:10459000CA08082F96C80631FCE51F0709F0E0CBD2
:1045A000809177038A7A91E009F490E09093010377
:1045B00069E2811165E386E392E00E94FD070E94B3
:1045C000850801CA06311C4509F086CC809101039B
:1045D00069E2811165E386E392E00E94D307EFCFA1
:1045E0001F93CF93DF9380910A03807FA9F480917A
:1045F0000703882389F080913C03D0910B036091DD
:10460000050370910603A0910803B0910903C62F1A
:10461000C72316E0D81304C0DF91CF911F910895EE
:1046200090E0109711F0CF3F19F401968770F2CF08
:10463000189F9001199F300D1124F901E45FFC4F80
:1046400041814713F2CF40814613EFCF42814111A0
:10465000ECCF438154814A1B5B0B483C510528F742
:1046600080910A038F70806180930A03F901EF5EE5
:10467000FC4F80818F708061808385E093E00E9491
:10468000211BDF91CF911F910C942109AF92BF9212
:10469000CF92DF92EF92FF920F931F93CF93DF930E
:1046A000CDB7DEB761970FB6F894DEBF0FBECDBFB2
:1046B0008C0185E0F801DE011D9601900D928A952E
:1046C000E1F7F80180819181E28025E0A22E23E0CC
:1046D000B22E60910803709109036115710509F408
:1046E0003EC13091050340910603232F24232F3F21
:1046F00009F435C1C380D480F0900703F601E61BAE
:10470000F70BFF2009F4FBC020910A03522F507FC2
:10471000E83CF10508F0BBC0511178C0FE2C4913EC
:1047200021C038131FC0E1101DC02F7020612093DD
:104730000A03C5010E94211B80910A03F8018583A9
:104740008F2D61960FB6F894DEBF0FBECDBFDF91FF
:10475000CF911F910F91FF90EF90DF90CF90BF907E
:10476000AF900895CD2829F0282F29232F3F09F055
:1047700022C120E0F22FF170DF2E20FF3DC02091FA
:104780003C0340910B0356E0241315C08D879E8790
:104790008D859E850E94600C292F22952F702230D6
:1047A000F8F0243020F59F70F9F0F8019581907FA2
:1047B000D9F4D12C1FC030E0529FF001539FF00D6F
:1047C0001124E45FFC4F6181961306C0608186135B
:1047D00003C06281E61210C02F5F3F4F2770D4CF15
:1047E0009F7011F0882329F3805E883010F3C80190
:1047F0000E94211BFD2CA4CFEE2009F4A1CF8091B3
:104800000A03816080930A03F12C9ACF491312C0E6
:10481000381310C0E1100EC0F8012583C8010E94B2
:10482000211B86E0F801A5E0B3E001900D928A9586
:10483000E1F786CF8D879E878D859E850E946A0CC5
:10484000882309F1EE20F9F080910A03803270F09C
:10485000209105033091060338872F831986DB8664
:10486000CA868C87CE0107960E94211B86E0F8013C
:10487000A5E0B3E001900D928A95E1F70E94F02245
:10488000FF24F3945DCFC8010E94211BF9CF511181
:104890000AC085E093E00E94211B86E0F501119299
:1048A0008A95E9F7B1CF49130FC038130DC0E11055
:1048B0000BC0F8012583C8010E94211B86E0F50189
:1048C00011928A95E9F73CCF8D879E878D859E85CD
:1048D0000E946A0C8823B9F2EE20A9F280910A03A3
:1048E000803220F220910503309106033A83298318
:1048F0001B82DD82CC828E83CE010196B5CFE83C4F
:10490000F105E0F6FE2CEE2009F4BDCF491316C0E8
:10491000381314C080910A0380FD83CF982F907FB5
:1049200009F47FCFF8018583903F09F477CF982F62
:10493000907F905F8F70892B858370CF8D879E8746
:104940008D859E850E946A0C811190CF80910A030B
:10495000816080930A03C8010E94211BF1CEEE20E2
:1049600009F491CF8D879E878D859E850E946A0C64
:10497000F82E882309F487CF86E0F801A5E0B3E09C
:1049800001900D928A95E1F78091050390910603BD
:104990000E94600C92959F70963051F4863F41F0D2
:1049A0008091040391E0892780930403909303038B
:1049B0000E94F022C5CE21E02E25DCCE1F93CF939E
:1049C000DF93CDB7DEB767970FB6F894DEBF0FBEA3
:1049D000CDBF6D8B7E8B8F8B8E899F89892BE1F06C
:1049E000852F84238F3F09F098C05FEF4FEF14C0ED
:1049F00030910403332309F44EC0E42FF0E036E095
:104A0000539FE00DF11D1124EE0FFF1FE45AFE4FDE
:104A100040815181822B8C931A8A198A4B8B5C8B33
:104A200085E0FE017396DE011D9601900D928A9538
:104A3000E1F786E0FE013D96DE01179601900D92AA
:104A40008A95E1F7CE0107960E944623811112C094
:104A500086E0FE013796DE01119601900D928A954F
:104A6000E1F78A859B85892B29F08F819885892399
:104A70008F3FC9F516E080913C0390910B03891399
:104A800020C067960FB6F894DEBF0FBECDBFDF9192
:104A9000CF911F91089580958223BDCF96E0929F7C
:104AA000D001939FB00D1124A45FBC4FFE0131963D
:104AB00001900D929A95E1F780930B030E942109D2
:104AC000D9CF819FC0011124845F9C4F0E9446234F
:104AD0008823B9F280913C0390E001968770992772
:104AE00080933C03C8CF20910B0330E0C9010196AD
:104AF0008770992740913C034817190679F60E9460
:104B0000441410920B0310923C0386E0E5E0F3E0BE
:104B1000DF011D928A95E9F7ADCF81E090E0042E88
:104B200001C0880F0A94EAF7A52FB0E0A051BD4F4D
:104B30002C913D8931115CCF322F38235BCF8F927E
:104B40009F92BF92CF92DF92EF92FF920F931F93AB
:104B5000CF93DF938091180190911901892B91F0E7
:104B6000809157028F5F8093570281110BC00E9482
:104B7000181390E09093190180931801892B11F478
:104B80000E945B0D2CE8822E23E0922E740110E02F
:104B900000E097E0C92EC00E802F0E949A0E8C2D47
:104BA0000E949A0E802F0E948F13E70199917E0137
:104BB000D12C891729F0FE0131978083DD24D3940D
:104BC0008C2D0E948F13F7019681891709F47AC002
:104BD000868381E08D29182B0E94A30C0F5F07307C
:104BE000C1F60E94EA136091590270915A029093A3
:104BF0005A02809359022091580230E0261B370B4D
:104C0000820F931F6BEF70E00E944A2CE82E392F21
:104C1000082F80935802F0905C02FF2009F4A3C093
:104C200010925C02E0918203F0918303AF01425F36
:104C30005F4F20E08BEFB82E6BEF70E0A191AB3FA0
:104C400099F0CA2ED12C8E2D932F0A17E8F18C19CA
:104C50009D09092E000CAA0BBB0B4E97A105B105AF
:104C6000C8F1DF011197BC92E417F50739F72093DB
:104C70005C02111102C0211178C010925B02A09158
:104C80008203B091830390915C02E0EAF3E080E05C
:104C90003191E40129914E01321751F03C913B3F93
:104CA000D9F40C93AF0141505109EA01288391E0F6
:104CB0001196D3E0EE3AFD0759F790935C0280938A
:104CC0005B0257C080E086CFDB01AC19BD098A0FBB
:104CD0009B1FBFCF2F2DC8CF81E0EACF9170892BCA
:104CE00009F458C080915E0290915F02813098472C
:104CF00080F01092DD036091D7037091D80380910A
:104D0000D9039091DA030E94F51910925F02109274
:104D10005E0280915E0290915F02019690935F0225
:104D200080935E02812FDF91CF911F910F91FF90B1
:104D3000EF90DF90CF90BF909F908F9008950E944A
:104D40009D0C2EC0892B71F310925F0210925E02AF
:104D50006091D7037091D8038091D9039091DA03C1
:104D60000E94F519DFCF111188CF80915B0281116C
:104D700084CF80915E0290915F022091DD03222317
:104D800009F3009709F0AACF0E94940C0E94910C9D
:104D90000E948E0CC0915D02CC2389F20E94910C7E
:104DA00081E0C827C0935D029DCFCDB7DEB7C9555E
:104DB000D1090FB6F894DEBF0FBECDBF84B7877F91
:104DC00084BF0FB6F894A8958091600088618093A5
:104DD0006000109260000FBE80E890E00FB6F8947B
:104DE00080936100909361000FBE85B7806885BF96
:104DF00085B7806885BF0E948E040E945B05809104
:104E0000E20084608093E200789480910504882316
:104E1000A1F01091E9001F709091EC00892F817032
:104E200090FD80E8182B1092E9008091E80083FD46
:104E30000E9459141F701093E90082E084BD93E032
:104E400095BD9AEF97BD80936E000E94181390E075
:104E500090931901809318010E94A30C0E94B20C38
:104E6000ECE8F3E0A0EAB3E011921D9223E0EA3906
:104E7000F207D1F78EE090E00E94E32C809382034A
:104E800090938303FC010E962BEF21938E179F07BF
:104E9000E1F790E080E00E94292E8F3E9E4F11F0B6
:104EA0000E94260E8CE090E00E941B2E90E0B0E065
:104EB000A0E08093840390938503A0938603B0932E
:104EC000870389EA8093800089E080938100249899
:104ED0002C983F988AB18F7C8AB96E98479A8BB18B
:104EE00080638BB9769A8FE090E00E94232E6093C6
:104EF00088037093890380938A0390938B03677070
:104F00008FEF689FB001112475956795759567952A
:104F10007727709389006093880070938B0060936B
:104F20008A0070938D0060938C000E945B0D90E06E
:104F300080E00E94292E8F3E9E4F11F00E94260E87
:104F400082E090E00E941B2E8093C8030E94D50D42
:104F500090939B0380939A0383E090E00E941B2E22
:104F6000682F70E090E080E00E943A146091D703CF
:104F70007091D8038091D9039091DA030E94F519BA
:104F800080919C03811136C090E080E00E94292E20
:104F90008F3E9E4F21F00E94260E0E94170E88E041
:104FA00090E00E94232E6093B4037093B503809326
:104FB000B6039093B7036E7F71F40E94170E88E0DA
:104FC00090E00E94232E6093B4037093B503809306
:104FD000B6039093B7030E9492091092BA0380918E
:104FE000B40380FF04C060E086950E94A21881E0AF
:104FF00080939C036091D7037091D8038091D9036B
:105000009091DA030E94F5198AE191E090939E0352
:1050100080939D03A1E4EA2EF12CEC0EFD1E22E00C
:10502000E20EF11C80910504853009F493C10E94C1
:105030009F25E9ECF3E0A0EAB3E010E000E0302FB8
:105040008D912191281709F4F3C190E0DD24D394C8
:105050002827422F4D2109F4E6C161969FAF619741
:1050600062963FAF62978D2191E009F490E06396DC
:105070009FAF63970E94EA138160782F65969FAF78
:105080008EAF659761964FAD619762965FAD6297FF
:1050900063966FAD639765968FAD65970E94DE242A
:1050A000F801E753FC4F8081D826D0828091BA0363
:1050B000882309F441C08091B903E091B403E695D7
:1050C000E81BE093B003823009F0D9C1F0E0EE5E56
:1050D000F94FE4910E2F10E0F4E0CF2EF2E1DF2E35
:1050E0008091B103882389F01092B1030E94EA13E2
:1050F000980120953095820F931F9093AF03809372
:10510000AE031092B3031092B2038091AE0390915C
:10511000AF030E94C4078017910770F0E091AE03BF
:10512000F091AF030E0F1F1F1093AF030093AE0358
:105130008EEA93E0F601099586E0E1ECF3E0DE010A
:10514000119601900D928A95E1F7D090C303C0901B
:10515000C4031091C5030091C6031092C3031092BB
:10516000C4031092C5031092C6038D2D8C2909F437
:1051700048C08091BF039091C0030E94C4079C0166
:105180009091BE03992309F487C225313105C8F1F6
:105190009F3F19F09F5F9093BE03DD2059F00E945E
:1051A00038079FEF1D140CF491E0899F802D112486
:1051B0008093C303CC2059F00E9438079FEF1C1442
:1051C0000CF491E0899F802D11248093C4033091C9
:1051D000C3033323B1F02091C403222391F045EBA4
:1051E0003403C0011124992309F4B5C19093C3037A
:1051F00045EB240390011124332309F4B0C130930B
:10520000C403812F802B09F448C08091BC03909186
:10521000BD030E94C4079C019091BB03992309F42C
:1052200037C225313105C8F19F3F19F09F5F909338
:10523000BB03112359F00E9418079FEF11160CF4BD
:1052400091E0899F802D11248093C503002359F09C
:105250000E9418079FEF10160CF491E0899F802D93
:1052600011248093C6033091C5033323B1F02091FC
:10527000C603222391F045EB3403C0011124992386
:1052800009F471C19093C50345EB240390011124E7
:10529000332309F46CC13093C6038091C30390910A
:1052A000C403892B9091C503892B9091C603892B48
:1052B00011F00E94F61386E0FE013196A1ECB3E0F6
:1052C00001900D928A95E1F70E9481099091C703A0
:1052D000891721F00E9481098093C70380910504FA
:1052E000843009F09FCE8093E9008091E80082FF2E
:1052F00099CE8091E80090E085FF06C00E94AD0441
:10530000882309F438C191E08091E8008B7780937D
:10531000E800992309F486CE1981111148C18091C2
:10532000DD03882309F45EC11092DD0381E08093E0
:10533000DC0322961FAE229723961FAE23978EEF93
:1053400024968FAF249763E0CE018F5B9F4F0E941E
:105350007D0668CE80910504843009F441C0109226
:105360009F0388E190E020E40FB6F894A89580931D
:1053700060000FBE209360001092BA038091E0039A
:10538000811117C081E08093E0038091B403982FCE
:1053900091709093DF038E7F8093B4034FEF80E78B
:1053A00092E0415080409040E1F700C000000E9430
:1053B000EE0E83B7817F846083BF83B7816083BF34
:1053C0007894889583B78E7F83BF0FB6F894A8959D
:1053D00080916000886180936000109260000FBE31
:1053E00080910404882309F41DCE0E94181390E0D4
:1053F00090931901809318010E94A30C0E94B20C93
:105400000EEA13E0E0EAF3E011920E171F07E1F74E
:105410000E949F25E0EAF3E08191811123C10E17DC
:105420001F07D1F7FFCD9F5FDD0C963009F011CE3D
:105430000F5F1F4F0E30110509F001CE8FEF6696FA
:105440008FAF669767968FAF679768961FAE68971E
:105450000E94EA138160782F6A969FAF8EAF6A9799
:1054600066964FAD669767965FAD679768966FAD26
:1054700068976A968FAD6A970E94DE2417CE8630B1
:1054800059F4F0E0E15FF94FE4910E2F10E0E8E10C
:10549000CE2EE2E1DE2E24CE893061F4E695F0E0F6
:1054A000E45FF94FE4910E2F10E07CEEC72E7FE011
:1054B000D72E16CE8F3061F4E695F0E0E75FF94F16
:1054C000E4910E2F10E066E1C62E60E1D62E08CEE4
:1054D000853159F4F0E0EA5FF94FE4910E2F10E0C6
:1054E00055E8C52E50E1D52EFBCD08E210E025EDA4
:1054F000C22E20E1D22E883109F4F2CD833249F454
:10550000E4E0F6E00591149149EAC42E41E1D42E7D
:10551000E7CD04EF11E09EE5C92E91E1D92E84324A
:1055200009F4DECD853281F48E2F63E00E94302CA9
:10553000E92FF0E0EF5FF94FE4910E2F10E033E632
:10554000C32E3FE0D32ECCCD00ED17E089E7C82E67
:1055500086E0D82EC5CD81E08093C30349CE81E09B
:105560008093C4034ECE81E08093C5038DCE81E04D
:105570008093C60392CE00E410E0CE0101966C0148
:105580008091E80085FD0AC08091E8008B778093C8
:10559000E8000E94AD04882399F3B5CE8091F10014
:1055A000F60181936F010150110951F7ACCE113012
:1055B000C9F422961FAE229723961FAF23978CE043
:1055C000E5E2F1E0D70101900D928A95E1F78EEFC7
:1055D00060968FAF60976FE0CE018F5B9F4F0E9408
:1055E0007D0620CD8091DC038823D1F1123041F07B
:1055F0001330F9F081E022968FAF229761E0A4CEBC
:105600006091D7037091D8038091D9039091DA0308
:105610000E94320822961FAE229723961FAF23972F
:1056200024968FAF24978EEF25968FAF259764E051
:105630008BCE8A81813041F0882341F08230D1F6CF
:1056400081E08093DB0302C01092DB0322961FAE41
:10565000229783E023968FAF23978091DB03E0CFDF
:105660008FEFC9CF80E189BD82E189BD09B400FE19
:10567000FDCF8091D8008F7D8093D8008091E0008D
:1056800082608093E0008091E00081FDFCCFCACC75
:10569000232B09F0CBCD01CE232B09F07BCDB1CD4F
:1056A0001F921FB61F9211248F939F93AF93BF93A6
:1056B00080919F03811113C080917D0390917E039F
:1056C000A0917F03B09180034196A11DB11D8093ED
:1056D0007D0390937E03A0937F03B0938003BF91DB
:1056E000AF919F918F911F901FBE1F9018951092A0
:1056F000B9008CE08093B8000895EF92FF920F9369
:105700001F93CF93DF93182FEB011092BC0084EA14
:105710008093BC000E94EA137C018091BC0087FF4B
:1057200027C08091B900887F883029F08091B90026
:10573000887F8031D9F51093BB0084E88093BC004A
:105740000E94EA138C018091BC0087FF24C0209145
:10575000B900287F90E080E02831B1F081E090E04E
:10576000203411F490E080E09195819591090CC06E
:10577000CF3FDC0791F20E94EA138E199F098C1724
:105780009D0758F28EEF9FEFDF91CF911F910F9100
:10579000FF90EF900895CF3FDC07A9F20E94EA1333
:1057A000801B910B8C179D0770F2ECCF8FEF9FEF52
:1057B000EBCF0F931F93CF93DF93EB018093BB004D
:1057C00084E88093BC000E94EA138C018091BC00A5
:1057D00087FF11C02091B900287F81E090E0283236
:1057E00011F490E080E0919581959109DF91CF913E
:1057F0001F910F910895CF3FDC0741F30E94EA13F8
:10580000801B910B8C179D0708F38EEF9FEFEECF57
:105810000F931F93CF93DF93EC0184E88093BC0038
:105820000E94EA138C018091BC0087FF08C0809120
:10583000BB0090E0DF91CF911F910F910895CF3F72
:10584000DC0789F30E94EA13801B910B8C179D07DC
:1058500050F38EEF9FEFEECF84E98093BC00089564
:10586000991B79E004C0991F961708F0961B881FB2
:105870007A95C9F78095089587FB082E062687FD3F
:10588000819567FD61950E94302C0EF4919507FC7F
:1058900081950895AA1BBB1B51E107C0AA1FBB1F1E
:1058A000A617B70710F0A61BB70B881F991F5A95AC
:1058B000A9F780959095BC01CD01089597FB072E1F
:1058C00016F4009407D077FD09D00E944A2C07FCFB
:1058D00005D03EF4909581959F4F08957095619500
:1058E0007F4F0895EE0FFF1F0590F491E02D09946E
:1058F0000E94B72E332312F48A1B9B0B0C94822C2C
:105900000E94B72EB7FF0895821B930B08958F92C4
:105910009F92AF92BF92CF92DF92EF92FF92CF937E
:10592000DF93EC01688179818A819B816115710522
:105930008105910521F464E279ED8BE597E02DE195
:1059400033EF41E050E00E94632E49015A019B0170
:10595000AC01A7EAB1E40E94822E6B017C01ACEE9F
:10596000B4EFA50194010E94902EDC01CB018C0DB7
:105970009D1DAE1DBF1DB7FF03C00197A109B04813
:1059800088839983AA83BB839F77DF91CF91FF9010
:10599000EF90DF90CF90BF90AF909F908F90089541
:1059A0000E94872C089580E091E00E94872C089542
:1059B000B0E0A0E08093000190930101A093020168
:1059C000B093030108950F931F93CF93DF93823019
:1059D000910510F482E090E0E0911104F09112043E
:1059E00030E020E0B0E0A0E0309799F421153105D7
:1059F00009F447C0281B390B24303105C0F58A81D2
:105A00009B816115710571F1FB0193838283FE0116
:105A100011C0408151810281138148175907F8F064
:105A20004817590799F4109761F012960C93129742
:105A300013961C933296CF01DF91CF911F910F9156
:105A400008950093110410931204F4CF2115310529
:105A500019F04217530718F49A01BD01EF01DF0155
:105A6000F801C2CF9093120480931104D0CFFE01AD
:105A7000E20FF31F819391932250310939832883D8
:105A8000DACF20910F0430911004232B41F42091A0
:105A90000601309107013093100420930F042091E8
:105AA0000401309105012115310541F42DB73EB7B0
:105AB0004091080150910901241B350B40910F04BE
:105AC000509110044217530708F0B5CF241B350B33
:105AD0002817390708F4AFCFBC016E5F7F4F261738
