:100000000C94A7030C94C4030C94C4030C94C40371
:100010000C94C4030C94C4030C94C4030C94C40344
:100020000C94C4030C94C4030C94D5190C941119AA
:100030000C945C210C94C4030C94C4030C94C4036E
:100040000C94C4030C94C4030C94C4030C94C40314
:100050000C94C4030C94EA200C94C4030C94C403C1
:100060000C94C4030C94C4030C94C4030C94C403F4
:100070000C94C4030C94C4030C94C4030C94C403E4
:100080000C94C4030C94C4030C94C4030C94C403D4
:100090000C94C4030C94C4030C94C4030C94C403C4
:1000A0000C94C4030C94C4030C94C4034B094B0973
:1000B00089098909D209F209C60B1F0C340A200BE1
:1000C000320B320BCB0DCE0DD10DD40DD70DDA0D79
:1000D000DD0DBB13BE13CD13C113C613CB13C91350
:1000E00022174917E9184917E9189117B417E918A1
:1000F000B218C518E827E827FB27FB27F127FB27BD
:10010000FB27FB27E827E827F627FB27FB27F6270F
:1001100001002B003900E100000F00000100140075
:1001200004001D00E0004D0001001A0016001B0035
:10013000E20028000100080007000600E3002C0090
:10014000010015000900190000414A0001001700D4
:100150000A0005000000010001000100000001008C
:10016000000001000100010000000100000001008A
:1001700001001C000B00110000000100010018002C
:100180000D00100000424B0001000C000E00360074
:1001900050002A00010012000F0037005100280013
:1001A000010013003300380052004E000100290006
:1001B0003400E5004F0000000100010001000100D3
:1001C00001000000320035001E001E020100010087
:1001D00001002D021F001F020100010001002D007F
:1001E000200020020100010001002602210021025E
:1001F0000100010001002F00220022020000010086
:1002000001000100000001000000010001000100E8
:100210000000010000000100010030002300230263
:100220000000010001002702240024020100010057
:1002300001002E00250025020100010001002E0210
:100240002600350201000100640031002700310260
:100250000100010001000100010001000100000097
:100260000100010001000100010000000100010087
:1002700001000100010001000100F400F200010092
:1002800001000100F600F000F10001000100010092
:100290000100F500F3000100010001000100010070
:1002A0000100010000000100010001000000010048
:1002B0000000010001000100000001000000010039
:1002C00001000100010000430000010001000100E5
:1002D0000100A80001000100010001000100AC00C4
:1002E000AA000100010001000100AB00A90001000B
:1002F00001000100010001000100010001000100F6
:1003000001000100010000000100010001000100E6
:100310000100000001000100010001000100035D77
:1003200001000100010001000100C95C01000100A1
:1003300001000100010001000100010001000100B5
:100340000100025D01000100010001000000C35C2A
:1003500001000100000001000000015D010001003A
:10036000000001000000C25C01000100010001006A
:100370000000005D0100010001000100010001001A
:1003800001000100010001000100C55C0100010045
:10039000010001000100C65C010001000100010034
:1003A0000100010001000100010001000100000046
:1003B0000000000000000000000001010101010137
:1003C000010101020202020202020203030303030B
:1003D00003030404040404050505050506060606D2
:1003E0000607070707080808080909090A0A0A0B87
:1003F0000B0B0C0C0C0D0D0D0E0E0E0F0F10101024
:1004000011111212131314141515161617171818A4
:1004100019191A1A1B1C1C1D1D1E1F1F2021212209
:10042000232324252526272828292A2B2C2C2D2E4A
:100430002F30313132333435363738393A3B3C3D61
:100440003E3F404142434445464748494B4C4D4E50
:100450004F50525354555758595A5C5D5E60616312
:10046000646567686A6B6C6E6F7172747677797A9F
:100470007C7D7F8182848687898B8D8E90929495F6
:1004800097999B9D9FA1A2A4A6A8AAACAEB0B2B416
:10049000B6B9BBBDBFC1C3C5C8CACCCED0D3D5D7F2
:1004A000DADCDEE1E3E6E8EAEDEFF2F4F7F9FCFF8F
:1004B000FFAA7F554005010902A10185020901A19A
:1004C000000509190129051500250195057501810A
:1004D0000295017503810105010930093115812556
:1004E0007F95027508810609381581257F9501756C
:1004F000088106050C0A38021581257F95017508CB
:100500008106C0C005010980A10185031A81002A66
:100510008300160100260300950175108100C005B7
:100520000C0901A10185041A01002A9C0216010090
:10053000269C02950175108100C005010906A101E4
:100540008505050719E029E71500250195087501BE
:1005500081020507190029EF1500250195F07501A5
:10056000810205081901290595057501910295017A
:1005700075039101C005010906A101050719E029CC
:10058000E71500250195087501810295017508811F
:10059000010507190029FF150026FF0095067508BB
:1005A000810005081901290595057501910295013C
:1005B00075039101C009023B00020100A0FA090481
:1005C0000000010301010009211101000122400086
:1005D0000705810308000A09040100010300000067
:1005E00009211101000122C0000705820320000A31
:1005F0001201100100000008EDFE071301000102C6
:100600000301040330000000160345007200670078
:100610006F0044006F007800200045005A00000081
:1006200016034500720067006F0044006F007800F9
:10063000200045005A0000000403090400047F3F25
:100640001F643214643214783C1E1E140A052223DF
:10065000252628292A2C2D2F3032333536383A3B9F
:100660003D3E4042434547494A4C4E5051535557F1
:10067000595A5C5E6062646668696B6D6F71737510
:1006800077797B7D7F81838587898A8C8E90929410
:1006900096989A9C9E9FA1A3A5A7A8AAACAEAFB11D
:1006A000B3B4B6B8B9BBBCBEBFC1C2C3C5C6C7C967
:1006B000CACBCCCDCED0D1D2D2D3D4D5D6D7D7D821
:1006C000D9D9DADADBDBDBDCDCDCDCDCDDDDDDDD73
:1006D000DCDCDCDCDCDBDBDBDADAD9D9D8D7D7D67B
:1006E000D5D4D3D2D2D1D0CECDCCCBCAC9C7C6C532
:1006F000C3C2C1BFBEBCBBB9B8B6B4B3B1AFAEAC78
:10070000AAA8A7A5A3A19F9E9C9A98969492908E22
:100710008C8A89878583817F7D7B79777573716FFB
:100720006D6B6968666462605E5C5A5957555351D7
:10073000504E4C4A4947454342403E3D3B3A38368D
:10074000353332302F2D2C2A292826252322112417
:100750001FBECFEFDAE0DEBFCDBF11E0A0E0B1E019
:10076000E0E1FCE502C005900D92AE3EB107D9F77D
:1007700023E0AEEEB1E001C01D92A637B207E1F76B
:100780000E94AE1B0C94062E0C9400008F929F9238
:10079000AF92BF92CF92DF92EF92FF920F931F938F
:1007A000CF93DF93CDB7DEB728970FB6F894DEBFAF
:1007B0000FBECDBFFC01F080118183819481892B14
:1007C00011F40C94180D1F3F29F40FEFF01611F4DB
:1007D0000C94180D6F0185E0DE01119601900D92C9
:1007E0008A95E1F7F601228189819A81222349F0D5
:1007F0000E94C422082F682F89819A810E943D237C
:1008000003C00E941023082F26E0129FF00111243C
:1008100034E5039FE00DF11D1124EF0DF11DEE0FE6
:10082000FF1FE05FFE4F05911491F60182810E3F9C
:10083000FCE51F0709F040C0882309F49EC0909191
:10084000300281E0890F8770987F853020F4892BF2
:100850008093300202C09093300280913002877002
:100860002FEF829FC00111249595879595958795C7
:100870009927909389008093880090938B008093B0
:100880008A0090938D0080938C00409130025091AB
:10089000310260913202709133028FE090E00E9449
:1008A0007C2C60910C0370910D0380910E0390914C
:1008B0000F030E945C1361C001303DE5130701F195
:1008C00050F40F3FECE51E0779F00115FDE51F0719
:1008D00009F489C052C002302DE51207F9F0033047
:1008E0003DE51307E1F149C0882311F40C94180D7C
:1008F0009091EE0181E089278093EE010C94180D10
:10090000882311F40C94180D0E94C21081E00E94FB
:10091000BF1021E04FEF6FEF8CEA0DC0882311F478
:100920000C94180D0E94C21081E00E94BF1021E0BB
:1009300040E86FEF86E528960FB6F894DEBF0FBE4D
:10094000CDBFDF91CF911F910F91FF90EF90DF907E
:10095000CF90BF90AF909F908F900C94DF0F882323
:1009600011F40C94180D0E94C21081E00E94BF1077
:1009700021E04FEF6FEF8BE1DECFF601828188231C
:1009800081F0033E8CE5180709F46AC008F05DC0E9
:10099000013EECE51E0709F051C010922C020E94A6
:1009A000DD1017FFD1C0F601828181115FC00B3CC1
:1009B000FCE51F0709F41DC108F44EC1033D9CE589
:1009C000190709F49FC308F0A4C30F3CFCE51F07F7
:1009D00009F4D5C710F00C94CC0C0D3C3CE5130782
:1009E00041F4F6018281882311F40C94180D81E002
:1009F00011C00E3C1C4508F407C1F6018281882312
:100A000011F40C94180D0E94C60E8250833008F425
:100A10005FC182E028960FB6F894DEBF0FBECDBF4F
:100A2000DF91CF911F910F91FF90EF90DF90CF90CA
:100A3000BF90AF909F908F900C94BF10023EFCE54A
:100A40001F0709F0AECF81E00EC0043E2CE512076F
:100A500049F0053E3CE5130709F0A3CF84E003C04D
:100A600082E001C083E080932C0299CF8091FB014A
:100A70008093EF011092FB0180912C02813071F084
:100A800048F08230D1F08430F1F486EE0E94732A6F
:100A900088E117C082EE0E94862A15C08EE79DE08D
:100AA0000E94FA1588E10E94862A88E10E940C2A99
:100AB0008EE69DE00E94FA1506C082EE0E94862A0C
:100AC00087E50E94732A8FE39CE90197F1F700C044
:100AD00000007801E894F7F85CE0A52EB12CC7017E
:100AE0000A2C02C0969587950A94E2F7282F2F705A
:100AF00041F0822F90E02A3010F44D9604C0069702
:100B000002C087E290E00E94732A94E0A91AB1081B
:100B1000ECEFAE16EFEFBE0611F780912C0281309C
:100B200039F040F0823031F0843051F488E206C070
:100B30008CE204C082EE0E940C2A02C00E94732A3A
:100B40008091EF018093FB01003FFCE51F07B1F1AD
:100B500080F4083D3CE51307C9F0093D8CE5180712
:100B6000C9F1073D9CE51907C1F526E241EE61EEAA
:100B700010C0023FECE51E0749F120F1033F2CE5D0
:100B8000120759F527E245EE66EE03C027E245EE6F
:100B900065EEC60128960FB6F894DEBF0FBECDBF36
:100BA000DF91CF911F910F91FF90EF90DF90CF9049
:100BB000BF90AF909F908F900C94FA2626E241EE62
:100BC00060EEE7CF27E245EE64EEE3CF26E241EEAA
:100BD00062EEDFCF28E241E0DBCFF601828188239D
:100BE00019F01092F001E3CE0B3CFCE51F0709F071
:100BF0007FC2F6018281882309F41AC780917902A5
:100C0000833070F48F5F0AC0F6018281882309F473
:100C10000FC780917902882319F08150809379025F
:100C200060917502709176028091770290917802BE
:100C300028960FB6F894DEBF0FBECDBFDF91CF91DF
:100C40001F910F91FF90EF90DF90CF90BF90AF90EA
:100C50009F908F900C94E10E033C3CE51307E9F460
:100C6000F6018281882309F4E3C68091FB01827238
:100C700079F128960FB6F894DEBF0FBECDBFDF9195
:100C8000CF911F910F91FF90EF90DF90CF90BF9089
:100C9000AF909F908F900C94CA10043C8CE518077D
:100CA00058F1073C9CE5190709F406C608F010C680
:100CB000053CFCE51F0709F432C608F03FC6F60103
:100CC0008281882309F4B4C68091FB01827289F283
:100CD00028960FB6F894DEBF0FBECDBFDF91CF913F
:100CE0001F910F91FF90EF90DF90CF90BF90AF904A
:100CF0009F908F900C94D31006319CE5190708F053
:100D000089C10230ECE51E0708F429C1F601828191
:100D1000882309F459C20E94F921811102C00E945E
:100D200004220E94E82190934302809342020F30F4
:100D3000FCE51F0709F4CDC008F042C008303CE5CF
:100D4000130709F4A8C0F0F404309CE5190709F46E
:100D500090C068F40230FCE51F0709F486C0033038
:100D60001C4509F0D9C0809142028260D3C0063090
:100D70003CE5130709F487C008F089C0809142025E
:100D80008860C8C00B309CE5190709F493C068F46B
:100D90000930FCE51F0709F482C00A301C4509F040
:100DA000BBC08091420288607EC00D303CE51307D5
:100DB00009F484C008F085C0809142028D7FAAC0EA
:100DC000073F9CE5190709F457C050F50231FCE5CF
:100DD0001F0709F486C068F400313CE5130709F4E5
:100DE0007CC001311C4509F097C0809142028F7B85
:100DF00091C004319CE5190709F483C008F475C05B
:100E000005311C4509F088C08091420282FB2227EF
:100E100020F991E0922790FB82F990FB83F97AC048
:100E20000A3F2CE5120709F450C058F4083F8CE53E
:100E3000180729F1093F1C4509F06EC08091430253
:100E40005CC00C3FECE51E0709F454C070F10D3F87
:100E50001C4509F061C080914302982F90959170D4
:100E60008E7F892B90FB81F949C08091420281607D
:100E700051C08091420217C08091430219C08091F5
:100E8000430282603BC080914202806143C08091F6
:100E9000420280623FC08091420280643BC08091E8
:100EA0004202806837C0846035C08091430282600E
:100EB000816024C0809142028E7F2CC080914202CA
:100EC00017C080914202877F25C0809143028D7FA9
:100ED00015C0809142028F7E1DC0809142028F7D9D
:100EE00019C0809142028F7715C080914202877F9E
:100EF0008B7F10C0809143028D7F8E7F8093430251
:100F00000BC08091420287FB222720F991E09227B3
:100F100090FB87F980934202609142021091430254
:100F200084E090E00E946A2C612F81E290E00E94B0
:100F30006A2C1092FB0128960FB6F894DEBF0FBE04
:100F4000CDBFDF91CF911F910F91FF90EF90DF9078
:100F5000CF90BF90AF909F908F900C94E429011593
:100F6000FCE51F0709F044C0F6018281882309F4DB
:100F70005FC51092FB010E94E429FFEF04E31CE02F
:100F8000F15000401040E1F700C00000F89481E00B
:100F90008093E00080E28093D8001092C9008FE136
:100FA0009EE40197F1F700C000001DBA109268009E
:100FB0001CBC10BE1FBA10927A0010926E001092E4
:100FC0006F0010927100109272001092C90010927E
:100FD000BC0014B817B81AB81DB810BA1092BC00EB
:100FE00015B818B81BB81EB811BA0C94003F20C52C
:100FF00001301C4509F0E8C0F6018281882309F41C
:1010000017C580916002982F909590FB80F980938E
:1010100060020EC506313CE51307A9F59091FB016E
:10102000F6018281882381F09A7A81E009F480E0D8
:101030008093F101811102C069E201C065E38DE78F
:1010400092E00E94B0210BC08091F101811102C099
:1010500069E201C065E38DE792E00E948521289650
:101060000FB6F894DEBF0FBECDBFDF91CF911F91B9
:101070000F91FF90EF90DF90CF90BF90AF909F9037
:101080008F900C947E22023C1C4509F09DC0F60115
:101090008281882309F4CCC48091750280FF14C03A
:1010A00028960FB6F894DEBF0FBECDBFDF91CF916B
:1010B0001F910F91FF90EF90DF90CF90BF90AF9076
:1010C0009F908F900C94FD0E28960FB6F894DEBF7B
:1010D0000FBECDBFDF91CF911F910F91FF90EF9089
:1010E000DF90CF90BF90AF909F908F900C94C210E4
:1010F0000C3C2CE5120708F476C0033D9CE519076B
:1011000009F037C4F6018281882309F491C488E18B
:1011100081CC0D3DFCE51F0749F4F601828188234F
:1011200009F486C482E080937C0282C40E3D2CE5E3
:10113000120738F5053D3CE5130739F4F6018281C5
:10114000882309F475C483E265CC053D8CE5180756
:1011500068F4F6018281882309F46AC40E94C60EED
:101160008951893008F4B4CD89E154CC0C3D1C453B
:1011700059F5F6018281882309F45AC410927C0241
:1011800057C40E3DECE51E07C9F4F60182818823A1
:1011900009F44EC428960FB6F894DEBF0FBECDBF3B
:1011A000DF91CF911F910F91FF90EF90DF90CF9043
:1011B000BF90AF909F908F900C940422C801875FDE
:1011C0009C45079708F4A2CDF60182810081118128
:1011D000882331F1C8010E94C422F82E682FC8016B
:1011E0000E943D2321C0033C3CE5130709F438CDA0
:1011F00008F057CD06319CE5190708F053C30230BB
:10120000ECE51E0708F082CD0115FCE51F0709F487
:10121000ABCE01301C4509F4EFCEF60100811181FF
:10122000C8010E941023F82EB8018F2D0E94E310F0
:10123000182F382FF601258122952F700281011178
:1012400010921203809110038770A9F0002399F087
:1012500080E2810F883078F082E02F8338879E8388
:101260000E949E23809110038770EE24E3942F81C7
:1012700038859E818111E12CA92EA2944FE0A422F1
:10128000B12CFCE0AF16B10408F0D9C2F501EA5A5E
:10129000FF4F0C94C62C892F807F9F70F92E8823D6
:1012A00019F0F29480EFF8220023B9F0FF2009F43E
:1012B00057C280E2810F883010F0311106C0909142
:1012C000FB01F92AF092FB0105C090911203F92A63
:1012D000F09212030E947E2243C2812F38870E941F
:1012E0000C2A3885FF2009F4AAC2105EF094183049
:1012F00010F0311106C09091FB01F922F092FB0130
:1013000005C090911203F922F09212030E947E22EE
:1013100096C2492F407F892F8F70403211F08295FD
:10132000807F332319F03130E9F025C0002381F0AC
:1013300030911303222351F0213041F4982F932B45
:10134000391709F47CC29093130379C2832B17C019
:10135000222319F0213009F472C28E830E94782270
:101360008E811DC0002321F0223008F068C207C022
:10137000211165C214C0002329F02111F1C10E947E
:10138000022A5DC2222359F0193309F0FBC10FEF85
:1013900027EE33E0015020403040E1F7F1C10E94D8
:1013A000F7294DC2292F26952695237030E0211567
:1013B000310521F02130310559F041C2002319F0E7
:1013C000812F937002C080E090E00E94BE2640C250
:1013D000002319F0812F937002C080E090E00E94FA
:1013E000A82636C20023F9F0153F51F0163F71F0E0
:1013F000143FA9F48091F2019091F30181600BC038
:101400008091F2019091F301826005C08091F20118
:101410009091F30184609093F3018093F201812F06
:101420000E9482201EC0153F51F0163F71F0143FFC
:10143000A9F48091F2019091F3018E7F0BC080910D
:10144000F2019091F3018D7F05C08091F20190919E
:10145000F3018B7F9093F3018093F201812F0E941F
:10146000B81F0E944621F4C1892F837009F070C013
:101470000111ECC1812F829586958770880F880FA6
:10148000412F4F7050E060E070E04A015B01082E90
:1014900004C0880C991CAA1CBB1C0A94D2F714FF28
:1014A00012C00FE010E020E030E004C0000F111F78
:1014B000221F331F8A95D2F7B901A8014095509594
:1014C0006095709503C040E050E0BA0196959695FE
:1014D0009370892F90E08230910529F18330910536
:1014E000C9F0009114031091150320911603309157
:1014F0001703019759F0482959296A297B29CB01FB
:10150000BA0160237123822393230AC0802A912A7F
:10151000A22AB32ACB01BA01682979298A299B29F1
:101520000E94D82393C1482959296A297B2980918F
:10153000140390911503A0911603B09117038A012B
:101540009B01082719272A273B27C901B801E8CFA3
:10155000002319F0892F817001C08695882309F432
:1015600075C1812F829586958770880F880F412FCE
:101570004F7050E060E070E04A015B01082E04C04B
:10158000880C991CAA1CBB1C0A94D2F714FF12C029
:101590000FE010E020E030E004C0000F111F221F18
:1015A000331F8A95D2F7B901A801409550956095EF
:1015B000709503C040E050E0BA01969596959370FF
:1015C000892F90E082309105E9F08330910579F11F
:1015D00000910C0310910D0320910E0330910F0325
:1015E000019759F0482959296A297B29CB01BA0169
:1015F000602371238223932320C0802A912AA22A68
:10160000B32A15C0482959296A297B2980910C03DE
:1016100090910D03A0910E03B0910F038A019B01DD
:10162000082719272A273B27C901B80106C0CB0183
:10163000BA01682979298A299B290E946D2306C14C
:101640009F70F92E002339F0892F0E94B723812F34
:101650000E94022AFBC0812F0E94F7298F2D0E9431
:101660007923F4C0812F323FC9F128F4303F49F08B
:10167000313F79F170C0333FC1F1343F09F44DC0BF
:101680006AC0002311F12111DAC0292F2F7181E0E6
:1016900090E0A0E0B0E0AC01BD0104C0440F551FD4
:1016A000661F771F2A95D2F780910C0390910D0346
:1016B000A0910E03B0910F038A019B0108271927FF
:1016C0002A273B27C901B80125C0223008F0B7C03E
:1016D000DCCF002329F0892F8F712EC00023D9F38E
:1016E000892F8F710E947923AAC0002381F0292FAE
:1016F0002F7181E090E0A0E0B0E0BC01CD0104C01A
:10170000660F771F881F991F2A95D2F703C060E0E4
:1017100070E0CB010E946D2392C0002381F0192F4D
:101720001F71812F0E94B72328E0129FC00111244E
:10173000836080931003812F0E94B72380C081E0D3
:101740002F830E949E232F81223008F478C082E0EC
:101750000E949E2374C0002339F0222309F4BBCFDA
:10176000812F0E94862A6BC0222309F4B9CF8933C6
:1017700049F43FEF87EE93E0315080409040E1F72D
:1017800000C00000812F0E940C2A59C0323FB1F0E6
:1017900028F4303F49F0313FF9F028C0343FB9F028
:1017A00058F0353F71F022C0002309F451C09091E8
:1017B000710381E0892708C081E008270093710345
:1017C00047C0011145C081E08093710341C0011100
:1017D0003FC0109271033CC0002329F08091700338
:1017E000882329F329C0222311F332C0809170038A
:1017F0002223C1F0882341F09091710381E0892771
:101800008093710310927003812F002319F00E94BE
:10181000862A1EC00E940C2A86E0F60111928A9543
:10182000E9F716C08823A1F0011112C0909171034D
:1018300081E08927809371031092700309C0F8E05A
:10184000AF1AB10804E0A016B10410F40E94D42627
:10185000EE2009F4EDC08091100380FDE9C0F6018F
:1018600012828595859585950E94B723C6010E94B1
:10187000C6038091100385958595859528960FB6AA
:10188000F894DEBF0FBECDBFDF91CF911F910F91B6
:10189000FF90EF90DF90CF90BF90AF909F908F9090
:1018A0000C94792306313CE5130709F4B7CB023CCD
:1018B0001C4509F4ECCBB1CCF6018281882309F4F4
:1018C000B7C0609177022FEF620F08F46FEF11C07D
:1018D000093C3CE5130789F008F03FC0F60182811E
:1018E000882309F4A5C0609177022FEF621B08F4EA
:1018F00060E021E0409178020EC0F60182818823E9
:1019000009F496C0409178022CE0420F08F44FEFA2
:1019100021E060917702809176020C949B04F6019D
:101920008281882309F484C08091760221E040916D
:10193000780260917702845F0C949B04F6018281A7
:10194000882309F475C08091760221E040917802E5
:10195000609177028C500C949B04F601828188235D
:1019600009F466C0409178022CE0421B08F440E084
:10197000CFCF043DECE51E0708F427C83BC0F601B5
:101980008281882309F454C00E94C60E865082309A
:1019900008F49EC986E03EC8013D9CE5190769F43C
:1019A000F6018281882309F443C00E94C60E8F503D
:1019B000853008F48DC98FE02DC8023D1C4568F4C0
:1019C000F60182818823A1F10E94C60E89508530DC
:1019D00008F47EC989E00C940A05F6018281882307
:1019E00039F10E94C60E8551823008F471C985E133
:1019F0000C940A050D3DFCE51F0709F48ECB60F43D
:101A0000053D3CE5130709F499CB08F4A2CB0C3D46
:101A10001C4509F4AECB01CC0E3DECE51E0709F4E4
:101A2000B4CBC801875F9C45079708F46FC9F5CB15
:101A300028960FB6F894DEBF0FBECDBFDF91CF91D1
:101A40001F910F91FF90EF90DF90CF90BF90AF90DC
:101A50009F908F9008959091420292FF0DC0282F81
:101A60002871283019F4877F846006C0282F2471DC
:101A7000243011F48B7F886093FF0DC0282F2871CC
:101A8000283119F4877E846106C0282F24712431FF
:101A900011F48B7E88612091430220FF0DC0382F06
:101AA0003871383019F4877F816006C0382F317162
:101AB000313011F48E7F886021FF0DC0282F2871EE
:101AC000283119F4877E816106C0282F21712131C8
:101AD00011F48E7E886194FD877E0895282F2770EB
:101AE00081E090E001C0880F2A95EAF780959091F7
:101AF00012038923809312030C947E22282F2770CF
:101B000081E090E001C0880F2A95EAF790911203D6
:101B1000892B809312030C947E22CF93E82F873079
:101B200080F58091070190910801892B09F047C049
:101B3000CE2F64E670E080E40E94A62B909308010B
:101B400080930701892BD1F464E670E082E10E9462
:101B5000FD2B9093080180930701892B79F481E094
:101B600090E001C0880FCA95EAF764E670E08095BE
:101B70000E94FD2B9093080180930701CF910C9454
:101B8000522C90E0FC013797E730F105C0F4EE5994
:101B9000FF4F0C94C62C209A289811C0219A29989E
:101BA0000EC0229A2A980BC0239A2B9808C0529AEA
:101BB0005A9805C0539A5B9802C03E9A4698CF91B6
:101BC0000895CF93873008F03FC08091070190912E
:101BD0000801892B09F041C064E670E080E40E94AE
:101BE000A62B9093080180930701892B11F0C0E088
:101BF00027C064E670E083E10E94FD2B909308010A
:101C000080930701892B99F764E670E081E40E94D4
:101C1000A62B9093080180930701892B41F784E656
:101C200090E00E942D2C97FF05C0909308018093AF
:101C30000701DDCFC82FC09510920801109207014F
:101C40000E94522C8C2F0AC09FB18FB1807F869545
:101C500086959370892B809501C080E0CF9108957F
:101C6000EF92FF920F931F93CF93DF9380917502B2
:101C700080FF2EC0EFB6F090BC00F8948091BC00BD
:101C80008B7F8093BC008BB18C7F8BB95098589A16
:101C90005198599A35E03A95F1F700008AB18C7F56
:101CA0008AB985E08A95F1F70000519A5998E5E0E4
:101CB000EA95F1F70000509A5898F5E0FA95F1F797
:101CC000000084E80E94E026C0E2D3E08E010DC04F
:101CD00080E090E0FC01E05EFC4F118210821282F5
:101CE00004968C339105B1F7C5CFF3E00C351F078F
:101CF00031F0F80181918F010E94E026F6CF5098D3
:101D0000589A35E03A95F1F700005198599A85E0D4
:101D10008A95F1F70000EFBEF092BC00579A8BB1A4
:101D20008F779BB190682FB7F894E3E0CC35DE074E
:101D300089F0399148E09BB9000000C037FF8BB9AA
:101D4000330F000000C000C000C08BB900C04A952E
:101D500091F7EBCF2FBFDF91CF911F910F91FF90A4
:101D6000EF9008959091750290FF0FC020E030E051
:101D7000F901E05EFC4F8183608342832C5F3F4F1B
:101D80002C333105A9F70C94300E0895809175021B
:101D900080FF02C08695089580E0089580917502C5
:101DA000282F269530E02115310519F481708260C5
:101DB00005C02532310524F0817088648093750256
:101DC0000895CF93DF9300D000D0CDB7DEB7AB013D
:101DD000BC0149835A836B837C830E94CE0E498168
:101DE0005A816B817C8188E090E00F900F900F907A
:101DF0000F90DF91CF910C947C2CE5E7F2E080818D
:101E00008E7F808360817181828193810E94E10E47
:101E100010927B022FEF80E792E0215080409040AB
:101E2000E1F700C000000C94300EE5E7F2E083E03B
:101E3000808311828FEF828383831482608171811A
:101E4000828193810C94E10EAF92BF92CF92DF9288
:101E5000EF92FF920F931F93CF93DF93D82EC62E4E
:101E6000E901E42FF0E0611106C0E055FC4F449118
:101E7000E42F842F7BC0E62EF12C26E0829FC00148
:101E800011240FEF10E0B8010E949E2C5BEA56036C
:101E90009001579F300D11242D0D311D2D0D311D39
:101EA000822F880F280FC8018E199F098E9FD0019D
:101EB0008F9FB00D9E9FB00D11249B2F2C9D600114
:101EC0001124CD2CDD245801AC18BD08AE9E600154
:101ED000AF9ED00CBE9ED00C11245801A21AB1089E
:101EE000AE9C9001AF9C300DBE9C300D1124232F71
:101EF0003327021B130B0E9F90010F9F300D1E9F67
:101F0000300D1124832F6230710591F04CF461156E
:101F10007105E9F061307105C1F4842F4D2D17C0B2
:101F20006430710571F044F06630710581F00DC0C8
:101F3000842F4B2F932F0BC0E42F4B2F9E2F8D2DD3
:101F400006C08B2F942F432F02C08B2F9D2DE42F83
:101F5000F0E0E055FC4F4491E82FF0E0E055FC4FF5
:101F60008491E92FF0E0E055FC4FE49149838883A8
:101F7000EA83DF91CF911F910F91FF90EF90DF9057
:101F8000CF90BF90AF900895CF93DF9300D000D053
:101F9000CDB7DEB79091750290FF0AC09E012F5F0A
:101FA0003F4F0E94240F4B8169818A810E94B20EAB
:101FB0000F900F900F900F90DF91CF9108955F9247
:101FC0006F927F928F929F92AF92BF92CF92DF9249
:101FD000EF92FF920F931F93CF93DF9300D000D027
:101FE000CDB7DEB7182F762E042F622E9091750292
:101FF00090FF6DC0E92FE695AE2FB0E0A05EBE4F1A
:102000008C9180937A029E7F923061F49E012F5FC3
:102010003F4F812F0E94240F4B8169818A810E944A
:10202000B20E43C0823019F4009178023EC086306F
:1020300019F41091760239C08930D9F38931A9F5A4
:10204000E9518E2F8170582EE695F0E0E055FB4F58
:10205000A590B49080E2C82E83E0D82EE12CF12C1C
:10206000BB249FE0892E912CEA9CC001EB9C900D33
:10207000FA9C900D1124B4010E949E2C812F5110C6
:1020800002C0860F01C0861B9601402F672D0E945B
:10209000240F8FEFE81AF80A84E0C80ED11C8FE0F5
:1020A000E816F10409F70E94300E10937602709240
:1020B000770200937802662051F06091750270916A
:1020C000760280917702909178020E94E10E0F9043
:1020D0000F900F900F90DF91CF911F910F91FF9074
:1020E000EF90DF90CF90BF90AF909F908F907F90B8
:1020F0006F905F9008959091750290FF36C0917037
:10210000811102C0926006C0853210F0986402C04E
:10211000880F982B90937502662351F06091750299
:102120007091760280917702909178020E94E10E80
:1021300060917502669570E04BE050E083E191E0BC
:102140000E94F92D892B19F010927B0202C00E9487
:10215000672781E08093720220E0409178026091CD
:102160007702809176020C94DF0F0895E5E7F2E0A4
:1021700080818160808360E086950C947B1061E0B3
:102180000C947B10E5E7F2E0808181608083869586
:102190000C94BF10809175028695815009F484E2F9
:1021A00061E00C947B108091750286958F5F85327B
:1021B00008F081E061E00C947B1060912C028CE0CF
:1021C00090E00C946A2CCF93DF9326E0729FF0018D
:1021D000112434E5839FE00DF11D1124E60FF11D5C
:1021E000EE0FFF1FE05FFE4FC591D491CE01C238C4
:1021F000D10569F1B0F4C133D10509F475C048F4D3
:10220000C932D10509F469C0CA32D10509F473C0D5
:1022100079C0C533D10509F459C0C933D105B9F026
:1022200071C0C33ED10571F138F4C03ED105B1F0A3
:10223000C23ED10511F166C0C63ED105B9F1C73E17
:10224000D105C9F1C43ED10509F05CC024C020917C
:10225000420220FD29C221FD27C22BC22091420249
:1022600020FD1CC22091430220FF23C28091420224
:1022700084FDC6C183EE90E01CC22091420222FF81
:1022800018C2F4CF8091420282FD0BC280914302BA
:1022900080FD0AC2EBCF2091430221FF0AC2809148
:1022A000420284FDADC187EE90E003C2209142025C
:1022B00023FFFFC1F4CF8091420283FDF8C18091DA
:1022C000430281FFECCF84EE90E0F3C12091420203
:1022D00025FFEFC189E290E0ECC12091420225FF89
:1022E000E8C185E390E0E5C12091420226FFE1C10B
:1022F0008AE290E0DEC12091420226FFDAC181E34A
:1023000090E0D7C1C11540E5D40708F047C0C1151A
:1023100020E4D20708F034C1C83ED10518F5C03E0C
:10232000D10508F0C6C1C83AD10570F4C53AD10547
:1023300008F0B1C0C130D10509F4BBC108F460C1D7
:10234000249708F45DC1B5C1CF3BD10508F4AEC0F8
:10235000C03CD10508F454C1FE01EE0FFF1FE05D43
:10236000FD4F03C1C11530E2D30760F4C11541E050
:10237000D40708F09EC1C03FD10508F441C1CE0189
:10238000906597C1C11580E3D80708F0F1C0FE0140
:10239000FF70EE0FFF1FE055FC4FE7C0C11595E53C
:1023A000D90708F044C0C11524E5D20708F002C1DE
:1023B000C11532E5D30710F5C11541E5D40708F082
:1023C000E4C08C2F837021E030E002C0220F331F65
:1023D0008A95E2F73C68CE0174E0969587957A95E8
:1023E000E1F78370382BEC2FEF70E695E69540E22D
:1023F000E49FC0011124822B932B5BC12C2F2695C7
:102400002695AE0143705527C115D34508F0C3C0CA
:1024100080E2289F9001112481E090E002C0880FA3
:10242000991F4A95E2F7822B932B9C6842C1C115F4
:102430009AE5D907A8F4C11529E5D20708F0C9C063
:10244000C11536E5D30708F4BBC0C11548E5D4076C
:1024500008F4D6C0FC2FEE27CF01806F906A29C107
:10246000C1158BE5D80708F4CBC0C1159CE5D90789
:1024700008F4C2C0CE0190568115904208F0C0C049
:102480008D2F8F710E942B0DFE01FF27F0628F713F
:102490009F01382BAFC0C53AD10509F4B4C0C63A84
:1024A000D10509F0B3C082E890E403C1C83AD10570
:1024B00009F4AFC0C93AD10509F4AEC0CA3AD10592
:1024C00009F4ADC0CB3AD10509F4ACC0CC3AD10582
:1024D00009F4ABC0CB3BD10509F4AAC0CC3BD10574
:1024E00009F4A9C0CD3AD10509F4A8C0C03BD10573
:1024F00009F4A7C0CE3AD10509F4A6C0CF3AD10558
:1025000009F4A5C0C13BD10509F4A4C0C23BD10563
:1025100009F4A3C0C33BD10509F4A2C0C43BD10553
:1025200009F4A1C0C53BD10509F4A0C0C63BD10543
:1025300009F49FC0C73BD10509F49EC0C83BD10533
:1025400009F49DC0C93BD10509F49CC0CD3BD10520
:1025500009F49BC0CE3BD10509F49AC0CA3BD10512
:1025600009F499C080E094E4A4C085919491A1C03D
:10257000CE019927D3FF02C0986C9BC0906C99C084
:10258000FE01FF70CF01906A94C0FC2FEE27CF01AF
:10259000816F906A8EC090E2299F9001112481E0A2
:1025A00090E002C0880F991F4A95E2F7822B932B87
:1025B0009A687FC0FC2FEE27CF01846F906A79C0A4
:1025C0008C2F0E942B0D8F7190E0982F882790629E
:1025D00070C08C2F8F700E942B0DFE0194E0F69539
:1025E000E7959A95E1F7EF70F0E0FE2FEE27F0699E
:1025F0009F01282BC9015DC0CE019927906659C063
:1026000080E090E056C081E890E453C083E890E415
:1026100050C082EE94E44DC089EE94E44AC08AEE44
:1026200094E447C085EB94E444C086EB94E441C055
:1026300083EB94E43EC084EB94E43BC087EB94E4EA
:1026400038C08CEC94E435C08DEC94E432C083E85F
:1026500095E42FC08AE895E42CC082E995E429C06E
:1026600084E995E426C081E296E423C083E296E4FF
:1026700020C084E296E41DC085E296E41AC086E29A
:1026800096E417C087E296E414C08FE694E411C084
:1026900080E794E40EC08AE296E40BC089E390E000
:1026A00008C082EE90E005C080EE90E002C086EEA9
:1026B00090E0DF91CF910895CF92DF92EF92FF9259
:1026C0000F931F936B017C01AC016627772741159F
:1026D00051056105710511F080E103C0B701A60144
:1026E00080E0052F162F272F33270115110521050F
:1026F000310519F0885FB901A8018A019B01F4E056
:102700003695279517950795FA95D1F70115110577
:102710002105310519F08C5FB901A8018A019B01DF
:10272000E2E03695279517950795EA95D1F70115BB
:1027300011052105310519F08E5FB901A8017695C3
:10274000679557954795452B462B472B09F08F5F8B
:1027500056985E9825982D9826982E9827982F9809
:10276000482F50E0FA013197E730F105C8F4E759F6
:10277000FF4F0C94C62C259A2D9A27C0269A2E9A84
:1027800033C0259A2D9A269A2E9A3FC0259A2D9AC3
:1027900004C0259A2D9A269A2E9A279A2F9A35C0E8
:1027A000813099F018F08230F9F02FC08091EE015D
:1027B00081114EC00E94B61060E081E00E947B1043
:1027C00020E040EE6AE880E01DC08091EE018111BA
:1027D0003FC00E94B61060E081E00E947B1020E0C4
:1027E00044EC6CE588E40EC08091EE01811130C0AC
:1027F0000E94B61060E081E00E947B1020E04CED6A
:102800006EE785E90E94DF0F23C08091EE01811100
:102810001FC088E090E00E945E2C60937502709368
:102820007602809377029093780260FF0FC00E9437
:10283000C2108091750286950E94BF1021E04091E0
:1028400078026091770280917602DCCF0E94FD0EC3
:10285000C701B6011F910F91FF90EF90DF90CF90CD
:10286000089580E290E090930801809307018091A1
:10287000F70181110EC00E94A02B81E08093F70127
:102880002FEF83ED90E3215080409040E1F700C0AE
:10289000000064E670E080E40E94A62B909308019B
:1028A00080930701892B09F04EC064E670E080E058
:1028B0000E94FD2B9093080180930701892B09F05A
:1028C00042C064E670E080E00E94FD2B9093080116
:1028D00080930701892BB9F564E670E08FE30E94CD
:1028E000FD2B9093080180930701892B61F50E94CD
:1028F000522C64E670E080E40E94A62B90930801BD
:1029000080930701892BF9F464E670E08CE00E9463
:10291000FD2B9093080180930701892BA1F464E6B5
:1029200070E080E00E94FD2B9093080180930701E6
:10293000892B49F464E670E08FE30E94FD2B9093AD
:102940000801809307010E94522C8091070108958D
:10295000CF93DF9356985E9825982D9826982E98B9
:1029600027982F98C8E8D0E08FEF90E0998388836C
:10297000AAE8B0E011969C938E93ECE8F0E0918386
:102980008083259A2D9A2FEF80E792E02150804096
:102990009040E1F700C00000269A2E9A2FEF80E7C2
:1029A00092E0215080409040E1F700C00000279A5B
:1029B0002F9A2FEF80E792E0215080409040E1F77E
:1029C00000C0000025982D982FEF80E792E021505D
:1029D00080409040E1F700C0000026982E982FEF2D
:1029E00080E792E0215080409040E1F700C0000075
:1029F00027982F988091300287702FEF829FC00117
:102A0000112495958795959587959927998388831E
:102A100011969C938E939183808356985E98259807
:102A20002D9826982E9827982F98DF91CF9108956A
:102A300084B1807F84B985B1807F85B98AB1837F75
:102A40008AB98BB1837F8BB93E984698089580B33D
:102A50008C7080BB81B3836F81BB08959F92AF92CE
:102A6000BF92CF92DF92EF92FF920F931F93CF937B
:102A7000DF938091070190910801892B91F080915B
:102A8000F6018F5F8093F60181110BC00E94311413
:102A900090E09093080180930701892B11F40E9424
:102AA000A81404E312E02BE3E22E22E0F22E6801E8
:102AB000C0E0912C97E0A92EAC0E8C2F0E948D0DBA
:102AC0008A2D0E948D0D8C2F0E94E10DF6019081C0
:102AD000981721F08083BB24B39401C0B12C8A2DB8
:102AE0000E94E10DF7019081981719F0808381E031
:102AF00001C080E0B82A9B280E941815CF5FFFEF25
:102B0000CF1ADF0A8FEFE81AF80AC73099F60E9449
:102B10003A216AEF70E00E949E2C9C01682F809100
:102B2000F5018823E9F11092F501E0912A02F09174
:102B30002B02DF011E9690E07BEF8AEFE82EF12C4E
:102B400080818B3FA9F0482F50E0681728F0E901F9
:102B5000C41BD50BAE0106C06701C41AD50AA60175
:102B6000420F531F4E31510514F0708301C091E0A4
:102B70003196EA17FB0721F79093F501911002C0F7
:102B8000911110C01092F401A0912A02B0912B0271
:102B90009091F501E8E4F2E080E03EE03E0F07C0EE
:102BA0009110F0CF8091F4018111ECCF16C0E801B3
:102BB00029918E014081421741F04C914B3F21F405
:102BC0006C93208391E001C081E0119631963E1311
:102BD000EECF9093F5018093F401892DDF91CF9191
:102BE0001F910F91FF90EF90DF90CF90BF90AF902B
:102BF0009F900895CF93DF93EC0180EEFE0109953D
:102C000081EEFE01DF91CF910994CF92DF92FF9286
:102C10000F931F93CF93DF931F92CDB7DEB7F82E9C
:102C20008B0199830E94B91A998181111CC0CF2C04
:102C3000D92E01151105B1F08091E80085FD0AC07B
:102C40008091E8008E778093E8000E94B91A88236B
:102C500081F309C0F60181916F018093F100015069
:102C60001109E7CF80E00F90DF91CF911F910F9175
:102C7000FF90DF90CF9008951F93CF93DF93CDB750
:102C8000DEB7AA970FB6F894DEBF0FBECDBFE2E263
:102C9000F2E088E08E0F9091F10091938E13FBCFBC
:102CA00080912302833009F460C030F4813071F0E8
:102CB000823009F49CC0B3C08A3009F488C08B30DC
:102CC00009F46BC0893009F0AAC020C080912202AB
:102CD000813A09F0A4C08091E800877F8093E800E2
:102CE0008091260290912702892B21F460E28EEFD9
:102CF00091E003C060E080E090E070E00E943F1B44
:102D00008091E8008B778093E80089C0809122024F
:102D1000813209F084C080912602909127020297A7
:102D200008F07DC08091E800877F8093E800809163
:102D3000E80082FD05C0809120028111F8CF6FC0AC
:102D40002091F3008091F20090E0922B029729F4F9
:102D50008091F1008B7F813021F48091F10080938C
:102D6000FD018091E8008B7756C080912202813A64
:102D700009F055C08091260290912702892B09F015
:102D80004EC08091E800877F8093E8008091E80042
:102D900080FFFCCF8091060139C0809122028132F0
:102DA000F1F58091260290912702892BC1F580913F
:102DB000E800877F8093E8000E94EB1A809124024C
:102DC000809306011092FB010E94E42928C08091A3
:102DD0002202813221F58091E800877F8093E8000C
:102DE0000E94EB1A809125028093FC0118C080910B
:102DF0002202813AA1F48091E800877F8093E80065
:102E00008091E80080FFFCCF8091FC018093F1006D
:102E10008091E8008E778093E8000E94EB1A809101
:102E2000E80083FFD6C18091220290912302492FAE
:102E300050E04A30510508F0CCC1FA01E059FF4F8B
:102E40000C94C62C803821F0823809F0C2C108C029
:102E500080911E0290911F02992389F082600FC019
:102E6000809126028F70873008F0B3C18093E9000B
:102E70008091EB0085FB882780F91092E900909102
:102E8000E800977F9093E8008093F1001092F100A2
:102E900074C1282F2D7F09F09CC1882319F082303E
:102EA00061F097C180912402813009F092C1933082
:102EB00009F080E080931F022EC0809124028111CE
:102EC0002AC0809126028F702FEF280F263008F03D
:102ED00080C18093E9002091EB0020FF1CC093305B
:102EE00021F48091EB00806214C09091EB0090611E
:102EF0009093EB0021E030E0A90102C0440F551F80
:102F00008A95E2F74093EA001092EA008091EB0084
:102F100088608093EB001092E9008091E800877F41
:102F20002FC1811156C1109124021F778091E300B7
:102F30008078812B8093E3008091E800877F8093E5
:102F4000E8000E94EB1A8091E80080FFFCCF80919E
:102F5000E30080688093E300111102C082E001C0A9
:102F600083E08093200235C18058823008F031C15F
:102F700080912402909125028C3D53E0950779F5CC
:102F800083E08A838AE289834FB7F894DE0113963F
:102F900020E03EE051E2E32FF0E050935700E4914F
:102FA00020FF03C0E295EF703F5FEF708E2F90E03F
:102FB000EA3010F0C79601C0C0968D939D932F5FA5
:102FC000243149F74FBF8091E800877F8093E80064
:102FD0006AE270E0CE0101960E943F1BBDC04091A5
:102FE000260250912702292F332723303105B9F0CB
:102FF0006CF42130310509F4FBC02230310509F0B1
:10300000E8C08BE390E0E5EBF5E054C021323105F8
:1030100009F433C02232310509F43CC0DAC09927E3
:1030200081309105D1F05CF4892B09F0D2C0E8E33E
:10303000F6E0E4918E2F90E0E8E3F6E038C08230CD
:10304000910599F0039709F0C4C0E2E0F6E0E4913D
:103050008E2F90E0E2E0F6E02AC0E0E2F6E0E491B4
:103060008E2F90E0E0E2F6E022C0E8E0F6E0E491A6
:103070008E2F90E0E8E0F6E01AC04115510509F402
:10308000BCC04130510509F0A4C089E090E0E0EEF9
:10309000F5E010C04115510509F4B4C041305105A7
:1030A00009F097C080EC90E0E5EBF4E003C00097F6
:1030B00009F48FC02091E800277F2093E800209139
:1030C0002802309129022817390708F4C90140E085
:1030D000009789F120912002222309F43DC0253078
:1030E000D9F12091E80023FD37C02091E80022FDAE
:1030F0002FC02091E80020FFEBCF4091F3002091FA
:10310000F20030E0342B009759F02830310540F4BC
:1031100044914093F100319601972F5F3F4FF3CFD9
:1031200041E02830310509F040E02091E8002E7799
:103130002093E800CDCF4111CDCF0AC0809120026D
:10314000882351F0853041F08091E80083FD04C070
:103150008091E80082FFF2CF8091E8008B77809326
:10316000E80037C08038A9F58091E800877F809318
:10317000E800809121028093F1008091E8008E7731
:103180008093E8000E94EB1A24C0811122C01091A4
:1031900024021230F0F48091E800877F8093E800E9
:1031A000109321020E94EB1A111106C08091E300D6
:1031B00087FD02C081E001C084E08093200242E0EC
:1031C00061EC81E00E940A1B42E261EC82E00E9415
:1031D0000A1B8091E80083FF1AC08091E800877F76
:1031E0008093E8008091EB0080628093EB000FC039
:1031F00082E190E0E0EFF5E05DCF89E090E0E7EC80
:10320000F5E058CF80E490E0E5E7F5E053CFAA96EB
:103210000FB6F894DEBF0FBECDBFDF91CF911F91E7
:1032200008951F920F920FB60F9211242F933F9380
:103230004F935F936F937F938F939F93AF93BF93BE
:10324000CF93DF93EF93FF93C091E900CF7080910C
:10325000EC00D82FD17080FDD0E81092E900809169
:10326000F000877F8093F00078940E943C161092C3
:10327000E9008091F00088608093F000CD2BCF7042
:10328000C093E900FF91EF91DF91CF91BF91AF9192
:103290009F918F917F916F915F914F913F912F916E
:1032A0000F900FBE0F901F901895E8EDF0E0808111
:1032B0008E7F80831092E2001092DA001092E1007B
:1032C000A0EEB0E08C9181608C9380818F778083B9
:1032D00019BCA7EDB0E08C918E7F8C9380818F7E9E
:1032E00080831092F8010895CF92DF92EF92FF92BF
:1032F0000F931F93CF93DF93C8EDD0E088818F7E2B
:103300008883E7EDF0E080818160808384E082BF84
:1033100081E08093F80188818E7F888302EE10E03F
:10332000F80110821092DA0081EEC82ED12CF6013D
:10333000108288818F7788838881806888838881DC
:103340008F7D888319BC1092200210922102109266
:103350001F0210921E0290EEE92EF12CF7018081DF
:103360008B7F808388818160888342E060E080E099
:103370000E940A1BF60180818E7F8083F801808184
:1033800081608083808188608083F70180818E7F67
:103390008083888180618883DF91CF911F910F9115
:1033A000FF90EF90DF90CF9008951F920F920FB68D
:1033B0000F9211242F933F934F935F936F937F93BB
:1033C0008F939F93AF93BF93EF93FF938091E1000F
:1033D00082FF09C08091E20082FF05C08091E10078
:1033E0008B7F8093E1008091DA0080FF2AC080917A
:1033F000D80080FF26C08091DA008E7F8093DA00AB
:103400008091D90080FF18C080E189BD82E189BD2B
:1034100009B400FEFDCF81E0809320028091F80185
:1034200081110FC00E9455190E9474198091E20009
:1034300084608093E20005C019BC109220021092B3
:10344000F8018091E10080FF17C08091E20080FFC9
:1034500013C08091E2008E7F8093E2008091E200B1
:1034600080618093E2008091D80080628093D800D0
:1034700019BC85E0809320028091E10084FF3DC06B
:103480008091E20084FF39C080E189BD82E189BD7D
:1034900009B400FEFDCF8091D8008F7D8093D800C5
:1034A0008091E1008F7E8093E1008091E2008F7E29
:1034B0008093E2008091E20081608093E20080913D
:1034C0002102882311F084E007C08091E30087FD8A
:1034D00002C081E001C083E0809320021092FB01D2
:1034E0000E94E4290E94D4261092FA018091F901E9
:1034F00081110E94B6100E9467278091E10083FF2E
:1035000027C08091E20083FF23C08091E100877F84
:103510008093E10082E0809320021092210280914A
:10352000E1008E7F8093E1008091E2008E7F8093A6
:10353000E2008091E20080618093E20042E060E07E
:1035400080E00E940A1B8091F00088608093F00068
:10355000FF91EF91BF91AF919F918F917F916F916B
:103560005F914F913F912F910F900FBE0F901F9041
:1035700018952091E4003091E50095E64091EC002B
:10358000842F817040FF22C08091E80080FD1CC024
:1035900080912002882391F0853091F08091EB009A
:1035A00085FD10C04091E4005091E500421753079B
:1035B00029F39A01915011F784E0089582E008956B
:1035C00083E0089581E0089580E008954091E80047
:1035D00042FFDECF08958091220287FF11C08091C3
:1035E000E80082FD05C0809120028111F8CF11C052
:1035F0008091E8008B770BC080912002882349F0EE
:103600008091E80080FFF8CF8091E8008E7780936A
:10361000E8000895982F973058F59093E90098178F
:1036200039F07091EC002091ED005091F00003C052
:10363000242F762F50E021FF19C03091EB003E7F00
:103640003093EB003091ED003D7F3093ED003091F1
:10365000EB0031603093EB007093EC002093ED00B1
:103660005093F0002091EE0027FF07C09F5FD3CF5B
:103670008F708093E90081E0089580E008952091A3
:103680002802309129022617370748F06115710585
:1036900039F42091E8002E772093E80001C0B901A9
:1036A00040E061157105A9F120912002222309F45F
:1036B00043C0253009F442C02091E80023FD40C0FA
:1036C0002091E80022FD32C02091E80020FFE9CFE0
:1036D0004091F3002091F20030E0342BFC01CF0147
:1036E0006115710559F02830310540F481918093BE
:1036F000F100615071092F5F3F4FF1CF41E0283059
:10370000310509F040E02091E8002E772093E80091
:10371000C8CF4111C9CF0AC080912002882361F02F
:10372000853061F08091E80083FD0AC08091E80057
:1037300082FFF2CF80E0089582E0089583E008954B
:1037400081E0089580917C02811107C08091200260
:10375000843011F081E0089582E00895CF93DF93E3
:10376000CDB7DEB72C970FB6F894DEBF0FBECDBF36
:1037700084B7877F84BF0FB6F894A89580916000C6
:10378000886180936000109260000FBE80E8809393
:1037900061001092610085B7806885BF85B7806839
:1037A00085BF0E9455190E9474198091E2008460BF
:1037B0008093E2007894809120028823A1F01091F8
:1037C000E9001F709091EC00892F817090FD80E8D6
:1037D000182B1092E9008091E80083FD0E943C16AE
:1037E0001F701093E90082E084BD93E095BD9AEFCD
:1037F00097BD80936E000E94311490E09093080171
:10380000809307010E9418150E942715A4E3B2E0D7
:10381000E8E4F2E06EE0D62EDE0E11921D92DE128A
:10382000FCCF8EE090E00E94CC2C80932A029093F3
:103830002B02FC010E962BEF2193E817F907E1F715
:103840000E94F921811102C00E9404228CE090E0C4
:103850000E94562C90E0A0E0B0E080932C02909360
:103860002D02A0932E02B0932F0289EA809380004C
:1038700089E08093810024982C983F988AB18F7CAE
:103880008AB96E98479A8BB180638BB9769A8FE02C
:1038900090E00E945E2C609330027093310280931E
:1038A00032029093330267702FEF629FB0011124B0
:1038B00075956795759567957727709389006093DF
:1038C000880070938B0060938A0070938D006093E2
:1038D0008C000E94A8140E94F921811102C00E944C
:1038E000042282E090E00E94562C809360020E94A5
:1038F000E821909343028093420283E090E00E948B
:10390000562C682F70E080E090E00E94D8238091D0
:103910004402811138C0809160028160809360020E
:103920000E94F921811104C00E9404220E94150FF7
:1039300088E090E00E945E2C60937502709376029E
:1039400080937702909378026E7F71F40E94150F36
:1039500088E090E00E945E2C60937502709376027E
:1039600080937702909378020E94CE0E10927B0291
:103970008091750280FF04C060E086950E947B10F4
:1039800081E08093440289E091E090934602809325
:1039900045024CE3E42E46E0F42E8091200285306F
:1039A00009F065C080912002843009F441C0109272
:1039B000470220E488E190E00FB6F894A895809340
:1039C00060000FBE2093600010927B028091FA018C
:1039D000811117C081E08093FA0180917502982FC0
:1039E00091709093F9018E7F809375023FEF40E7CD
:1039F00082E0315040408040E1F700C000000E946A
:103A0000300E83B7817F846083BF83B7816083BFBB
:103A10007894889583B78E7F83BF0FB6F894A89566
:103A200080916000886180936000109260000FBEFA
:103A300080911F02882309F4B0CF0E94311490E0D6
:103A400090930801809307010E9418150E94271582
:103A5000E8E4F2E01192DE12FDCF0E942E15E8E4B8
:103A6000F2E08191811184C1DE12FBCF96CF0E94DA
:103A70002E15E1E6F2E0A8E4B2E000E010E0302F1D
:103A80002D9141914227B9F180E090E050E0682FFC
:103A90005A01082E02C0B594A7940A94E2F7A0FE3A
:103AA00026C089833A8381E090E05C0102C0AA0CC1
:103AB000BB1C6A95E2F7822F90E08A219B2121E0CE
:103AC000892B09F420E02B830E943A218160782F12
:103AD0009D838C8349815A816B818D810E94D2257F
:103AE000F801EF59FD4F8081A826A0821AC00196E7
:103AF0008630910561F60F5F1F4F0E30110509F0FA
:103B0000BECF8FEF8E838F8318860E943A2181600B
:103B1000782F9A8789874E815F8168858A850E9480
:103B2000D22580915D0290915E020E9410219C013D
:103B300090915C02992321F02431310508F478C07A
:103B4000809158021091590281110BC0111126C1A8
:103B500020915A02211122C120915B0221111EC124
:103B600067C09F3F19F09F5F90935C02181624F482
:103B70000E945F20809358028091580287FF05C001
:103B80000E945F20819580935802111624F40E94B0
:103B90005F20809359028091590287FF05C00E94DF
:103BA0005F20819580935902309158023323E1F0D0
:103BB000209159022223C1F045EB3403C0011124A6
:103BC000892F990F990B009709F481E0809358028F
:103BD00035EB2303C0011124892F990F990B00970E
:103BE00009F481E08093590280915A02181624F456
:103BF0000E943D2080935A0280915A0287FF05C09F
:103C00000E943D20819580935A0280915B02181694
:103C100024F40E943D2080935B0280915B0287FF29
:103C200005C00E943D20819580935B020E94462141
:103C300010915F020E94D426181721F00E94D4260A
:103C400080935F0280917B02882309F4A6CE809145
:103C50007A02E0917502E695E81BE09371028230EA
:103C600049F4F0E0E65BF94FE4910E2F10E02EEB03
:103C700035E248C0863049F4F0E0E95BF94FE49161
:103C80000E2F10E02EEA35E23DC0893051F4E69562
:103C9000F0E0EC5BF94FE4910E2F10E022E435E206
:103CA00031C08F3051F4E695F0E0EF5BF94FE491CD
:103CB0000E2F10E022ED34E225C0853149F4F0E00A
:103CC000E25CF94FE4910E2F10E026E734E21AC0CF
:103CD000883179F0833231F4F701059114912CE6A3
:103CE00035E210C0843251F404EF11E029E034E2EF
:103CF00009C008EE13E021E434E204C000ED17E04F
:103D00002CEE33E2809172028823A9F010927202A5
:103D10002B873C870E943A21A80140955095840F3B
:103D2000951F9093700280936F021092740210920C
:103D300073023C852B8580916F02909170022B87D6
:103D40003C870E9410212B853C858017910708F441
:103D500024CEE0916F02F09170020E0F1F1F10939E
:103D6000700200936F028FE692E0F901099515CE7B
:103D700080E189BD82E189BD09B400FEFDCF80915B
:103D8000D8008F7D8093D8008091E000826080937E
:103D9000E0008091E00081FDFCCFFFCD9F3F09F066
:103DA000E2CEEACE8091FD010895CF93DF9300D05B
:103DB0001F92CDB7DEB720912002243031F523E0E9
:103DC0002983805891099B838A8382E08093E9004C
:103DD0008FEF9091E800815095FD06C095ED9A9582
:103DE000F1F700008111F5CF8091E80085FF0DC04B
:103DF00040E050E063E070E0CE0101960E940516BD
:103E00008091E8008E778093E8000F900F900F90DC
:103E1000DF91CF9108950F931F93CF93DF9300D03D
:103E20001F92CDB7DEB78C010E94A21B823011F029
:103E3000843021F584E089831B830A8382E08093A8
:103E4000E9008FEF9091E800815095FD06C095ED57
:103E50009A95F1F700008111F5CF8091E80085FF78
:103E60000DC040E050E063E070E0CE0101960E949A
:103E700005168091E8008E778093E8000F900F90F0
:103E80000F90DF91CF911F910F910895CF93DF9302
:103E9000EC010E94A21B823011F08430F9F482E020
:103EA0008093E9009FEF8091E800915085FD06C066
:103EB00085ED8A95F1F700009111F5CF8091E8002A
:103EC00085FF0CC040E050E066E070E0CE010E944B
:103ED00005168091E8008E778093E800DF91CF91FE
:103EE0000895CF93DF93EC010E94A21B823011F062
:103EF0008430D9F580910601882339F080914202FF
:103F000087FF03C060E282E002C068E081E0809346
:103F1000E9008FEF9091E800815095FD06C095ED86
:103F20009A95F1F700008111F5CF8091E80085FFA7
:103F30001CC080910601811105C040E050E068E09E
:103F400070E003C070E040E050E0CE010E94051632
:103F50008091E8008E778093E80080E2FE01AEEF6A
:103F6000B1E001900D928A95E1F7DF91CF9108952C
:103F7000803F39F48091590287FF6CC0109259023A
:103F800069C0813F29F4809159021816BCF362C0C0
:103F900090915802823F29F497FF5CC0109258021A
:103FA00059C0833F19F41916CCF354C0893F41F42A
:103FB00080915A0218160CF04DC010925A024AC055
:103FC0008A3F29F480915A0287FF44C0F6CF8B3F85
:103FD00039F480915B0287FF3DC010925B023AC0CA
:103FE0008C3F29F480915B021816BCF333C0843FE8
:103FF00021F4809157028E7F17C0853F21F4809174
:1040000057028D7F11C0863F21F4809157028B7F2C
:104010000BC0873F21F480915702877F05C0883FFE
:1040200031F4809157028F7E8093570213C08D3FE9
:1040300021F480911C038E7F0BC08E3F21F4809170
:104040001C038D7F05C08F3F29F480911C038B7F5B
:1040500080931C038091580281110EC080915902F7
:1040600081110AC080915A02811106C080915B02C1
:10407000811102C010925C02089580911C0380FDA2
:1040800016C081FD16C082FD18C080915C02882395
:1040900091F0883290F428E0829FC001112468E2F8
:1040A00070E00E94B22C862F672B29F007C082E0B7
:1040B000089584E0089581E0089588E0089580914E
:1040C0001C0380FD17C081FD17C082FD19C08091BF
:1040D0005C02882399F08C3398F423E2829FC0011C
:1040E00011246CE370E00E94B22C862F672B49F4F8
:1040F00081E0089588E0089581E1089585E00895BC
:1041000083E20895803F21F40E945F20819504C0DE
:10411000813F29F40E945F20809359020895823FD5
:1041200021F40E945F20819504C0833F29F40E94FE
:104130005F20809358020895893F19F40E943D2022
:1041400005C08A3F31F40E943D20819580935A0238
:1041500008958B3F21F40E943D20819504C08C3F3F
:1041600029F40E943D2080935B020895843F21F44E
:1041700080915702816017C0853F21F480915702DA
:10418000826011C0863F21F48091570284600BC089
:10419000873F21F480915702886005C0883F31F441
:1041A0008091570280618093570208958D3F21F4DA
:1041B00080911C0381600BC08E3F21F480911C0311
:1041C000826005C08F3F29F480911C038460809336
:1041D0001C03089578941F920F920FB60F9211242A
:1041E0008F939F93AF93BF9380911803909119037E
:1041F000A0911A03B0911B030196A11DB11D8093DC
:10420000180390931903A0931A03B0931B03BF9153
:10421000AF919F918F910F900FBE0F901F901895A7
:10422000CF92DF92EF92FF920F931F932FB7F894E4
:10423000409118035091190360911A0370911B0368
:104240002FBF6A017B01EE24FF248C0120E030E0C7
:10425000C016D106E206F30610F4415051099A0146
:10426000281B390BC9011F910F91FF90EF90DF9030
:10427000CF9008952FB7F894809118039091190367
:10428000A0911A03B0911B032FBF0895E09145023E
:10429000F0914602309749F082E080935602048004
:1042A000F581E02D86E592E009950E943A219093F0
:1042B0005E0280935D0208951F920F920FB60F92D7
:1042C00011248F939F93AF93BF93809147028111E5
:1042D00013C08091180390911903A0911A03B09113
:1042E0001B034196A11DB11D8093180390931903E0
:1042F000A0931A03B0931B03BF91AF919F918F912D
:104300000F900FBE0F901F90189520910601222349
:1043100021F02091420227FD04C0FC01329608964C
:1043200019C0262F2695269526952E31C0F4FC011E
:10433000E20FF11D677081E090E001C0880F6A957F
:10434000EAF7809592818923828308953196E81750
:10435000F90729F020812613F9CF1082F7CF0895AD
:1043600020910601222321F02091420227FD05C061
:10437000FC0132962FEF30E019C0262F26952695A6
:1043800026952E3120F5FC01E20FF11D677081E0CA
:1043900090E001C0880F6A95EAF79281892B8283A9
:1043A00008952F3F39F03F5F363041F04191461379
:1043B000F8CF0DC04111F7CF232FF5CF2F3F39F0A4
:1043C000FC01E20FF11D27FDFA956283089508951F
:1043D000CF9384E090E00E94562CC82F81E290E0B9
:1043E0000E94562C2C2F30E0A901582BCA01CF91E6
:1043F000089580E090E00E94642C21E08F3E9E4F63
:1044000009F020E0822F08956FEE7EEF80E090E0CB
:104410000E94882C60E082E090E00E946A2C60E0BC
:1044200083E090E00E946A2C10921403109215030E
:10443000109216031092170360E084E090E00E944F
:104440006A2C60E081E290E00E946A2C60E085E0E6
:1044500090E00E946A2C60E086E090E00E946A2C66
:104460006FEF87E090E00E946A2C40E050E0BA01D4
:1044700088E090E00E947C2C60E08DE090E00E945B
:104480006A2C40E050E0BA0188E190E00E947C2C68
:1044900060E087E190E00E946A2C40E050E0BA01C1
:1044A0008CE190E00E947C2C60E080E290E00E9431
:1044B0006A2C109230021092310210923202109245
:1044C000330284E080618093300240913002509149
:1044D000310260913202709133028FE090E00E94CD
:1044E0007C2C40E050E0BA0183E190E00C947C2CFD
:1044F0008091130381111092130308959091120378
:104500008091FB01892B20911103982F922B90937E
:104510007D02809113038823D9F0892B80937D023B
:1045200080910601882331F08091420287FF02C00A
:104530008EE101C086E0EFE7F2E090E0815028F0E4
:1045400021912223D9F39F5FF9CF91110E94782204
:10455000E0914502F09146023097A9F08091060162
:10456000882359F08091420287FF07C080917D0225
:1045700080937E0285E080937D020280F381E02DAE
:104580008DE792E009940895BF92CF92DF92EF9267
:10459000FF920F931F93CF93DF938C01C09014036E
:1045A000D0901503E0901603F090170380910C0350
:1045B00090910D03A0910E03B0910F03C82AD92A40
:1045C000EA2AFB2ACFE1D0E0D701C6010C2E04C0B5
:1045D000B695A795979587950A94D2F780FF07C05F
:1045E000BC2EB8018C2F0E94E310019719F421977B
:1045F00058F7B12C8B2DDF91CF911F910F91FF9028
:10460000EF90DF90CF90BF900895CF93DF93EC01B0
:104610000E94C422BE010E94E310DF91CF91089551
:10462000292F220F920F990F890F682F6695669593
:104630006695982F977085E0689FB001112440E03F
:1046400050E080E0FA01E60FF71FEB52FD4F2081AA
:1046500030E0092E02C0369527950A94E2F72170C2
:104660003327042E01C0220F0A94EAF7822B4F5FF2
:104670005F4F4530510531F70895292F220F920FD2
:10468000990F890FA82FA695A695A695877051E03A
:1046900001C0550F8A95EAF785E0A89FD001112443
:1046A00020E030E070E0F901EA0FFB1FEB52FD4F14
:1046B0004081CB01022E02C0969587950A94E2F7BD
:1046C00081709927819584278523842780832F5F94
:1046D0003F4F2530310539F708950E945C136093F0
:1046E0000C0370930D0380930E0390930F030C94AF
:1046F000C9290F931F9341E050E060E070E004C0CF
:10470000440F551F661F771F8A95D2F74095509525
:104710006095709580910C0390910D03A0910E030C
:10472000B0910F038A019B01082319232A233B23FD
:10473000C901B8011F910F910C946D2320911003B2
:104740008095822380931003982F977079F430E03E
:10475000482F082E000C550B2417350739F0859586
:10476000859585950E9479231092100308950F93E3
:104770001F9341E050E060E070E004C0440F551F1B
:10478000661F771F8A95D2F780910C0390910D03D5
:10479000A0910E03B0910F038A019B01082B192BE6
:1047A0002A2B3B2BC901B8011F910F910C946D234B
:1047B000609314037093150380931603909317036B
:1047C0000C94C9298091D4029091A302891719F001
:1047D0008F5F8770FBCF08950895882319F0519853
:1047E000599A02C0519A59985098589A95E09A95BA
:1047F000F1F70000509A589895E09A95F1F700006B
:10480000882311F0519A599885E08A95F1F70000B4
:104810000895EF92FF920F931F93CF93DF937C0144
:10482000C0E2D3E000E010E0F70184810730110519
:104830001CF4882339F002C0811104C09E0140910C
:10484000780202C09E0140E060917702809176027A
:104850000E94240F0F5F1F4F24960F30110521F780
:104860000E94300EF701248130E02F5F3F4F21700E
:1048700033272483DF91CF911F910F91FF90EF9009
:104880000895EF92FF920F931F93CF93DF93EC0164
:104890002C813D812F5F3F4F217033273D832C8337
:1048A00080E2E82E83E0F82E10E005E5812F869562
:1048B0004C815D81480F511D842F8170970140917B
:1048C000780260917702809F802D11240E94240F2E
:1048D0001F5F84E0E80EF11C1F3041F7DF91CF919C
:1048E0001F910F91FF90EF900C94300E0F931F9338
:1048F000CF93DF9380E090E0FC01E05EFC4F1182FB
:104900001082128204968C339105B1F7C0E0D0E09A
:104910000FE010E0CE01B8010E94B22CFC018091A2
:104920001E03082E000C990BEE0FFF1FEE0FFF1F4A
:10493000C817D907A4F080911F01082E000C990B0D
:104940008C179D0764F09F01205E3C4F40917802D8
:1049500060917702809176020E94240F05C0E05E8C
:10496000FC4F1182108212822196CF30D10591F630
:104970000E94300E80911E0190911E03980F90931B
:104980001E0320911F01280F20931F01121614F4FB
:104990009E301CF0819580931E01DF91CF911F9175
:1049A0000F910895AF92BF92CF92DF92EF92FF9254
:1049B0000F931F93CF93DF93FC01828180FF03C08D
:1049C000BB24BA9402C0BB24B39420E2E22E23E0BD
:1049D000F22E02E213E0C0E0D0E0F801319710823D
:1049E000F7011082F801108294E0C92ED12CA12C7D
:1049F00080911D038A0D87FD815F082E000C990BA5
:104A0000C817D90791F4809178028C9DA0018D9DE3
:104A1000500D1124559547955595479597016091EF
:104A20007702809176020E94240FAB0CF1E0CF1A3E
:104A3000D108F1F6219684E0E80EF11C0C5F1F4FBF
:104A4000CF30D10551F60E94300E80911D0391E0C8
:104A5000B91206C0811102C08EE007C0815005C0A6
:104A600090E00196BE010E94B22C80931D03DF915D
:104A7000CF911F910F91FF90EF90DF90CF90BF905B
:104A8000AF900895EF92FF921F93CF93DF93EC01C5
:104A900080E2E82E83E0F82E10E08C8197014091AF
:104AA000780260917702810F0E94240F1F5E84E0DC
:104AB000E80EF11C1F3F89F70E94300E8A819C810D
:104AC00080FF02C09F5F01C091509C83DF91CF9116
:104AD0001F91FF90EF9008950F931F93CF93DF9353
:104AE00000D000D0CDB7DEB78C0180911F038111BB
:104AF0000AC09E012F5F3F4F4FEF6FEF0E94240FC0
:104B00008A8180931F03F8018481813051F028F05D
:104B1000823061F440911F030AC080911F0340E07E
:104B200007C060911F0340E080E003C040E080E0E8
:104B300060E00E94B20EF801248130E0C9010196C4
:104B400063E070E00E94B22C84830F900F900F906E
:104B50000F90DF91CF911F910F910895CF93DF9325
:104B6000EC01E5E7F2E0438162818C810E94C40F91
:104B70008C818F5F8C83DF91CF910895CF93DF93EA
:104B8000EC01EC81F0E0E25BF94F4491E5E7F2E003
:104B9000628181810E94C40F8C818F5F8C83DF9141
:104BA000CF910895EF92FF920F931F93CF93DF93CE
:104BB000CDB7DEB767970FB6F894DEBF0FBECDBF97
:104BC0004B8B5C8B6D8B7E8B8F8B0E891F890115B8
:104BD0001105C1F15F3F11F44F3FA1F1E42EF12C1B
:104BE000A1E0B0E0042E01C0AA0F0A94EAF7852FD5
:104BF00090E0662319F02091710306C09C012E59A4
:104C00003C4FF90120812A232223A9F046E0489F46
:104C10009001499F300D1124F701E20FF31FEE0FB1
:104C2000FF1FEB5BFE4F40815181FC01EE59FC4FB1
:104C30009081A92B06C0FC01EE59FC4FA095808104
:104C4000A823A08386E0FE013D96DF01982F1D92E8
:104C50009A95E9F74D875E876F87198B088BDE0180
:104C6000179601900D928A95E1F7CE0107960E9462
:104C7000FF27811137C086E0FE013796DE011196CD
:104C800001900D928A95E1F7FF81E8856A857B8521
:104C90006115710539F1EF3F11F4FF3F19F12091D2
:104CA000A30230E0C9010196877099274091D40290
:104CB00050E08417950779F1F983EA837D836C834B
:104CC00096E0929FD001939FB00D1124AC55BD4F3B
:104CD000FE01319601900D929A95E1F78093A3021F
:104CE0000E94E22316E08091D4029091A3028917DA
:104CF00011F1189FC00111248C559D4F0E94FF2770
:104D00008823C9F08091D40290E00196877099279A
:104D10008093D402E8CF1092FB010E94E429109204
:104D2000A3021092D402EDE9F2E086E0DF011D92C9
:104D30008A95E9F7D7CF67960FB6F894DEBF0FBE16
:104D4000CDBFDF91CF911F910F91FF90EF9008950C
:104D500020916003309161038217930771F0909363
:104D6000610380936003E0914502F0914602309721
:104D700021F00084F185E02D0994089520915E03CF
:104D800030915F038217930771F090935F038093D4
:104D90005E03E0914502F0914602309721F00680D3
:104DA000F781E02D09940895E0914502F0914602C3
:104DB000309721F00190F081E02D099480E0089572
:104DC000CF93DF93D82FC8E08D2F80780E94ED23FA
:104DD000DD0FC150C9F780E00E94ED2385E08A9580
:104DE000F1F7000085E08A95F1F7000080E0DF919F
:104DF000CF9108950F931F93CF93DF93C62FD42F96
:104E0000022FFC0182818823C9F06093F0010E9487
:104E10003A2190935D0380935C0380E28C0F88308D
:104E200008F050C0C77081E001C0880FCA95EAF74A
:104E3000DF91CF911F910F910C94022A1091F001F4
:104E4000161330C080915C0390915D030E94102185
:104E5000883C910538F5C0E2CD0F1D17B9F080E20E
:104E6000810F883040F4177081E001C0880F1A95D7
:104E7000EAF70E94F729C83048F481E09D2F977027
:104E800001C0880F9A95EAF70E94022A802F0E949B
:104E9000732AC830B8F4D77081E001C0880FDA9562
:104EA000EAF70AC080E28C0F883060F4C77081E0B6
:104EB00001C0880FCA95EAF7DF91CF911F910F913A
:104EC0000C94F729DF91CF911F910F910895609174
:104ED0007502669570E04BE050E083E191E00E943E
:104EE000F92D892B19F481E080937B020E943A21ED
:104EF0009093700280936F0208958091A202829530
:104F00008F7009F054C080919F02882309F44FC02C
:104F10008091D402A091A30260919D0270919E02A3
:104F20004091A0025091A102B6E08A1709F43FC057
:104F300090E041155105C1F17F3F11F46F3FA1F1A0
:104F4000B89FF001B99FF00D1124EC55FD4F218160
:104F500072132AC02081621327C02281211124C02C
:104F6000238134812417350710F421503109241B83
:104F7000350B283C3105C0F42091A2022F7020612E
:104F80002093A20226E0289FF001299FF00D112412
:104F9000E755FD4F80818F70806180838DE992E0BD
:104FA0000E94C6030C94E22301968770BECF089539
:104FB0000E940523292F2F7092959F70E92FF0E012
:104FC0003297EE30F105B8F4E658FF4F0C94C62C3A
:104FD000803F99F018F4883E70F40FC0843F59F474
:104FE0000CC0883E50F0813F31F407C0822F869577
:104FF00086958695089580E0089581E00895BF9292
:10500000CF92DF92EF92FF920F931F93CF93DF9394
:10501000CDB7DEB761970FB6F894DEBF0FBECDBF38
:105020008C0185E0F801DE011D9601900D928A95B4
:10503000E1F7D8013C9111962C9111971296EC90C2
:1050400012971396CD90DC90149750919D02609129
:105050009E028091A0029091A102009709F44FC195
:105060006F3F19F45F3F09F44AC1B0909F02BB2023
:1050700009F4ECC04091A202C816D90628F0F60146
:10508000E81BF90BCF0104C0809590958C0D9D1DF8
:10509000FF24F394883C910548F0F12C407F09F0FF
:1050A0009FC08DE992E00E94C60321C1842F807FBA
:1050B00009F044C0621312C0531310C0E1100EC0B7
:1050C0004F7040614093A2028DE992E00E94C603B6
:1050D0008091A202D80115968C932EC0CD2819F18B
:1050E0002F3F11F43F3FF9F0FE2CE1101CC08091DE
:1050F000D4024091A30256E0841709F458C090E00E
:10510000589FF001599FF00D1124EC55FD4F61811E
:10511000261306C06081361303C06281611103C08B
:1051200001968770E9CFFE2CEE2009F421C1809111
:10513000A20281608093A202F12C1AC162130AC0FC
:10514000531308C0E11006C08091A202D801159641
:105150008C93B0C03D872E878D859E850E94D82771
:105160008823D1F1EE20C1F12091A202822F8295F5
:105170008F7090E0029774F080919D0290919E0252
:1051800098878F831986DB86CA862C87CE0107967F
:105190000E94C60386E0F801ADE9B2E001900D92ED
:1051A0008A95E1F70E947D27FF24F394E1C03D87B3
:1051B0002E878D859E850E940523292F22952F708D
:1051C00030E0223031050CF0C7C09F7009F0C1C03B
:1051D000805E883008F4CCC0C8010E94C603E4CFCA
:1051E000621314C0531312C0E11010C08091A202C8
:1051F000F8018583C8010E94C60386E0EDE9F2E06C
:10520000DF011D928A95E9F7FB2CB2C03D872E87FE
:105210008D859E850E94D8278823F1F2EE20E1F249
:105220002091A202822F82958F7090E002970CF459
:10523000B1CF80919D0290919E029A8389831B82B7
:10524000DD82CC822E83CE010196A2CFC816D9066C
:1052500038F0C81AD90AB8ECCB16D10450F007C000
:10526000809590958C0D9D1D883C910510F0F12C3A
:105270003EC0FE2CEE2009F4AFCF621327C05313BB
:1052800025C02091A20220FD18C0822F82958F7028
:10529000482F50E04115510581F0F80125834F302A
:1052A000510541F08F5F982F9295907F822F8F70DC
:1052B000892B8583C8010E94C60386E0F801ADE909
:1052C000B2E001900D928A95E1F752C03D872E879A
:1052D0008D859E850E94D82781115CCF8091A20286
:1052E00081608093A202C8010E94C60341C0EDE91B
:1052F000F2E086E0DF011D928A95E9F739C0EE20E1
:1053000009F46ACF3D872E878D859E850E94D82718
:10531000F82E882309F460CF86E0F801ADE9B2E009
:1053200001900D928A95E1F780919D0290919E02E5
:105330000E94052392959F70963041F480917103ED
:1053400091E0892780937103909370030E947D27D9
:105350000FC081113DCF0CC0243031050CF03CCF83
:105360009F7009F435CFF8019581907F09F030CF17
:105370008F2D61960FB6F894DEBF0FBECDBFDF91C3
:10538000CF911F910F91FF90EF90DF90CF90BF9042
:10539000089510921203109211030E947E22E6E5F6
:1053A000F2E086E0DF011D928A95E9F710925C0237
:1053B00010921C030E94462180E090E00E94BE26CD
:1053C00080E090E00C94A82680910601882331F0BB
:1053D0008091420287FF02C08EE101C086E0EFE7C4
:1053E000F2E0DF011D928A95E9F70C94C929882320
:1053F00041F080959091FB0189238093FB010C94EF
:105400007E220895882339F09091FB01892B8093A7
:10541000FB010C947E220895882309F463C082382E
:1054200069F40E94D42681FF5DC069E38DE792E0B4
:105430000E94B0210E947E2269E30EC0833891F45D
:105440000E94D42680FF4EC063E58DE792E00E9463
:10545000B0210E947E2263E58DE792E00E948521C3
:105460000C947E22843869F40E94D42682FF3AC0CC
:1054700067E48DE792E00E94B0210E947E2267E4FB
:10548000EBCF9CEF980F913A10F4682FE5CF90E2A4
:10549000980F983088F4877021E030E0A90102C0AD
:1054A000440F551F8A95E2F7CA0180959091FB0140
:1054B00089238093FB01D4CF9BE5980F933020F490
:1054C00080E090E00C94BE2698E5980F973120F488
:1054D00080E090E00C94A826803F20F00E94B81F46
:1054E0000C9446210895CF93C82F0E94862AC93371
:1054F00049F42FEF87EE93E0215080409040E1F790
:1055000000C000008C2FCF910C940C2A882309F442
:1055100016C18238B1F40E94D42681FD10C169E31E
:105520008DE792E00E94B0210E947E222FEF41EE93
:1055300054E0215040405040E1F700C0000069E3D2
:1055400017C08338D9F40E94D42680FDF8C063E5E3
:105550008DE792E00E94B0210E947E228FEF91EEB3
:1055600024E0815090402040E1F700C0000063E556
:105570008DE792E00E9485210C947E228438B1F45C
:105580000E94D42682FDDBC067E48DE792E00E9492
:10559000B0210E947E224FEF51EE84E041505040F6
:1055A0008040E1F700C0000067E4E2CF9CEF980F75
:1055B000913A30F4682F8DE792E00E94B021DCCF61
:1055C00090E2980F983080F4877021E030E0A901D4
:1055D00002C0440F551F8A95E2F7CA019091FB0162
:1055E000892B8093FB01C8CF9BE5980F933070F413
:1055F000853A29F0863A31F083E890E005C081E8E9
:1056000090E002C082E890E00C94BE2698E5980FE6
:10561000973108F08EC0883A09F445C0893A09F4F8
:1056200045C08A3A09F445C08B3A09F445C08C3A22
:1056300009F445C08B3B09F445C08C3B09F445C0D7
:105640008D3A09F445C0803B09F445C08E3A09F40F
:1056500045C08F3A09F445C0813B09F445C0823BFF
:1056600009F445C0833B09F445C0843B09F445C0B7
:10567000853B09F445C0863B09F445C0873B09F4E6
:1056800045C0883B09F445C0893B09F445C08D3BC2
:1056900009F445C08E3B09F445C08A3B09F445C076
:1056A00080E090E044C082EE90E041C089EE90E05E
:1056B0003EC08AEE90E03BC085EB90E038C086EBC0
:1056C00090E035C083EB90E032C084EB90E02FC0D7
:1056D00087EB90E02CC08CEC90E029C08DEC90E042
:1056E00026C083E891E023C08AE891E020C082E9E7
:1056F00091E01DC084E991E01AC081E292E017C0F8
:1057000083E292E014C084E292E011C085E292E06C
:105710000EC086E292E00BC087E292E008C08FE6FE
:1057200090E005C080E790E002C08AE292E00C942D
:10573000A826803F20F00E9482200C9446210895E4
:105740001092B9008CE08093B8000895EF92FF9218
:105750000F931F93CF93DF93182FEB011092BC0090
:1057600084EA8093BC000E943A217C019091BC00A5
:1057700097FD0EC0CF3F8FEFD807C1F30E943A21AB
:105780008E199F098C179D0788F38EEF9FEF2EC00F
:105790009091B900987F983041F09091B900987F2E
:1057A000903119F08FEF9FEF21C01093BB0084E878
:1057B0008093BC000E943A218C019091BC0097FD1F
:1057C0000CC0CF3F8FEFD807C1F30E943A21801B56
:1057D000910B8C179D0788F3D8CF8091B900887FF3
:1057E000883111F08034F1F680E090E0DF91CF91C4
:1057F0001F910F91FF90EF9008950F931F93CF93F8
:10580000DF93EB018093BB0084E88093BC000E948F
:105810003A218C019091BC0097FD0EC0CF3F8FEFD5
:10582000D807C1F30E943A21801B910B8C179D076A
:1058300088F38EEF9FEF0CC02091B900287F81E0A4
:1058400090E0283211F480E090E0919581959109E3
:10585000DF91CF911F910F9108950F931F93CF93D5
:10586000DF93EC0184E88093BC000E943A218C0114
:105870009091BC0097FD0EC0CF3F8FEFD807C1F3CA
:105880000E943A21801B910B8C179D0788F38EEFA5
:105890009FEF03C08091BB0090E0DF91CF911F91FB
:1058A0000F91089584E98093BC000895F999FECF83
:1058B00092BD81BDF89A992780B50895A6E1B0E020
:1058C00044E050E00C94902CA8E1B0E042E050E0BD
:1058D0000C94902C262FF999FECF92BD81BDF89A99
:1058E000019700B4021639F01FBA20BD0FB6F89424
:1058F000FA9AF99A0FBE08950396272F0E946B2CEF
:105900000E946A2C252F0E946B2C242F0C946B2C48
:105910000196272F0E946B2C0C946A2CDC01CB0182
:10592000FC01F999FECF06C0F2BDE1BDF89A3196AF
:1059300000B40D9241505040B8F70895AA1BBB1B0C
:1059400051E107C0AA1FBB1FA617B70710F0A61B7F
:10595000B70B881F991F5A95A9F780959095BC01A0
:10596000CD01089597FB072E16F4009407D077FD1C
:1059700009D00E949E2C07FC05D03EF4909581959D
:105980009F4F0895709561957F4F0895EE0FFF1F0B
:105990000590F491E02D0994CF93DF938230910527
:1059A00010F482E090E0E0917403F091750320E040
:1059B00030E0C0E0D0E0309711F1408151814817CC
:1059C0005907C0F04817590761F4828193812097E5
:1059D00019F09B838A832BC0909375038093740383
:1059E00026C02115310519F04217530718F49A0102
:1059F000BE01DF01EF010280F381E02DDCCF211534
:105A0000310509F1281B390B2430310590F4129629
:105A10008D919C9113976115710521F0FB01938382
:105A2000828304C09093750380937403FD013296C2
:105A300044C0FD01E20FF31F81939193225031097D
:105A40002D933C933AC02091720330917303232B22
:105A500041F42091020130910301309373032093AC
:105A6000720320910001309101012115310541F4AB
:105A70002DB73EB74091040150910501241B350B11
:105A8000E0917203F0917303E217F307A0F42E1B69
:105A90003F0B2817390778F0AC014E5F5F4F241792
:105AA000350748F04E0F5F1F509373034093720306
:105AB0008193919302C0E0E0F0E0CF01DF91CF91BC
:105AC00008950F931F93CF93DF93009709F48CC031
:105AD000FC013297138212820091740310917503B6
