:100000000C9477040C9494040C9494040C9494042D
:100010000C9494040C9494040C9494040C94940400
:100020000C9494040C9494040C9471140C948E18F5
:100030000C94912E0C9494040C9494040C949404B9
:100040000C9494040C9494040C9494040C949404D0
:100050000C9494040C9448150C9494040C949404FB
:100060000C9494040C9494040C9494040C949404B0
:100070000C9494040C9494040C9494040C949404A0
:100080000C9494040C9494040C9494040C94940490
:100090000C9494040C9494040C9494040C94940480
:1000A0000C9494040C9494040C9494040501098019
:1000B000A101850319012AB700150126B700950192
:1000C00075108100C0050C0901A101850419012AE0
:1000D000A002150126A002950175108100C005013E
:1000E0000906A1018505050719E029E71500250185
:1000F0009508750181020507190029EF15002501F2
:1001000095F075018102050819012905950575010C
:100110009102950175039101C005010902A1010930
:1001200001A100050919012905150025019505758D
:10013000018102950175038101050109300931151D
:1001400081257F95027508810609381581257F95DF
:100150000175088106050C0A38021581257F950175
:1001600075088106C0C005010906A101050719E04F
:1001700029E715002501950875018102950175088B
:1001800081010507190029FF150026FF0095067556
:100190000881000508190129059505750191029549
:1001A0000175039101C0000101010101010101017B
:1001B0000202020202020202020303030303030318
:1001C00003040404040404040505050505060606E5
:1001D0000606070707070708080808090909090AA2
:1001E0000A0A0B0B0B0C0C0C0D0D0D0E0E0E0F0F47
:1001F0000F101011111112121313141415151616D5
:100200001717181819191A1A1B1B1C1D1D1E1E1F43
:100210002020212222232424252626272829292A92
:100220002B2C2D2D2E2F30313232333435363738BA
:10023000393A3B3C3D3E3F404142434445464748B6
:10024000494A4C4D4E4F50515354555658595A5B8C
:100250005D5E5F616264656668696B6C6D6F70722C
:10026000737577787A7B7D7E8082838587888A8C98
:100270008E8F91939596989A9C9EA0A2A3A5A7A9CC
:10028000ABADAFB1B3B5B7BABCBEC0C2C4C6C9CBC3
:10029000CDCFD1D4D6D8DBDDDFE2E4E7E9EBEEF079
:1002A000F3F5F8FAFDFFFFAA7F5540222325262803
:1002B000292A2C2D2F3032333536383A3B3D3E40FB
:1002C00042434547494A4C4E5051535557595A5C41
:1002D0005E6062646668696B6D6F71737577797B58
:1002E0007D7F81838587898A8C8E90929496989A57
:1002F0009C9E9FA1A3A5A7A8AAACAEAFB1B3B4B66C
:10030000B8B9BBBCBEBFC1C2C3C5C6C7C9CACBCCC6
:10031000CDCED0D1D2D2D3D4D5D6D7D7D8D9D9DA99
:10032000DADBDBDBDCDCDCDCDCDDDDDDDDDCDCDC0E
:10033000DCDCDBDBDBDADAD9D9D8D7D7D6D5D4D336
:10034000D2D2D1D0CECDCCCBCAC9C7C6C5C3C2C10B
:10035000BFBEBCBBB9B8B6B4B3B1AFAEACAAA8A768
:10036000A5A3A19F9E9C9A98969492908E8C8A8920
:10037000878583817F7D7B79777573716F6D6B69FD
:1003800068666462605E5C5A5957555351504E4CD2
:100390004A4947454342403E3D3B3A383635333281
:1003A000302F2D2C2A29282625232200000000008A
:1003B0000000000000000000000000000000007EBF
:1003C0000F00D4FFFFFFC70000007800000000000E
:1003D0000000002A2B2800000000000000000000A0
:1003E00000000000000029000000002C1E34202125
:1003F0002224342627252E362D3738271E1F20216C
:1004000022232425263333362E37381F04050607CA
:1004100008090A0B0C0D0E0F1011121314151617E4
:1004200018191A1B1C1D2F3130232D350405060702
:1004300008090A0B0C0D0E0F1011121314151617C4
:1004400018191A1B1C1D2F3130354C0102E3010213
:10045000E10101210103E10103E3000000000000CC
:1004600000E100000000000000140007001D000073
:1004700000000000001A0016001B00E2000000004F
:1004800000080004000600E3000057000015000902
:1004900000190001510000000017000A00050000CB
:1004A000000000000000000000000000000000004C
:1004B000000000000000000000000000001C000B15
:1004C00000110000000000000018003300100002BE
:1004D00051000000000C000E003600E4000157003F
:1004E0000012000F00370000000000000013000D94
:1004F00000380000000000000000003400E50000AB
:100500000000000100010001000100010000003AAC
:100510000035001E001E02010001003B002D021FDD
:10052000001F02010001003C002D002000200201FC
:100530000001003D00260221002102010001003ED1
:10054000002F002200220200000100320001000002
:1005500000010000000100640044000000450000AC
:100560000001003F00300023002302000001004092
:10057000002702240024020351010041002E00251F
:100580000025020100010042002E02260035020172
:100590000001004300310027003102010001000189
:1005A0000000000100010001000000010001000145
:1005B0000001000100000001000257035704570129
:1005C0000001000100F400F200010001000100013F
:1005D00000F000F100F600010001000100F500F359
:1005E00000010003510100010001000100010000B1
:1005F00000010001000100000001000000010001F5
:1006000000010000000100000001000100305D2831
:1006100000A8000000010049004A000557AA000197
:100620000001004C004E000657A900010001000126
:10063000004B000757AC00095D010001004D0008A8
:1006400057AB00005C010001000100010001001433
:100650005C00000100010001000100010000000138
:100660000001000100010001002F5D0100010001F7
:100670000001000100CA5C0100010001000100014D
:10068000000100010001000100010001002E5D01D8
:10069000000100010001000000C45C010001000035
:1006A00000010000002D5D010001000000010000BC
:1006B00000C35C010001000100620000002C5D012C
:1006C000005F005C00590001000100010060005D56
:1006D000005A000100C65C010061005E005B000181
:1006E00000C75C01000100010001000100010001E0
:1006F000000100010001000100000032190A00049D
:100700007F3F1F643214643214783C1E1E140A05A5
:100710000A00000000000306B2000800010000000B
:10072000A800080002000300A000140003005749BD
:100730004E555342000000000000000000008400FD
:10074000040007002A004400650076006900630089
:10075000650049006E00740065007200660061006B
:100760006300650047005500490044007300000025
:1007700050007B0039004400420037004600310041
:10078000460044002D0037004500370041002D0091
:1007900034003000300038002D00390033003600BE
:1007A00042002D0036004200410036004300310077
:1007B0003900410033003000380063007D00000044
:1007C00000001B0301636F6E6669677572652E65B5
:1007D00072676F646F782D657A2E636F6D00090202
:1007E0006B00040100A0FA090400000103010100EC
:1007F0000921110100012240000705810308000AB8
:100800000904010001030102000921110100012274
:100810004D000705820308000A09040200010300D5
:100820000000092111010001226D0007058303204A
:10083000000A0904030002FF0000000705840340CA
:100840000005070505034000051201100200000025
:100850000897327549010001020001220345007228
:100860000067006F0044006F007800200045005AC8
:100870000020005300680069006E00650000003031
:10088000035A0053004100200054006500630068D3
:10089000006E006F006C006F006700790020004C54
:1008A00000610062007300200049006E00630000D8
:1008B0000004030904050F3900021C100500DF6065
:1008C000DDD88945C74C9CD2659D9E648A9F0000F7
:1008D0000306B20045001810050038B60834A9090F
:1008E000A0478BFDA0768815B66500014200112453
:1008F0001FBECFEFDAE0DEBFCDBF24E0A4E6B2E05A
:1009000001C01D92AE33B207E1F712E0A0E0B1E002
:10091000E0E9F4E602C005900D92A436B107D9F7DC
:100920000E94062A0C9407320C940000E8EDF0E0D7
:1009300080818E7F80831092E2001092DA00109204
:10094000E100A0EEB0E08C9181608C9380818F7784
:10095000808319BCA7EDB0E08C918E7F8C93808151
:100960008F7E80831092080408952091E4003091D6
:10097000E50095E6A9012091EC00822F817020FF0F
:1009800006C08091E80080FF06C080E008952091B5
:10099000E80022FD1AC080912D04882389F085305B
:1009A00089F08091EB0085FD0FC02091E40030912B
:1009B000E50042175307F9F29150E1F684E00895FB
:1009C00082E0089583E0089581E00895EF92FF9218
:1009D0000F931F93CF937C018B010E94B504C82F06
:1009E000882371F08C2FCF911F910F91FF90EF9082
:1009F0000895F70181917F018093F1000150110961
:100A00000115110579F38091E80085FDF2CF809101
:100A1000E8008E778093E8000E94B504882381F374
:100A2000C82FE0CF80912F0487FF13C08091E8008A
:100A300082FF06C08091E8008B778093E80004C0B5
:100A400080912D048111F2CF089580912D04882387
:100A5000D9F38091E80080FFF8CF8091E8008E778D
:100A6000ECCF982F9093E900242F762F50E0891730
:100A700031F07091EC002091ED005091F00021FDDB
:100A800007C09F5F973071F78093E90081E0089578
:100A90003091EB003E7F3093EB003091ED003D7FD5
:100AA0003093ED003091EB0031603093EB007093A8
:100AB000EC002093ED005093F0002091EE0027FD14
:100AC000E0CF80E00895CF92DF92EF92FF920F93F4
:100AD0001F93CF93DF93C8EDD0E088818F7E88830A
:100AE000E7EDF0E080818160808384E082BF81E077
:100AF0008093080488818E7F888302EE10E0F801DD
:100B000010821092DA0081EEC82ED12CF6011082EC
:100B100088818F77888388818068888388818F7DAA
:100B2000888319BC10922D0410922E0410922C046C
:100B300010922B0490EEE92EF12CF70180818B7F2F
:100B4000808388818160888342E060E080E00E9449
:100B50003105F60180818E7F8083F801808181607C
:100B60008083808188608083F70180818E7F80838D
:100B7000888180618883DF91CF911F910F91FF90D1
:100B8000EF90DF90CF900895FC0180913504909113
:100B9000360486179707A0F06115710529F4809136
:100BA000E8008E778093E80090E06115710551F4BC
:100BB000911108C08091E80082FF35C080E008955F
:100BC000BC01F2CF80912D048823C9F18530C9F191
:100BD0008091E80083FD31C08091E80082FDEACF7A
:100BE0008091E80080FFE1CF8091F3002091F20036
:100BF000382F6115710519F02830310558F091E052
:100C00002830310509F090E08091E8008E778093DC
:100C1000E800CBCF84918093F10031966150710947
:100C20002F5F3F4FE6CF80912D04882341F0853020
:100C300041F08091E80083FFBDCF81E0089582E01C
:100C4000089583E00895FC01809135049091360465
:100C500086179707A0F06115710529F49091E800B7
:100C60009E779093E80090E06115710551F4911121
:100C700008C08091E80082FF34C080E00895BC0184
:100C8000F2CF80912D048823C1F18530C1F180918C
:100C9000E80083FD30C08091E80082FDEACF8091BA
:100CA000E80080FFE1CF8091F3002091F200382F1F
:100CB0006115710519F02830310558F091E02830A0
:100CC000310509F090E02091E8002E772093E800AC
:100CD000CBCF81918093F100615071092F5F3F4F1D
:100CE000E7CF80912D04882341F0853041F0809139
:100CF000E80083FFBECF81E0089582E0089583E09D
:100D00000895089580910A04089520912D042430B7
:100D100091F42093E90070E050E040E00E94E60486
:100D2000882321F010920604109207048091E800B5
:100D30008E778093E80008959091ED03803F59F4F9
:100D40008091EE0387FF0DC01092EE0391110BC04E
:100D50001092E90308C0813F81F48091EE031816D8
:100D60009CF3992381F08091EF039091F003892BFC
:100D700009F064C01092E6030895823F49F497FF9A
:100D8000F0CF1092ED038091EE038111ECCFE0CF14
:100D9000833F19F41916ACF3E4CF2091EF03893F98
:100DA00029F41216F4F61092EF03DBCF8A3F19F400
:100DB00027FFD7CFF8CF2091F0038B3F29F427FFEF
:100DC000D0CF1092F003CDCF8C3F19F41216CCF394
:100DD000C8CF843F31F48091EC038E7F8093EC0385
:100DE000C0CF853F21F48091EC038D7FF7CF863F04
:100DF00021F48091EC038B7FF1CF873F21F4809128
:100E0000EC03877FEBCF883F21F48091EC038F7E4A
:100E1000E5CF8D3F31F48091AE038E7F8093AE039A
:100E2000A0CF8E3F21F48091AE038D7FF7CF8F3F0F
:100E300009F097CF8091AE038B7FF0CF089580911A
:100E4000AE0380FD1AC081FD14C082FD14C08091E4
:100E5000E603882391F08C3370F427E0829FC00171
:100E600011246CE370E00E949F2F862F672B29F0DE
:100E7000089583E0089587E0089581E008958091C2
:100E8000AE0380FD16C081FD16C082FD18C08091A2
:100E9000E903882391F08C3390F423E2829FC00110
:100EA00011246CE370E00E949F2F862F672B49F07E
:100EB000089588E0089581E1089585E0089583E22A
:100EC000089581E00895803F31F40E943F078195A5
:100ED0008093EE030895813F19F40E943F07F8CFF5
:100EE000823F31F40E943F0781958093ED0308957E
:100EF000833F19F40E943F07F8CF893F29F40E94ED
:100F00001F078093EF0308958A3F21F40E941F0773
:100F10008195F7CF8B3F31F40E941F078195809315
:100F2000F00308958C3F19F40E941F07F8CF843F07
:100F300031F48091EC0381608093EC030895853F48
:100F400021F48091EC038260F7CF863F21F48091F9
:100F5000EC038460F1CF873F21F48091EC0388603B
:100F6000EBCF883F21F48091EC038061E5CF8D3F8A
:100F700031F48091AE0381608093AE0308958E3F7B
:100F800021F48091AE038260F7CF8F3FB9F7809153
:100F9000AE038460F1CF9C014FB7F8948091AA030F
:100FA0009091AB03A091AC03B091AD034FBF821BF6
:100FB000930B08952091EB012223C9F02091C303E4
:100FC00027FF15C0E62FE695E695E695EE31D8F4B5
:100FD000E80FF92FF11D677021E030E001C0220F0A
:100FE0006A95EAF720958281282322830895FC01DF
:100FF000329608962191621303C0DF0111971C926B
:10100000E817F907B9F708952091EB012223C1F001
:101010002091C30327FF14C0E62FE695E695E695D9
:10102000EE31F8F4E80FF92FF11D677021E030E0A0
:1010300001C0220F6A95EAF78281822B828308958C
:10104000FC0132962FEF30E04191641751F02F3FB1
:1010500019F4411101C0232F3F5F3630A9F72F3F0C
:1010600009F40895820F911D27FD9A95FC01628372
:101070000895CF92DF92EF92FF926C01EE24FF244D
:1010800020E0C114D104E104F10419F0C701B60154
:1010900020E1C72ED82EE92EFF24C114D104E1048B
:1010A000F10419F0285FC701B6016B017C0154E01F
:1010B000F694E794D794C7945A95D1F7C114D10404
:1010C000E104F10419F02C5FC701B6016B017C014A
:1010D00042E0F694E794D794C7944A95D1F7C114A7
:1010E000D104E104F10419F02E5FC701B601969511
:1010F000879577956795672B682B692B09F02F5F8C
:10110000822FFF90EF90DF90CF9008958091A503FC
:1011100081111092A503089580959091A4039823BE
:101120009093A40308958091A4039091A303892B25
:101130009091A203892B809364029091A503992337
:10114000A1F0892B809364028091EB01882341F107
:101150008091C30387FF24C08EE1E6E6F2E090E0D1
:10116000815000F591110E948608E091C603F0912C
:10117000C7033097E1F08091EB01882359F080910B
:10118000C30387FF07C0809164028093650285E0F6
:10119000809364020280F381E02D84E692E009945A
:1011A00086E0DBCF21912223D9F29F5FD9CF08952A
:1011B000E92FEE0FE90FEE0F8E0F982F977086959F
:1011C0008695869525E0829FF0011124E659FC4F13
:1011D00050E040E080E0219130E0092E02C03695D9
:1011E00027950A94E2F721703327042E01C0220FBD
:1011F0000A94EAF7822B4F5F5F4F4530510559F74C
:101200000895E92FEE0FE90FEE0F8E0F982F9770CC
:1012100041E001C0440F9A95EAF786958695869538
:1012200095E0899FF0011124E659FC4F30E020E061
:1012300070E05191DF011197CB01022E02C096950B
:1012400087950A94E2F78170819585278423852705
:101250008C932F5F3F4F2530310559F708958091CA
:10126000690390913803981301C008958F5F8770C8
:10127000FACF882341F080959091A303892380932E
:10128000A3030C9493080895882339F09091A30345
:10129000982B9093A3030C9493080895882321F02E
:1012A0000E948C080C9493080895882339F090913B
:1012B000A403982B9093A4030C9493080895209171
:1012C0002C0330912D032817390771F090932D03CB
:1012D00080932C03E091C603F091C703309721F06F
:1012E0000084F185E02D0994089520912A0330911E
:1012F0002B032817390771F090932B0380932A034F
:10130000E091C603F091C703309721F00680F78182
:10131000E02D09940895E091C603F091C70330973A
:1013200021F00190F081E02D099480E00895CF93A1
:10133000DF93EC0181E0898B8091A4039F81892B4D
:101340008093A4038091A3039885892B8093A303A2
:101350000E949308EA81FB81309739F06C897D897E
:10136000CE010696DF91CF910994DF91CF91089538
:10137000EF92FF920F931F93CF93DF93EC018A8537
:10138000811139C0EB80FC8087E5F81A26E12E9D9B
:10139000C0012F9D900D1124DC01A85EBE4F149654
:1013A000ED91FC911597309731F054966D917C91A9
:1013B000825E9E4F099586E18E9D80018F9D100D66
:1013C0001124085E1E4FF80187810E948C08F801E5
:1013D0008085982F90958091A30389238093A30300
:1013E0000E949308188219861B861E821D82109205
:1013F000300310922F03DF91CF911F910F91FF9037
:10140000EF900895FA01811101C0FB0109948091C8
:10141000DF03982F9E7F29F4817082608093DF0321
:1014200008958635E8F381708465F8CFAF92BF9256
:10143000DF92EF92FF920F931F93CF93DF93082FCA
:10144000162FE901E42FF0E0EA55FE4F611111C0BB
:10145000E4915E2F4E2F4983E8835A831B82DF91EC
:10146000CF911F910F91FF90EF90DF90BF90AF90C1
:101470000895E62EF12C4491D42EE42FF0E026E0DE
:10148000829FC00111242FEF30E0B9010E948B2F01
:10149000802F90E0880F991F55E5569FD001579FE8
:1014A000B00D11248A1B9B0B982F990F890F59019E
:1014B000AE18BF08AE9ED001AF9EB00DBE9EB00D5F
:1014C00011245B2F189F80011124012F112759012E
:1014D000A01AB10AAE9E8001AF9E100DBE9E100DE7
:1014E00011245901A81AB108AE9CC001AF9C900DFF
:1014F000BE9C900D1124892F9927281B390B2E9FF4
:10150000C0012F9F900D3E9F900D1124E92F623056
:101510007105A1F050F46115710509F49CCF61309B
:10152000710581F0EB2F512F96CF6430710569F072
:1015300080F06630710509F48ECFF4CFE42F4B2F85
:10154000592F89CFE42F412F86CFEB2F542F492FCE
:1015500082CF4B2F5D2DE12F7ECF9091C30392FF61
:1015600006C0282F28712830F9F4877F846093FF04
:1015700006C0282F28712831F1F4877E84612091DC
:10158000C40320FF06C0382F38713830D9F4877F64
:10159000816021FF06C0282F28712831D1F4877E71
:1015A000816194FD877E0895282F24712430F9F6F7
:1015B0008B7F8860DCCF282F2471243101F78B7E4C
:1015C0008861DDCF382F3171313019F78E7F886017
:1015D000E0CF282F2171213121F78E7E8861E1CF64
:1015E000CF93DF93972F70E026E0929F600D711DDF
:1015F0001124FB0134E5839FE00DF11D1124EE0F52
:10160000FF1FE55AFB4FC591D491CE01C238D105D9
:10161000B9F1E8F5C133D10509F499C050F5C932E3
:10162000D10509F48DC0CA32D10509F497C0C1159E
:1016300021E5D20708F0BFC0C11530E5D30708F097
:1016400016C1C83ED10508F09DC0C03ED10568F561
:10165000C83AD10508F089C0C53AD10508F0FFC0E5
:10166000C130D10511F1209709F443C02497E8F463
:1016700040C0C533D10509F45CC0C933D105B9F602
:101680002091C303237089F080EE90E00EC0C33E2A
:10169000D10591F168F4C03ED105F9F0C23ED10503
:1016A00031F62091C30322FD20C0DF91CF91089530
:1016B000C63ED10561F1C73ED10581F1C43ED105D9
:1016C00009F0B5CF2091C40321FFEFCF8091C30370
:1016D00084FD0FC087EE90E0E8CF2091C30320FD8A
:1016E00012C13091C40330FFE0CF83EE90E024FFBD
:1016F000DCCF90E080E0D9CF2091C30322FD06C16A
:101700003091C40330FDC0CF24FFCFCFF2CF209162
:10171000C30323FFCACF24FDECCFDCCF2091C3034A
:1017200023FDF7C03091C40331FFEECF84EE90E08B
:10173000BCCF2091C30325FFB8CF89E290E0B5CF9D
:101740002091C30325FFB1CF85E390E0AECF209178
:10175000C30326FFAACF8AE290E0A7CF2091C3035C
:1017600026FFA3CF81E390E0A0CFCF3BD10508F6C1
:10177000C85AD0E0CC0FDD1FCA5DDD4F888199814A
:10178000946493CFC11520E2D20760F4C11531E013
:10179000D30708F08ACFCE019065C03FD10508F08D
:1017A00084CFA7CFC11580E4D80708F4A2CFCE011B
:1017B0009F70906A7ACFC11595E5D90710F5C115CC
:1017C00024E5D20708F088C0C11533E5D30708F037
:1017D0006FC0C11582E5D80708F465C09E0123706B
:1017E000332781E090E002C0880F991F2A95E2F725
:1017F000C695C69520E2C29FE00111248C2B9D2B3B
:1018000050C0C11599E5D907A0F4C11528E5D20744
:1018100008F067C0C11536E5D30708F06ACF8C2FF2
:101820000E94AD0A90E0982F882788279F719062C8
:101830003CCFC1158AE5D80708F458C0CE019056B0
:101840008115904208F055CF8D2F8F710E94AD0AFF
:1018500090E0982F882788279F718C2BE8CFC55A56
:10186000D0E0CD5DDD4F888190E090641ECF9E0179
:10187000E4E036952795EA95E1F723708C2F86955D
:101880008695837030E2839FC0011124922BC37030
:1018900021E030E002C0220F331FCA95E2F7822B0D
:1018A000932B9C6802CF9C2F8827816F906AFDCE76
:1018B0009E012370332781E090E002C0880F991FBA
:1018C0002A95E2F7C695C69530E2C39FE001112440
:1018D0008C2B9D2B9A68E9CE9C2F8827846F906A69
:1018E000E4CE9C2F8827806F906ADFCE8C2F8F707C
:1018F0000E94AD0A34E0D695C7953A95E1F7CF70CE
:101900009C2F9069D2CE89E390E0CFCE82EE90E01A
:10191000CCCE86EE90E0C9CEBF92CF92DF92EF920E
:10192000FF920F931F93CF93DF938C01C09001041C
:10193000D0900204E0900304F09004048091A60388
:101940009091A703A091A803B091A903C82AD92A0E
:10195000EA2AFB2ACFE1D0E0BC2ED701C6010C2E2B
:1019600004C0B695A795979587950A94D2F780FD00
:101970000EC0219788F7B12C8B2DDF91CF911F914D
:101980000F91FF90EF90DF90CF90BF900895B80136
:101990008C2F0E94F00A019761F3EECFCF93DF9373
:1019A000EC010E948C0CBE01DF91CF910C94F00AE7
:1019B0000E94CE0C292F2F7092959F7092509E30CE
:1019C00078F4E92FF0E0E75FFD4C0C94B32F803FF3
:1019D00019F020F4883E20F481E00895843FE1F37B
:1019E00080E00895883EC0F3813FD1F7F5CF822F84
:1019F00086958695869508959C019A9581159F41B7
:101A0000A0F4A9014427517034FF05C080E0452BA4
:101A100051F080E108C081E0452B09F480E032FDFF
:101A2000846033FD8860FB0109940895FC01808186
:101A3000813041F49185911114C09285992389F0E8
:101A400082E00895823041F48185811107C082854A
:101A5000811106C083E0089586E0089585E0089529
:101A600084E0089527982F98089526982E98089531
:101A700025982D98089556985E980895279A2F9A3C
:101A80000895269A2E9A0895259A2D9A08952098B9
:101A900028982198299822982A9823982B98529828
:101AA0005A9853985B983E98469808958098889ADB
:101AB0008198899A84988C9A85988D9A86988E9A1E
:101AC00087988F9A0895CF93DF9300D00F92CDB768
:101AD000DEB790912D04943019F589837B836A8356
:101AE00083E08093E9008FEF9091E800815095FDAD
:101AF00006C095ED9A95F1F700008111F5CF809120
:101B0000E80085FF0DC050E040E063E070E0CE01EA
:101B100001960E94E6048091E8008E778093E800A9
:101B20000F900F900F90DF91CF910895BC0184E04A
:101B30000C94630DBC0183E00C94630D9C0182E066
:101B40008093E9009FEF8091E800915085FD06C0E9
:101B500085ED8A95F1F700009111F5CF8091E800AD
:101B600085FF0CC050E040E065E070E0C9010E94D4
:101B7000E6048091E8008E778093E8000895CF9383
:101B8000DF93EC018091EB018823B1F18091C303D5
:101B900087FF32C060E283E08093E9008FEF90918D
:101BA000E800815095FD06C095ED9A95F1F700008B
:101BB0008111F5CF8091E80085FF1BC08091EB017A
:101BC00070E050E040E0811104C050E040E068E087
:101BD00070E0CE010E94E6048091E8008E77809349
:101BE000E80080E2FE01ABE0B4E001900D928A953E
:101BF000E1F7DF91CF91089568E081E0CDCFEF92DA
:101C0000FF920F931F93CF93DF930E943B0D0E948F
:101C1000380D0E94350D0E94320D88E8E82EF12C17
:101C20008FEF90E0F701918380830AE810E0F801DC
:101C300091838083CCE8D0E0998388830E94440D0F
:101C4000FFEF20E782E0F15020408040E1F700C044
:101C500000000E94410D9FEFE0E7F2E09150E0406C
:101C6000F040E1F700C000000E943E0D2FEF80E73A
:101C700092E0215080409040E1F700C000000E94B7
:101C8000380DEFEFF0E722E0E150F0402040E1F7BF
:101C900000C000000E94350D8FEF90E7E2E0815018
:101CA0009040E040E1F700C000000E94320D8091BA
:101CB000B1038770FFEF8F9FC00111249595879521
:101CC000959587959927F70191838083F8019183F2
:101CD0008083998388830E943B0D0E94380D0E9467
:101CE000350DDF91CF911F910F91FF90EF900C94E4
:101CF000320DCF9384E090E00E945C31C82F81E2E6
:101D000090E00E945C31982F8C2FCF910895CF9254
:101D1000DF92EF92FF926B017C010E94070AB701EC
:101D2000A60188E090E0FF90EF90DF90CF900C94B8
:101D300082318091E303882319F081508093E3037B
:101D40006091DF037091E0038091E1039091E203E1
:101D50000C94870E8091E303833018F48F5F809397
:101D6000E3036091DF037091E0038091E1039091C0
:101D7000E2030C94870EEFEDF3E083E080831182A1
:101D80008FEF82838383148260817181828193814A
:101D90000C94870E6FEE7EEF90E080E00E948E3113
:101DA00060E082E090E00E94703160E083E090E0CB
:101DB0000E9470311092A6031092A7031092A803FC
:101DC0001092A90360E084E090E00E94703160E02E
:101DD00081E290E00E94703160E085E090E00E9436
:101DE000703160E086E090E00E9470316FEF87E034
:101DF00090E00E94703140E050E0BA0188E090E04D
:101E00000E94823160E08DE090E00E94703140E0FD
:101E100050E0BA0188E190E00E94823160E087E101
:101E200090E00E94703140E050E0BA018CE190E017
:101E30000E94823160E080E290E00E94703140E0D8
:101E400050E0BA0188E190E00E9482311092B10323
:101E50001092B2031092B3031092B40384E0806135
:101E60008093B1034091B1035091B2036091B303E9
:101E70007091B4038FE090E00E94823140E050E026
:101E8000BA0183E190E00C948231CF93C82F873060
:101E900070F58091DF019091E001892B89F564E66E
:101EA00070E080E40E94BE2E9093E0018093DF01F9
:101EB000892BD1F464E670E082E10E941A2F90939E
:101EC000E0018093DF01892B79F481E090E001C08B
:101ED000880FCA95EAF764E670E080950E941A2F91
:101EE0009093E0018093DF01CF910C946D2F8A30A5
:101EF000B9F040F4883071F0893079F0209A289850
:101F0000CF9108958C3091F070F08D30B9F73E9AF2
:101F10004698F6CF219A2998F3CF229A2A98F0CFA3
:101F2000239A2B98EDCF529A5A98EACF539A5B98FE
:101F3000E7CFCF93DF938091DF0380FD0BC0E3EA0F
:101F4000F2E01182108212821382349652E0EF3D49
:101F5000F507B9F7C3EAD2E0FE0192812081318111
:101F6000892F291708F4822F381708F4832F8383C9
:101F7000381B3183281B2083981B9283349682E080
:101F8000EF3DF80751F70E94B82E64E670E084E850
:101F90000E94BE2E64E670E088810E941A2F64E6DB
:101FA00070E089810E941A2F64E670E08A810E94A5
:101FB0001A2F64E670E08B810E941A2F249692E01B
:101FC000CF3DD90739F70E946D2F579A3BB13F7724
:101FD0002BB120684FB7F89483EA92E0FC0151914D
:101FE000CF0168E02BB9000000C057FF3BB9550F87
:101FF000000000C000C000C03BB900C06A9591F766
:10200000F2E08F3D9F0751F74FBF8FE594E00197B6
:10201000F1F700C00000DF91CF9108958F929F9259
:10202000AF92BF92CF92DF92EF92FF920F931F93E6
:10203000CF93DF93FC01B280948081E08483CFED65
:10204000D2E003EA12E08BE4A82E88248394EE24E5
:10205000EA94F12C2BE4C22ED12C91101DC01B82CE
:102060001A8298014A81698188810E94160A259600
:102070000C5F1F4F83E0CA32D80779F7DF91CF9109
:102080001F910F91FF90EF90DF90CF90BF90AF9096
:102090009F908F900C94990F2B81222309F121504E
:1020A0002B833C818A2D821B311101C0822F90919C
:1020B000E203899FC0011124B6010E948B2F6A831D
:1020C000211104C0332311F01C82AB8222E02B15B6
:1020D00040F28091E00388838091E1038983C1CF3E
:1020E0000E941430823091400CF0BBCF82E08B15FF
:1020F000C0F40E941430B7010E949F2F888322E011
:102100002B1590F40E9414302091E1032695622F44
:1021100070E00E949F2F280F29831A82AB828C8245
:10212000A0CF8091E003EACF2091E103F5CFEF92B9
:10213000FF921F93CF93DF93EC0183EAE82E82E0B6
:10214000F82E10E08C8197014091E2036091E10349
:10215000810F0E94160A1F5E84E0E80EF11C1F3FEB
:1021600089F70E94990F9A818C8190FF08C08F5F38
:102170008C83DF91CF911F91FF90EF900895815054
:10218000F7CFBF92CF92DF92EF92FF920F931F9300
:10219000CF93DF93FC018281DD24DA9480FD02C0BD
:1021A000DD24D39403EA12E0D0E0C0E02FE0B22EA9
:1021B000F801118210821282138294E0E92EF12C30
:1021C000C12C8091A0028C0D80310CF43DC06B2D90
:1021D0000E947D2F892F082E000C990B8C179D07CC
:1021E00091F48091E2038E9DA0018F9D500D1124EA
:1021F000559547955595479598016091E1038091D4
:10220000E0030E94160ACD0CF1E0EF1AF108C9F6BE
:1022100021960C5F1F4FCF30D10551F60E94990FC8
:102220008091A00291E0D91215C0811111C08EE0F9
:102230008093A002DF91CF911F910F91FF90EF90BB
:10224000DF90CF90BF90089587FFC5CF815FC3CF48
:102250008150EECF90E00196BE010E949F2FE8CF03
:102260000F931F93CF93DF93C3EAD2E0FE01118255
:10227000108212821382349682E0EF3DF807B9F79C
:1022800010E000E08091A102082E000C990B0817C5
:1022900019078CF180911601082E000C990B8017FC
:1022A00091074CF19E014091E2036091E10380911E
:1022B000E0030E94160A0F5F1F4F24960F3011058E
:1022C00009F70E94990F809115019091A102980F32
:1022D0009093A10220911601280F20931601121647
:1022E00014F49E301CF0819580931501DF91CF91FD
:1022F0001F910F910895198218821A821B82DBCFD9
:102300008F929F92AF92BF92CF92DF92EF92FF9205
:102310000F931F93CF93DF93EC014C81042F10E0B8
:102320009801D8010E94F8319B01AC010E94C33191
:102330004B015C01E0E2F0E0E01BF10BA5E5B0E051
:10234000AC019B010E94C3316B017C019F01DF0145
:102350000E94B92F9B01AC010E94CE319B01AC01C0
:10236000280D391D4A1D5B1DC701B6010E94D631DB
:10237000F22E822F90E039E23F15D8F143E0249FFE
:102380009001112435952795122F109593EAC92EA7
:1023900092E0D92E00E085E5E82EEF188E2D01FDA4
:1023A0008F2D9601412F6091E1030E94160A0F5F65
:1023B00054E0C50ED11C0F3089F70E94990F9C8103
:1023C00081E0992319F0903219F48FEF809317016F
:1023D00080911701890F8C83DF91CF911F910F910D
:1023E000FF90EF90DF90CF90BF90AF909F908F9035
:1023F000089525E530E0A901481B590BCA019A014F
:10240000220F331F280F391F37FFBCCF2F5F3F4FDD
:10241000B9CFEF92FF920F931F93CF93DF938C016D
:10242000C3EAD2E0F12CE12CF80194816091E10340
:102430008091E003F7E0EF16F104FCF49923F9F042
:102440009E014091E2030E94160A2FEFE21AF20A5F
:1024500024968FE0E816F10439F70E94990FF801ED
:10246000848190E00196817099278483DF91CF91D8
:102470001F910F91FF90EF900895992309F39E010A
:1024800040E0E1CF9091DF0390FF0DC0E3EAF2E07E
:102490008183608342831382349692E0EF3DF90793
:1024A000B9F70C94990F08950F931F93CF93DF936F
:1024B00000D000D0CDB7DEB78C018091A20281118F
:1024C0000AC09E012F5F3F4F4FEF6FEF0E94160A29
:1024D0008A818093A202F8016481613069F0809161
:1024E000A20240E0662361F040E0623011F44091C6
:1024F000A20280E060E004C06091A20240E080E0BF
:102500000E944212F801848190E0019663E070E03D
:102510000E949F2F84830F900F900F900F90DF9158
:10252000CF911F910F910895CF93DF9300D000D0EA
:10253000CDB7DEB79091DF0390FF0AC09E012F5FF9
:102540003F4F0E94160A4B8169818A810E94421284
:102550000F900F900F900F90DF91CF910895CF9330
:10256000DF93EC01EC81F0E0E555FD4F4491EFED98
:10257000F3E0628181810E9494128C818F5F8C8351
:10258000DF91CF910895CF93DF93EC01EFEDF3E06E
:10259000438162818C810E9494128C818F5F8C8335
:1025A000DF91CF9108955F926F927F928F929F9269
:1025B000AF92BF92CF92DF92EF92FF920F931F9351
:1025C000CF93DF9300D000D0CDB7DEB7182F762E93
:1025D000042F622E9091DF0390FF29C0E92FE6952A
:1025E000AE2FB0E0A850BE4F8C918093E4039E7F45
:1025F000923089F59E012F5F3F4F812F0E94160A6E
:102600004B8169818A810E9442121093E00370928B
:10261000E1030093E203662051F06091DF037091C3
:10262000E0038091E1039091E2030E94870E0F90F6
:102630000F900F900F90DF91CF911F910F91FF900E
:10264000EF90DF90CF90BF90AF909F908F907F9052
:102650006F905F900895823019F40091E203D5CF16
:10266000863019F41091E003D0CF8930D9F3893145
:1026700061F6E9518E2F8170582EE695F0E0EA550B
:10268000FD4FA590B490BB2483EAE82E82E0F82E9B
:10269000D12CC12C9FE0892E912CC601B4010E943F
:1026A0008B2F812F511013C0860F9701402F672D5C
:1026B0000E94160ACA0CDB1C84E0E80EF11C8FEDA8
:1026C000E81682E0F80649F70E94990F9ECF861B14
:1026D000ECCFEFEDF3E043812CE0421B08F440E047
:1026E00021E0628181810C94D312EFEDF3E043810C
:1026F0002CE0420F08F44FEF21E0628181810C94BD
:10270000D312EFEDF3E062812FEF621B08F460E07B
:1027100021E0438181810C94D312EFEDF3E06281DB
:102720002FEF620F08F46FEF21E0438181810C9459
:10273000D312EFEDF3E0818121E0438162818C507F
:102740000C94D312EFEDF3E0818121E043816281AB
:10275000845F0C94D312EFEDF3E080818E7F808351
:1027600060817181828193810E94870E1092E503BE
:102770002FEF80E792E0215080409040E1F700C0C9
:1027800000000C94990F80E290E09093E001809318
:10279000DF018091840281110EC00E94B82E81E079
:1027A000809384022FEF83ED90E32150804090408E
:1027B000E1F700C0000064E670E080E40E94BE2EF5
:1027C0009093E0018093DF01892B09F04EC064E60D
:1027D00070E080E00E941A2F9093E0018093DF0167
:1027E000892B09F042C064E670E080E00E941A2F55
:1027F0009093E0018093DF01892BB9F564E670E0E6
:102800008FE30E941A2F9093E0018093DF01892BC0
:1028100061F50E946D2F64E670E080E40E94BE2E98
:102820009093E0018093DF01892BF9F464E670E076
:102830008CE00E941A2F9093E0018093DF01892B96
:10284000A1F464E670E080E00E941A2F9093E0010A
:102850008093DF01892B49F464E670E08FE30E94E6
:102860001A2F9093E0018093DF010E946D2F8091D9
:10287000DF010895CF93873050F58091DF0190916B
:10288000E001C0E0892B71F464E670E081E40E940D
:10289000BE2E9093E0018093DF01892B31F0C0E0E0
:1028A0000E946D2F8C2FCF91089584E690E00E94B6
:1028B000492F97FF05C09093E0018093DF01EFCF90
:1028C000C82FC0951092E0011092DF01E9CFCFB17F
:1028D0008FB1869586958C73C3708C2BC82FC0954D
:1028E000E1CF1F920F920FB60F9211242F933F93B7
:1028F0004F935F936F937F938F939F93AF93BF9308
:10290000EF93FF938091E10082FF09C08091E20084
:1029100082FF05C08091E1008B7F8093E100809170
:10292000DA0080FF24C08091D80080FF20C0809111
:10293000DA008E7F8093DA008091D90080FF9BC0FF
:1029400080E189BD82E189BD09B400FEFDCF81E04F
:1029500080932D0480910804811109C00E9496047F
:102960000E9463058091E20084608093E200809180
:10297000E10080FF17C08091E20080FF13C08091CA
:10298000E2008E7F8093E2008091E200806180937C
:10299000E2008091D80080628093D80019BC85E065
:1029A00080932D048091E10084FF29C08091E20092
:1029B00084FF25C080E189BD82E189BD89B5982F5A
:1029C000917080FFFBCF8091D8008F7D8093D800DD
:1029D0008091E1008F7E8093E1008091E2008F7E04
:1029E0008093E2008091E20081608093E200809118
:1029F0002E04882309F445C084E080932D0480913F
:102A0000E10083FF27C08091E20083FF23C0809113
:102A1000E100877F8093E10082E080932D04109293
:102A20002E048091E1008E7F8093E1008091E2008E
:102A30008E7F8093E2008091E20080618093E200CB
:102A400042E060E080E00E9431058091F000886003
:102A50008093F000FF91EF91BF91AF919F918F9183
:102A60007F916F915F914F913F912F910F900FBE8A
:102A70000F901F90189519BC10922D041092080405
:102A800076CF8091E30087FD93E090932D04B7CF3C
:102A900078941F921FB61F9211248F939F93AF9328
:102AA000BF938091AA039091AB03A091AC03B09126
:102AB000AD030196A11DB11D8093AA039093AB03B2
:102AC000A093AC03B093AD03BF91AF919F918F9151
:102AD0001F901FBE1F9018952FB7F8948091AA03DE
:102AE0009091AB03A091AC03B091AD032FBF0895BB
:102AF0000E946C159C019091ED038091EE03982B40
:102B000021F03093EB032093EA039091EF0380913F
:102B1000F003982B21F03093E8032093E703E09132
:102B2000C603F091C703309731F00480F581E02DA2
:102B30008CEE93E0099408951092A3031092A203DF
:102B40000E94930885E0ECEEF3E0DF011D928A9588
:102B5000E9F71092E9031092E6031092AE030E9487
:102B6000781590E080E00E94750990E080E00C9478
:102B70005F096093A6037093A7038093A8039093C3
:102B8000A9030C949C151092A4038091EB01E6E636
:102B9000F2E0882359F08091C30387FF07C08EE1DC
:102BA000DF011D928A95E9F70C949C1586E0F8CF19
:102BB0001F93CF93DF93CDB7DEB7AA970FB6F894E4
:102BC000DEBF0FBECDBF8FE294E02091F100FC018B
:102BD0002193CF01F4E087339F07B9F78091300448
:102BE000893009F444C018F5823009F4B9C0833043
:102BF00009F46EC0813031F580912F04813A11F5CE
:102C00008091E800877F8093E80080913304909161
:102C10003404892B41F560E28BE094E070E00E947F
:102C200023068091E8008B778093E8000BC08B30FF
:102C300009F46BC008F483C0823409F4A2C085345F
:102C400009F4BCC08091E80083FF50C280912F043A
:102C5000909130049A3008F049C2E92FF0E0E95E23
:102C6000FD4C0C94B32F60E090E080E0D7CF8091D2
:102C70002F04813239F78091330490913404009706
:102C800011F00297F9F68091E800877F8093E800C1
:102C90008091E80082FF17C09091F3008091F200CC
:102CA000029729F48091F1008B7F813021F480918B
:102CB000F10080930A048091E8008B778093E8000C
:102CC0000E941205BFCF80912D048111E1CFBACFB0
:102CD00080912F04813A09F0B5CF8091330490910F
:102CE0003404892B09F0AECF8091E800877F809370
:102CF000E8008091E80080FFFCCF8091EB01809399
:102D0000F1008091E8008E77D9CF80912F04813235
:102D100009F098CF8091330490913404892B09F005
:102D200091CF8091E800877F8093E8000E94120590
:102D3000809131048093EB010E94C31583CF809171
:102D40002F04813209F07ECF8091E800877F809345
:102D5000E8000E941205809132048093090472CF2A
:102D600080912F04813A09F06DCF8091E800877F30
:102D70008093E8008091E80080FFFCCF80910904F7
:102D8000BECF80912F04803C09F05CCF809133044A
:102D900090913404029739F5809131049091320476
:102DA000892B09F58091E800877F8093E8006BE12B
:102DB00070E082EC97E00E94C40582CF80912F04DE
:102DC000803C09F03FCF8091330490913404079701
:102DD00051F48091E800877F8093E80062EB70E017
:102DE00080E197E0E8CF8091EB0080628093EB0078
:102DF00029CF803899F0823809F078C18091330466
:102E00008F70873008F072C18093E9008091EB00E9
:102E100085FB882780F91092E90006C080912B0479
:102E200090912C04911182609091E800977F90938B
:102E3000E8008093F1001092F1008091E8008E7715
:102E400051C1882309F43FC1823009F04FC18091FC
:102E50003104811142C1809133048F702FEF280F0C
:102E6000263008F043C18093E9002091EB0020FF59
:102E700034C1933031F48091EB0080628093EB0099
:102E80002CC19091EB0090619093EB0021E030E039
:102E900001C0220F8A95EAF72093EA001092EA0017
:102EA0008091EB008860EACF811120C1109131043C
:102EB0001F778091E3008078812B8093E3008091DD
:102EC000E800877F8093E8000E9412058091E80067
:102ED00080FFFCCF8091E30080688093E30082E074
:102EE000111183E080932D0401C18058823008F0D5
:102EF000FDC080913104909132048C3D23E0920713
:102F0000A1F583E08A838AE289834FB7F894DE01D2
:102F1000139620E03EE051E2E32FF0E0509357009B
:102F2000E49120FF03C0E295EF703F5FEF708E2FBA
:102F300090E0EA30C0F0C7968D939D932F5F2431C7
:102F400059F74FBF8091E800877F8093E8006AE2DD
:102F500070E0CE0101960E9423068091E8008B77F5
:102F60008093E800C3C0C096E7CF2091330430912E
:102F70003404492F55274330510551F1A0F4413015
:102F8000510509F459C06BE670E08EED97E04230D0
:102F9000510509F0ABC02091E800277F2093E8009D
:102FA0000E94C405DACF4132510539F14232510550
:102FB00091F14F30510509F099C0E7EBF8E06491C9
:102FC00070E085EB98E06115710509F48FC0E3CFDF
:102FD00099278130910571F0009731F0029709F03F
:102FE00085C0EBE5F8E002C0E1EBF8E0649170E049
:102FF000CF01E9CFEFE7F8E0F9CF2330310508F052
:1030000075C0220F331FF901E35AFD4F8081918172
:1030100069E070E0C0CF2330310508F067C0F901E6
:10302000EE0FFF1FE95AFD4F808191812C5A3D4FD1
:10303000F901608170E0C7CF62E170E089E498E057
:10304000AACF803809F052C08091E800877F809332
:10305000E80080912E048093F100EFCE811146C0EC
:1030600010913104123008F041C08091E800877F50
:103070008093E80010932E040E941205112311F092
:1030800084E005C08091E30087FDFACF81E0809362
:103090002D0442E061EC81E00E94310542E061ECE8
:1030A00082E00E94310542E261EC83E00E9431053A
:1030B00042E361EC84E00E94310542E360EC85E08C
:1030C0000E94310513C080913104813079F481E090
:1030D000933009F080E080932C041092E9008091F5
:1030E000E800877F8093E8000E9412058091E80045
:1030F00083FF0AC08091E800877F8093E800809179
:10310000EB0080628093EB00AA960FB6F894DEBFC6
:103110000FBECDBFDF91CF911F9108951F920F92E7
:103120000FB60F9211242F933F934F935F936F939A
:103130007F938F939F93AF93BF93CF93DF93EF933F
:10314000FF93D091E900DF708091EC00C82FC1702F
:1031500080FDC0E81092E9008091F000877F8093A5
:10316000F00078940E94D8151092E9008091F00048
:1031700088608093F000CD2BCF70C093E900FF9161
:10318000EF91DF91CF91BF91AF919F918F917F91FF
:103190006F915F914F913F912F910F900FBE0F90C4
:1031A0001F901895882379F19CEF980F913A38F485
:1031B000682F84E692E00E94DA070C94930890E26C
:1031C000980F983050F4877091E001C0990F8A955C
:1031D000EAF7892F0E948C08F0CF9BE5980F933077
:1031E00020F490E080E00C94750998E5980F9731F1
:1031F00020F490E080E00C945F09803F20F00E9472
:103200009C060C9478150895CF93DF93EC010E94EF
:10321000D218CE01805E91096EE479E0089710F033
:1032200069E379E0CE01DF91CF910C94FC0C8FE340
:103230009CE90197F1F700C000008091960282306E
:1032400079F028F4813039F0109296020895833095
:1032500051F08530C9F78FE490E00E940419F4CF53
:103260008FE491E1FACF8FE494E0F7CF8FE39CE90C
:103270000197F1F700C0000080919402823079F04C
:1032800028F4813039F0109294020895833051F07F
:103290008530C9F782E590E00E940419F4CF82E5F9
:1032A00091E1FACF82E594E0F7CF8FE39CE90197B3
:1032B000F1F700C0000080919202823079F028F48A
:1032C000813039F0109292020895833051F08530A8
:1032D000C9F781E590E00E940419F4CF81E591E1FE
:1032E000FACF81E594E0F7CF8FE39CE90197F1F7FE
:1032F00000C0000080919002823079F028F4813083
:1033000039F0109290020895833051F08530C9F75A
:1033100080E590E00E940419F4CF80E591E1FACFB6
:1033200080E594E0F7CF8FE39CE90197F1F700C0C7
:10333000000080918E02823079F028F4813039F0DB
:1033400010928E020895833011F08530C9F785E31D
:1033500090E00E940419F4CF85E398E0FACF8FE360
:103360009CE90197F1F700C0000080918C02833046
:1033700059F0853011F0813021F48BE290E00E9409
:10338000041910928C0208958BE298E0F8CF8FE335
:103390009CE90197F1F700C0000080918A02833018
:1033A00021F0853011F0813021F489E290E00E9413
:1033B000041910928A0208958FE39CE90197F1F7AE
:1033C00000C0000080918802823079F028F48130BA
:1033D00039F0109288020895833011F08530C9F7D2
:1033E0008AE290E00E940419F4CF8AE294E0FACFD6
:1033F0008FE39CE90197F1F700C0000080918602FD
:10340000833059F0853011F0813021F48CE290E066
:103410000E9404191092860208958CE294E0F8CF7D
:10342000CF93C82F882309F46EC08CEF8C0F813A9C
:10343000B8F58091EB01882311F18091C30387FFD8
:103440001EC0EC2FE695E695E695F0E0EC59FD4FB1
:10345000828190E04C2F477021E030E002C0220FC3
:10346000331F4A95E2F782239323892B89F06C2F2F
:1034700084E692E00E94DA070E94930809C0E6E61B
:10348000F2E08191C81799F382E0EC36F807C9F7AA
:103490006C2F84E692E00E940408CF910C9493086C
:1034A00080E28C0F883068F4C77021E030E001C002
:1034B000220FCA95EAF78091A403822B8093A4037C
:1034C000ECCFEBE5EC0FE33040F4F0E0ED5DFD4FC9
:1034D000808190E0CF910C947509E8E5EC0FE7311D
:1034E00050F4F0E0EE0FFF1FEA5DFD4F8081918107
:1034F000CF910C945F09C03F30F08C2F0E9463077E
:10350000CF910C947815CF910895CF93C82F0E9436
:10351000101AC93349F42FEF87EE93E02150804011
:103520009040E1F700C000008C2FCF910C94D2188E
:103530000F931F93CF93DF93C62FD42F022FFC013D
:1035400082818823A1F0609339040E946C159093C6
:10355000380480933704C77081E001C0880FCA9592
:10356000EAF7DF91CF911F910F910C94550980914B
:103570003904681335C080913704909138040E9453
:10358000CB07883C910560F510E21D0FCD17B9F00F
:1035900080E28C0F883040F4C77081E001C0880F52
:1035A000CA95EAF70E944E09183048F481E09D2F31
:1035B000977001C0880F9A95EAF70E945509802FED
:1035C0000E94851A183098F4D77081E001C0880FE6
:1035D000DA95EAF7DF91CF911F910F910C944E0984
:1035E000C77081E001C0880FCA95EAF7F3CFDF9179
:1035F000CF911F910F910895CF93DF93EC01805EDF
:10360000910965E579E0089710F064E479E0CE016E
:103610000E94FC0C8C2FDF91CF910C94101ACF9349
:10362000DF93EC010E94FC1ACE01DF91CF910C9444
:103630000419CF93DF93EC018881833061F48FE428
:1036400090E00E940F1B8FE490E00E940F1B8FE41C
:1036500090E00E940F1B8881843030F08FE490E06E
:10366000DF91CF910C940F1BDF91CF910895CF93F1
:10367000DF93EC018881833061F482E590E00E9461
:103680000F1B82E590E00E940F1B82E590E00E94F4
:103690000F1B8881843030F082E590E0DF91CF917C
:1036A0000C940F1BDF91CF910895CF93DF93EC0122
:1036B0008881833061F481E590E00E940F1B81E5F1
:1036C00090E00E940F1B81E590E00E940F1B888113
:1036D000843030F081E590E0DF91CF910C940F1BA6
:1036E000DF91CF910895CF93DF93EC0188818330F0
:1036F00061F480E590E00E940F1B80E590E00E945D
:103700000F1B80E590E00E940F1B8881843030F011
:1037100080E590E0DF91CF910C940F1BDF91CF916A
:103720000895CF93DF93EC018881833061F485E3C2
:1037300090E00E940F1B85E390E00E940F1B85E341
:1037400090E00E940F1B8881843030F085E390E088
:10375000DF91CF910C940F1BDF91CF910895CF9300
:10376000DF93EC018881833061F48BE290E00E946A
:103770000F1B8BE290E00E940F1B8BE290E00E94F7
:103780000F1B8881843030F08BE290E0DF91CF9185
:103790000C940F1BDF91CF910895CF93DF93EC0131
:1037A0008881833061F489E290E00E940F1B89E2F6
:1037B00090E00E940F1B89E290E00E940F1B88811D
:1037C000843030F089E290E0DF91CF910C940F1BB0
:1037D000DF91CF910895CF93DF93EC0188818330FF
:1037E00061F48AE290E00E940F1B8AE290E00E945E
:1037F0000F1B8AE290E00E940F1B8881843030F01A
:103800008AE290E0DF91CF910C940F1BDF91CF9172
:103810000895CF93DF93EC018881833061F48CE2CB
:1038200090E00E940F1B8CE290E00E940F1B8CE244
:1038300090E00E940F1B8881843030F08CE290E091
:10384000DF91CF910C940F1BDF91CF9108950E94CF
:10385000160D80939602823049F018F4813089F079
:103860000895833039F0853041F008958FE491E177
:103870000C94FC1A8FE494E0FBCF8FE490E00E945C
:103880000F1B8FE490E0F4CF0E94160D80939402FA
:10389000823049F018F4813089F00895833039F08E
:1038A000853041F0089582E591E10C94FC1A82E59F
:1038B00094E0FBCF82E590E00E940F1B82E590E050
:1038C000F4CF0E94160D80939202823049F018F4D2
:1038D000813089F00895833039F0853041F00895C2
:1038E00081E591E10C94FC1A81E594E0FBCF81E540
:1038F00090E00E940F1B81E590E0F4CF0E94160D2E
:1039000080939002823049F018F4813089F0089554
:10391000833039F0853041F0089580E591E10C94D1
:10392000FC1A80E594E0FBCF80E590E00E940F1B3D
:1039300080E590E0F4CF0E94160D80938E028230D5
:1039400049F018F4813071F00895833039F08530F2
:1039500061F0089585E398E00C94FC1A85E390E00B
:103960000E94FC1A85E390E0F7CF85E390E00E9487
:103970000F1BF8CF0E94160D80938C02833039F014
:10398000853049F0813061F48BE290E002C08BE237
:1039900098E00C94FC1A8BE290E00E940F1BF4CF8D
:1039A00008950E94160D80938A02833041F085307D
:1039B00059F0813071F489E290E00C94FC1A89E2AC
:1039C00090E00E94FC1AF7CF89E290E00E940F1B62
:1039D000F2CF08950E94160D80938802823049F03C
:1039E00018F4813071F00895833039F0853061F03A
:1039F00008958AE294E00C94FC1A8AE290E00E9416
:103A0000FC1A8AE290E0F7CF8AE290E00E940F1B56
:103A1000F8CF0E94160D80938602833039F08530EE
:103A200049F0813061F48CE290E002C08CE294E0D5
:103A30000C94FC1A8CE290E00E940F1BF4CF0895C6
:103A40006091DF03669570E04BE050E08AE091E022
:103A50000E944F31892B19F481E08093E5030E9485
:103A60006C159093DA038093D90308959091DF0346
:103A700090FF36C09170811129C092609093DF034E
:103A8000662351F06091DF037091E0038091E103C0
:103A90009091E2030E94870E6091DF03669570E0CB
:103AA0004BE050E08AE091E00E944F31892BA9F071
:103AB0001092E50381E08093DC0320E04091E20373
:103AC0006091E1038091E0030C94D3128B3210F0EB
:103AD0009465D4CF880F982BD1CF0E94201DEACFB8
:103AE0000895EFEDF3E080818160808360E086954A
:103AF0000C94361D61E00C94361DEFEDF3E08081EF
:103B00008160808386950C947A1D8091DF03869571
:103B1000815009F48AE261E00C94361D8091DF0344
:103B200086958F5F8B3208F081E061E00C94361D42
:103B30009091DF0390FF07C09695981720F0961795
:103B400010F40C948E1D0C947A1DCF92DF92EF929C
:103B5000FF92CF93DF936B017C010E943908D82F2D
:103B60000E943B0D0E94380D0E94350D0E94320DBF
:103B7000C0912E03EFEFED0FE73008F05FC0F0E0EB
:103B8000EF5DFD4C0C94B32F0E94440DC11166C033
:103B90000E94711D60E081E00E94361D20E044EC2F
:103BA0006CE588E459C00E94410DC11157C00E94C4
:103BB000711D60E081E00E94361D20E04CED6EE753
:103BC00085E94AC00E943E0DC11148C00E94711D86
:103BD00060E081E00E94361D20E04FEF6FEF89E248
:103BE0003BC00E94440D0E94410DC11137C088E0C6
:103BF00090E00E9464316093DF037093E003809350
:103C0000E1039093E20360FF32C00E947D1D80912A
:103C1000DF0386950E947A1D21E04091E2036091C6
:103C2000E1038091E00318C00E94440D0E943E0D04
:103C3000DCCF0E94440D0E94410DF8CFD111D5CFA9
:103C4000C1110CC00E94711D60E081E00E94361D10
:103C500020E040EE6AE880E00E94D312C701B6017E
:103C6000DF91CF91FF90EF90DF90CF9008950E9469
:103C7000AB13F4CFCF92DF92EF92FF92CF93DF930B
:103C800000D000D0CDB7DEB70E94A51D6B017C012E
:103C900080910504882321F080910604811115C0CC
:103CA000C0920104D0920204E0920304F092040452
:103CB0000E949C150F900F900F900F90DF91CF9165
:103CC000FF90EF90DF90CF900895198282E08A8371
:103CD000C701B6010E9439088B838EEF8C8364E0A4
:103CE000CE0101960E948506DBCF0F931F9341E022
:103CF00050E060E070E004C0440F551F661F771F5E
:103D00008A95D2F7CB01BA01609570958095909510
:103D100000910104109102042091030430910404E5
:103D200060237123822393231F910F910C943A1ED9
:103D30009091A103809589238093A103282F277058
:103D400071F4282F082E000C330B9217130639F04C
:103D50008595859585950E94751E1092A1030895FD
:103D60000F931F9341E050E060E070E004C0440F07
:103D7000551F661F771F8A95D2F780910104909195
:103D80000204A0910304B09104048A019B01082B52
:103D9000192B2A2B3B2BC901B8011F910F910C94B1
:103DA0003A1E4F925F926F927F928F929F92AF9244
:103DB000BF92CF92DF92EF92FF920F931F93CF9318
:103DC000DF9300D000D00F92CDB7DEB77C01DC01CD
:103DD00013968D919C911497892B41F01C9111960B
:103DE000DC90812F8D218F3F09F0FFC60F900F903F
:103DF0000F900F900F90DF91CF911F910F91FF9037
:103E0000EF90DF90CF90BF90AF909F908F907F907A
:103E10006F905F904F9008950E948C0C082F682F30
:103E200089819A810E940109E12FF0E0B6E0DB9ED2
:103E3000E00DF11D112424E5029FE00DF11D112478
:103E4000EE0FFF1FE55AFB4F05911491D701129613
:103E50008C918111E3C08091050481111FC10A3248
:103E6000BDE51B0709F037C1F70182818823C9F13D
:103E70008091B10391E0980F9770887F953008F496
:103E8000892B8093B1038091B1038770FFEF8F9FDF
:103E9000C0011124959587959595879599279093BD
:103EA00089008093880090938B0080938A00909380
:103EB0008D0080938C004091B1035091B2036091CA
:103EC000B3037091B4038FE090E00E94823160915F
:103ED00001047091020480910304909104040E94F3
:103EE000A51DC80197558F3F910511F008F00BC231
:103EF0002091DE01022E000C330B2817390714F431
:103F00008093DE01F701228136E1389F5001399F0D
:103F1000B00C1124C501885E9E4F6C01DC015096E7
:103F20002C935097928116968C911697992309F4A9
:103F3000DCC11A961C930E9319978F5F16968C937B
:103F40000E946C15F601968785878091A50387836B
:103F50008091A3039091A403892B80870190F08125
:103F6000E02D309741F0D60154966D917C91C501BA
:103F7000825E9E4F09951093300300932F03D70163
:103F800012969C91992309F442C61092390402308A
:103F9000BCE51B0708F4C4C20631ECE51E0738F087
:103FA00098012B5F3C452730310508F0B9C20E94CB
:103FB000790E9093C4038093C3030F30FCE51F0771
:103FC00009F48FC208F010C208303CE5130709F469
:103FD00072C208F0E3C104309CE5190709F45FC21E
:103FE00008F0CBC10230BCE51B0709F454C2809134
:103FF000C303826003301C4509F4E2C16091C3032E
:104000001091C40384E090E00E947031612F81E23E
:1040100090E00E9470310E94C3152AC18091DE0198
:104020008F3F09F418CFE8E1CE2EE1E0DE2EB12C6F
:10403000A12C992493948091DE01082E000C990BF9
:104040008A159B050CF407CFF60186818823F9F0C9
:10405000818592858017910739F480912F03909183
:1040600030038017910799F0D6011F969C921F97F5
:104070001C961C930E931B9751968C91811103C033
:10408000C6010E949709C60106960E94B809BFEFB3
:10409000AB1ABB0AE6E1CE0ED11CCDCF809106044F
:1040A000882309F4DCCE1982D70112968C918111F4
:1040B00010C082E18A83D7018C918B8311968C91F9
:1040C0008C838EEF8D8365E0CE0101960E9485067C
:1040D000C6CE81E1EFCF0D322DE5120709F4D7C02E
:1040E000A0F40B328DE5180709F4B8C00C329DE539
:1040F000190709F0F6CED70112968C91882309F49E
:10410000B7C081E00E947A1DB3C00F32ADE51A0737
:1041100009F4DCC008F4CCC00033EDE51E0709F05B
:10412000E0CED70112968C91882309F4DACE5BE4B5
:10413000C52E54E0D52E6AE0662EF6012491222386
:1041400009F4CFCE213009F048C0319684918130F6
:1041500059F4F2E0CF0ED11CF60184910E94851A29
:104160002FEFC21AD20AE9CF823041F4F2E0CF0E2B
:10417000D11CF60184910E94101AF2CF833041F4D1
:10418000F2E0CF0ED11CF60184910E94D218E8CF44
:10419000843009F061C0F2E0CF0ED11CF601249109
:1041A00090E080E0F60131962053330B2A30310540
:1041B00048F00197A8F2AFE9BFE01197F1F700C00E
:1041C0000000F7CF689EA001699E500D1124C9011F
:1041D000840F951F24916F01E5CFE22FF0E0E553A6
:1041E000FC4F7490822F86958695869590E0FC0111
:1041F000E554FC4F84902770912C022E02C09594B8
:1042000087940A94E2F7E1E08E229924FC01E555B7
:10421000FC4FA490B12C02C0B594A7942A95E2F764
:10422000F1E0AF22BB248114910419F081EE0E94C9
:10423000101AA114B10419F086EE0E94101A872DED
:104240000E94851AAB2819F086EE0E94D2188928A0
:1042500009F486CF81EE99CF6F0182CFF701828179
:10426000882331F080912E0391E0892780932E03DB
:104270008091A103877009F4B9CDD70112968C9172
:10428000882309F4B3CD82E00E94981EAFCDD701F8
:1042900012968C91882361F30E947D1D81E00E941B
:1042A0007A1D21E04FEF6FEF8CEA0E94D312E0CF2E
:1042B000F70182818823E1F20E947D1D81E00E9446
:1042C0007A1D21E040E86FEF86E5EFCFD701129627
:1042D0008C91882369F20E947D1D81E00E947A1DE5
:1042E00021E04FEF6FEF8BE1E0CF882309F447CE59
:1042F000F6018189882309F442CEC501825E9E4F72
:104300000E94B8093CCE043FFCE51F0739F188F450
:10431000093D3CE51307F1F00A3D8CE5180751F122
:10432000083D9CE5190709F02ACE26E241EE61EE30
:104330000DC0063FACE51A07C9F0A0F027E245EE34
:1043400066EE073FECE51E0709F019CEC7010E9493
:10435000981A8ECF27E245EE65EEF8CF26E241EEC1
:1043600060EEF4CF27E245EE64EEF0CF26E241EEB8
:1043700062EEECCF28E241E0EFCF8091C303806191
:104380000630FCE51F07E1F08091C3038860073029
:104390001C45B0F08091C303806212C00B303CE535
:1043A000130709F496C078F409309CE5190709F45D
:1043B00086C08091C3038C600A301C4509F01ECE74
:1043C0008093C3031BCE8091C3038B7F0D30BCE56C
:1043D0001B07B1F38091C3038D7F0E301C4580F322
:1043E0008091C303877FECCF0B3FFCE51F0709F4E7
:1043F0005AC048F502313CE5130709F47AC060F46D
:1044000000319CE5190709F470C08091C3038F7BCC
:1044100001311C45A9F2F2CD0431BCE51B0709F4BA
:1044200076C008F46CC005311C4509F0E7CD8091D9
:10443000C30382FB992790F921E0922790FB82F930
:1044400090FB83F9BDCF0E3F2CE5120709F445C060
:1044500070F40C3F8CE5180751F18091C4038E7FF6
:104460000D3F1C4509F0CACD8093C403C7CD01158B
:10447000ADE51A0709F447C040F101301D4509F0C8
:10448000BDCD8091C403982F909591708E7F892B1C
:1044900090FB81F9E9CF8091C303816091CF809136
:1044A000C30384608DCF8091C4038160DDCF809190
:1044B000C4038260D9CF8091C303806481CF0E94FE
:1044C000C3158091C30380687BCF8091C403836050
:1044D000CBCF8091C3038E7F73CF8091C4038D7F38
:1044E000C3CF8091C3038F7E6BCF8091C3038F7D39
:1044F00067CF0E94C3158091C3038F7761CF8091EE
:10450000C303837F5DCF8091C4038C7FADCF0E94B6
:10451000C3159091C303892F97FB87F9805850CF1B
:104520008091A4030631FCE51F0709F07EC38A7A57
:1045300091E009F490E09093310369E2811165E321
:1045400084E692E00E9404080E94930891CE809134
:10455000DF0380FF03C00E94AB138ACE0E947D1D43
:1045600087CE45E85DE16EE87DE10E94020A80CEDB
:104570004EE85DE165E87DE1F8CF49E953E162EAA3
:1045800073E1F3CF42EA53E169E973E1EECF41E829
:1045900053E16DE873E1E9CF4DE853E161E873E180
:1045A000E4CF49E653E165E773E1DFCF45E753E147
:1045B00069E673E1DACF49E95EE06AEA7EE0D5CFE9
:1045C0004AEA5EE069E97EE0D0CF65E082E00E94E1
:1045D000981D4ECE68E086E0FACF6EE089E0F7CF16
:1045E00064E18FE0F4CF67E185E1F1CF88E18ACD26
:1045F00062E289E1ECCF83E285CD0F3D2CE5120725
:1046000009F446C009303DE5130709F444C001151B
:104610001C4509F047C00E94C3159FEFA4E3BCE00E
:104620009150A040B040E1F700C00000F89481E054
:104630008093E00080E28093D8001092C900EFE1FF
:10464000FEE43197F1F700C000001DBA1092680037
:104650001CBC10BE1FBA10927A0010926E0010920D
:104660006F0010927100109272001092C9001092A7
:10467000BC0014B817B81AB81DB810BA1092BC0014
:1046800015B818B81BB81EB811BA0C94003FF0CD7D
:104690000E94CA0EEDCD8091070491E08927809396
:1046A0000704E6CDF70100811181992309F440C088
:1046B000C8010E948C0CD82E682FC8010E940109E5
:1046C000B8018D2D0E94F00A8C01882ED701159615
:1046D000AC901597A2944FE0A4221296DC90D110D2
:1046E0001092A3038091A103877099F0DD2089F0D7
:1046F000812F807F803421F080E2800F883048F065
:1047000082E00E94981E8091A1038770CC24C394FC
:104710008111C12CB12EB2943FE0B322BBE0BB1596
:1047200008F43DC0EB2DF0E0E85DFD4C0C94B32F98
:10473000C8010E94D808D82EC3CFE12FEF70AE2E4B
:10474000107F19F0A29420EFA222DD20C9F0AA2048
:1047500069F080E2800F883010F081100BC08091EA
:10476000A403A82AA092A4030E949308802F0E9469
:10477000101A15C08091A303A82AA092A303F4CF16
:10478000802F0E94D218AA2051F0005E083010F04D
:10479000811043C08A2D0E948C080E949308AB2D83
:1047A000A850BB0B149710F40E948B09CC20A9F0E1
:1047B0008091A10380FD11C0F70112828595859536
:1047C00085950E94B01EC7010E94D11E8091A10351
:1047D0008595859585950E94751E85E0F701DE011A
:1047E000119601900D928A95E1F789819A810E9434
:1047F000D8089A81E981F0E026E0929FE00DF11D52
:10480000112434E5839FE00DF11D1124EE0FFF1FED
:10481000E55AFB4F85919491E9CAA0948091A30336
:10482000A822A092A303B9CFF12FFF709F2E107F73
:10483000103219F0929490EF9922882041F021E0F3
:10484000821631F1DD2079F1AA2041F18FCFDD20F0
:1048500091F09091A503892D892BA11003C00E948E
:1048600055099DCF31E0A312FACF981709F497CFDD
:104870008093A50394CFA11006C00E948608892DBD
:104880000E944E098CCF81E0A81609F488CFF5CF9D
:10489000DD2031F091E09A1508F481CF892DDFCF2A
:1048A000A1107DCFECCFAA2051F3A9E38A1209C051
:1048B000BFEFE7EEF3E0B150E040F040E1F700C0B9
:1048C0000000802F0E94D2186ACF812F869586958E
:1048D000837061F0813009F062CFC8019370D1100C
:1048E00002C090E080E00E945F0959CFC801937038
:1048F000D11002C090E080E00E94750950CF802F57
:10490000DD2029F00E9463070E94781548CF0E949D
:104910009C06FACF812F837009F066C0D1103FCF7B
:10492000802F829586958770880F880F602F6F7013
:10493000462E512C712C612C082E04C0440C551CA1
:10494000661C771C0A94D2F740E050E0BA0104FFDD
:104950000FC04FE050E060E070E004C0440F551F0E
:10496000661F771F8A95D2F7409550956095709590
:10497000812F869586958370823019F1D8F4009145
:10498000A6031091A7032091A8033091A9038130B9
:1049900069F04429552966297729CB01BA0160239A
:1049A0007123822393230E94B915F9CE402A512AFC
:1049B000622A732ACB01BA016429752986299729AD
:1049C000F2CF44295529662977290091A603109131
:1049D000A7032091A8033091A903CB01BA01602756
:1049E000712782279327DFCF8695DD2011F0812F55
:1049F0008170882309F4D3CE802F829586958770A5
:104A0000880F880F602F6F70462E512C712C612CEF
:104A1000082E04C0440C551C661C771C0A94D2F75F
:104A200040E050E0BA0104FF0FC04FE050E060E00A
:104A300070E004C0440F551F661F771F8A95D2F798
:104A40004095509560957095812F869586958370D9
:104A5000823019F1D8F400910104109102042091E0
:104A6000030430910404813069F0442955296629F2
:104A70007729CB01BA0160237123822393230E94FB
:104A80003A1E8DCE402A512A622A732ACB01BA01DE
:104A90006429752986299729F2CF44295529662941
:104AA00077290091010410910204209103043091B0
:104AB0000404CB01BA016027712782279327DFCF37
:104AC0001F70DD2029F0812F0E94B01E802FC7CEDD
:104AD000802F0E944E09812F0E94751E60CE802F6C
:104AE00022EF821609F44EC0281578F030EF8316B5
:104AF00019F191EF891609F43DC0DD2009F465C074
:104B0000A11034CE812F8F713AC0A3EF8A1609F419
:104B10003EC0B4EF8B12F1CFDD2009F44BC01F7102
:104B2000812F0E94B01EF8E01F9FC00111248360F6
:104B30008093A103812F23C0DD20B9F0A1102FCED7
:104B40001F7161E070E080E090E004C0660F771FA5
:104B5000881F991F1A95D2F7009101041091020441
:104B60002091030430910404A6CFE1E0EA1508F493
:104B700016CEE6CF812F8F71DD2009F4ADCF0E94D4
:104B8000B01E0DCE812F8F71DD20C9F3A5CF60E05F
:104B900070E0CB01DD2009F472CF1F7161E070E09D
:104BA00080E090E004C0660F771F881F991F1A9558
:104BB000D2F765CF81E00E94981E21E02A1508F007
:104BC000EECD82E00E94981EEACDAA2059F08933EA
:104BD00009F077CE3FEF87EE93E031508040904070
:104BE000E1F76DCE812F8F7177CF85E0F701DE0180
:104BF000119601900D928A95E1F7F7012281898142
:104C00009A81211109C90E94D808082F0DC90631BF
:104C10001C4509F047CD8091310369E2811165E3BC
:104C200084E692E00E94DA078FCC8272F801E35C9E
:104C3000FC45E431F10508F0E0CCEC5CFD4C0C9453
:104C4000B32F1F93CF93DF9380913703807FA9F415
:104C500080913403882389F080916903D0913803CF
:104C60006091320370913303A0913503B091360304
:104C7000C62FC72316E0D81304C0DF91CF911F9130
:104C8000089590E0109711F0CF3F19F401968770C6
:104C9000F2CF189F9001199F300D1124F901E75CA4
:104CA000FC4F41814713F2CF40814613EFCF428141
:104CB0004111ECCF438154814A1B5B0B483C5105A9
:104CC00028F7809137038F70806180933703F90153
:104CD000E25CFC4F80818F708061808382E393E08F
:104CE0000E94D11EDF91CF911F910C942F09AF929A
:104CF000BF92CF92DF92EF92FF920F931F93CF93C9
:104D0000DF93CDB7DEB761970FB6F894DEBF0FBE65
:104D1000CDBF8C0185E0F801DE011D9601900D925A
:104D20008A95E1F7F80180819181E28022E3A22E49
:104D300023E0B22E60913503709136036115710541
:104D400009F43EC13091320340913303232F2423D1
:104D50002F3F09F435C1C380D480F0903403F601AD
:104D6000E61BF70BFF2009F4FBC020913703522FFD
:104D7000507FE83CF10508F0BBC0511178C0FE2C13
:104D8000491321C038131FC0E1101DC02F702061CE
:104D900020933703C5010E94D11E80913703F8018B
:104DA00085838F2D61960FB6F894DEBF0FBECDBF01
:104DB000DF91CF911F910F91FF90EF90DF90CF90F7
:104DC000BF90AF900895CD2829F0282F29232F3F99
:104DD00009F014C120E0F22FF170DF2E20FF3DC05A
:104DE000209169034091380356E0241315C08D8744
:104DF0009E878D859E850E94CE0C292F22952F702F
:104E00002230F8F0243020F59F70F9F0F8019581F8
:104E1000907FD9F4D12C1FC030E0529FF001539FF6
:104E2000F00D1124E75CFC4F6181961306C0608190
:104E3000861303C06281E61210C02F5F3F4F2770B8
:104E4000D4CF9F7011F0882329F3805E883010F34F
:104E5000C8010E94D11EFD2CA4CFEE2009F4A1CFE1
:104E600080913703816080933703F12C9ACF4913E7
:104E700012C0381310C0E1100EC0F8012583C8011C
:104E80000E94D11E86E0F801A2E3B3E001900D92EA
:104E90008A95E1F786CF8D879E878D859E850E94B6
:104EA000D80C882309F1EE20F9F080913703803285
:104EB00070F0209132033091330338872F831986A5
:104EC000DB86CA868C87CE0107960E94D11E86E0BB
:104ED000F801A2E3B3E001900D928A95E1F70E94F8
:104EE0002126FF24F3945DCFC8010E94D11EF9CF83
:104EF00051110AC082E393E00E94D11E86E0F501C1
:104F000011928A95E9F7B1CF49130FC038130DC03C
:104F1000E1100BC0F8012583C8010E94D11E86E074
:104F2000F50111928A95E9F73CCF8D879E878D8593
:104F30009E850E94D80C8823B9F2EE20A9F28091B8
:104F40003703803220F220913203309133033A83C9
:104F500029831B82DD82CC828E83CE010196B5CF60
:104F6000E83CF105E0F6FE2CEE2009F4BDCF491334
:104F700016C0381314C08091370380FD83CF982F5B
:104F8000907F09F47FCFF8018583903F09F477CFB4
:104F9000982F907F905F8F70892B858370CF8D873E
:104FA0009E878D859E850E94D80C811190CF80911F
:104FB0003703816080933703C8010E94D11EF1CE70
:104FC000EE2009F491CF8D879E878D859E850E9466
:104FD000D80CF82E882309F487CF86E0F801A2E3E5
:104FE000B3E001900D928A95E1F7809132039091A0
:104FF00033030E94CE0C0E942126D3CE21E02E2521
:10500000EACE1F93CF93DF93CDB7DEB767970FB686
:10501000F894DEBF0FBECDBF4B8B5C8B6D8B7E8B50
:105020008F8B1A8A198A85E0FE017396DE011D9620
:1050300001900D928A95E1F786E0FE013D96DE0132
:10504000179601900D928A95E1F7CE0107960E947E
:105050007726811112C086E0FE013796DE01119697
:1050600001900D928A95E1F78A859B85892B29F01D
:105070008F81988589238F3FB1F516E08091690370
:105080009091380389131DC067960FB6F894DEBF60
:105090000FBECDBFDF91CF911F91089596E0929FF3
:1050A000D001939FB00D1124A75CBC4FFE01319637
:1050B00001900D929A95E1F7809338030E942F0991
:1050C000DCCF819FC0011124875C9C4F0E94772612
:1050D0008823D1F28091690390E001968770992727
:1050E00080936903CBCF2091380330E0C90101964A
:1050F00087709927409169034817190679F60E942D
:10510000C315109238031092690386E0E2E3F3E0DE
:10511000DF011D928A95E9F7B0CF8F929F92BF92DF
:10512000CF92DF92EF92FF920F931F93CF93DF9373
:105130008091DF019091E001892B91F0809197029D
:105140008F5F8093970281110BC00E94C31390E080
:105150009093E0018093DF01892B11F40E94FF0DF1
:10516000E5EB8E2EE3E09E2E740110E000E077E088
:10517000C72EC00E802F0E94450F8C2D0E94450F18
:10518000802F0E943A14E70199917E01D12C891752
:1051900029F0FE0131978083DD24D3948C2D0E9469
:1051A0003A14F7019681891709F47AC0868381E061
:1051B0008D29182B0E94470D0F5F0730C1F60E9402
:1051C0006C156091990270919A0290939A02809363
:1051D00099022091980230E0261B370B820F931F13
:1051E0006BEF70E00E948B2FE82E392F082F8093F1
:1051F0009802F0909C02FF2009F4E4C010929C02F7
:10520000E091AF03F091B003AF01425F5F4F20E048
:105210006BEFB62E6BEF70E0A191AB3F99F0CA2E09
:10522000D12C8E2D932F0A17E8F18C199D09092E88
:10523000000CAA0BBB0B4E97A105B105C8F1DF010D
:105240001197BC924E175F0739F720939C021111FA
:1052500002C02111B9C010929B02A091AF03B0917E
:10526000B00390919C02EBECF3E080E03191E4011B
:1052700029914E01321751F03C913B3FD9F40C93E8
:10528000AF0141505109EA01288391E01196D3E022
:10529000E93DFD0759F790939C0280939B0298C0CB
:1052A00080E086CFDB01AC19BD098A0F9B1FBFCF01
:1052B0002F2DC8CF81E0EACFF29EF001F39EF00DD2
:1052C0001124E85EFE4FC288D388C114D10419F4BA
:1052D00098ECC92ED12CF29EE001F39ED00D112442
:1052E000C85EDE4F8E818823B9F08D859E850E9431
:1052F000CB07C816D90680F40F9D60011124898957
:10530000811105C0C601885E9E4F0E949709C601A3
:10531000825E9E4F0E94B8090F5F202F30E080917F
:10532000DE01082E000C990B821793072CF655C04E
:1053300000E086E1F82EF1CF009789F40E94380D45
:105340000E94350D0E94320DC0919D02CC23B9F10F
:105350000E94350D81E0C827C0939D0203C0917063
:10536000892B91F380919E0290919F028130984702
:1053700080F0109207046091010470910204809102
:105380000304909104040E94A51D10929F021092A4
:105390009E0280919E0290919F02019690939F029F
:1053A00080939E02812FDF91CF911F910F91FF90EB
:1053B000EF90DF90CF90BF909F908F9008950E94C4
:1053C000410DC8CF111147CF80919B02811143CF6E
:1053D0008091DE018F3F09F0ABCF80919E029091CA
:1053E0009F02209107042111A7CF892BD9F2109297
:1053F0009F0210929E0260910104709102048091BC
:105400000304909104040E94A51DCCCFCDB7DEB754
:10541000C955D1090FB6F894DEBF0FBECDBF84B712
:10542000877F84BF0FB6F894A8958091600088614B
:1054300080936000109260000FBE80E890E00FB68D
:10544000F89480936100909361000FBE85B78068E7
:1054500085BF85B7806885BF0E9496040E9463055A
:105460008091E20084608093E200789480912D0422
:105470008823A1F01091E9001F709091EC00892F12
:10548000817090FD80E8182B1092E9008091E8006F
:1054900083FD0E94D8151F701093E90082E084BD3F
:1054A00093E095BD9AEF97BD80936E000E94C31361
:1054B00090E09093E0018093DF010E94470D0E94ED
:1054C000560DE5EBF3E02BEC622E23E0722ED301B8
:1054D00011921D9223E0E33CF207D1F78EE090E0B9
:1054E0000E9424308093AF039093B003FC010E968A
:1054F0002BEF21938E179F07E1F790E080E00E9449
:105500006A318F3E9E4F11F00E94CA0E89EA809345
:10551000800089E08093810024982C983F988AB17C
:105520008F7C8AB96E98479A8BB180638BB9769AD3
:105530008FE090E00E9464316093B1037093B203F6
:105540008093B3039093B40367708FEF689FB001AB
:1055500011247595679575956795772770938900E0
:105560006093880070938B0060938A0070938D0025
:1055700060938C000E94FF0D90E080E00E946A31F1
:105580008F3E9E4F11F00E94CA0E82E090E00E9472
:105590005C318093F2030E94790E9093C403809350
:1055A000C30383E090E00E945C31682F70E090E0DC
:1055B00080E00E94B915609101047091020480910D
:1055C0000304909104040E94A51D8091C5038111DC
:1055D00036C090E080E00E946A318F3E9E4F21F0FD
:1055E0000E94CA0E0E94BB0E88E090E00E946431C7
:1055F0006093DF037093E0038093E1039093E203F1
:105600006E7F71F40E94BB0E88E090E00E946431CE
:105610006093DF037093E0038093E1039093E203D0
:105620000E94070A1092E5038091DF0380FF04C007
:1056300060E086950E94361D81E08093C5036091ED
:1056400001047091020480910304909104040E946B
:10565000A51D81EE91E09093C7038093C60318E1E6
:10566000C12ED12C09EDA02E03E0B02E81E4882EAE
:10567000912C8C0E9D1E22E0820E911C80912D0497
:105680008530D9F4A0E4FA2EBEE0EB2EE60C5524CA
:10569000539400E112E180912D04853009F4A1C1F9
:1056A0000E94C3150E948B091092CA038091C903FE
:1056B00081110E94711D0E94201D0E948D28E3EF20
:1056C000F3E0ABECB3E010E000E0302F8D912191DE
:1056D000281709F4EDC190E0FF24F3942827422F06
:1056E0004F2109F4E0C161969FAF619762963FAF89
:1056F00062978F2191E009F490E063969FAF6397E2
:105700000E946C158160782F65969FAF8EAF65976C
:1057100061964FAD619762965FAD629763966FAD8C
:10572000639765968FAD65970E940128F801ED504B
:10573000FC4F8081F826F0828091E503882309F4EC
:1057400041C08091E403E091DF03E695E81BE0931C
:10575000DB03823009F0D3C1F0E0E45FF84FE4915D
:105760000E2F10E0FFEAEF2EF2E1FF2E8091DC0316
:10577000882389F01092DC030E946C159801209513
:105780003095820F931F9093DA038093D903109280
:10579000DE031092DD038091D9039091DA030E9419
:1057A000CB078017910770F0E091D903F091DA03ED
:1057B0000E0F1F1F1093DA030093D90389ED93E0B6
:1057C000F701099585E0ECEEF3E0DE01119601901A
:1057D0000D928A95E1F7F090ED03E090EE031091C1
:1057E000EF030091F0031092ED031092EE0310927C
:1057F000EF031092F0038F2D8E2909F448C0809199
:10580000EA039091EB030E94CB079C019091E9037E
:10581000992309F482C225313105C8F19F3F19F05F
:105820009F5F9093E903FF2059F00E943F079FEF8D
:105830001F140CF491E0899F802D11248093ED03B7
:10584000EE2059F00E943F079FEF1E140CF491E0E8
:10585000899F802D11248093EE033091ED03332333
:10586000B1F02091EE03222391F045EB3403C00107
:105870001124992309F4AFC19093ED0345EB240360
:1058800090011124332309F4AAC13093EE03812F30
:10589000802B09F448C08091E7039091E8030E94AF
:1058A000CB079C019091E603992309F431C225317D
:1058B0003105C8F19F3F19F09F5F9093E6031123D4
:1058C00059F00E941F079FEF11160CF491E0899F79
:1058D000802D11248093EF03002359F00E941F07AD
:1058E0009FEF10160CF491E0899F802D1124809376
:1058F000F0033091EF033323B1F02091F003222322
:1059000091F045EB3403C0011124992309F46BC1D4
:105910009093EF0345EB240390011124332309F402
:1059200066C13093F0038091ED039091EE03892BD3
:105930009091EF03892B9091F003892B11F00E9435
:10594000781585E0FE013196ACEEB3E001900D9242
:105950008A95E1F70E948B099091F103891721F054
:105960000E948B098093F10380912D04843009F00B
:1059700085CE85E08093E9008091E80082FF7ECEAD
:105980008091E80090E085FF06C00E94B50488235E
:1059900009F431C191E08091E8008B778093E800B1
:1059A000992309F46BCE1981111141C1809107042B
:1059B000882309F457C11092070481E080930604FC
:1059C00022961FAE229723961FAE23978EEF249622
:1059D0008FAF249763E0CE018F5B9F4F0E948506B7
:1059E0004DCE80912D04843009F43DC01092C8033F
:1059F0000FB6F894A895C09260000FBEF0926000B8
:105A00001092E5038091CA03811116C05092CA0317
:105A10008091DF03982F91709093C9038E7F8093BC
:105A2000DF034FEF80E792E0415080409040E1F784
:105A300000C000000E94990F83B7817F846083BFFC
:105A400083B7816083BF7894889583B78E7F83BF47
:105A50000FB6F894A89580916000886180936000EB
:105A6000109260000FBE80912C04882309F413CE9D
:105A70000E94C31390E09093E0018093DF010E94A5
:105A8000470D0E94560DEBECF3E01192AE16BF06E7
:105A9000E1F70E948D28EBECF3E08191811122C1A6
:105AA000EE12FBCFF8CD9F5FFF0C963009F017CEBA
:105AB0000F5F1F4F0E30110509F007CE8FEF66966E
:105AC0008FAF669767968FAF679768961FAE689798
:105AD0000E946C158160782F6A969FAF8EAF6A978F
