:100000000C941F040C943C040C943C040C943C048D
:100010000C943C040C943C040C943C040C943C0460
:100020000C943C040C943C040C9436140C9453181B
:100030000C940D2E0C943C040C943C040C943C0445
:100040000C943C040C943C040C943C040C943C0430
:100050000C943C040C940D150C943C040C943C043E
:100060000C943C040C943C040C943C040C943C0410
:100070000C943C040C943C040C943C040C943C0400
:100080000C943C040C943C040C943C040C943C04F0
:100090000C943C040C943C040C943C040C943C04E0
:1000A0000C943C040C943C040C943C040501098021
:1000B000A101850319012AB700150126B700950192
:1000C00075108100C0050C0901A101850419012AE0
:1000D000A002150126A002950175108100C005013E
:1000E0000906A1018505050719E029E71500250185
:1000F0009508750181020507190029EF15002501F2
:1001000095F075018102050819012905950575010C
:100110009102950175039101C005010902A1010930
:1001200001A100050919012905150025019505758D
:10013000018102950175038101050109300931151D
:1001400081257F95027508810609381581257F95DF
:100150000175088106050C0A38021581257F950175
:1001600075088106C0C005010906A101050719E04F
:1001700029E715002501950875018102950175088B
:1001800081010507190029FF150026FF0095067556
:100190000881000508190129059505750191029549
:1001A0000175039101C0000101010101010101017B
:1001B0000202020202020202020303030303030318
:1001C00003040404040404040505050505060606E5
:1001D0000606070707070708080808090909090AA2
:1001E0000A0A0B0B0B0C0C0C0D0D0D0E0E0E0F0F47
:1001F0000F101011111112121313141415151616D5
:100200001717181819191A1A1B1B1C1D1D1E1E1F43
:100210002020212222232424252626272829292A92
:100220002B2C2D2D2E2F30313232333435363738BA
:10023000393A3B3C3D3E3F404142434445464748B6
:10024000494A4C4D4E4F50515354555658595A5B8C
:100250005D5E5F616264656668696B6C6D6F70722C
:10026000737577787A7B7D7E8082838587888A8C98
:100270008E8F91939596989A9C9EA0A2A3A5A7A9CC
:10028000ABADAFB1B3B5B7BABCBEC0C2C4C6C9CBC3
:10029000CDCFD1D4D6D8DBDDDFE2E4E7E9EBEEF079
:1002A000F3F5F8FAFDFFFFAA7F5540222325262803
:1002B000292A2C2D2F3032333536383A3B3D3E40FB
:1002C00042434547494A4C4E5051535557595A5C41
:1002D0005E6062646668696B6D6F71737577797B58
:1002E0007D7F81838587898A8C8E90929496989A57
:1002F0009C9E9FA1A3A5A7A8AAACAEAFB1B3B4B66C
:10030000B8B9BBBCBEBFC1C2C3C5C6C7C9CACBCCC6
:10031000CDCED0D1D2D2D3D4D5D6D7D7D8D9D9DA99
:10032000DADBDBDBDCDCDCDCDCDDDDDDDDDCDCDC0E
:10033000DCDCDBDBDBDADAD9D9D8D7D7D6D5D4D336
:10034000D2D2D1D0CECDCCCBCAC9C7C6C5C3C2C10B
:10035000BFBEBCBBB9B8B6B4B3B1AFAEACAAA8A768
:10036000A5A3A19F9E9C9A98969492908E8C8A8920
:10037000878583817F7D7B79777573716F6D6B69FD
:1003800068666462605E5C5A5957555351504E4CD2
:100390004A4947454342403E3D3B3A383635333281
:1003A000302F2D2C2A29282625232200000000008A
:1003B00000E10000000000000034000800330000ED
:1003C0000000000000360012001400E200000000EF
:1003D00000370004000D00E3000057000013001870
:1003E000000E000151000000001C000C001B00006A
:1003F00000000000000000000000000000000000FD
:1004000000000000000000000000000000090007DC
:100410000005000000000000000A001600100002A5
:100420005100000000060017001A00E40001570008
:10043000001500110019000000000000000F000B63
:10044000001D0000000000000000002D00E500007D
:100450000000000100010001000100010000000196
:100460000035001E001E020100010001002F021FC6
:10047000001F020100010001002F002000200201E6
:1004800000010001002602025721020100010001C3
:1004900000380022002202000001000100010000DB
:1004A0000001000000010001000100000001000047
:1004B00000010001002E00230023020000010001C2
:1004C000002702240024020351010001003000250E
:1004D0000025020100010001003002260035020162
:1004E000000100010031002700310201000100017C
:1004F00000000001000100010000000100010001F6
:1005000000010001000000010003570457055701D6
:100510000001000100F400F200FB000100010001F5
:1005200000F000F100FC00010001000100F500F303
:10053000002800035101000100F900FA00065700ED
:1005400000010001000100000001000000010001A5
:1005500000010000000100000001000100A900AA44
:1005600000A8000000010001004A000757AC00018C
:1005700000010001004E000857AB0000000100011F
:10058000004B000957FD00095D010001004D000A04
:1005900057FE00005C010001000100000001001492
:1005A0005C000001000100010000000100000001EA
:1005B00000C85CC95C0000010001000100C65CC706
:1005C0005C2B5D000001000100CA5CCB5CC35C00D9
:1005D0000000000100CC5CCD5C2C5D01000100013D
:1005E00000BD00BE00C45C0000010001000100006D
:1005F00000010000000100010001000000010000F6
:1006000000010001000000000027000000010001BF
:1006100000240021001E000100010001002500222D
:10062000001F000000000001002600230020000140
:1006300000010001000000000000000100010001B5
:10064000000100000000000100000032190A00044F
:100650007F3F1F643214643214783C1E1E140A0556
:100660000A00000000000306B200080001000000BC
:10067000A800080002000300A0001400030057496E
:100680004E555342000000000000000000008400AE
:10069000040007002A00440065007600690063003A
:1006A000650049006E00740065007200660061001C
:1006B00063006500470055004900440073000000D6
:1006C00050007B00390044004200370046003100F2
:1006D000460044002D0037004500370041002D0042
:1006E00034003000300038002D003900330036006F
:1006F00042002D0036004200410036004300310028
:100700003900410033003000380063007D000000F4
:1007100000001B0301636F6E6669677572652E6565
:1007200072676F646F782D657A2E636F6D000902B2
:100730006B00040100A0FA0904000001030101009C
:100740000921110100012240000705810308000A68
:100750000904010001030102000921110100012225
:100760004D000705820308000A0904020001030086
:100770000000092111010001226D000705830320FB
:10078000000A0904030002FF00000007058403407B
:1007900000050705050340000512011002000000D6
:1007A00008973275490100010200012203450072D9
:1007B0000067006F0044006F007800200045005A79
:1007C0000020005300680069006E006500000030E2
:1007D000035A005300410020005400650063006884
:1007E000006E006F006C006F006700790020004C05
:1007F00000610062007300200049006E0063000089
:100800000004030904050F3900021C100500DF6015
:10081000DDD88945C74C9CD2659D9E648A9F0000A7
:100820000306B20045001810050038B60834A909BF
:10083000A0478BFDA0768815B66500014200112403
:100840001FBECFEFDAE0DEBFCDBF24E0A0E9B2E00B
:1008500001C01D92AE36B207E1F712E0A0E0B1E0B0
:10086000E8E8F3E602C005900D92A039B107D9F788
:100870000E9482290C9483310C940000E8EDF0E092
:1008800080818E7F80831092E2001092DA001092B5
:10089000E100A0EEB0E08C9181608C9380818F7735
:1008A000808319BCA7EDB0E08C918E7F8C93808102
:1008B0008F7E80831092380408952091E400309157
:1008C000E50095E6A9012091EC00822F817020FFC0
:1008D00006C08091E80080FF06C080E00895209166
:1008E000E80022FD1AC080915D04882389F08530DC
:1008F00089F08091EB0085FD0FC02091E4003091DC
:10090000E50042175307F9F29150E1F684E00895AB
:1009100082E0089583E0089581E00895EF92FF92C8
:100920000F931F93CF937C018B010E945D04C82F0E
:10093000882371F08C2FCF911F910F91FF90EF9032
:100940000895F70181917F018093F1000150110911
:100950000115110579F38091E80085FDF2CF8091B2
:10096000E8008E778093E8000E945D04882381F37D
:10097000C82FE0CF80915F0487FF13C08091E8000B
:1009800082FF06C08091E8008B778093E80004C066
:1009900080915D048111F2CF089580915D048823D8
:1009A000D9F38091E80080FFF8CF8091E8008E773E
:1009B000ECCF982F9093E900242F762F50E08917E1
:1009C00031F07091EC002091ED005091F00021FD8C
:1009D00007C09F5F973071F78093E90081E0089529
:1009E0003091EB003E7F3093EB003091ED003D7F86
:1009F0003093ED003091EB0031603093EB00709359
:100A0000EC002093ED005093F0002091EE0027FDC4
:100A1000E0CF80E00895CF92DF92EF92FF920F93A4
:100A20001F93CF93DF93C8EDD0E088818F7E8883BA
:100A3000E7EDF0E080818160808384E082BF81E027
:100A40008093380488818E7F888302EE10E0F8015D
:100A500010821092DA0081EEC82ED12CF60110829D
:100A600088818F77888388818068888388818F7D5B
:100A7000888319BC10925D0410925E0410925C048D
:100A800010925B0490EEE92EF12CF70180818B7FB0
:100A9000808388818160888342E060E080E00E94FA
:100AA000D904F60180818E7F8083F8018081816086
:100AB0008083808188608083F70180818E7F80833E
:100AC000888180618883DF91CF911F910F91FF9082
:100AD000EF90DF90CF900895FC0180916504909194
:100AE000660486179707A0F06115710529F48091B7
:100AF000E8008E778093E80090E06115710551F46D
:100B0000911108C08091E80082FF35C080E008950F
:100B1000BC01F2CF80915D048823C9F18530C9F111
:100B20008091E80083FD31C08091E80082FDEACF2A
:100B30008091E80080FFE1CF8091F3002091F200E6
:100B4000382F6115710519F02830310558F091E002
:100B50002830310509F090E08091E8008E7780938D
:100B6000E800CBCF84918093F100319661507109F8
:100B70002F5F3F4FE6CF80915D04882341F08530A1
:100B800041F08091E80083FFBDCF81E0089582E0CD
:100B9000089583E00895FC018091650490916604B6
:100BA00086179707A0F06115710529F49091E80068
:100BB0009E779093E80090E06115710551F49111D2
:100BC00008C08091E80082FF34C080E00895BC0135
:100BD000F2CF80915D048823C1F18530C1F180910D
:100BE000E80083FD30C08091E80082FDEACF80916B
:100BF000E80080FFE1CF8091F3002091F200382FD0
:100C00006115710519F02830310558F091E0283050
:100C1000310509F090E02091E8002E772093E8005C
:100C2000CBCF81918093F100615071092F5F3F4FCD
:100C3000E7CF80915D04882341F0853041F08091B9
:100C4000E80083FFBECF81E0089582E0089583E04D
:100C50000895089580913A04089520915D04243008
:100C600091F42093E90070E050E040E00E948E048F
:100C7000882321F010923604109237048091E80006
:100C80008E778093E800089590911D04803F59F479
:100C900080911E0487FF0DC010921E0491110BC09D
:100CA0001092190408C0813F81F480911E04181627
:100CB0009CF3992381F080911F0490912004892B4B
:100CC00009F064C0109216040895823F49F497FF1A
:100CD000F0CF10921D0480911E048111ECCFE0CF63
:100CE000833F19F41916ACF3E4CF20911F04893F18
:100CF00029F41216F4F610921F04DBCF8A3F19F480
:100D000027FFD7CFF8CF209120048B3F29F427FF6E
:100D1000D0CF10922004CDCF8C3F19F41216CCF313
:100D2000C8CF843F31F480911C048E7F80931C04D3
:100D3000C0CF853F21F480911C048D7FF7CF863F83
:100D400021F480911C048B7FF1CF873F21F48091A7
:100D50001C04877FEBCF883F21F480911C048F7E99
:100D6000E5CF8D3F31F48091DE038E7F8093DE03EB
:100D7000A0CF8E3F21F48091DE038D7FF7CF8F3F90
:100D800009F097CF8091DE038B7FF0CF089580919B
:100D9000DE0380FD1AC081FD14C082FD14C0809165
:100DA0001604882391F08C3370F427E0829FC001F1
:100DB00011246CE370E00E941B2F862F672B29F013
:100DC000089583E0089587E0089581E00895809173
:100DD000DE0380FD16C081FD16C082FD18C0809123
:100DE0001904882391F08C3390F423E2829FC00190
:100DF00011246CE370E00E941B2F862F672B49F0B3
:100E0000089588E0089581E1089585E0089583E2DA
:100E1000089581E00895803F31F40E94E7068195AE
:100E200080931E040895813F19F40E94E706F8CFCD
:100E3000823F31F40E94E706819580931D04089556
:100E4000833F19F40E94E706F8CF893F29F40E94F6
:100E5000C70680931F0408958A3F21F40E94C706A5
:100E60008195F7CF8B3F31F40E94C706819580931F
:100E7000200408958C3F19F40E94C706F8CF843FE0
:100E800031F480911C04816080931C040895853F97
:100E900021F480911C048260F7CF863F21F4809179
:100EA0001C048460F1CF873F21F480911C0488608A
:100EB000EBCF883F21F480911C048061E5CF8D3F0A
:100EC00031F48091DE0381608093DE0308958E3FCC
:100ED00021F48091DE038260F7CF8F3FB9F78091D4
:100EE000DE038460F1CF9C014FB7F8948091DA0360
:100EF0009091DB03A091DC03B091DD034FBF821B17
:100F0000930B0895209117022223C9F02091F30337
:100F100027FF15C0E62FE695E695E695EE31D8F465
:100F2000E80FF92FF11D677021E030E001C0220FBA
:100F30006A95EAF720958281282322830895FC018F
:100F4000329608962191621303C0DF0111971C921B
:100F5000E817F907B9F70895209117022223C1F085
:100F60002091F30327FF14C0E62FE695E695E6955A
:100F7000EE31F8F4E80FF92FF11D677021E030E051
:100F800001C0220F6A95EAF78281822B828308953D
:100F9000FC0132962FEF30E04191641751F02F3F62
:100FA00019F4411101C0232F3F5F3630A9F72F3FBD
:100FB00009F40895820F911D27FD9A95FC01628323
:100FC0000895CF92DF92EF92FF926C01EE24FF24FE
:100FD00020E0C114D104E104F10419F0C701B60105
:100FE00020E1C72ED82EE92EFF24C114D104E1043C
:100FF000F10419F0285FC701B6016B017C0154E0D0
:10100000F694E794D794C7945A95D1F7C114D104B4
:10101000E104F10419F02C5FC701B6016B017C01FA
:1010200042E0F694E794D794C7944A95D1F7C11457
:10103000D104E104F10419F02E5FC701B6019695C1
:10104000879577956795672B682B692B09F02F5F3C
:10105000822FFF90EF90DF90CF9008958091D5037D
:1010600081111092D503089580959091D40398230F
:101070009093D40308958091D4039091D303892B46
:101080009091D203892B809390029091D50399235C
:10109000A1F0892B8093900280911702882341F15F
:1010A0008091F30387FF24C08EE1E2E9F2E090E053
:1010B000815000F591110E942E08E091F603F09105
:1010C000F7033097E1F080911702882359F080915F
:1010D000F30387FF07C0809190028093910285E01F
:1010E000809390020280F381E02D80E992E00994E0
:1010F00086E0DBCF21912223D9F29F5FD9CF0895DB
:10110000E92FEE0FE90FEE0F8E0F982F977086954F
:101110008695869525E0829FF0011124E656FC4FC6
:1011200050E040E080E0219130E0092E02C0369589
:1011300027950A94E2F721703327042E01C0220F6D
:101140000A94EAF7822B4F5F5F4F4530510559F7FC
:101150000895E92FEE0FE90FEE0F8E0F982F97707D
:1011600041E001C0440F9A95EAF7869586958695E9
:1011700095E0899FF0011124E656FC4F30E020E015
:1011800070E05191DF011197CB01022E02C09695BC
:1011900087950A94E2F781708195852784238527B6
:1011A0008C932F5F3F4F2530310559F7089580917B
:1011B000990390916803981301C008958F5F877019
:1011C000FACF882341F080959091D30389238093AF
:1011D000D3030C943B080895882339F09091D303EE
:1011E000982B9093D3030C943B080895882321F007
:1011F0000E9434080C943B080895882339F090919C
:10120000D403982B9093D4030C943B080895209119
:101210005C0330915D032817390771F090935D03EB
:1012200080935C03E091F603F091F703309721F08F
:101230000084F185E02D0994089520915A0330919E
:101240005B032817390771F090935B0380935A036F
:10125000E091F603F091F703309721F00680F781D3
:10126000E02D09940895E091F603F091F70330978B
:1012700021F00190F081E02D099480E00895CF9352
:10128000DF93EC0181E0898B8091D4039F81892BCE
:101290008093D4038091D3039885892B8093D303C3
:1012A0000E943B08EA81FB81309739F06C897D8987
:1012B000CE010696DF91CF910994DF91CF910895E9
:1012C000EF92FF920F931F93CF93DF93EC018A85E8
:1012D000811139C0EB80FC8087E5F81A26E12E9D4C
:1012E000C0012F9D900D1124DC01A85EBE4F149605
:1012F000ED91FC911597309731F054966D917C915A
:10130000825E9E4F099586E18E9D80018F9D100D16
:101310001124085E1E4FF80187810E943408F801ED
:101320008085982F90958091D30389238093D30350
:101330000E943B08188219861B861E821D8210920D
:10134000600310925F03DF91CF911F910F91FF9087
:10135000EF900895FA01811101C0FB010994809179
:101360000F04982F9E7F29F48170826080930F0470
:1013700008958635E8F381708465F8CFAF92BF9207
:10138000DF92EF92FF920F931F93CF93DF93082F7B
:10139000162FE901E42FF0E0EA55FE4F611111C06C
:1013A000E4915E2F4E2F4983E8835A831B82DF919D
:1013B000CF911F910F91FF90EF90DF90BF90AF9072
:1013C0000895E62EF12C4491D42EE42FF0E026E08F
:1013D000829FC00111242FEF30E0B9010E94072F36
:1013E000802F90E0880F991F55E5569FD001579F99
:1013F000B00D11248A1B9B0B982F990F890F59014F
:10140000AE18BF08AE9ED001AF9EB00DBE9EB00D0F
:1014100011245B2F189F80011124012F11275901DE
:10142000A01AB10AAE9E8001AF9E100DBE9E100D97
:1014300011245901A81AB108AE9CC001AF9C900DAF
:10144000BE9C900D1124892F9927281B390B2E9FA4
:10145000C0012F9F900D3E9F900D1124E92F623007
:101460007105A1F050F46115710509F49CCF61304C
:10147000710581F0EB2F512F96CF6430710569F023
:1014800080F06630710509F48ECFF4CFE42F4B2F36
:10149000592F89CFE42F412F86CFEB2F542F492F7F
:1014A00082CF4B2F5D2DE12F7ECF9091F30392FFE2
:1014B00006C0282F28712830F9F4877F846093FFB5
:1014C00006C0282F28712831F1F4877E846120918D
:1014D000F40320FF06C0382F38713830D9F4877FE5
:1014E000816021FF06C0282F28712831D1F4877E22
:1014F000816194FD877E0895282F24712430F9F6A8
:101500008B7F8860DCCF282F2471243101F78B7EFC
:101510008861DDCF382F3171313019F78E7F8860C7
:10152000E0CF282F2171213121F78E7E8861E1CF14
:10153000CF93DF93972F70E026E0929F600D711D8F
:101540001124FB0134E5839FE00DF11D1124EE0F02
:10155000FF1FE555FC4FC591D491CE01C238D1058E
:10156000B9F1E8F5C133D10509F499C050F5C93294
:10157000D10509F48DC0CA32D10509F497C0C1154F
:1015800021E5D20708F0BFC0C11530E5D30708F048
:1015900016C1C83ED10508F09DC0C03ED10568F512
:1015A000C83AD10508F089C0C53AD10508F0FFC096
:1015B000C130D10511F1209709F443C02497E8F414
:1015C00040C0C533D10509F45CC0C933D105B9F6B3
:1015D0002091F303237089F080EE90E00EC0C33EAB
:1015E000D10591F168F4C03ED105F9F0C23ED105B4
:1015F00031F62091F30322FD20C0DF91CF910895B1
:10160000C63ED10561F1C73ED10581F1C43ED10589
:1016100009F0B5CF2091F40321FFEFCF8091F303C0
:1016200084FD0FC087EE90E0E8CF2091F30320FD0A
:1016300012C13091F40330FFE0CF83EE90E024FF3D
:10164000DCCF90E080E0D9CF2091F30322FD06C1EA
:101650003091F40330FDC0CF24FFCFCFF2CF2091E3
:10166000F30323FFCACF24FDECCFDCCF2091F3039B
:1016700023FDF7C03091F40331FFEECF84EE90E00C
:10168000BCCF2091F30325FFB8CF89E290E0B5CF1E
:101690002091F30325FFB1CF85E390E0AECF2091F9
:1016A000F30326FFAACF8AE290E0A7CF2091F303AD
:1016B00026FFA3CF81E390E0A0CFCF3BD10508F672
:1016C000C85AD0E0CC0FDD1FCE5ADD4F88819981FA
:1016D000946493CFC11520E2D20760F4C11531E0C4
:1016E000D30708F08ACFCE019065C03FD10508F03E
:1016F00084CFA7CFC11580E4D80708F4A2CFCE01CC
:101700009F70906A7ACFC11595E5D90710F5C1157C
:1017100024E5D20708F088C0C11533E5D30708F0E7
:101720006FC0C11582E5D80708F465C09E0123701B
:10173000332781E090E002C0880F991F2A95E2F7D5
:10174000C695C69520E2C29FE00111248C2B9D2BEB
:1017500050C0C11599E5D907A0F4C11528E5D207F5
:1017600008F067C0C11536E5D30708F06ACF8C2FA3
:101770000E94550A90E0982F882788279F719062D1
:101780003CCFC1158AE5D80708F458C0CE01905661
:101790008115904208F055CF8D2F8F710E94550A08
:1017A00090E0982F882788279F718C2BE8CFC55A07
:1017B000D0E0C15BDD4F888190E090641ECF9E0138
:1017C000E4E036952795EA95E1F723708C2F86950E
:1017D0008695837030E2839FC0011124922BC370E1
:1017E00021E030E002C0220F331FCA95E2F7822BBE
:1017F000932B9C6802CF9C2F8827816F906AFDCE27
:101800009E012370332781E090E002C0880F991F6A
:101810002A95E2F7C695C69530E2C39FE0011124F0
:101820008C2B9D2B9A68E9CE9C2F8827846F906A19
:10183000E4CE9C2F8827806F906ADFCE8C2F8F702C
:101840000E94550A34E0D695C7953A95E1F7CF70D6
:101850009C2F9069D2CE89E390E0CFCE82EE90E0CB
:10186000CCCE86EE90E0C9CEBF92CF92DF92EF92BF
:10187000FF920F931F93CF93DF938C01C09031049D
:10188000D0903204E0903304F09034048091D60379
:101890009091D703A091D803B091D903C82AD92A2F
:1018A000EA2AFB2ACFE1D0E0BC2ED701C6010C2EDC
:1018B00004C0B695A795979587950A94D2F780FDB1
:1018C0000EC0219788F7B12C8B2DDF91CF911F91FE
:1018D0000F91FF90EF90DF90CF90BF900895B801E7
:1018E0008C2F0E94980A019761F3EECFCF93DF937C
:1018F000EC010E94340CBE01DF91CF910C94980A48
:101900000E94760C292F2F7092959F7092509E30D6
:1019100078F4E92FF0E0EB57FE4C0C942F2F803F2A
:1019200019F020F4883E20F481E00895843FE1F32B
:1019300080E00895883EC0F3813FD1F7F5CF822F34
:101940008695869586950895CF93DF939C013A9569
:1019500021153F4168F5EC01CC27D170DC01AA27A5
:10196000B270AC01442754709C012227387094FF58
:1019700011C080E1CD2B09F480E0AB2B09F080622F
:10198000452B09F08064232B09F08068FB01DF916F
:10199000CF91099481E0CD2B09F480E0AB2B09F0C5
:1019A0008260452B09F08460232B81F38860EECFA1
:1019B000DF91CF910895FC018081813041F49185C0
:1019C000911114C09285992389F082E008958230A4
:1019D00041F48185811107C08285811106C083E0B1
:1019E000089586E0089585E0089584E00895279895
:1019F0002F98089526982E98089525982D98089543
:101A000056985E980895279A2F9A0895269A2E9AA6
:101A10000895259A2D9A0895209828982198299814
:101A200022982A9823982B9852985A9853985B9802
:101A30003E98469808958098889A8198899A8498C3
:101A40008C9A85988D9A86988E9A87988F9A089501
:101A5000CF93DF9300D00F92CDB7DEB790915D04A6
:101A6000943019F589837B836A8383E08093E9004E
:101A70008FEF9091E800815095FD06C095ED9A9505
:101A8000F1F700008111F5CF8091E80085FF0DC0CE
:101A900050E040E063E070E0CE0101960E948E04C9
:101AA0008091E8008E778093E8000F900F900F9060
:101AB000DF91CF910895BC0184E00C94280DBC0106
:101AC00083E00C94280D9C0182E08093E9009FEF55
:101AD0008091E800915085FD06C085ED8A95F1F76B
:101AE00000009111F5CF8091E80085FF0CC050E017
:101AF00040E065E070E0C9010E948E048091E8003A
:101B00008E778093E8000895CF93DF93EC01809166
:101B100017028823B1F18091F30387FF32C060E29E
:101B200083E08093E9008FEF9091E800815095FD6C
:101B300006C095ED9A95F1F700008111F5CF8091DF
:101B4000E80085FF1BC08091170270E050E040E084
:101B5000811104C050E040E068E070E0CE010E94D6
:101B60008E048091E8008E778093E80080E2FE0189
:101B7000ABE3B4E001900D928A95E1F7DF91CF914C
:101B8000089568E081E0CDCFEF92FF920F931F930D
:101B9000CF93DF930E94000D0E94FD0C0E94FA0C6F
:101BA0000E94F70C88E8E82EF12C8FEF90E0F70107
:101BB000918380830AE810E0F80191838083CCE868
:101BC000D0E0998388830E94090DFFEF20E782E02F
:101BD000F15020408040E1F700C000000E94060D57
:101BE0009FEFE0E7F2E09150E040F040E1F700C005
:101BF00000000E94030D2FEF80E792E0215080400B
:101C00009040E1F700C000000E94FD0CEFEFF0E70C
:101C100022E0E150F0402040E1F700C000000E94C7
:101C2000FA0C8FEF90E7E2E081509040E040E1F75E
:101C300000C000000E94F70C8091E1038770FFEF65
:101C40008F9FC00111249595879595958795992724
:101C5000F70191838083F80191838083998388833E
:101C60000E94000D0E94FD0C0E94FA0CDF91CF91A2
:101C70001F910F91FF90EF900C94F70CCF9384E09D
:101C800090E00E94D830C82F81E290E00E94D830C6
:101C9000982F8C2FCF910895CF92DF92EF92FF92E1
:101CA0006B017C010E94AF09B701A60188E090E0BA
:101CB000FF90EF90DF90CF900C94FE308091130452
:101CC000882319F081508093130460910F04709160
:101CD000100480911104909112040C944C0E809188
:101CE0001304833018F48F5F8093130460910F0402
:101CF0007091100480911104909112040C944C0E78
:101D0000EFE0F4E083E0808311828FEF82838383AE
:101D1000148260817181828193810C944C0E6FEEEC
:101D20007EEF90E080E00E940A3160E082E090E087
:101D30000E94EC3060E083E090E00E94EC30109272
:101D4000D6031092D7031092D8031092D90360E003
:101D500084E090E00E94EC3060E081E290E00E943C
:101D6000EC3060E085E090E00E94EC3060E086E0DE
:101D700090E00E94EC306FEF87E090E00E94EC3042
:101D800040E050E0BA0188E090E00E94FE3060E060
:101D90008DE090E00E94EC3040E050E0BA0188E134
:101DA00090E00E94FE3060E087E190E00E94EC301D
:101DB00040E050E0BA018CE190E00E94FE3060E02B
:101DC00080E290E00E94EC3040E050E0BA0188E10F
:101DD00090E00E94FE301092E1031092E203109214
:101DE000E3031092E40384E080618093E103409177
:101DF000E1035091E2036091E3037091E4038FE00B
:101E000090E00E94FE3040E050E0BA0183E190E0B3
:101E10000C94FE30CF93C82F873070F580910B0261
:101E200090910C02892B89F564E670E080E40E94B1
:101E30003A2E90930C0280930B02892BD1F464E626
:101E400070E082E10E94962E90930C0280930B0228
:101E5000892B79F481E090E001C0880FCA95EAF7F8
:101E600064E670E080950E94962E90930C02809319
:101E70000B02CF910C94E92E8A30B9F040F48830EF
:101E800071F0893079F0209A2898CF9108958C309C
:101E900091F070F08D30B9F73E9A4698F6CF219ABE
:101EA0002998F3CF229A2A98F0CF239A2B98EDCF36
:101EB000529A5A98EACF539A5B98E7CFCF93DF9321
:101EC00080910F0480FD0BC0E3EDF2E011821082DF
:101ED00012821382349653E0EF30F507B9F7C3ED61
:101EE000D2E0FE01928120813181892F291708F4E7
:101EF000822F381708F4832F8383381B3183281BE4
:101F00002083981B9283349683E0EF30F80751F7D3
:101F10000E94342E64E670E084E80E943A2E64E663
:101F200070E088810E94962E64E670E089810E94AC
:101F3000962E64E670E08A810E94962E64E670E038
:101F40008B810E94962E249693E0CF30D90739F7E3
:101F50000E94E92E579A3BB13F772BB120684FB7CB
:101F6000F89483ED92E0FC015191CF0168E02BB928
:101F7000000000C057FF3BB9550F000000C000C073
:101F800000C03BB900C06A9591F7F3E08F309F071E
:101F900051F74FBF8FE594E00197F1F700C00000C3
:101FA000DF91CF9108958F929F92AF92BF92CF927F
:101FB000DF92EF92FF920F931F93CF93DF93FC0179
:101FC000B280948081E08483CFE0D3E003ED12E01F
:101FD0008BE4A82E88248394EE24EA94F12C2BE43D
:101FE000C22ED12C91101DC01B821A8298014A81E9
:101FF000698188810E94BE0925960C5F1F4F83E08E
:10200000CA35D80779F7DF91CF911F910F91FF90D3
:10201000EF90DF90CF90BF90AF909F908F900C94F7
:102020005E0F2B81222309F121502B833C818A2DC5
:10203000821B311101C0822F90911204899FC0012F
:102040001124B6010E94072F6A83211104C0332393
:1020500011F01C82AB8222E02B1540F2809110041B
:102060008883809111048983C1CF0E94902F823090
:1020700091400CF0BBCF82E08B15C0F40E94902FF2
:10208000B7010E941B2F888322E02B1590F40E9439
:10209000902F209111042695622F70E00E941B2F33
:1020A000280F29831A82AB828C82A0CF80911004E2
:1020B000EACF20911104F5CFEF92FF921F93CF93B7
:1020C000DF93EC0183EDE82E82E0F82E10E08C81A6
:1020D00097014091120460911104810F0E94BE0982
:1020E0001F5E84E0E80EF11C1F3F89F70E945E0F1F
:1020F0009A818C8190FF08C08F5F8C83DF91CF9194
:102100001F91FF90EF9008958150F7CFBF92CF922B
:10211000DF92EF92FF920F931F93CF93DF93FC0117
:102120008281DD24DA9480FD02C0DD24D39403EDA6
:1021300012E0D0E0C0E02FE0B22EF8011182108250
:102140001282138294E0E92EF12CC12C8091D002EE
:102150008C0D80310CF43DC06B2D0E94F92E892F1F
:10216000082E000C990B8C179D0791F48091120496
:102170008E9DA0018F9D500D112455954795559525
:102180004795980160911104809110040E94BE0946
:10219000CD0CF1E0EF1AF108C9F621960C5F1F4F44
:1021A000CF30D10551F60E945E0F8091D00291E0B0
:1021B000D91215C0811111C08EE08093D002DF9139
:1021C000CF911F910F91FF90EF90DF90CF90BF9034
:1021D000089587FFC5CF815FC3CF8150EECF90E0D8
:1021E0000196BE010E941B2FE8CF0F931F93CF9340
:1021F000DF93C3EDD2E0FE011182108212821382BE
:10220000349683E0EF30F807B9F710E000E08091F2
:10221000D102082E000C990B081719078CF1809138
:102220001601082E000C990B801791074CF19E01A6
:102230004091120460911104809110040E94BE0923
:102240000F5F1F4F24960F30110509F70E945E0F94
:10225000809115019091D102980F9093D102209115
:102260001601280F20931601121614F49E301CF04C
:10227000819580931501DF91CF911F910F91089562
:10228000198218821A821B82DBCF8F929F92AF92A3
:10229000BF92CF92DF92EF92FF920F931F93CF9353
:1022A000DF93EC014C81042F10E09801D8010E94CB
:1022B00074319B01AC010E943F314B015C01E0E2B3
:1022C000F0E0E01BF10BA5E5B0E0AC019B010E9442
:1022D0003F316B017C019F01DF010E94352F9B0183
:1022E000AC010E944A319B01AC01280D391D4A1DE9
:1022F0005B1DC701B6010E945231F22E822F90E081
:1023000039E23F15D8F143E0249F9001112435951F
:102310002795122F109593EDC92E92E0D92E00E04B
:1023200085E5E82EEF188E2D01FD8F2D9601412FAA
:10233000609111040E94BE090F5F54E0C50ED11CCC
:102340000F3089F70E945E0F9C8181E0992319F07C
:10235000903219F48FEF8093170180911701890F44
:102360008C83DF91CF911F910F91FF90EF90DF90C1
:10237000CF90BF90AF909F908F90089525E530E06B
:10238000A901481B590BCA019A01220F331F280FBC
:10239000391F37FFBCCF2F5F3F4FB9CFEF92FF926E
:1023A0000F931F93CF93DF938C01C3EDD2E0F12CF9
:1023B000E12CF80194816091110480911004F7E000
:1023C000EF16F104FCF49923F9F09E0140911204F8
:1023D0000E94BE092FEFE21AF20A24968FE0E81657
:1023E000F10439F70E945E0FF801848190E00196B4
:1023F000817099278483DF91CF911F910F91FF9076
:10240000EF900895992309F39E0140E0E1CF909168
:102410000F0490FF0DC0E3EDF2E0818360834283FF
:102420001382349693E0EF30F907B9F70C945E0FFE
:1024300008950F931F93CF93DF9300D000D0CDB7B3
:10244000DEB78C018091D20281110AC09E012F5FFC
:102450003F4F4FEF6FEF0E94BE098A818093D202F7
:10246000F8016481613069F08091D20240E0662316
:1024700061F040E0623011F44091D20280E060E00F
:1024800004C06091D20240E080E00E940712F8018F
:10249000848190E0019663E070E00E941B2F8483AA
:1024A0000F900F900F900F90DF91CF911F910F9190
:1024B0000895CF93DF9300D000D0CDB7DEB79091D1
:1024C0000F0490FF0AC09E012F5F3F4F0E94BE097C
:1024D0004B8169818A810E9407120F900F900F90A3
:1024E0000F90DF91CF910895CF93DF93EC01EC81B2
:1024F000F0E0E555FD4F4491EFE0F4E06281818129
:102500000E9459128C818F5F8C83DF91CF91089547
:10251000CF93DF93EC01EFE0F4E0438162818C81A3
:102520000E9459128C818F5F8C83DF91CF91089527
:102530005F926F927F928F929F92AF92BF92CF9253
:10254000DF92EF92FF920F931F93CF93DF9300D010
:1025500000D0CDB7DEB7182F762E042F622E9091C3
:102560000F0490FF29C0E92FE695AE2FB0E0AC5DD7
:10257000BD4F8C91809314049E7F923089F59E010B
:102580002F5F3F4F812F0E94BE094B8169818A8155
:102590000E94071210931004709211040093120409
:1025A000662051F060910F04709110048091110425
:1025B000909112040E944C0E0F900F900F900F906C
:1025C000DF91CF911F910F91FF90EF90DF90CF900F
:1025D000BF90AF909F908F907F906F905F90089585
:1025E000823019F400911204D5CF863019F410917D
:1025F0001004D0CF8930D9F3893161F6E9518E2F9B
:102600008170582EE695F0E0EA55FD4FA590B49004
:10261000BB2483EDE82E82E0F82ED12CC12C9FE064
:10262000892E912CC601B4010E94072F812F5110D1
:1026300013C0860F9701402F672D0E94BE09CA0C58
:10264000DB1C84E0E80EF11C8FE0E81683E0F8065E
:1026500049F70E945E0F9ECF861BECCFEFE0F4E0BF
:1026600043812CE0421B08F440E021E0628181813B
:102670000C949812EFE0F4E043812CE0420F08F450
:102680004FEF21E0628181810C949812EFE0F4E039
:1026900062812FEF621B08F460E021E043818181B9
:1026A0000C949812EFE0F4E062812FEF620F08F4CF
:1026B0006FEF21E0438181810C949812EFE0F4E008
:1026C000818121E0438162818C500C949812EFE06B
:1026D000F4E0818121E043816281845F0C9498124F
:1026E000EFE0F4E080818E7F808360817181828160
:1026F00093810E944C0E109215042FEF80E792E018
:10270000215080409040E1F700C000000C945E0F23
:1027100080E290E090930C0280930B028091B002D3
:1027200081110EC00E94342E81E08093B0022FEF01
:1027300083ED90E3215080409040E1F700C000001D
:1027400064E670E080E40E943A2E90930C0280933D
:102750000B02892B09F04EC064E670E080E00E9415
:10276000962E90930C0280930B02892B09F042C0A5
:1027700064E670E080E00E94962E90930C028093B5
:102780000B02892BB9F564E670E08FE30E94962E68
:1027900090930C0280930B02892B61F50E94E92E25
:1027A00064E670E080E40E943A2E90930C028093DD
:1027B0000B02892BF9F464E670E08CE00E94962EFF
:1027C00090930C0280930B02892BA1F464E670E0D5
:1027D00080E00E94962E90930C0280930B02892B2E
:1027E00049F464E670E08FE30E94962E90930C0209
:1027F00080930B020E94E92E80910B020895CF93E3
:10280000873050F580910B0290910C02C0E0892B2B
:1028100071F464E670E081E40E943A2E90930C0219
:1028200080930B02892B31F0C0E00E94E92E8C2F9F
:10283000CF91089584E690E00E94C52E97FF05C0D1
:1028400090930C0280930B02EFCFC82FC09510928B
:102850000C0210920B02E9CFCFB18FB1869586950D
:102860008C73C3708C2BC82FC095E1CF1F920F9231
:102870000FB60F9211242F933F934F935F936F9353
:102880007F938F939F93AF93BF93EF93FF93809129
:10289000E10082FF09C08091E20082FF05C08091C3
:1028A000E1008B7F8093E1008091DA0080FF24C0FB
:1028B0008091D80080FF20C08091DA008E7F8093C5
:1028C000DA008091D90080FF9BC080E189BD82E160
:1028D00089BD09B400FEFDCF81E080935D04809145
:1028E0003804811109C00E943E040E940B058091AA
:1028F000E20084608093E2008091E10080FF17C0D5
:102900008091E20080FF13C08091E2008E7F80936F
:10291000E2008091E20080618093E2008091D80023
:1029200080628093D80019BC85E080935D0480911B
:10293000E10084FF29C08091E20084FF25C080E18E
:1029400089BD82E189BD89B5982F917080FFFBCF49
:102950008091D8008F7D8093D8008091E1008F7E98
:102960008093E1008091E2008F7E8093E20080916D
:10297000E20081608093E20080915E04882309F484
:1029800045C084E080935D048091E10083FF27C00F
:102990008091E20083FF23C08091E100877F8093D4
:1029A000E10082E080935D0410925E048091E1007A
:1029B0008E7F8093E1008091E2008E7F8093E20021
:1029C0008091E20080618093E20042E060E080E07C
:1029D0000E94D9048091F00088608093F000FF91FC
:1029E000EF91BF91AF919F918F917F916F915F9187
:1029F0004F913F912F910F900FBE0F901F90189500
:102A000019BC10925D041092380476CF8091E300D7
:102A100087FD93E090935D04B7CF78941F921FB623
:102A20001F9211248F939F93AF93BF938091DA03EA
:102A30009091DB03A091DC03B091DD030196A11D11
:102A4000B11D8093DA039093DB03A093DC03B09372
:102A5000DD03BF91AF919F918F911F901FBE1F907B
:102A600018952FB7F8948091DA039091DB03A09129
:102A7000DC03B091DD032FBF08950E9431159C0146
:102A800090911D0480911E04982B21F030931B041B
:102A900020931A0490911F0480912004982B21F018
:102AA0003093180420931704E091F603F091F70394
:102AB000309731F00480F581E02D8CE194E00994A9
:102AC00008951092D3031092D2030E943B0885E030
:102AD000ECE1F4E0DF011D928A95E9F71092190408
:102AE000109216041092DE030E943D1590E080E0E3
:102AF0000E941D0990E080E00C9407096093D603C2
:102B00007093D7038093D8039093D9030C946115E5
:102B10001092D40380911702E2E9F2E0882359F081
:102B20008091F30387FF07C08EE1DF011D928A9534
:102B3000E9F70C94611586E0F8CF1F93CF93DF93EC
:102B4000CDB7DEB7AA970FB6F894DEBF0FBECDBFE4
:102B50008FE594E02091F100FC012193CF01F4E096
:102B600087369F07B9F780916004893009F444C023
:102B700018F5823009F4B9C0833009F46EC0813091
:102B800031F580915F04813A11F58091E800877FEB
:102B90008093E8008091630490916404892B41F54F
:102BA00060E28BE394E070E00E94CB058091E80046
:102BB0008B778093E8000BC08B3009F46BC008F46E
:102BC00083C0823409F4A2C0853409F4BCC080916A
:102BD000E80083FF50C280915F04909160049A30B6
:102BE00008F049C2E92FF0E0ED56FE4C0C942F2F6F
:102BF00060E090E080E0D7CF80915F04813239F7C8
:102C00008091630490916404009711F00297F9F6A3
:102C10008091E800877F8093E8008091E80082FF40
:102C200017C09091F3008091F200029729F48091EF
:102C3000F1008B7F813021F48091F10080933A0480
:102C40008091E8008B778093E8000E94BA04BFCFA0
:102C500080915D048111E1CFBACF80915F04813A08
:102C600009F0B5CF8091630490916404892B09F039
:102C7000AECF8091E800877F8093E8008091E800E4
:102C800080FFFCCF809117028093F1008091E800D3
:102C90008E77D9CF80915F04813209F098CF8091EF
:102CA000630490916404892B09F091CF8091E8002E
:102CB000877F8093E8000E94BA048091610480932A
:102CC00017020E94881583CF80915F04813209F03A
:102CD0007ECF8091E800877F8093E8000E94BA044D
:102CE000809162048093390472CF80915F04813AAD
:102CF00009F06DCF8091E800877F8093E800809194
:102D0000E80080FFFCCF80913904BECF80915F0442
:102D1000803C09F05CCF8091630490916404029739
:102D200039F58091610490916204892B09F58091B5
:102D3000E800877F8093E8006BE170E082E197E034
:102D40000E946C0582CF80915F04803C09F03FCFE8
:102D50008091630490916404079751F48091E80096
:102D6000877F8093E80062EB70E080E696E0E8CF32
:102D70008091EB0080628093EB0029CF803899F03E
:102D8000823809F078C1809163048F70873008F031
:102D900072C18093E9008091EB0085FB882780F960
:102DA0001092E90006C080915B0490915C0491113F
:102DB00082609091E800977F9093E8008093F10003
:102DC0001092F1008091E8008E7751C1882309F4B8
:102DD0003FC1823009F04FC180916104811142C12D
:102DE000809163048F702FEF280F263008F043C1C5
:102DF0008093E9002091EB0020FF34C1933031F43F
:102E00008091EB0080628093EB002CC19091EB00ED
:102E100090619093EB0021E030E001C0220F8A9591
:102E2000EAF72093EA001092EA008091EB008860B4
:102E3000EACF811120C1109161041F778091E300D6
:102E40008078812B8093E3008091E800877F8093D6
:102E5000E8000E94BA048091E80080FFFCCF8091D6
:102E6000E30080688093E30082E0111183E08093A7
:102E70005D0401C18058823008F0FDC0809161047A
:102E8000909162048C3D23E09207A1F583E08A8350
:102E90008AE289834FB7F894DE01139620E03EE082
:102EA00051E2E32FF0E050935700E49120FF03C07C
:102EB000E295EF703F5FEF708E2F90E0EA30C0F048
:102EC000C7968D939D932F5F243159F74FBF809103
:102ED000E800877F8093E8006AE270E0CE01019607
:102EE0000E94CB058091E8008B778093E800C3C0F7
:102EF000C096E7CF2091630430916404492F552791
:102F00004330510551F1A0F44130510509F459C045
:102F10006BE670E08EE297E04230510509F0ABC0FD
:102F20002091E800277F2093E8000E946C05DACF0B
:102F30004132510539F14232510591F14F3051057D
:102F400009F099C0E7E0F8E0649170E085E098E06E
:102F50006115710509F48FC0E3CF99278130910580
:102F600071F0009731F0029709F085C0EBEAF7E0C5
:102F700002C0E1E0F8E0649170E0CF01E9CFEFEC4E
:102F8000F7E0F9CF2330310508F075C0220F331F69
:102F9000F901E757FD4F8081918169E070E0C0CF72
:102FA0002330310508F067C0F901EE0FFF1FED5720
:102FB000FD4F8081918120583D4FF901608170E083
:102FC000C7CF62E170E089E997E0AACF803809F0C5
:102FD00052C08091E800877F8093E80080915E0472
:102FE0008093F100EFCE811146C010916104123040
:102FF00008F041C08091E800877F8093E80010933B
:103000005E040E94BA04112311F084E005C080918F
:10301000E30087FDFACF81E080935D0442E061EC3C
:1030200081E00E94D90442E061EC82E00E94D90470
:1030300042E261EC83E00E94D90442E361EC84E067
:103040000E94D90442E360EC85E00E94D90413C0D9
:1030500080916104813079F481E0933009F080E05F
:1030600080935C041092E9008091E800877F809350
:10307000E8000E94BA048091E80083FF0AC08091B2
:10308000E800877F8093E8008091EB008062809366
:10309000EB00AA960FB6F894DEBF0FBECDBFDF914E
:1030A000CF911F9108951F920F920FB60F92112486
:1030B0002F933F934F935F936F937F938F939F9340
:1030C000AF93BF93CF93DF93EF93FF93D091E9003A
:1030D000DF708091EC00C82FC17080FDC0E81092B5
:1030E000E9008091F000877F8093F00078940E943F
:1030F0009D151092E9008091F00088608093F000A7
:10310000CD2BCF70C093E900FF91EF91DF91CF916C
:10311000BF91AF919F918F917F916F915F914F91EF
:103120003F912F910F900FBE0F901F9018958823FD
:1031300079F19CEF980F913A38F4682F80E992E08A
:103140000E9482070C943B0890E2980F983050F44C
:10315000877091E001C0990F8A95EAF7892F0E9444
:103160003408F0CF9BE5980F933020F490E080E096
:103170000C941D0998E5980F973120F490E080E0B9
:103180000C940709803F20F00E9444060C943D15E2
:103190000895CF93DF93EC010E949718CE01805ED3
:1031A000910966EF78E0089710F061EE78E0CE01C3
:1031B000DF91CF910C94A40C8FE39CE90197F1F778
:1031C00000C000008091C602833079F028F481119C
:1031D00007C01092C6020895843051F08530C9F7B7
:1031E0008FE490E00E94C918F4CF8FE494E0FACF06
:1031F0008FE491E1F7CF8FE39CE90197F1F700C0ED
:1032000000008091C402833079F028F4811107C056
:103210001092C4020895843051F08530C9F782E5D8
:1032200090E00E94C918F4CF82E594E0FACF82E5DD
:1032300091E1F7CF8FE39CE90197F1F700C000001F
:103240008091C202833079F028F4811107C0109276
:10325000C2020895843051F08530C9F781E590E0CD
:103260000E94C918F4CF81E594E0FACF81E591E19D
:10327000F7CF8FE39CE90197F1F700C00000809140
:10328000C002833079F028F4811107C01092C00287
:103290000895843051F08530C9F780E590E00E94B0
:1032A000C918F4CF80E594E0FACF80E591E1F7CF3B
:1032B0008FE39CE90197F1F700C000008091BE0206
:1032C000843069F028F4811105C01092BE0208957F
:1032D0008530D9F78CE490E00E94C918F6CF8CE4D1
:1032E00094E0FACF8FE39CE90197F1F700C000006A
:1032F0008091BC02882341F0843010F0853021F4A5
:1033000085E390E00E94C9181092BC0208958FE3F3
:103310009CE90197F1F700C000008091BA02882370
:1033200041F0843010F0853021F48BE290E00E946F
:10333000C9181092BA0208958FE39CE90197F1F73A
:1033400000C000008091B802882341F0843010F062
:10335000853021F489E290E00E94C9181092B802E9
:1033600008958FE39CE90197F1F700C00000809178
:10337000B602843069F028F4811105C01092B602BB
:1033800008958530D9F781E290E00E94C918F6CF00
:1033900081E29BE1FACF8FE39CE90197F1F700C04E
:1033A00000008091B402843069F028F4811105C0D6
:1033B0001092B40208958530D9F78AE290E00E9415
:1033C000C918F6CF8AE294E0FACF8FE39CE901971F
:1033D000F1F700C000008091B202833069F028F458
:1033E000811105C01092B20208958530D9F78CE2A0
:1033F00090E00E94C918F6CF8CE294E0FACFCF9308
:10340000C82F882309F46EC08CEF8C0F813AB8F571
:1034100080911702882311F18091F30387FF1EC06A
:10342000EC2FE695E695E695F0E0E057FD4F8281BA
:1034300090E04C2F477021E030E002C0220F331F94
:103440004A95E2F782239323892B89F06C2F80E938
:1034500092E00E9482070E943B0809C0E2E9F2E084
:103460008191C81799F382E0E839F807C9F76C2F02
:1034700080E992E00E94AC07CF910C943B0880E277
:103480008C0F883068F4C77021E030E001C0220F53
:10349000CA95EAF78091D403822B8093D403ECCFB2
:1034A000EBE5EC0FE33040F4F0E0E15BFD4F8081B1
:1034B00090E0CF910C941D09E8E5EC0FE73150F452
:1034C000F0E0EE0FFF1FEE5AFD4F80819181CF910A
:1034D0000C940709C03F30F08C2F0E940B07CF914E
:1034E0000C943D15CF9108950F931F93CF93DF93C5
:1034F000C62FD42F022FFC0182818823A1F0609374
:1035000069040E9431159093680480936704C77022
:1035100081E001C0880FCA95EAF7DF91CF911F9132
:103520000F910C94FD0880916904681338C0809154
:103530006704909168040E947307883C910578F5B0
:1035400010E21D0FCD17B9F080E28C0F883040F4E7
:10355000C77081E001C0880FCA95EAF70E94F6089B
:10356000183048F481E09D2F977001C0880F9A951C
:10357000EAF70E94FD08802F0E94FF19802F0E9409
:103580009718183098F4D77081E001C0880FDA9549
:10359000EAF7DF91CF911F910F910C94F608C77055
:1035A00081E001C0880FCA95EAF7F3CFDF91CF9190
:1035B0001F910F910895CF93DF93EC01805E9109E5
:1035C0006DEF78E0089710F06CEE78E0CE010E9485
:1035D000A40C8C2FDF91CF910C94FF19CF93DF9324
:1035E000EC010E94DB1ACE01DF91CF910C94C91837
:1035F000CF93DF93EC018881833061F48FE490E016
:103600000E94EE1A8FE490E00E94EE1A8FE490E0A0
:103610000E94EE1A8881843030F08FE490E0DF91D0
:10362000CF910C94EE1ADF91CF910895CF93DF9351
:10363000EC018881833061F482E590E00E94EE1A0B
:1036400082E590E00E94EE1A82E590E00E94EE1A78
:103650008881843030F082E590E0DF91CF910C9446
:10366000EE1ADF91CF910895CF93DF93EC0188811B
:10367000833061F481E590E00E94EE1A81E590E0EC
:103680000E94EE1A81E590E00E94EE1A8881843053
:1036900030F081E590E0DF91CF910C94EE1ADF914C
:1036A000CF910895CF93DF93EC018881833061F44B
:1036B00080E590E00E94EE1A80E590E00E94EE1A0C
:1036C00080E590E00E94EE1A8881843030F080E539
:1036D00090E0DF91CF910C94EE1ADF91CF91089595
:1036E000CF93DF93EC018881833061F48CE490E028
:1036F0000E94EE1A8CE490E00E94EE1A8CE490E0B6
:103700000E94EE1A8881843030F08CE490E0DF91E2
:10371000CF910C94EE1ADF91CF910895CF93DF9360
:10372000EC018881833061F485E390E00E94EE1A19
:1037300085E390E00E94EE1A85E390E00E94EE1A85
:103740008881843030F085E390E0DF91CF910C9454
:10375000EE1ADF91CF910895CF93DF93EC0188812A
:10376000833061F48BE290E00E94EE1A8BE290E0ED
:103770000E94EE1A8BE290E00E94EE1A888184305B
:1037800030F08BE290E0DF91CF910C94EE1ADF9154
:10379000CF910895CF93DF93EC018881833061F45A
:1037A00089E290E00E94EE1A89E290E00E94EE1A0F
:1037B00089E290E00E94EE1A8881843030F089E23C
:1037C00090E0DF91CF910C94EE1ADF91CF910895A4
:1037D000CF93DF93EC018881833061F481E290E044
:1037E0000E94EE1A81E290E00E94EE1A81E290E0DF
:1037F0000E94EE1A8881843030F081E290E0DF91FF
:10380000CF910C94EE1ADF91CF910895CF93DF936F
:10381000EC018881833061F48AE290E00E94EE1A24
:103820008AE290E00E94EE1A8AE290E00E94EE1A8C
:103830008881843030F08AE290E0DF91CF910C945F
:10384000EE1ADF91CF910895CF93DF93EC01888139
:10385000833061F48CE290E00E94EE1A8CE290E0FA
:103860000E94EE1A8CE290E00E94EE1A8881843069
:1038700030F08CE290E0DF91CF910C94EE1ADF9162
:10388000CF9108950E94DB0C8093C602833049F0EB
:1038900018F4811111C00895843039F0853041F059
:1038A00008958FE494E00C94DB1A8FE491E1FBCF50
:1038B0008FE490E00E94EE1A8FE490E0F4CF0E9433
:1038C000DB0C8093C402833049F018F4811111C0DD
:1038D0000895843039F0853041F0089582E594E010
:1038E0000C94DB1A82E591E1FBCF82E590E00E9427
:1038F000EE1A82E590E0F4CF0E94DB0C8093C202C6
:10390000833049F018F4811111C00895843039F0E2
:10391000853041F0089581E594E00C94DB1A81E54F
:1039200091E1FBCF81E590E00E94EE1A81E590E005
:10393000F4CF0E94DB0C8093C002833049F018F46E
:10394000811111C00895843039F0853041F0089517
:1039500080E594E00C94DB1A80E591E1FBCF80E5F3
:1039600090E00E94EE1A80E590E0F4CF0E94DB0C1C
:103970008093BE02833049F018F481110AC0089583
:10398000843051F0853061F008958CE490E00E941D
:10399000DB1A8CE490E002C08CE494E00C94DB1A17
:1039A0008CE490E00E94EE1AF4CF0E94DB0C80932E
:1039B000BC02833039F018F4811108C008958530B5
:1039C00049F0089585E390E00E94DB1A85E390E0DA
:1039D0000C94DB1A85E390E00E94EE1AF7CF0E9468
:1039E000DB0C8093BA02833039F018F4811108C0DF
:1039F0000895853049F008958BE290E00E94DB1A2B
:103A00008BE290E00C94DB1A8BE290E00E94EE1ABD
:103A1000F7CF0E94DB0C8093B802833039F018F4A2
:103A2000811108C00895853049F0089589E290E039
:103A30000E94DB1A89E290E00C94DB1A89E290E0A4
:103A40000E94EE1AF7CF0E94DB0C8093B6028330FF
:103A500049F018F481110AC00895843051F085307E
:103A600061F0089581E290E00E94DB1A81E290E02B
:103A700002C081E29BE10C94DB1A81E290E00E949B
:103A8000EE1AF4CF0E94DB0C8093B402833049F02D
:103A900018F481110AC00895843051F0853061F026
:103AA00008958AE290E00E94DB1A8AE290E002C068
:103AB0008AE294E00C94DB1A8AE290E00E94EE1A0B
:103AC000F4CF0E94DB0C8093B202833039F018F4FB
:103AD00081110CC00895853029F008958CE294E09E
:103AE0000C94DB1A8CE290E00E94EE1A8CE290E0DB
:103AF000F7CF60910F04669570E04BE050E08AE0EC
:103B000091E00E94CB30892B19F481E08093150459
:103B10000E94311590930A048093090408959091AE
:103B20000F0490FF36C09170811129C0926090936C
:103B30000F04662351F060910F047091100480917E
:103B40001104909112040E944C0E60910F0466952E
:103B500070E04BE050E08AE091E00E94CB30892B8E
:103B6000A9F01092150481E080930C0420E04091AC
:103B7000120460911104809110040C9498128B32FD
:103B800010F09465D4CF880F982BD1CF0E94791D67
:103B9000EACF0895EFE0F4E080818160808360E007
:103BA00086950C948F1D61E00C948F1D80910F04FD
:103BB0008695815009F48AE261E00C948F1D809112
:103BC0000F0486958F5F8B3208F081E061E00C94E2
:103BD0008F1D90910F0490FF07C09695981720F0C5
:103BE000961710F40C94DF1D0C94D31DCF92DF9226
:103BF000EF92FF92CF93DF936B017C010E94E1076C
:103C0000D82F0E94000D0E94FD0C0E94FA0C0E9409
:103C1000F70CC0915E03EFEFED0FE73008F064C0E2
:103C2000F0E0E356FE4C0C942F2F0E94090DC111B9
:103C30006BC00E94CA1D60E081E00E948F1D20E0E1
:103C400044EC6CE588E45EC00E94060DC1115CC0C6
:103C50000E94CA1D60E081E00E948F1D20E04CEDB3
:103C60006EE785E94FC00E94030DC1114DC00E944F
:103C7000CA1D60E081E00E948F1D20E04FEF6FEFD2
:103C800089E240C00E94090D0E94060DC1113CC08E
:103C900088E090E00E94E03060930F04709310047D
:103CA000809311049093120460FF37C0862F8160C7
:103CB00080930F0486950E94D31D80910F048695F2
:103CC0000E94D31D21E04091120460911104809163
:103CD000100418C00E94090D0E94030DD7CF0E9446
:103CE000090D0E94060DF8CFD111D0CFC1110CC023
:103CF0000E94CA1D60E081E00E948F1D20E040EE1E
:103D00006AE880E00E949812C701B601DF91CF9166
:103D1000FF90EF90DF90CF9008950E947013F4CF42
:103D2000CF92DF92EF92FF92CF93DF9300D000D03B
:103D3000CDB7DEB70E94F61D6B017C018091350482
:103D4000882321F080913604811115C0C09231047E
:103D5000D0923204E0923304F09234040E94611550
:103D60000F900F900F900F90DF91CF91FF90EF90F9
:103D7000DF90CF900895198282E08A83C701B6014F
:103D80000E94E1078B838EEF8C8364E0CE01019665
:103D90000E942D06DBCF0F931F9341E050E060E0BF
:103DA00070E004C0440F551F661F771F8A95D2F735
:103DB000CB01BA0160957095809590950091310482
:103DC0001091320420913304309134046023712324
:103DD000822393231F910F910C94901E9091D103F5
:103DE000809589238093D103282F277071F4282F81
:103DF000082E000C330B9217130639F08595859524
:103E000085950E94CB1E1092D10308950F931F93A6
:103E100041E050E060E070E004C0440F551F661FB1
:103E2000771F8A95D2F78091310490913204A09146
:103E30003304B09134048A019B01082B192B2A2BDF
:103E40003B2BC901B8011F910F910C94901E4F920A
:103E50005F926F927F928F929F92AF92BF92CF921A
:103E6000DF92EF92FF920F931F93CF93DF9300D0D7
:103E700000D00F92CDB7DEB77C01DC0113968D9197
:103E80009C911497892B41F01C911196DC90812F05
:103E90008D218F3F09F025C60F900F900F900F9046
:103EA0000F90DF91CF911F910F91FF90EF90DF90D6
:103EB000CF90BF90AF909F908F907F906F905F90CA
:103EC0004F9008950E94340C082F682F89819A81A1
:103ED0000E94A908E12FF0E0B6E0DB9EE00DF11DA5
:103EE000112424E5029FE00DF11D1124EE0FFF1FA8
:103EF000E555FC4F05911491D70112968C918111D3
:103F000067C0809135048111A3C00A32BDE51B074B
:103F100009F0BBC0F70182818823C9F18091E103D8
:103F200091E0980F9770887F953008F4892B8093E3
:103F3000E1038091E1038770FFEF8F9FC00111249F
:103F40009595879595958795992790938900809366
:103F5000880090938B0080938A0090938D008093CB
:103F60008C004091E1035091E2036091E303709172
:103F7000E4038FE090E00E94FE3060913104709184
:103F8000320480913304909134040E94F61DC801DC
:103F900097558F3F910509F008F4A0C0043FFCE558
:103FA0001F0709F453C108F03CC1093D3CE5130764
:103FB00009F448C10A3D8CE5180709F453C1083DCE
:103FC0009CE5190709F0D1C026E241EE61EE36C149
:103FD00080910A028F3F09F494CF68E1C62E61E018
:103FE000D62EB12CA12C9924939480910A02082EEC
:103FF000000C990B8A159B050CF483CFF601868182
:104000008823F9F0818592858017910739F4809192
:104010005F03909160038017910799F0D6011F9676
:104020009C921F971C961C930E931B9751968C91F4
:10403000811103C0C6010E943F09C60106960E9475
:104040006009BFEFAB1ABB0AE6E1CE0ED11CCDCFA3
:1040500080913604882309F458CF1982D70112962B
:104060008C91811110C082E18A83D7018C918B835E
:1040700011968C918C838EEF8D8365E0CE01019635
:104080000E942D0642CF81E1EFCF0B322DE51207C2
:1040900061F00C323DE5130709F079CFD701129694
:1040A0008C91882361F081E0D5C1F701828188235A
:1040B00031F080915E0391E0892780935E038091C7
:1040C000D103877009F4E8CED70112968C9188232A
:1040D00009F4E2CE82E00E94EE1EDECE20910A02BA
:1040E000022E000C330B2817390714F480930A02B0
:1040F000D70112962C91129736E1389F5001399FC3
:10410000B00C1124F501E85EFE4F6F01208B129672
:104110009C918681992309F477C0128701878F5F6C
:1041200086830E943115D6011E969C938E931D970F
:104130008091D50317968C9317978091D303909114
:10414000D403892B18968C931897ED91FC911197B5
:10415000309739F054966D917C91C501825E9E4FE7
:1041600009951093600300935F03D70112969C9109
:10417000992309F4C8C4109269040230BCE51B07F6
:1041800008F446C10631ECE51E0738F098012B5FB4
:104190003C452730310508F03BC10E943E0E90930C
:1041A000F4038093F3030F30FCE51F0709F411C1FA
:1041B00008F092C008303CE5130709F4F4C008F099
:1041C00065C004309CE5190709F4E1C008F04DC052
:1041D0000230BCE51B0709F4D6C08091F30382606E
:1041E00003301C4509F464C06091F3031091F4039B
:1041F00084E090E00E94EC30612F81E290E00E9428
:10420000EC300E9488155BCF882309F4AECF8189FA
:10421000882309F4AACFC501825E9E4F0E946009DF
:10422000A4CF063FACE51A07C9F0A0F027E245EE9F
:1042300066EE073FECE51E0709F097CFC7010E9425
:10424000741A3DCF27E245EE65EEF8CF26E241EE47
:1042500060EEF4CF27E245EE64EEF0CF26E241EEC9
:1042600062EEECCF28E241E0EFCF8091F303806172
:104270000630FCE51F07E1F08091F303886007300A
:104280001C45B0F08091F303806212C00B303CE516
:10429000130709F496C078F409309CE5190709F46E
:1042A00086C08091F3038C600A301C4509F09CCFD6
:1042B0008093F30399CF8091F3038B7F0D30BCE59E
:1042C0001B07B1F38091F3038D7F0E301C4580F303
:1042D0008091F303877FECCF0B3FFCE51F0709F4C8
:1042E0005AC048F502313CE5130709F47AC060F47E
:1042F00000319CE5190709F470C08091F3038F7BAE
:1043000001311C45A9F270CF0431BCE51B0709F44B
:1043100076C008F46CC005311C4509F065CF80916A
:10432000F30382FB992790F921E0922790FB82F911
:1043300090FB83F9BDCF0E3F2CE5120709F445C071
:1043400070F40C3F8CE5180751F18091F4038E7FD7
:104350000D3F1C4509F048CF8093F40345CF01156C
:10436000ADE51A0709F447C040F101301D4509F0D9
:104370003BCF8091F403982F909591708E7F892B7D
:1043800090FB81F9E9CF8091F303816091CF809117
:10439000F30384608DCF8091F4038160DDCF809141
:1043A000F4038260D9CF8091F303806481CF0E94AF
:1043B00088158091F30380687BCF8091F40383603C
:1043C000CBCF8091F3038E7F73CF8091F4038D7FE9
:1043D000C3CF8091F3038F7E6BCF8091F3038F7DEA
:1043E00067CF0E9488158091F3038F7761CF80910A
:1043F000F303837F5DCF8091F4038C7FADCF0E9468
:1044000088159091F303892F97FB87F9805850CF37
:104410008091D4030631FCE51F0709F082C38A7A34
:1044200091E009F490E09093610369E2811165E302
:1044300080E992E00E94AC070E943B0840CE809148
:104440000F0480FF03C00E94701339CE81608093F7
:104450000F0486950E94D31D32CE46ED5DE16FEDCF
:104460007DE10E94AA092BCE4FED5DE166ED7DE175
:10447000F8CF4EE553E167E673E1F3CF47E653E14A
:104480006EE573E1EECF46E453E162E573E1E9CF17
:1044900042E553E166E473E1E4CF4EE253E16AE3BF
:1044A00073E1DFCF4AE353E16EE273E1DACF4EE529
:1044B0005EE06FE67EE0D5CF4FE65EE06EE57EE043
:1044C000D0CF65E082E00E94E91DF9CD68E086E08A
:1044D000FACF6EE089E0F7CF64E18FE0F4CF67E1D7
:1044E00085E1F1CF88E1B6CF62E289E1ECCF83E2EA
:1044F000B1CF0F3D2CE5120709F446C009303DE568
:10450000130709F444C001151C4509F047C00E9477
:1045100088159FEFA4E3BCE09150A040B040E1F7C4
:1045200000C00000F89481E08093E00080E2809376
:10453000D8001092C900EFE1FEE43197F1F700C016
:1045400000001DBA109268001CBC10BE1FBA109269
:104550007A0010926E0010926F001092710010920B
:1045600072001092C9001092BC0014B817B81AB8A3
:104570001DB810BA1092BC0015B818B81BB81EB8F8
:1045800011BA0C94003F9BCD0E948F0E98CD809164
:10459000370491E089278093370491CDF70100819A
:1045A0001181992309F440C0C8010E94340CD82E0F
:1045B000682FC8010E94A908B8018D2D0E94980A91
:1045C0008C01882ED7011596AC901597A2944FE0D8
:1045D000A4221296DC90D1101092D3038091D103C3
:1045E000877099F0DD2089F0812F807F803421F061
:1045F00080E2800F883048F082E00E94EE1E8091B9
:10460000D1038770CC24C3948111C12CB12EB294F4
:104610003FE0B322BBE0BB1508F43DC0EB2DF0E05A
:10462000EC55FE4C0C942F2FC8010E948008D82E08
:10463000C3CFE12FEF70AE2E107F19F0A29420EFC0
:10464000A222DD20C9F0AA2069F080E2800F883024
:1046500010F081100BC08091D403A82AA092D4033B
:104660000E943B08802F0E94FF1915C08091D30340
:10467000A82AA092D303F4CF802F0E949718AA20D3
:1046800051F0005E083010F0811043C08A2D0E9466
:1046900034080E943B08AB2DA850BB0B149710F4B4
:1046A0000E943309CC20A9F08091D10380FD11C074
:1046B000F70112828595859585950E94061FC70191
:1046C0000E94271F8091D1038595859585950E942D
:1046D000CB1E85E0F701DE01119601900D928A95BF
:1046E000E1F789819A810E9480089A81E981F0E04E
:1046F00026E0929FE00DF11D112434E5839FE00D2B
:10470000F11D1124EE0FFF1FE555FC4F859194918B
:10471000C3CBA0948091D303A822A092D303B9CF96
:10472000F12FFF709F2E107F103219F0929490EFAE
:104730009922882041F021E0821631F1DD2079F1C3
:10474000AA2041F18FCFDD2091F09091D503892DE2
:10475000892BA11003C00E94FD089DCF31E0A31258
:10476000FACF981709F497CF8093D50394CFA1106F
:1047700006C00E942E08892D0E94F6088CCF81E089
:10478000A81609F488CFF5CFDD2031F091E09A1515
:1047900008F481CF892DDFCFA1107DCFECCFAA20E7
:1047A00051F3A9E38A1209C0BFEFE7EEF3E0B1507D
:1047B000E040F040E1F700C00000802F0E94971811
:1047C0006ACF812F86958695837061F0813009F0DC
:1047D00062CFC8019370D11002C090E080E00E94C7
:1047E000070959CFC8019370D11002C090E080E052
:1047F0000E941D0950CF802FDD2029F00E940B0759
:104800000E943D1548CF0E944406FACF812F837045
:1048100009F066C0D1103FCF802F829586958770B2
:10482000880F880F602F6F70462E512C712C612CD1
:10483000082E04C0440C551C661C771C0A94D2F741
:1048400040E050E0BA0104FF0FC04FE050E060E0EC
:1048500070E004C0440F551F661F771F8A95D2F77A
:104860004095509560957095812F869586958370BB
:10487000823019F1D8F40091D6031091D70320911A
:10488000D8033091D903813069F04429552966292C
:104890007729CB01BA0160237123822393230E94DD
:1048A0007E15F9CE402A512A622A732ACB01BA0119
:1048B0006429752986299729F2CF44295529662923
:1048C00077290091D6031091D7032091D803309116
:1048D000D903CB01BA016027712782279327DFCF45
:1048E0008695DD2011F0812F8170882309F4D3CEC5
:1048F000802F829586958770880F880F602F6F7044
:10490000462E512C712C612C082E04C0440C551CD1
:10491000661C771C0A94D2F740E050E0BA0104FF0D
:104920000FC04FE050E060E070E004C0440F551F3E
:10493000661F771F8A95D2F74095509560957095C0
:10494000812F869586958370823019F1D8F4009175
:1049500031041091320420913304309134048130B9
:1049600069F04429552966297729CB01BA016023CA
:104970007123822393230E94901E8DCE402A512AB8
:10498000622A732ACB01BA016429752986299729DD
:10499000F2CF4429552966297729009131041091D5
:1049A00032042091330430913404CB01BA016027E2
:1049B000712782279327DFCF1F70DD2029F0812FF9
:1049C0000E94061F802FC7CE802F0E94F608812FDD
:1049D0000E94CB1E60CE802F22EF821609F44EC0BB
:1049E000281578F030EF831619F191EF891609F444
:1049F0003DC0DD2009F465C0A11034CE812F8F7138
:104A00003AC0A3EF8A1609F43EC0B4EF8B12F1CF7F
:104A1000DD2009F44BC01F71812F0E94061FF8E0B2
:104A20001F9FC001112483608093D103812F23C075
:104A3000DD20B9F0A1102FCE1F7161E070E080E0A1
:104A400090E004C0660F771F881F991F1A95D2F750
:104A500000913104109132042091330430913404D8
:104A6000A6CFE1E0EA1508F416CEE6CF812F8F71CC
:104A7000DD2009F4ADCF0E94061F0DCE812F8F716E
:104A8000DD20C9F3A5CF60E070E0CB01DD2009F4A3
:104A900072CF1F7161E070E080E090E004C0660FAB
:104AA000771F881F991F1A95D2F765CF81E00E9462
:104AB000EE1E21E02A1508F0EECD82E00E94EE1EE7
:104AC000EACDAA2059F0893309F077CE3FEF87EE7F
:104AD00093E0315080409040E1F76DCE812F8F718F
:104AE00077CF85E0F701DE01119601900D928A954E
:104AF000E1F7F701228189819A812111E3C90E949E
:104B00008008082FE7C906311C4509F047CD809180
:104B1000610369E2811165E380E992E00E94820706
:104B20008BCC8272F801E35CFC45E431F10508F0BE
:104B3000E0CCE055FE4C0C942F2F1F93CF93DF93C6
:104B400080916703807FA9F480916403882389F0B2
:104B500080919903D091680360916203709163031F
:104B6000A0916503B0916603C62FC72316E0D81342
:104B700004C0DF91CF911F91089590E0109711F03C
:104B8000CF3F19F401968770F2CF189F9001199FBB
:104B9000300D1124F901E759FC4F41814713F2CF41
:104BA00040814613EFCF42814111ECCF43815481C4
:104BB0004A1B5B0B483C510528F7809167038F70B7
:104BC000806180936703F901E259FC4F80818F7007
:104BD0008061808382E693E00E94271FDF91CF915E
:104BE0001F910C94D708AF92BF92CF92DF92EF92B1
:104BF000FF920F931F93CF93DF93CDB7DEB76197EB
:104C00000FB6F894DEBF0FBECDBF8C0185E0F80172
:104C1000DE011D9601900D928A95E1F7F8018081E1
:104C20009181E28022E6A22E23E0B22E60916503FC
:104C3000709166036115710509F43EC130916203FC
:104C400040916303232F24232F3F09F435C1C380F0
:104C5000D480F0906403F601E61BF70BFF2009F403
:104C6000FBC020916703522F507FE83CF10508F00C
:104C7000BBC0511178C0FE2C491321C038131FC08E
:104C8000E1101DC02F70206120936703C5010E94B1
:104C9000271F80916703F80185838F2D61960FB6DA
:104CA000F894DEBF0FBECDBFDF91CF911F910F9162
:104CB000FF90EF90DF90CF90BF90AF900895CD28F8
:104CC00029F0282F29232F3F09F014C120E0F22FCB
:104CD000F170DF2E20FF3DC02091990340916803C1
:104CE00056E0241315C08D879E878D859E850E9472
:104CF000760C292F22952F702230F8F0243020F5E1
:104D00009F70F9F0F8019581907FD9F4D12C1FC0E4
:104D100030E0529FF001539FF00D1124E759FC4FF2
:104D20006181961306C06081861303C06281E6121A
:104D300010C02F5F3F4F2770D4CF9F7011F0882392
:104D400029F3805E883010F3C8010E94271FFD2CD4
:104D5000A4CFEE2009F4A1CF8091670381608093F6
:104D60006703F12C9ACF491312C0381310C0E11019
:104D70000EC0F8012583C8010E94271F86E0F801B4
:104D8000A2E6B3E001900D928A95E1F786CF8D8778
:104D90009E878D859E850E94800C882309F1EE20D8
:104DA000F9F080916703803270F0209162033091B6
:104DB000630338872F831986DB86CA868C87CE01EA
:104DC00007960E94271F86E0F801A2E6B3E0019053
:104DD0000D928A95E1F70E949D25FF24F3945DCF03
:104DE000C8010E94271FF9CF51110AC082E693E043
:104DF0000E94271F86E0F50111928A95E9F7B1CF4D
:104E000049130FC038130DC0E1100BC0F801258302
:104E1000C8010E94271F86E0F50111928A95E9F7E3
:104E20003CCF8D879E878D859E850E94800C882330
:104E3000B9F2EE20A9F280916703803220F220912E
:104E40006203309163033A8329831B82DD82CC8223
:104E50008E83CE010196B5CFE83CF105E0F6FE2C3D
:104E6000EE2009F4BDCF491316C0381314C0809149
:104E7000670380FD83CF982F907F09F47FCFF801DF
:104E80008583903F09F477CF982F907F905F8F7044
:104E9000892B858370CF8D879E878D859E850E9407
:104EA000800C811190CF80916703816080936703AC
:104EB000C8010E94271FF1CEEE2009F491CF8D8703
:104EC0009E878D859E850E94800CF82E882309F48C
:104ED00087CF86E0F801A2E6B3E001900D928A95B3
:104EE000E1F780916203909163030E94760C0E9427
:104EF0009D25D3CE21E02E25EACE1F93CF93DF93BD
:104F0000CDB7DEB767970FB6F894DEBF0FBECDBF43
:104F10004B8B5C8B6D8B7E8B8F8B1A8A198A85E00D
:104F2000FE017396DE011D9601900D928A95E1F7C0
:104F300086E0FE013D96DE01179601900D928A955E
:104F4000E1F7CE0107960E94F325811112C086E099
:104F5000FE013796DE01119601900D928A95E1F7D8
:104F60008A859B85892B29F08F81988589238F3F9E
:104F7000B1F516E0809199039091680389131DC0E3
:104F800067960FB6F894DEBF0FBECDBFDF91CF910D
:104F90001F91089596E0929FD001939FB00D112428
:104FA000A759BC4FFE01319601900D929A95E1F7F9
:104FB000809368030E94D708DCCF819FC001112431
:104FC00087599C4F0E94F3258823D1F28091990341
:104FD00090E001968770992780939903CBCF209119
:104FE000680330E0C90101968770992740919903C1
:104FF0004817190679F60E948815109268031092D6
:10500000990386E0E2E6F3E0DF011D928A95E9F775
:10501000B0CF8F929F92BF92CF92DF92EF92FF928A
:105020000F931F93CF93DF9380910B0290910C020B
:10503000892B91F08091C7028F5F8093C702811105
:105040000BC00E94881390E090930C0280930B0297
:10505000892B11F40E94C40DE5EE8E2EE3E09E2E06
:10506000740110E000E077E0C72EC00E802F0E9490
:105070000A0F8C2D0E940A0F802F0E94FF13E70158
:1050800099917E01D12C891729F0FE0131978083F7
:10509000DD24D3948C2D0E94FF13F701968189178C
:1050A00009F47AC0868381E08D29182B0E940C0DAB
:1050B0000F5F0730C1F60E9431156091C9027091EF
:1050C000CA029093CA028093C9022091C80230E0BC
:1050D000261B370B820F931F6BEF70E00E94072F88
:1050E000E82E392F082F8093C802F090CC02FF20C1
:1050F00009F4E4C01092CC02E091DF03F091E003E8
:10510000AF01425F5F4F20E06BEFB62E6BEF70E0B8
:10511000A191AB3F99F0CA2ED12C8E2D932F0A1757
:10512000E8F18C199D09092E000CAA0BBB0B4E97B8
:10513000A105B105C8F1DF011197BC924E175F07B9
:1051400039F72093CC02111102C02111B9C010927D
:10515000CB02A091DF03B091E0039091CC02EBEF82
:10516000F3E080E03191E40129914E01321751F0D2
:105170003C913B3FD9F40C93AF0141505109EA01F6
:10518000288391E01196D4E0E930FD0759F7909318
:10519000CC028093CB0298C080E086CFDB01AC19B3
:1051A000BD098A0F9B1FBFCF2F2DC8CF81E0EACF4B
:1051B000F29EF001F39EF00D1124E85EFE4FC288CE
:1051C000D388C114D10419F498ECC92ED12CF29EC5
:1051D000E001F39ED00D1124C85EDE4F8E8188233E
:1051E000B9F08D859E850E947307C816D90680F494
:1051F0000F9D600111248989811105C0C601885E57
:105200009E4F0E943F09C601825E9E4F0E94600928
:105210000F5F202F30E080910A02082E000C990BBE
:10522000821793072CF655C000E086E1F82EF1CFE7
:10523000009789F40E94FD0C0E94FA0C0E94F70C62
:10524000C091CD02CC23B9F10E94FA0C81E0C827AD
:10525000C093CD0203C09170892B91F38091CE024F
:105260009091CF028130984780F01092370460917E
:1052700031047091320480913304909134040E947F
:10528000F61D1092CF021092CE028091CE02909124
:10529000CF0201969093CF028093CE02812FDF91AF
:1052A000CF911F910F91FF90EF90DF90CF90BF9023
:1052B0009F908F9008950E94060DC8CF111147CF7F
:1052C0008091CB02811143CF80910A028F3F09F078
:1052D000ABCF8091CE029091CF0220913704211163
:1052E000A7CF892BD9F21092CF021092CE026091F3
:1052F00031047091320480913304909134040E94FF
:10530000F61DCCCFCDB7DEB7C955D1090FB6F8948D
:10531000DEBF0FBECDBF84B7877F84BF0FB6F894C2
:10532000A895809160008861809360001092600071
:105330000FBE80E890E00FB6F894809361009093E0
:1053400061000FBE85B7806885BF85B7806885BF5F
:105350000E943E040E940B058091E20084608093CD
:10536000E200789480915D048823A1F01091E90017
:105370001F709091EC00892F817090FD80E8182BB0
:105380001092E9008091E80083FD0E949D151F7036
:105390001093E90082E084BD93E095BD9AEF97BD3C
:1053A00080936E000E94881390E090930C0280938B
:1053B0000B020E940C0D0E941B0DE5EEF3E02BEF9B
:1053C000622E23E0722ED30111921D9223E0E33F5F
:1053D000F207D1F78EE090E00E94A02F8093DF03C8
:1053E0009093E003FC010E962BEF21938E179F07FD
:1053F000E1F790E080E00E94E6308F3E9E4F11F092
:105400000E948F0E89EA8093800089E0809381005A
:1054100024982C983F988AB18F7C8AB96E98479AC5
:105420008BB180638BB9769A8FE090E00E94E03078
:105430006093E1037093E2038093E3039093E403AA
:1054400067708FEF689FB00111247595679575950A
:1054500067957727709389006093880070938B001D
:1054600060938A0070938D0060938C000E94C40D3D
:1054700090E080E00E94E6308F3E9E4F11F00E9447
:105480008F0E82E090E00E94D830809322040E9428
:105490003E0E9093F4038093F30383E090E00E9428
:1054A000D830682F70E090E080E00E947E15609117
:1054B00031047091320480913304909134040E943D
:1054C000F61D8091F503811136C090E080E00E94C6
:1054D000E6308F3E9E4F21F00E948F0E0E94800E7C
:1054E00088E090E00E94E03060930F047093100415
:1054F00080931104909312046E7F71F40E94800EC9
:1055000088E090E00E94E03060930F0470931004F4
:1055100080931104909312040E94AF091092150415
:1055200080910F0480FF04C060E086950E948F1D6B
:1055300081E08093F5036091310470913204809191
:105540003304909134040E94F61D8DE092E0909314
:10555000F7038093F60318E1C12ED12C09E0A02EA9
:1055600004E0B02E81E4882E912C8C0E9D1E22E04A
:10557000820E911C80915D048530D9F4A0E4FA2E4E
:10558000BEE0EB2EE60C5524539400E112E180912D
:105590005D04853009F4A1C10E9488150E94330979
:1055A0001092FA038091F90381110E94CA1D0E9492
:1055B000791D0E940928E3E2F4E0ABEFB3E010E0CC
:1055C00000E0302F8D912191281709F4EDC190E072
:1055D000FF24F3942827422F4F2109F4E0C161965C
:1055E0009FAF619762963FAF62978F2191E009F478
:1055F00090E063969FAF63970E9431158160782F8A
:1056000065969FAF8EAF659761964FAD6197629635
:105610005FAD629763966FAD639765968FAD659743
:105620000E947D27F801ED5DFB4F8081F826F08216
:1056300080911504882309F441C080911404E091FD
:105640000F04E695E81BE0930B04823009F0D3C108
:10565000F0E0E45AF94FE4910E2F10E0F4E7EF2E5A
:10566000F2E1FF2E80910C04882389F010920C0443
:105670000E943115980120953095820F931F9093C9
:105680000A048093090410920E0410920D04809174
:10569000090490910A040E9473078017910770F023
:1056A000E0910904F0910A040E0F1F1F10930A04E1
:1056B0000093090489E094E0F701099585E0ECE1A5
:1056C000F4E0DE01119601900D928A95E1F7F090D9
:1056D0001D04E0901E0410911F04009120041092FC
:1056E0001D0410921E0410921F04109220048F2D8E
:1056F0008E2909F448C080911A0490911B040E94DD
:1057000073079C0190911904992309F482C22531F1
:105710003105C8F19F3F19F09F5F90931904FF2056
:1057200059F00E94E7069FEF1F140CF491E0899F47
:10573000802D112480931D04EE2059F00E94E7066D
:105740009FEF1E140CF491E0899F802D112480930B
:105750001E0430911D043323B1F020911E04222336
:1057600091F045EB3403C0011124992309F4AFC132
:1057700090931D0445EB240390011124332309F475
:10578000AAC130931E04812F802B09F448C0809158
:105790001704909118040E9473079C0190911604BD
:1057A000992309F431C225313105C8F19F3F19F021
:1057B0009F5F90931604112359F00E94C7069FEF34
:1057C00011160CF491E0899F802D112480931F0401
:1057D000002359F00E94C7069FEF10160CF491E0C9
:1057E000899F802D11248093200430911F0433233E
:1057F000B1F020912004222391F045EB3403C00145
:105800001124992309F46BC190931F0445EB2403E1
:1058100090011124332309F466C130932004809150
:105820001D0490911E04892B90911F04892B909147
:105830002004892B11F00E943D1585E0FE01319670
:10584000ACE1B4E001900D928A95E1F70E94330932
:1058500090912104891721F00E943309809321043B
:1058600080915D04843009F085CE85E08093E90065
:105870008091E80082FF7ECE8091E80090E085FF75
:1058800006C00E945D04882309F431C191E0809133
:10589000E8008B778093E800992309F46BCE198197
:1058A000111141C180913704882309F457C1109226
:1058B000370481E08093360422961FAE2297239608
:1058C0001FAE23978EEF24968FAF249763E0CE010F
:1058D0008F5B9F4F0E942D064DCE80915D048430DA
:1058E00009F43DC01092F8030FB6F894A895C09241
:1058F00060000FBEF0926000109215048091FA03D0
:10590000811116C05092FA0380910F04982F917064
:105910009093F9038E7F80930F044FEF80E792E01E
:10592000415080409040E1F700C000000E945E0FAF
:1059300083B7817F846083BF83B7816083BF78949E
:10594000889583B78E7F83BF0FB6F894A895809112
:105950006000886180936000109260000FBE8091AB
:105960005C04882309F413CE0E94881390E090937E
:105970000C0280930B020E940C0D0E941B0DEBEF9A
:10598000F3E01192AE16BF06E1F70E940928EBEF93
:10599000F3E08191811122C1EE12FBCFF8CD9F5F20
:1059A000FF0C963009F017CE0F5F1F4F0E30110518
:1059B00009F007CE8FEF66968FAF669767968FAF29
:1059C000679768961FAE68970E9431158160782F9F
:1059D0006A969FAF8EAF6A9766964FAD6697679649
:1059E0005FAD679768966FAD68976A968FAD6A9757
:1059F0000E947D271DCE863059F4F0E0E75AF94F1A
:105A0000E4910E2F10E0E8E8EE2EE2E1FE2E2ACE21
:105A1000893061F4E695F0E0EA5AF94FE4910E2FEF
:105A200010E07CE5E72E70E1F72E1CCE8F3061F49C
:105A3000E695F0E0ED5AF94FE4910E2F10E066E89C
:105A4000E62E60E1F62E0ECE853159F4F0E0E05BF3
:105A5000F94FE4910E2F10E055EFE52E50E1F52EB1
:105A600001CE08E210E025E4E22E21E1F22E883199
:105A700009F4F8CD833249F4EEE4F6E0059114918F
:105A800049E1E42E42E1F42EEDCD04EF11E09EEC6D
:105A9000E92E91E1F92E843209F4E4CD853281F4C6
:105AA0008E2F63E00E94ED2EE92FF0E0E55BF94FC9
:105AB000E4910E2F10E033EDE32E3FE0F32ED2CD34
:105AC00000ED17E089E2E82E86E0F82ECBCD81E0EC
:105AD00080931D044FCE81E080931E0454CE81E05C
