:100000000C9477040C9494040C9494040C9494042D
:100010000C9494040C9494040C9494040C94940400
:100020000C9494040C9494040C94B8130C94D51769
:100030000C94C0290C9494040C9494040C9494048F
:100040000C9494040C9494040C9494040C949404D0
:100050000C9494040C948F140C9494040C949404B5
:100060000C9494040C9494040C9494040C949404B0
:100070000C9494040C9494040C9494040C949404A0
:100080000C9494040C9494040C9494040C94940490
:100090000C9494040C9494040C9494040C94940480
:1000A0000C9494040C9494040C9494040501098019
:1000B000A101850319012AB700150126B700950192
:1000C00075108100C0050C0901A101850419012AE0
:1000D000A002150126A002950175108100C005013E
:1000E0000906A1018505050719E029E71500250185
:1000F0009508750181020507190029EF15002501F2
:1001000095F075018102050819012905950575010C
:100110009102950175039101C005010902A1010930
:1001200001A100050919012905150025019505758D
:10013000018102950175038101050109300931151D
:1001400081257F95027508810609381581257F95DF
:100150000175088106050C0A38021581257F950175
:1001600075088106C0C005010906A101050719E04F
:1001700029E715002501950875018102950175088B
:1001800081010507190029FF150026FF0095067556
:100190000881000508190129059505750191029549
:1001A0000175039101C0000101010101010101017B
:1001B0000202020202020202020303030303030318
:1001C00003040404040404040505050505060606E5
:1001D0000606070707070708080808090909090AA2
:1001E0000A0A0B0B0B0C0C0C0D0D0D0E0E0E0F0F47
:1001F0000F101011111112121313141415151616D5
:100200001717181819191A1A1B1B1C1D1D1E1E1F43
:100210002020212222232424252626272829292A92
:100220002B2C2D2D2E2F30313232333435363738BA
:10023000393A3B3C3D3E3F404142434445464748B6
:10024000494A4C4D4E4F50515354555658595A5B8C
:100250005D5E5F616264656668696B6C6D6F70722C
:10026000737577787A7B7D7E8082838587888A8C98
:100270008E8F91939596989A9C9EA0A2A3A5A7A9CC
:10028000ABADAFB1B3B5B7BABCBEC0C2C4C6C9CBC3
:10029000CDCFD1D4D6D8DBDDDFE2E4E7E9EBEEF079
:1002A000F3F5F8FAFDFFFFAA7F5540222325262803
:1002B000292A2C2D2F3032333536383A3B3D3E40FB
:1002C00042434547494A4C4E5051535557595A5C41
:1002D0005E6062646668696B6D6F71737577797B58
:1002E0007D7F81838587898A8C8E90929496989A57
:1002F0009C9E9FA1A3A5A7A8AAACAEAFB1B3B4B66C
:10030000B8B9BBBCBEBFC1C2C3C5C6C7C9CACBCCC6
:10031000CDCED0D1D2D2D3D4D5D6D7D7D8D9D9DA99
:10032000DADBDBDBDCDCDCDCDCDDDDDDDDDCDCDC0E
:10033000DCDCDBDBDBDADAD9D9D8D7D7D6D5D4D336
:10034000D2D2D1D0CECDCCCBCAC9C7C6C5C3C2C10B
:10035000BFBEBCBBB9B8B6B4B3B1AFAEACAAA8A768
:10036000A5A3A19F9E9C9A98969492908E8C8A8920
:10037000878583817F7D7B79777573716F6D6B69FD
:1003800068666462605E5C5A5957555351504E4CD2
:100390004A4947454342403E3D3B3A383635333281
:1003A000302F2D2C2A29282625232200000000008A
:1003B0000000000000000000000000000000007EBF
:1003C0000F00D4FFFFFFC70000007800000000000E
:1003D0000000002A2B2800000000000000000000A0
:1003E00000000000000029000000002C1E34202125
:1003F0002224342627252E362D3738271E1F20216C
:1004000022232425263333362E37381F04050607CA
:1004100008090A0B0C0D0E0F1011121314151617E4
:1004200018191A1B1C1D2F3130232D350405060702
:1004300008090A0B0C0D0E0F1011121314151617C4
:1004400018191A1B1C1D2F3130354C0102E3010213
:10045000E10101210103E10103E300000029002B78
:1004600000E100000F00000100140007001D00E083
:1004700000010001001A0016001B00E20028000322
:1004800053080004000600E3002C00045315000983
:1004900000190001510100010017000A00050000C9
:1004A0000001000100000000000000000001000148
:1004B000000000000000000000010001001C000B13
:1004C00000110000000100010018003300100002BC
:1004D00051010001000C000E00360003512A0001FA
:1004E0000012000F003700095D2800010013000D05
:1004F000003800005C0100000029003400E5001411
:100500005C00000100010001000100010000003A50
:100510000035001E001E02010001003B002D021FDD
:10052000001F02010001003C002D002000200201FC
:100530000001003D00260221002102010001003ED1
:10054000002F002200220200000100320001000002
:1005500000010000000100640044000000450000AC
:100560000001003F00300023002302000001004092
:10057000002702240024020100010041002E002572
:100580000025020100010042002E02260035020172
:100590000001004300310027003102010001000189
:1005A000004C0001000100010000000100010001F9
:1005B0000001000100000001000100010001000134
:1005C0000001000100F400F200010001000100013F
:1005D00000F000F100F600010001000100F500F359
:1005E0000001000100010001000100010001000004
:1005F00000010001000100000001000000010001F5
:1006000000010000000100000001000100305D2831
:1006100000A8000000010049004A005000AA0001A3
:100620000001004C004E005100A900010001000132
:10063000004B005200AC000100010001004D004FD2
:1006400000AB0001000100010001000100010001F8
:100650000000000100010001000100010000000194
:100660000001000100010001002F5D0100010001F7
:100670000001000100CA5C0100010001000100014D
:10068000000100010001000100010001002E5D01D8
:10069000000100010001000000C45C010001000035
:1006A00000010000002D5D010001000000010000BC
:1006B00000C35C010001000100620000002C5D012C
:1006C000005F005C00590001000100010060005D56
:1006D000005A000100C65C010061005E005B000181
:1006E00000C75C01000100010001000100010001E0
:1006F000000100010001000100000032190A00049D
:100700007F3F1F643214643214783C1E1E140A05A5
:100710000A00000000000306B2000800010000000B
:10072000A800080002000300A000140003005749BD
:100730004E555342000000000000000000008400FD
:10074000040007002A004400650076006900630089
:10075000650049006E00740065007200660061006B
:100760006300650047005500490044007300000025
:1007700050007B0039004400420037004600310041
:10078000460044002D0037004500370041002D0091
:1007900034003000300038002D00390033003600BE
:1007A00042002D0036004200410036004300310077
:1007B0003900410033003000380063007D00000044
:1007C00000001B0301636F6E6669677572652E65B5
:1007D00072676F646F782D657A2E636F6D00090202
:1007E0006B00040100A0FA090400000103010100EC
:1007F0000921110100012240000705810308000AB8
:100800000904010001030102000921110100012274
:100810004D000705820308000A09040200010300D5
:100820000000092111010001226D0007058303204A
:10083000000A0904030002FF0000000705840340CA
:100840000005070505034000051201100200000025
:100850000897327549010001020001220345007228
:100860000067006F0044006F007800200045005AC8
:100870000020005300680069006E00650000003031
:10088000035A0053004100200054006500630068D3
:10089000006E006F006C006F006700790020004C54
:1008A00000610062007300200049006E00630000D8
:1008B0000004030904050F3900021C100500DF6065
:1008C000DDD88945C74C9CD2659D9E648A9F0000F7
:1008D0000306B20045001810050038B60834A9090F
:1008E000A0478BFDA0768815B66500014200112453
:1008F0001FBECFEFDAE0DEBFCDBF23E0ACE9B1E051
:1009000001C01D92A236B207E1F711E0A0E0B1E00C
:10091000EEEEFAE502C005900D92AC39B107D9F7B9
:100920000E9435250C94362D0C940000E8EDF0E083
:1009300080818E7F80831092E2001092DA00109204
:10094000E100A0EEB0E08C9181608C9380818F7784
:10095000808319BCA7EDB0E08C918E7F8C93808151
:100960008F7E808310922C0308952091E4003091B3
:10097000E50095E6A9012091EC00822F817020FF0F
:1009800006C08091E80080FF06C080E008952091B5
:10099000E80022FD1AC080915103882389F0853038
:1009A00089F08091EB0085FD0FC02091E40030912B
:1009B000E50042175307F9F29150E1F684E00895FB
:1009C00082E0089583E0089581E00895EF92FF9218
:1009D0000F931F93CF937C018B010E94B504C82F06
:1009E000882371F08C2FCF911F910F91FF90EF9082
:1009F0000895F70181917F018093F1000150110961
:100A00000115110579F38091E80085FDF2CF809101
:100A1000E8008E778093E8000E94B504882381F374
:100A2000C82FE0CF8091530387FF13C08091E80067
:100A300082FF06C08091E8008B778093E80004C0B5
:100A4000809151038111F2CF089580915103882341
:100A5000D9F38091E80080FFF8CF8091E8008E778D
:100A6000ECCF982F9093E900242F762F50E0891730
:100A700031F07091EC002091ED005091F00021FDDB
:100A800007C09F5F973071F78093E90081E0089578
:100A90003091EB003E7F3093EB003091ED003D7FD5
:100AA0003093ED003091EB0031603093EB007093A8
:100AB000EC002093ED005093F0002091EE0027FD14
:100AC000E0CF80E00895CF92DF92EF92FF920F93F4
:100AD0001F93CF93DF93C8EDD0E088818F7E88830A
:100AE000E7EDF0E080818160808384E082BF81E077
:100AF00080932C0388818E7F888302EE10E0F801BA
:100B000010821092DA0081EEC82ED12CF6011082EC
:100B100088818F77888388818068888388818F7DAA
:100B2000888319BC10925103109252031092500303
:100B300010924F0390EEE92EF12CF70180818B7F0C
:100B4000808388818160888342E060E080E00E9449
:100B50003105F60180818E7F8083F801808181607C
:100B60008083808188608083F70180818E7F80838D
:100B7000888180618883DF91CF911F910F91FF90D1
:100B8000EF90DF90CF900895FC01809159039091F0
:100B90005A0386179707A0F06115710529F4809113
:100BA000E8008E778093E80090E06115710551F4BC
:100BB000911108C08091E80082FF35C080E008955F
:100BC000BC01F2CF809151038823C9F18530C9F16E
:100BD0008091E80083FD31C08091E80082FDEACF7A
:100BE0008091E80080FFE1CF8091F3002091F20036
:100BF000382F6115710519F02830310558F091E052
:100C00002830310509F090E08091E8008E778093DC
:100C1000E800CBCF84918093F10031966150710947
:100C20002F5F3F4FE6CF80915103882341F08530FD
:100C300041F08091E80083FFBDCF81E0089582E01C
:100C4000089583E00895FC018091590390915A031F
:100C500086179707A0F06115710529F49091E800B7
:100C60009E779093E80090E06115710551F4911121
:100C700008C08091E80082FF34C080E00895BC0184
:100C8000F2CF809151038823C1F18530C1F1809169
:100C9000E80083FD30C08091E80082FDEACF8091BA
:100CA000E80080FFE1CF8091F3002091F200382F1F
:100CB0006115710519F02830310558F091E02830A0
:100CC000310509F090E02091E8002E772093E800AC
:100CD000CBCF81918093F100615071092F5F3F4F1D
:100CE000E7CF80915103882341F0853041F0809116
:100CF000E80083FFBECF81E0089582E0089583E09D
:100D00000895089580912E03089520915103243071
:100D100091F42093E90070E050E040E00E94E60486
:100D2000882321F010922A0310922B038091E8006F
:100D30008E778093E800089590911103803F59F4D5
:100D40008091120387FF0DC01092120391110BC006
:100D500010920D0308C0813F81F480911203181690
:100D60009CF3992381F08091130390911403892BB4
:100D700009F064C010920A030895823F49F497FF76
:100D8000F0CF10921103809112038111ECCFE0CFCC
:100D9000833F19F41916ACF3E4CF20911303893F74
:100DA00029F41216F4F610921303DBCF8A3F19F4DC
:100DB00027FFD7CFF8CF209114038B3F29F427FFCB
:100DC000D0CF10921403CDCF8C3F19F41216CCF370
:100DD000C8CF843F31F4809110038E7F809310033D
:100DE000C0CF853F21F4809110038D7FF7CF863FE0
:100DF00021F4809110038B7FF1CF873F21F4809104
:100E00001003877FEBCF883F21F4809110038F7E02
:100E1000E5CF8D3F31F48091D2028E7F8093D20254
:100E2000A0CF8E3F21F48091D2028D7FF7CF8F3FEC
:100E300009F097CF8091D2028B7FF0CF08958091F7
:100E4000D20280FD1AC081FD14C082FD14C08091C1
:100E50000A03882391F08C3370F427E0829FC0014D
:100E600011246CE370E00E94CE2A862F672B29F0B4
:100E7000089583E0089587E0089581E008958091C2
:100E8000D20280FD16C081FD16C082FD18C080917F
:100E90000D03882391F08C3390F423E2829FC001EC
:100EA00011246CE370E00E94CE2A862F672B49F054
:100EB000089588E0089581E1089585E0089583E22A
:100EC000089581E00895803F31F40E943F078195A5
:100ED000809312030895813F19F40E943F07F8CFD1
:100EE000823F31F40E943F0781958093110308955A
:100EF000833F19F40E943F07F8CF893F29F40E94ED
:100F00001F078093130308958A3F21F40E941F074F
:100F10008195F7CF8B3F31F40E941F078195809315
:100F2000140308958C3F19F40E941F07F8CF843FE3
:100F300031F4809110038160809310030895853F00
:100F400021F4809110038260F7CF863F21F48091D5
:100F500010038460F1CF873F21F4809110038860F3
:100F6000EBCF883F21F4809110038061E5CF8D3F66
:100F700031F48091D20281608093D20208958E3F35
:100F800021F48091D2028260F7CF8F3FB9F7809130
:100F9000D2028460F1CF9C014FB7F8948091CE02C9
:100FA0009091CF02A091D002B091D1024FBF821B8D
:100FB000930B0895209124012223C9F02091E70288
:100FC00027FF15C0E62FE695E695E695EE31D8F4B5
:100FD000E80FF92FF11D677021E030E001C0220F0A
:100FE0006A95EAF720958281282322830895FC01DF
:100FF000329608962191621303C0DF0111971C926B
:10100000E817F907B9F70895209124012223C1F0C8
:101010002091E70227FF14C0E62FE695E695E695B6
:10102000EE31F8F4E80FF92FF11D677021E030E0A0
:1010300001C0220F6A95EAF78281822B828308958C
:10104000FC0132962FEF30E04191641751F02F3FB1
:1010500019F4411101C0232F3F5F3630A9F72F3F0C
:1010600009F40895820F911D27FD9A95FC01628372
:101070000895CF92DF92EF92FF926C01EE24FF244D
:1010800020E0C114D104E104F10419F0C701B60154
:1010900020E1C72ED82EE92EFF24C114D104E1048B
:1010A000F10419F0285FC701B6016B017C0154E01F
:1010B000F694E794D794C7945A95D1F7C114D10404
:1010C000E104F10419F02C5FC701B6016B017C014A
:1010D00042E0F694E794D794C7944A95D1F7C114A7
:1010E000D104E104F10419F02E5FC701B601969511
:1010F000879577956795672B682B692B09F02F5F8C
:10110000822FFF90EF90DF90CF9008958091C902D9
:1011100081111092C90208958091C8029091C7026E
:10112000892B9091C602892B80939C019091C902D2
:101130009923A1F0892B80939C018091240188231D
:1011400041F18091E70287FF24C08EE1EEE9F1E0F2
:1011500090E0815000F591110E948608E091EA022A
:10116000F091EB023097E1F080912401882359F04F
:101170008091E70287FF07C080919C0180939D01C9
:1011800085E080939C010280F381E02D8CE991E061
:10119000099486E0DBCF21912223D9F29F5FD9CF3A
:1011A0000895E92FEE0FE90FEE0F8E0F982F97702D
:1011B00086958695869525E0829FF0011124E25759
:1011C000FD4F50E040E080E0219130E0092E02C068
:1011D000369527950A94E2F721703327042E01C033
:1011E000220F0A94EAF7822B4F5F5F4F453051057B
:1011F00059F70895E92FEE0FE90FEE0F8E0F982F94
:10120000977041E001C0440F9A95EAF7869586955C
:10121000869595E0899FF0011124E257FD4F30E05B
:1012200020E070E05191DF011197CB01022E02C046
:10123000969587950A94E2F7817081958527842396
:1012400085278C932F5F3F4F2530310559F708953F
:1012500080918D0290915C02981301C008958F5F78
:101260008770FACF882341F080959091C802892336
:101270008093C8020C948C080895882339F09091CB
:10128000C802982B9093C8020C948C080895209162
:101290005202309153022817390771F0909353028C
:1012A00080935202E091EA02F091EB02309721F034
:1012B0000084F185E02D0994089520915002309129
:1012C00051022817390771F0909351028093500210
:1012D000E091EA02F091EB02309721F00680F7816D
:1012E000E02D09940895E091EA02F091EB02309725
:1012F00021F00190F081E02D099480E00895FA0139
:10130000811101C0FB01099480910303982F9E7FF6
:1013100029F4817082608093030308958635E8F391
:1013200081708465F8CFAF92BF92DF92EF92FF9207
:101330000F931F93CF93DF93082F162FE901E42F0C
:10134000F0E0EA55FE4F611111C0E4915E2F4E2F7F
:101350004983E8835A831B82DF91CF911F910F91BC
:10136000FF90EF90DF90BF90AF900895E62EF12CA4
:101370004491D42EE42FF0E026E0829FC001112496
:101380002FEF30E0B9010E94BA2A802F90E0880F39
:10139000991F55E5569FD001579FB00D11248A1B08
:1013A0009B0B982F990F890F5901AE18BF08AE9E5D
:1013B000D001AF9EB00DBE9EB00D11245B2F189FC3
:1013C00080011124012F11275901A01AB10AAE9EE4
:1013D0008001AF9E100DBE9E100D11245901A81A58
:1013E000B108AE9CC001AF9C900DBE9C900D112425
:1013F000892F9927281B390B2E9FC0012F9F900DF5
:101400003E9F900D1124E92F62307105A1F050F438
:101410006115710509F49CCF6130710581F0EB2FE6
:10142000512F96CF6430710569F080F066307105F8
:1014300009F48ECFF4CFE42F4B2F592F89CFE42F0F
:10144000412F86CFEB2F542F492F82CF4B2F5D2D6D
:10145000E12F7ECF9091E70292FF06C0282F2871DE
:101460002830F9F4877F846093FF06C0282F287105
:101470002831F1F4877E84612091E80220FF06C0C4
:10148000382F38713830D9F4877F816021FF06C04A
:10149000282F28712831D1F4877E816194FD877EC1
:1014A0000895282F24712430F9F68B7F8860DCCFD3
:1014B000282F2471243101F78B7E8861DDCF382FEE
:1014C0003171313019F78E7F8860E0CF282F21717C
:1014D000213121F78E7E8861E1CFCF93DF93972F63
:1014E00070E026E0929F600D711D1124FB0134E530
:1014F000839FE00DF11D1124EE0FFF1FE55AFB4FF6
:10150000C591D491CE01C238D105B9F1E8F5C13306
:10151000D10509F499C050F5C932D10509F48DC03F
:10152000CA32D10509F497C0C11521E5D20708F0E8
:10153000BFC0C11530E5D30708F016C1C83ED105BC
:1015400008F09DC0C03ED10568F5C83AD10508F045
:1015500089C0C53AD10508F0FFC0C130D10511F1ED
:10156000209709F443C02497E8F440C0C533D1055F
:1015700009F45CC0C933D105B9F62091E7022370A4
:1015800089F080EE90E00EC0C33ED10591F168F481
:10159000C03ED105F9F0C23ED10531F62091E702F7
:1015A00022FD20C0DF91CF910895C63ED10561F1A3
:1015B000C73ED10581F1C43ED10509F0B5CF2091D8
:1015C000E80221FFEFCF8091E70284FD0FC087EE94
:1015D00090E0E8CF2091E70220FD12C13091E802AF
:1015E00030FFE0CF83EE90E024FFDCCF90E080E09E
:1015F000D9CF2091E70222FD06C13091E80230FDEB
:10160000C0CF24FFCFCFF2CF2091E70223FFCACF74
:1016100024FDECCFDCCF2091E70223FDF7C0309111
:10162000E80231FFEECF84EE90E0BCCF2091E702DC
:1016300025FFB8CF89E290E0B5CF2091E70225FFE2
:10164000B1CF85E390E0AECF2091E70226FFAACF8D
:101650008AE290E0A7CF2091E70226FFA3CF81E3A3
:1016600090E0A0CFCF3BD10508F6C85AD0E0CC0F10
:10167000DD1FC15ADE4F88819981946493CFC115D3
:1016800020E2D20760F4C11531E0D30708F08ACF19
:10169000CE019065C03FD10508F084CFA7CFC1151A
:1016A00080E4D80708F4A2CFCE019F70906A7ACF69
:1016B000C11595E5D90710F5C11524E5D20708F045
:1016C00088C0C11533E5D30708F06FC0C11582E5A6
:1016D000D80708F465C09E012370332781E090E0AD
:1016E00002C0880F991F2A95E2F7C695C69520E299
:1016F000C29FE00111248C2B9D2B50C0C11599E590
:10170000D907A0F4C11528E5D20708F067C0C115B4
:1017100036E5D30708F06ACF8C2F0E942A0A90E0A2
:10172000982F882788279F7190623CCFC1158AE542
:10173000D80708F458C0CE0190568115904208F0A1
:1017400055CF8D2F8F710E942A0A90E0982F8827FD
:1017500088279F718C2BE8CFC55AD0E0C45ADE4F42
:10176000888190E090641ECF9E01E4E03695279535
:10177000EA95E1F723708C2F86958695837030E289
:10178000839FC0011124922BC37021E030E002C07E
:10179000220F331FCA95E2F7822B932B9C6802CF4E
:1017A0009C2F8827816F906AFDCE9E01237033277E
:1017B00081E090E002C0880F991F2A95E2F7C69554
:1017C000C69530E2C39FE00111248C2B9D2B9A68B3
:1017D000E9CE9C2F8827846F906AE4CE9C2F8827BF
:1017E000806F906ADFCE8C2F8F700E942A0A34E0BF
:1017F000D695C7953A95E1F7CF709C2F9069D2CED8
:1018000089E390E0CFCE82EE90E0CCCE86EE90E001
:10181000C9CEBF92CF92DF92EF92FF920F931F93A8
:10182000CF93DF938C01C0902503D0902603E090E6
:101830002703F09028038091CA029091CB02A091D7
:10184000CC02B091CD02C82AD92AEA2AFB2ACFE1DC
:10185000D0E0BC2ED701C6010C2E04C0B695A795CA
:10186000979587950A94D2F780FD0EC0219788F747
:10187000B12C8B2DDF91CF911F910F91FF90EF90A5
:10188000DF90CF90BF900895B8018C2F0E946D0A11
:10189000019761F3EECFCF93DF93EC010E94090C27
:1018A000BE01DF91CF910C946D0A0E944B0C292F41
:1018B0002F7092959F7092509E3078F4E92FF0E04F
:1018C000E85CF24D0C94E22A803F19F020F4883E47
:1018D00020F481E00895843FE1F380E00895883E9C
:1018E000C0F3813FD1F7F5CF822F869586958695F7
:1018F000089527982F98089526982E98089525984A
:101900002D98089556985E980895279A2F9A0895CD
:10191000269A2E9A0895259A2D9A08952098289807
:101920002198299822982A9823982B9852985A9867
:1019300053985B983E98469808958098889A819825
:10194000899A84988C9A85988D9A86988E9A879889
:101950008F9A0895CF93DF9300D00F92CDB7DEB763
:1019600090915103943019F589837B836A8383E0D6
:101970008093E9008FEF9091E800815095FD06C0BB
:1019800095ED9A95F1F700008111F5CF8091E8006F
:1019900085FF0DC050E040E063E070E0CE010196AD
:1019A0000E94E6048091E8008E778093E8000F9013
:1019B0000F900F90DF91CF910895BC0184E00C94BB
:1019C000AA0CBC0183E00C94AA0C9C0182E08093D9
:1019D000E9009FEF8091E800915085FD06C085EDFC
:1019E0008A95F1F700009111F5CF8091E80085FF0D
:1019F0000CC050E040E065E070E0C9010E94E604E0
:101A00008091E8008E778093E8000895CF93DF936C
:101A1000EC01809124018823B1F18091E70287FFD6
:101A200032C060E283E08093E9008FEF9091E8009C
:101A3000815095FD06C095ED9A95F1F70000811152
:101A4000F5CF8091E80085FF1BC08091240170E0F4
:101A500050E040E0811104C050E040E068E070E0F8
:101A6000CE010E94E6048091E8008E778093E80022
:101A700080E2FE01AFE2B3E001900D928A95E1F7BA
:101A8000DF91CF91089568E081E0CDCFEF92FF9292
:101A90000F931F93CF93DF930E94820C0E947F0CC1
:101AA0000E947C0C0E94790C88E8E82EF12C8FEFC4
:101AB00090E0F701918380830AE810E0F8019183B8
:101AC0008083CCE8D0E0998388830E948B0CFFEF61
:101AD00020E782E0F15020408040E1F700C00000A4
:101AE0000E94880C9FEFE0E7F2E09150E040F04068
:101AF000E1F700C000000E94850C2FEF80E792E024
:101B0000215080409040E1F700C000000E947F0C0F
:101B1000EFEFF0E722E0E150F0402040E1F700C0B5
:101B200000000E947C0C8FEF90E7E2E08150904033
:101B3000E040E1F700C000000E94790C8091D502DE
:101B40008770FFEF8F9FC00111249595879595951C
:101B500087959927F70191838083F801918380838A
:101B6000998388830E94820C0E947F0C0E947C0CC7
:101B7000DF91CF911F910F91FF90EF900C94790C12
:101B8000CF9384E090E00E948B2CC82F81E290E0FC
:101B90000E948B2C982F8C2FCF910895CF92DF929B
:101BA000EF92FF926B017C010E948409B701A601AC
:101BB00088E090E0FF90EF90DF90CF900C94B12CF4
:101BC00080910703882319F0815080930703609167
:101BD00003037091040380910503909106030C9414
:101BE000CE0D80910703833018F48F5F8093070335
:101BF00060910303709104038091050390910603A3
:101C00000C94CE0DE3E0F3E083E0808311828FEF4C
:101C100082838383148260817181828193810C9499
:101C2000CE0D6FEE7EEF90E080E00E94BD2C60E074
:101C300082E090E00E949F2C60E083E090E00E94B0
:101C40009F2C1092CA021092CB021092CC021092DA
:101C5000CD0260E084E090E00E949F2C60E081E291
:101C600090E00E949F2C60E085E090E00E949F2C15
:101C700060E086E090E00E949F2C6FEF87E090E0AC
:101C80000E949F2C40E050E0BA0188E090E00E9462
:101C9000B12C60E08DE090E00E949F2C40E050E08D
:101CA000BA0188E190E00E94B12C60E087E190E009
:101CB0000E949F2C40E050E0BA018CE190E00E942D
:101CC000B12C60E080E290E00E949F2C40E050E068
:101CD000BA0188E190E00E94B12C1092D5021092D6
:101CE000D6021092D7021092D80284E080618093CD
:101CF000D5024091D5025091D6026091D7027091E1
:101D0000D8028FE090E00E94B12C40E050E0BA0190
:101D100083E190E00C94B12CCF93C82F873070F5FD
:101D20008091180190911901892B89F564E670E082
:101D300080E40E94ED299093190180931801892B6A
:101D4000D1F464E670E082E10E94492A909319017F
:101D500080931801892B79F481E090E001C0880F0D
:101D6000CA95EAF764E670E080950E94492A90934C
:101D7000190180931801CF910C949C2A8A30B9F0F4
:101D800040F4883071F0893079F0209A2898CF910A
:101D900008958C3091F070F08D30B9F73E9A4698E6
:101DA000F6CF219A2998F3CF229A2A98F0CF239A36
:101DB0002B98EDCF529A5A98EACF539A5B98E7CF77
:101DC000CF93DF938091030380FD0BC0E9ECF1E03A
:101DD0001182108212821382349652E0E530F507A8
:101DE000B9F7C9ECD1E0FE01928120813181892FC0
:101DF000291708F4822F381708F4832F8383381BA0
:101E00003183281B2083981B9283349682E0E5302F
:101E1000F80751F70E94E72964E670E084E80E9421
:101E2000ED2964E670E088810E94492A64E670E04A
:101E300089810E94492A64E670E08A810E94492AC9
:101E400064E670E08B810E94492A249692E0C530B6
:101E5000D90739F70E949C2A579A3BB13F772BB19B
:101E600020684FB7F89489EC91E0FC015191CF01C3
:101E700068E02BB9000000C057FF3BB9550F0000C8
:101E800000C000C000C03BB900C06A9591F7F2E005
:101E900085309F0751F74FBF8FE594E00197F1F729
:101EA00000C00000DF91CF9108958F929F92AF9272
:101EB000BF92CF92DF92EF92FF920F931F93CF9337
:101EC000DF93FC01B280948081E08483C5E0D2E09E
:101ED00009EC11E08BE4A82E88248394EE24EA9484
:101EE000F12C2BE4C22ED12C91101DC01B821A8222
:101EF00098014A81698188810E94930925960C5F27
:101F00001F4F82E0C035D80779F7DF91CF911F913D
:101F10000F91FF90EF90DF90CF90BF90AF909F9088
:101F20008F900C94E00E2B81222309F121502B83FA
:101F30003C818A2D821B311101C0822F90910603B2
:101F4000899FC0011124B6010E94BA2A6A83211117
:101F500004C0332311F01C82AB8222E02B1540F227
:101F6000809104038883809105038983C1CF0E94F7
:101F7000432B823091400CF0BBCF82E08B15C0F434
:101F80000E94432BB7010E94CE2A888322E02B15A2
:101F900090F40E94432B209105032695622F70E058
:101FA0000E94CE2A280F29831A82AB828C82A0CF6E
:101FB00080910403EACF20910503F5CFEF92FF92C1
:101FC0001F93CF93DF93EC0189ECE82E81E0F82E8C
:101FD00010E08C8197014091060360910503810F09
:101FE0000E9493091F5E84E0E80EF11C1F3F89F7F1
:101FF0000E94E00E9A818C8190FF08C08F5F8C83D5
:10200000DF91CF911F91FF90EF9008958150F7CF0E
:10201000BF92CF92DF92EF92FF920F931F93CF93D5
:10202000DF93FC018281DD24DA9480FD02C0DD248F
:10203000D39409EC11E0D0E0C0E02FE0B22EF8011B
:10204000118210821282138294E0E92EF12CC12CAD
:102050008091C6018C0D80310CF43DC06B2D0E9427
:10206000AC2A892F082E000C990B8C179D0791F430
:10207000809106038E9DA0018F9D500D11245595D2
:102080004795559547959801609105038091040304
:102090000E949309CD0CF1E0EF1AF108C9F62196E0
:1020A0000C5F1F4FCF30D10551F60E94E00E80919A
:1020B000C60191E0D91215C0811111C08EE0809344
:1020C000C601DF91CF911F910F91FF90EF90DF90AC
:1020D000CF90BF90089587FFC5CF815FC3CF815058
:1020E000EECF90E00196BE010E94CE2AE8CF0F937A
:1020F0001F93CF93DF93C9ECD1E0FE0111821082D0
:1021000012821382349682E0E530F807B9F710E0C6
:1021100000E08091C701082E000C990B08171907E1
:102120008CF180911601082E000C990B80179107F5
:102130004CF19E01409106036091050380910403D8
:102140000E9493090F5F1F4F24960F30110509F766
:102150000E94E00E809115019091C701980F909315
:10216000C70120911601280F20931601121614F4AE
:102170009E301CF0819580931501DF91CF911F91C6
:102180000F910895198218821A821B82DBCF8F92D9
:102190009F92AF92BF92CF92DF92EF92FF920F93F6
:1021A0001F93CF93DF93EC014C81042F10E0980133
:1021B000D8010E94272D9B01AC010E94F22C4B01FB
:1021C0005C01E0E2F0E0E01BF10BA5E5B0E0AC0162
:1021D0009B010E94F22C6B017C019F01DF010E9498
:1021E000E82A9B01AC010E94FD2C9B01AC01280D4B
:1021F000391D4A1D5B1DC701B6010E94052DF22E37
:10220000822F90E039E23F15D8F143E0249F9001FE
:10221000112435952795122F109599ECC92E91E030
:10222000D92E00E085E5E82EEF188E2D01FD8F2DCB
:102230009601412F609105030E9493090F5F54E0BE
:10224000C50ED11C0F3089F70E94E00E9C8181E001
:10225000992319F0903219F48FEF80931701809130
:102260001701890F8C83DF91CF911F910F91FF9000
:10227000EF90DF90CF90BF90AF909F908F90089598
:1022800025E530E0A901481B590BCA019A01220F2C
:10229000331F280F391F37FFBCCF2F5F3F4FB9CFF8
:1022A000EF92FF920F931F93CF93DF938C01C9ECB2
:1022B000D1E0F12CE12CF80194816091050380912B
:1022C0000403F7E0EF16F104FCF49923F9F09E0102
:1022D000409106030E9493092FEFE21AF20A249616
:1022E0008FE0E816F10439F70E94E00EF8018481CE
:1022F00090E00196817099278483DF91CF911F919F
:102300000F91FF90EF900895992309F39E0140E00B
:10231000E1CF9091030390FF0DC0E9ECF1E08183E0
:10232000608342831382349692E0E530F907B9F76F
:102330000C94E00E08950F931F93CF93DF9300D07A
:1023400000D0CDB7DEB78C018091C80181110AC0E1
:102350009E012F5F3F4F4FEF6FEF0E9493098A81DD
:102360008093C801F8016481613069F08091C801EF
:1023700040E0662361F040E0623011F44091C80112
:1023800080E060E004C06091C80140E080E00E940D
:102390008911F801848190E0019663E070E00E9469
:1023A000CE2A84830F900F900F900F90DF91CF91E2
:1023B0001F910F910895CF93DF9300D000D0CDB738
:1023C000DEB79091030390FF0AC09E012F5F3F4F3D
:1023D0000E9493094B8169818A810E9489110F9023
:1023E0000F900F900F90DF91CF910895CF93DF93CF
:1023F000EC01EC81F0E0E555FD4F4491E3E0F3E0C2
:10240000628181810E94DB118C818F5F8C83DF91DF
:10241000CF910895CF93DF93EC01E3E0F3E04381A4
:1024200062818C810E94DB118C818F5F8C83DF91B4
:10243000CF9108955F926F927F928F929F92AF9209
:10244000BF92CF92DF92EF92FF920F931F93CF93A1
:10245000DF9300D000D0CDB7DEB7182F762E042F33
:10246000622E9091030390FF29C0E92FE695AE2FCD
:10247000B0E0AF5CBE4F8C91809308039E7F92309A
:1024800089F59E012F5F3F4F812F0E9493094B8159
:1024900069818A810E948911109304037092050357
:1024A00000930603662051F06091030370910403CA
:1024B00080910503909106030E94CE0D0F900F901E
:1024C0000F900F90DF91CF911F910F91FF90EF90A0
:1024D000DF90CF90BF90AF909F908F907F906F9044
:1024E0005F900895823019F400910603D5CF8630AD
:1024F00019F410910403D0CF8930D9F3893161F6F2
:10250000E9518E2F8170582EE695F0E0EA55FD4F87
:10251000A590B490BB2489ECE82E81E0F82ED12C54
:10252000C12C9FE0892E912CC601B4010E94BA2AC9
:10253000812F511013C0860F9701402F672D0E94E5
:102540009309CA0CDB1C84E0E80EF11C85E0E81658
:1025500082E0F80649F70E94E00E9ECF861BECCF82
:10256000E3E0F3E043812CE0421B08F440E021E08B
:10257000628181810C941A12E3E0F3E043812CE044
:10258000420F08F44FEF21E0628181810C941A120E
:10259000E3E0F3E062812FEF621B08F460E021E0EA
:1025A000438181810C941A12E3E0F3E062812FEF02
:1025B000620F08F46FEF21E0438181810C941A12BD
:1025C000E3E0F3E0818121E0438162818C500C944F
:1025D0001A12E3E0F3E0818121E043816281845FAC
:1025E0000C941A12E3E0F3E080818E7F8083608197
:1025F0007181828193810E94CE0D109209032FEF89
:1026000080E792E0215080409040E1F700C0000058
:102610000C94E00E80E290E09093190180931801F1
:102620008091BC0181110EC00E94E72981E0809356
:10263000BC012FEF83ED90E3215080409040E1F703
:1026400000C0000064E670E080E40E94ED299093F1
:10265000190180931801892B09F04EC064E670E0DF
:1026600080E00E94492A9093190180931801892BD8
:1026700009F042C064E670E080E00E94492A90932D
:10268000190180931801892BB9F564E670E08FE396
:102690000E94492A9093190180931801892B61F5B2
:1026A0000E949C2A64E670E080E40E94ED299093E9
:1026B000190180931801892BF9F464E670E08CE02D
:1026C0000E94492A9093190180931801892BA1F443
:1026D00064E670E080E00E94492A9093190180939B
:1026E0001801892B49F464E670E08FE30E94492ABF
:1026F00090931901809318010E949C2A80911801DF
:102700000895CF93873050F5809118019091190169
:10271000C0E0892B71F464E670E081E40E94ED2949
:102720009093190180931801892B31F0C0E00E9429
:102730009C2A8C2FCF91089584E690E00E94782AFD
:1027400097FF05C09093190180931801EFCFC82F10
:10275000C0951092190110921801E9CFCFB18FB135
:10276000869586958C73C3708C2BC82FC095E1CF4E
:102770001F920F920FB60F9211242F933F934F93F6
:102780005F936F937F938F939F93AF93BF93EF93D9
:10279000FF938091E10082FF09C08091E20082FFF7
:1027A00005C08091E1008B7F8093E1008091DA0089
:1027B00080FF24C08091D80080FF20C08091DA0083
:1027C0008E7F8093DA008091D90080FF9BC080E1EA
:1027D00089BD82E189BD09B400FEFDCF81E080930F
:1027E000510380912C03811109C00E9496040E941C
:1027F00063058091E20084608093E2008091E100B3
:1028000080FF17C08091E20080FF13C08091E2003A
:102810008E7F8093E2008091E20080618093E200ED
:102820008091D80080628093D80019BC85E08093A5
:1028300051038091E10084FF29C08091E20084FF70
:1028400025C080E189BD82E189BD89B5982F91704D
:1028500080FFFBCF8091D8008F7D8093D80080913E
:10286000E1008F7E8093E1008091E2008F7E809373
:10287000E2008091E20081608093E2008091520347
:10288000882309F445C084E0809351038091E100DE
:1028900083FF27C08091E20083FF23C08091E10085
:1028A000877F8093E10082E080935103109252036E
:1028B0008091E1008E7F8093E1008091E2008E7F25
:1028C0008093E2008091E20080618093E20042E028
:1028D00060E080E00E9431058091F0008860809384
:1028E000F000FF91EF91BF91AF919F918F917F91F8
:1028F0006F915F914F913F912F910F900FBE0F906D
:102900001F90189519BC1092510310922C0376CF8A
:102910008091E30087FD93E090935103B7CF7894C3
:102920001F921FB61F9211248F939F93AF93BF9353
:102930008091CE029091CF02A091D002B091D102AD
:102940000196A11DB11D8093CE029093CF02A0935A
:10295000D002B093D102BF91AF919F918F911F9000
:102960001FBE1F9018952FB7F8948091CE029091BA
:10297000CF02A091D002B091D1022FBF08950E9442
:10298000B3149C019091110380911203982B21F0B4
:1029900030930F0320930E0390911303809114033F
:1029A000982B21F030930C0320930B03E091EA0263
:1029B000F091EB02309731F00480F581E02D80E159
:1029C00093E0099408951092C7021092C6020E94E3
:1029D0008C0885E0E0E1F3E0DF011D928A95E9F7DC
:1029E00010920D0310920A031092D2020E94BF149B
:1029F00090E080E00E945D0990E080E00C9447093F
:102A00006093CA027093CB028093CC029093CD0264
:102A10000C94E3141092C80280912401EEE9F1E0D5
:102A2000882359F08091E70287FF07C08EE1DF011C
:102A30001D928A95E9F70C94E31486E0F8CF1F9372
:102A4000CF93DF93CDB7DEB7AA970FB6F894DEBF6A
:102A50000FBECDBF83E593E02091F100FC012193EF
:102A6000CF01F3E08B359F07B9F78091540389308C
:102A700009F444C018F5823009F4B9C0833009F470
:102A80006EC0813031F580915303813A11F5809108
:102A9000E800877F8093E800809157039091580366
:102AA000892B41F560E28FE293E070E00E942306FB
:102AB0008091E8008B778093E8000BC08B3009F49D
:102AC0006BC008F483C0823409F4A2C0853409F4D1
:102AD000BCC08091E80083FF50C280915303909165
:102AE00054039A3008F049C2E92FF0E0EA5BF24D56
:102AF0000C94E22A60E090E080E0D7CF809153030D
:102B0000813239F78091570390915803009711F063
:102B10000297F9F68091E800877F8093E800809122
:102B2000E80082FF17C09091F3008091F2000297B5
:102B300029F48091F1008B7F813021F48091F100A4
:102B400080932E038091E8008B778093E8000E94A9
:102B50001205BFCF809151038111E1CFBACF80918F
:102B60005303813A09F0B5CF8091570390915803F0
:102B7000892B09F0AECF8091E800877F8093E80031
:102B80008091E80080FFFCCF809124018093F100C8
:102B90008091E8008E77D9CF80915303813209F07C
:102BA00098CF8091570390915803892B09F091CFCA
:102BB0008091E800877F8093E8000E941205809151
:102BC0005503809324010E940A1583CF80915303FB
:102BD000813209F07ECF8091E800877F8093E80002
:102BE0000E9412058091560380932D0372CF80912D
:102BF0005303813A09F06DCF8091E800877F80937D
:102C0000E8008091E80080FFFCCF80912D03BECFCB
:102C100080915303803C09F05CCF809157039091E1
:102C20005803029739F58091550390915603892BEB
:102C300009F58091E800877F8093E8006BE170E000
:102C400082EC97E00E94C40582CF80915303803CC0
:102C500009F03FCF8091570390915803079751F4A3
:102C60008091E800877F8093E80062EB70E080E16C
:102C700097E0E8CF8091EB0080628093EB0029CF52
:102C8000803899F0823809F078C1809157038F70AD
:102C9000873008F072C18093E9008091EB0085FBDA
:102CA000882780F91092E90006C080914F03909127
:102CB0005003911182609091E800977F9093E80013
:102CC0008093F1001092F1008091E8008E7751C15D
:102CD000882309F43FC1823009F04FC18091550328
:102CE000811142C1809157038F702FEF280F26303A
:102CF00008F043C18093E9002091EB0020FF34C12C
:102D0000933031F48091EB0080628093EB002CC112
:102D10009091EB0090619093EB0021E030E001C0D6
:102D2000220F8A95EAF72093EA001092EA00809138
:102D3000EB008860EACF811120C1109155031F7705
:102D40008091E3008078812B8093E3008091E800FC
:102D5000877F8093E8000E9412058091E80080FF41
:102D6000FCCF8091E30080688093E30082E0111142
:102D700083E08093510301C18058823008F0FDC088
:102D800080915503909156038C3D23E09207A1F565
:102D900083E08A838AE289834FB7F894DE01139631
:102DA00020E03EE051E2E32FF0E050935700E49141
:102DB00020FF03C0E295EF703F5FEF708E2F90E031
:102DC000EA30C0F0C7968D939D932F5F243159F759
:102DD0004FBF8091E800877F8093E8006AE270E04F
:102DE000CE0101960E9423068091E8008B778093A4
:102DF000E800C3C0C096E7CF209157033091580335
:102E0000492F55274330510551F1A0F44130510568
:102E100009F459C06BE670E08EED97E04230510541
:102E200009F0ABC02091E800277F2093E8000E94C2
:102E3000C405DACF4132510539F14232510591F1E1
:102E40004F30510509F099C0E7EBF8E0649170E06C
:102E500085EB98E06115710509F48FC0E3CF9927E0
:102E60008130910571F0009731F0029709F085C02B
:102E7000EBE5F8E002C0E1EBF8E0649170E0CF012F
:102E8000E9CFEFE7F8E0F9CF2330310508F075C05E
:102E9000220F331FF901EA56FE4F8081918169E0CC
:102EA00070E0C0CF2330310508F067C0F901EE0FA4
:102EB000FF1FE057FE4F8081918123573E4FF9015C
:102EC000608170E0C7CF62E170E089E498E0AACF4A
:102ED000803809F052C08091E800877F8093E80035
:102EE000809152038093F100EFCE811146C0109182
:102EF0005503123008F041C08091E800877F80932D
:102F0000E800109352030E941205112311F084E08F
:102F100005C08091E30087FDFACF81E080935103E3
:102F200042E061EC81E00E94310542E061EC82E028
:102F30000E94310542E261EC83E00E94310542E3E8
:102F400061EC84E00E94310542E360EC85E00E9480
:102F5000310513C080915503813079F481E09330BD
:102F600009F080E0809350031092E9008091E8001E
:102F7000877F8093E8000E9412058091E80083FF1C
:102F80000AC08091E800877F8093E8008091EB0081
:102F900080628093EB00AA960FB6F894DEBF0FBE56
:102FA000CDBFDF91CF911F9108951F920F920FB661
:102FB0000F9211242F933F934F935F936F937F93BF
:102FC0008F939F93AF93BF93CF93DF93EF93FF9331
:102FD000D091E900DF708091EC00C82FC17080FDB6
:102FE000C0E81092E9008091F000877F8093F000A4
:102FF00078940E941F151092E9008091F00088607B
:103000008093F000CD2BCF70C093E900FF91EF913A
:10301000DF91CF91BF91AF919F918F917F916F91F0
:103020005F914F913F912F910F900FBE0F901F9086
:1030300018958823B1F19CEF980F913A38F4682FD6
:103040008CE991E00E94DA070C948C0890E2980FCA
:10305000983088F4877021E030E0A90102C0440F65
:10306000551F8A95E2F7CA0180959091C80289237D
:103070008093C802E9CF9BE5980F933020F490E04D
:1030800080E00C945D0998E5980F973120F490E06A
:1030900080E00C944709803F20F00E949C060C942D
:1030A000BF140895CF93C82F882309F46EC08CEF06
:1030B0008C0F813AB8F580912401882311F1809119
:1030C000E70287FF1EC0EC2FE695E695E695F0E057
:1030D000E456FE4F828190E04C2F477021E030E0B3
:1030E00002C0220F331F4A95E2F782239323892BD4
:1030F00089F06C2F8CE991E00E94DA070E948C081D
:1031000009C0EEE9F1E08191C81799F381E0E43A52
:10311000F807C9F76C2F8CE991E00E940408CF9161
:103120000C948C0880E28C0F883068F4C77021E022
:1031300030E001C0220FCA95EAF78091C802822BC5
:103140008093C802ECCFEBE5EC0FE33040F4F0E005
:10315000E45AFE4F808190E0CF910C945D09E8E540
:10316000EC0FE73150F4F0E0EE0FFF1FE15AFE4F95
:1031700080819181CF910C944709C03F30F08C2F12
:103180000E946307CF910C94BF14CF910895CF9301
:10319000C82F0E945218C93349F42FEF87EE93E0ED
:1031A000215080409040E1F700C000008C2FCF916B
:1031B0000C9419180F931F93CF93DF93C62FD42F1E
:1031C000022FFC0182818823A1F060935D030E949D
:1031D000B31490935C0380935B03C77081E001C0DC
:1031E000880FCA95EAF7DF91CF911F910F910C9448
:1031F0003D0980915D03681335C080915B03909118
:103200005C030E94CB07883C910560F510E21D0F1E
:10321000CD17B9F080E28C0F883040F4C77081E0A0
:1032200001C0880FCA95EAF70E943209183048F4A5
:1032300081E09D2F977001C0880F9A95EAF70E9450
:103240003D09802F0E94C718183098F4D77081E08C
:1032500001C0880FDA95EAF7DF91CF911F910F91A6
:103260000C943209C77081E001C0880FCA95EAF753
:10327000F3CFDF91CF911F910F91089560910303D8
:10328000669570E04BE050E08AE091E00E947E2C71
:10329000892B19F481E0809309030E94B314909361
:1032A000FE028093FD0208959091030390FF36C0C3
:1032B0009170811129C0926090930303662351F0AD
:1032C00060910303709104038091050390910603BC
:1032D0000E94CE0D60910303669570E04BE050E0D4
:1032E0008AE091E00E947E2C892BA9F010920903BC
:1032F00081E08093000320E0409106036091050384
:10330000809104030C941A128B3210F09465D4CF80
:10331000880F982BD1CF0E943E19EACF0895E3E0A1
:10332000F3E080818160808360E086950C9454197D
:1033300061E00C945419E3E0F3E0808181608083C4
:1033400086950C949819809103038695815009F411
:103350008AE261E00C9454198091030386958F5F93
:103360008B3208F081E061E00C94541990910303D2
:1033700090FF07C09695981720F0961710F40C94BC
:10338000AC190C949819CF92DF92EF92FF92CF93E1
:10339000DF936B017C010E943908D82F0E94820CB8
:1033A0000E947F0C0E947C0C0E94790CC0915402F8
:1033B000EFEFED0FE73008F05FC0F0E0E05BF24DBB
:1033C0000C94E22A0E948B0CC11166C00E948F19D6
:1033D00060E081E00E94541920E044EC6CE588E450
:1033E00059C00E94880CC11157C00E948F1960E01B
:1033F00081E00E94541920E04CED6EE785E94AC057
:103400000E94850CC11148C00E948F1960E081E0C4
:103410000E94541920E04FEF6FEF89E23BC00E94F9
:103420008B0C0E94880CC11137C088E090E00E948C
:10343000932C60930303709304038093050390938C
:10344000060360FF32C00E949B198091030386959A
:103450000E94981921E04091060360910503809134
:10346000040318C00E948B0C0E94850CDCCF0E94C4
:103470008B0C0E94880CF8CFD111D5CFC1110CC094
:103480000E948F1960E081E00E94541920E040EE14
:103490006AE880E00E941A12C701B601DF91CF915D
:1034A000FF90EF90DF90CF9008950E94F212F4CF3A
:1034B000CF92DF92EF92FF92CF93DF9300D000D0B4
:1034C000CDB7DEB70E94C3196B017C01809129033F
:1034D000882321F080912A03811115C0C092250311
:1034E000D0922603E0922703F09228030E94E3146F
:1034F0000F900F900F900F90DF91CF91FF90EF9072
:10350000DF90CF900895198282E08A83C701B601C7
:103510000E9439088B838EEF8C8364E0CE01019684
:103520000E948506DBCF0F931F9341E050E060E0DF
:1035300070E004C0440F551F661F771F8A95D2F7AD
:10354000CB01BA0160957095809590950091250307
:1035500010912603209127033091280360237123C3
:10356000822393231F910F910C94581A9091C502B6
:10357000809589238093C502282F277071F4282F06
:10358000082E000C330B9217130639F0859585959C
:1035900085950E94931A1092C50208950F931F9368
:1035A00041E050E060E070E004C0440F551F661F2A
:1035B000771F8A95D2F78091250390912603A091D9
:1035C0002703B09128038A019B01082B192B2A2B72
:1035D0003B2BC901B8011F910F910C94581A4F92BF
:1035E0005F926F927F928F929F92AF92BF92CF9293
:1035F000DF92EF92FF920F931F93CF93DF9300D050
:1036000000D00F92CDB7DEB77C01FC01838194819D
:10361000892B39F01081D180812F8D218F3F09F0C6
:1036200057C60F900F900F900F900F90DF91CF9192
:103630001F910F91FF90EF90DF90CF90BF90AF90D0
:103640009F908F907F906F905F904F9008950E9411
:10365000090C082F682F89819A810E94FA08E12FAE
:10366000F0E026E0D29EE00DF11D112434E5039F29
:10367000E00DF11D1124EE0FFF1FE55AFB4F0591E0
:10368000149180912903882321F080912A038111CC
:103690000BC60A32FDE51F0709F08AC0F7018281D7
:1036A0008823C9F18091D50291E0980F9770887FA7
:1036B000953008F4892B8093D5028091D5028770CC
:1036C000FFEF8F9FC001112495958795959587955C
:1036D0009927909389008093880090938B00809322
:1036E0008A0090938D0080938C004091D502509178
:1036F000D6026091D7027091D8028FE090E00E94CC
:10370000B12C60912503709126038091270390913D
:1037100028030E94C319F7019281992309F4E9C58E
:1037200010925D030230FCE51F0708F45FC206310A
:103730002CE5120738F098012B5F3C452730310506
:1037400008F054C20E94C00D9093E8028093E702F3
:103750000F303CE5130709F42AC208F0A4C1083071
:103760009CE5190709F40DC208F079C10430FCE5A5
:103770001F0709F4FAC108F05FC102303CE51307E6
:1037800009F4EBC103301C4509F4EBC16091E70279
:103790001091E80284E090E00E949F2C612F81E26A
:1037A00090E00E949F2C0E940A15F9C081E182C519
:1037B0000D322DE5120709F400C120F50B328DE51D
:1037C000180709F4E2C00C329DE5190709F4D5C0C9
:1037D000043F3CE5130709F420C108F040C0093D4F
:1037E0009CE5190709F415C10A3DECE51E0709F42B
:1037F00020C1083DFCE51F0709F08DCF26E241EE10
:1038000061EE3CC00F32EDE51E0709F4F4C008F488
:10381000E4C000332DE51207D9F6F7018281882331
:1038200009F479CF5BE4C52E54E0D52E6AE0662E0C
:10383000F6012491222309F46ECF213009F05CC0F7
:10384000319684918130F1F4F2E0CF0ED11CF60173
:1038500084910E94C7189FEFC91AD90AE9CF063F81
:103860002CE5120709F4E1C008F4DBC027E245EEBD
:1038700066EE073F8CE5180709F04DCFC7010E949F
:10388000DA188DC0823041F4F2E0CF0ED11CF6017F
:1038900084910E945218DFCF833041F4F2E0CF0EC2
:1038A000D11CF60184910E941918D5CF843009F0FB
:1038B00062C0F2E0CF0ED11CF601249190E080E0CE
:1038C000F60131962053330B2A30310550F0019721
:1038D00008F4C1CFEFE9FFE03197F1F700C0000035
:1038E000F6CF689EA001699E500D1124C901840F76
:1038F000951F24916F01E4CFE22FF0E0E553FC4FD8
:103900007490822F86958695869590E0FC01E5540B
:10391000FC4F84902770912C022E02C095948794BE
:103920000A94E2F731E083229924FC01E555FC4F2B
:10393000A490B12C02C0B594A7942A95E2F781E037
:10394000A822BB248114910419F081EE0E94521820
:10395000A114B10419F086EE0E945218872D0E941E
:10396000C718AB2819F086EE0E941918892809F4A7
:1039700072CF81EE98CF6F016ECFF70182818823DD
:1039800071F081E00E9498190AC0F70182818823B2
:1039900031F08091540291E0892780935402809104
:1039A000C502877009F43DCEF7018281882309F4AE
:1039B00038CE82E00E94B61A34CEF7018281882385
:1039C00071F30E949B1981E00E94981921E04FEF4A
:1039D0006FEF8CEA0E941A12E2CFF70182818823EE
:1039E000F1F20E949B1981E00E94981921E040E8C1
:1039F0006FEF86E5EFCFF7018281882381F20E9485
:103A00009B1981E00E94981921E04FEF6FEF8BE145
:103A1000E1CF27E245EE65EE31CF26E241EE60EEE2
:103A20002DCF27E245EE64EE29CF26E241EE62EE8D
:103A300025CF28E241E0EFCF8091E7028061063098
:103A40009CE5190709F447C08091E70288600730B8
:103A50001C4508F440C08091E70280623CC00B30F6
:103A6000FCE51F0709F49BC068F409303CE5130727
:103A700009F48BC00A301C4509F088CE8091E7021A
:103A80008C6029C08091E7028B7F0D309CE519077F
:103A900011F18091E7028D7F0E301C45E0F080919E
:103AA000E702877F18C00B3FFCE51F0709F461C0E0
:103AB00060F502313CE5130709F481C078F4003168
:103AC0009CE5190709F477C08091E7028F7B0131EB
:103AD0001C4509F05BCE8093E70258CE0431FCE52B
:103AE0001F0709F47AC008F470C005311C4509F0BD
:103AF0004DCE8091E70282FB992790F921E0922731
:103B000090FB82F990FB83F9E6CF0E3F8CE5180716
:103B100009F449C070F40C3FECE51E0771F1809187
:103B2000E8028E7F0D3F1C4509F030CE8093E802FD
:103B30002DCE01152DE5120709F44BC060F10130BF
:103B40001D4509F023CE8091E802982F9095917041
:103B50008E7F892B90FB81F9E9CF8091E70281600C
:103B6000BACF8091E7028260B6CF8091E70284608D
:103B7000B2CF8091E8028160D9CF8091E802826063
:103B8000D5CF8091E7028064A6CF0E940A1580916C
:103B9000E7028068A0CF8091E8028360C7CF809160
:103BA000E7028E7F98CF8091E8028D7FBFCF809112
:103BB000E7028F7E90CF8091E7028F7D8CCF0E94AD
:103BC0000A158091E7028F7786CF8091E702837F85
:103BD00082CF8091E8028C7FA9CF0E940A15909134
:103BE000E702892F97FB87F9805875CF8091C8022B
:103BF0000631ECE51E0709F08AC38A7A91E009F4E0
:103C000090E09093550269E2811165E38CE991E0BF
:103C10000E9404080E948C08C2CE8091030380FF9A
:103C200003C00E94F212BBCE0E949B19B8CE43EA99
:103C300059E16CEA79E10E947F09B1CE4CEA59E181
:103C400063EA79E1F8CF40EE52E169EE72E1F3CF39
:103C500049EE52E160EE72E1EECF48EC52E164EDE4
:103C600072E1E9CF44ED52E168EC72E1E4CF40EB60
:103C700052E16CEB72E1DFCF4CEB52E160EB72E1B1
:103C8000DACF40EE5DE061EF7DE0D5CF41EF5DE062
:103C900060EE7DE0D0CF65E082E00E94B6197FCE75
:103CA00068E086E0FACF6EE089E0F7CF64E18FE06C
:103CB000F4CF67E185E1F1CF88E164CE62E289E18A
:103CC000ECCF83E25FCE0F3DFCE51F0709F446C051
:103CD00009302DE5120709F444C001151C4509F00F
:103CE00047C00E940A158FEF94E3ECE081509040AA
:103CF000E040E1F700C00000F89481E08093E0002C
:103D000080E28093D8001092C9008FE19EE4019771
:103D1000F1F700C000001DBA109268001CBC10BE74
:103D20001FBA10927A0010926E0010926F001092DB
:103D30007100109272001092C9001092BC0014B869
:103D400017B81AB81DB810BA1092BC0015B818B838
:103D50001BB81EB811BA0C94003F21CE0E94110E60
:103D60001ECE80912B0391E0892780932B0317CEE1
:103D7000F70100811181992309F43DC0C8010E9417
:103D8000090CD82E682FC8010E94FA08B8018D2DA1
:103D90000E946D0A8C01882EF701A580A2944FE045
:103DA000A422D280D1101092C7028091C5028770E0
:103DB00099F0DD2089F0812F807F803421F080E22E
:103DC000800F883048F082E00E94B61A8091C502C8
:103DD0008770CC24C3948111C12CB12EB2943FE0E2
:103DE000B322FBE0FB1508F440C0EB2DF0E0E95AEC
:103DF000F24D0C94E22AC8010E94D108D82EC6CFF9
:103E0000212F2F70A22E107F19F0A29420EFA22252
:103E1000DD20C9F0AA2069F080E2800F883010F020
:103E200081100BC08091C802A82AA092C8020E94EB
:103E30008C08802F0E94521818C08091C702A82AAF
:103E4000A092C702F4CF802F0E941918AA2069F00F
:103E5000A094005E083010F0811046C08091C80226
:103E6000A822A092C8020E948C082B2D2850330B48
:103E70002430310510F40E947309CC20A9F0809100
:103E8000C50280FD11C0F701128285958595859543
:103E90000E94CE1AC7010E94EF1A8091C502859533
:103EA000859585950E94931A85E0F701DE011196AC
:103EB00001900D928A95E1F789819A810E94D1083B
:103EC0009A81E981F0E026E0929FE00DF11D112436
:103ED00034E5839FE00DF11D1124EE0FFF1FE55A1D
:103EE000FB4F859194919DCB8091C702A822A0920F
:103EF000C702B9CF312F3F70932E107F103219F0C7
:103F0000929490EF9922882041F081E0881631F157
:103F1000DD2079F1AA2041F18CCFDD2091F0909144
:103F2000C902892D892BA11003C00E943D099DCF94
:103F3000E1E0AE12FACF981709F497CF8093C90247
:103F400094CFA11006C00E948608892D0E943209D4
:103F50008CCFF1E0AF1609F488CFF5CFDD2031F03A
:103F600021E02A1508F481CF892DDFCFA1107DCF64
:103F7000ECCFAA2051F339E383128FC18FEF97EE74
:103F8000E3E081509040E040E1F700C0000085C1CF
:103F9000812F86958695837061F0813009F065CF19
:103FA000C8019370D11002C090E080E00E944709E0
:103FB0005CCFC8019370D11002C090E080E00E94F5
:103FC0005D0953CF802FDD2029F00E9463070E94F6
:103FD000BF144BCF0E949C06FACF812F837009F04B
:103FE00066C0D11042CF802F829586958770880F4A
:103FF000880F602F6F70462E512C712C612C082E6B
:1040000004C0440C551C661C771C0A94D2F740E08F
:1040100050E0BA0104FF0FC04FE050E060E070E0F4
:1040200004C0440F551F661F771F8A95D2F740952D
:10403000509560957095812F869586958370823016
:1040400019F1D8F40091CA021091CB022091CC0250
:104050003091CD02813069F04429552966297729AC
:10406000CB01BA0160237123822393230E940015A0
:10407000FCCE402A512A622A732ACB01BA01642954
:10408000752986299729F2CF442955296629772948
:104090000091CA021091CB022091CC023091CD0246
:1040A000CB01BA016027712782279327DFCF86953E
:1040B000DD2011F0812F8170882309F4D6CE802F66
:1040C000829586958770880F880F602F6F70462EB7
:1040D000512C712C612C082E04C0440C551C661CFC
:1040E000771C0A94D2F740E050E0BA0104FF0FC0F9
:1040F0004FE050E060E070E004C0440F551F661FC1
:10410000771F8A95D2F74095509560957095812FCD
:10411000869586958370823019F1D8F40091250335
:10412000109126032091270330912803813069F0F4
:104130004429552966297729CB01BA0160237123C7
:10414000822393230E94581A90CE402A512A622A31
:10415000732ACB01BA016429752986299729F2CFE0
:1041600044295529662977290091250310912603B2
:104170002091270330912803CB01BA0160277127D2
:1041800082279327DFCF1F70DD2029F0812F0E9427
:10419000CE1A802FCACE802F0E943209812F0E9412
:1041A000931A63CE802FF2EF8F1609F44EC0F815E4
:1041B00078F020EF821619F131EF831609F43DC033
:1041C000DD2009F465C0A11034CE812F8F713AC073
:1041D00093EF891609F43EC0E4EF8E12F1CFDD2093
:1041E00009F44BC01F71812F0E94CE1A28E0129F44
:1041F000C001112483608093C502812F23C0DD207C
:10420000B9F0A11032CE1F7161E070E080E090E063
:1042100004C0660F771F881F991F1A95D2F7009167
:104220002503109126032091270330912803A6CF60
:10423000F1E0FA1508F419CEE6CF812F8F71DD2059
:1042400009F4ADCF0E94CE1A10CE812F8F71DD20E0
:10425000C9F3A5CF60E070E0CB01DD2009F472CF97
:104260001F7161E070E080E090E004C0660F771F8E
:10427000881F991F1A95D2F765CF81E00E94B61A60
:1042800031E03A1508F0F1CD82E00E94B61AEDCD8A
:10429000AA2039F0893309F471CE802F0E941918B1
:1042A000E4CD812F8F717BCF1982F701828181113B
:1042B0007DCA82E18A83F70180818B8381818C832F
:1042C0008EEF8D8365E0CE0101960E948506E1C9DF
:1042D00085E0DE01119601900D928A95E1F7F701D4
:1042E000228189819A812111B2C90E94D108082FA7
:1042F000B6C906311C4509F03BCD8091550269E2F3
:10430000811165E38CE991E00E94DA0783CC827227
:10431000F801E35CFC45E431F10508F0D4CCED593B
:10432000F24D0C94E22A1F93CF93DF9380915B02AE
:10433000807FA9F480915802882389F080918D02B2
:10434000D0915C026091560270915702A09159027F
:10435000B0915A02C62FC72316E0D81304C0DF91CC
:10436000CF911F91089590E0109711F0CF3F19F46D
:1043700001968770F2CF189F9001199F300D11247C
:10438000F901E35AFD4F41814713F2CF40814613B3
:10439000EFCF42814111ECCF438154814A1B5B0B2B
:1043A000483C510528F780915B028F7080618093B3
:1043B0005B02F901EE59FD4F80818F70806180832F
:1043C00086E592E00E94EF1ADF91CF911F910C9445
:1043D0002809AF92BF92CF92DF92EF92FF920F9394
:1043E0001F93CF93DF93CDB7DEB761970FB6F894E5
:1043F000DEBF0FBECDBF8C0185E0F801DE011D964A
:1044000001900D928A95E1F7F80180819181E28017
:1044100026E5A22E22E0B22E6091590270915A0236
:104420006115710509F43EC1309156024091570261
:10443000232F24232F3F09F435C1C380D480F0906B
:104440005802F601E61BF70BFF2009F4FBC0209190
:104450005B02522F507FE83CF10508F0BBC05111C0
:1044600078C0FE2C491321C038131FC0E1101DC0B5
:104470002F70206120935B02C5010E94EF1A80918A
:104480005B02F80185838F2D61960FB6F894DEBF2D
:104490000FBECDBFDF91CF911F910F91FF90EF9095
:1044A000DF90CF90BF90AF900895CD2829F0282FAE
:1044B00029232F3F09F014C120E0F22FF170DF2EE5
:1044C00020FF3DC020918D0240915C0256E02413F4
:1044D00015C08D879E878D859E850E944B0C292F48
:1044E00022952F702230F8F0243020F59F70F9F0DB
:1044F000F8019581907FD9F4D12C1FC030E0529FF4
:10450000F001539FF00D1124E35AFD4F6181961382
:1045100006C06081861303C06281E61210C02F5F5F
:104520003F4F2770D4CF9F7011F0882329F3805E0E
:10453000883010F3C8010E94EF1AFD2CA4CFEE20A2
:1045400009F4A1CF80915B02816080935B02F12C22
:104550009ACF491312C0381310C0E1100EC0F801F1
:104560002583C8010E94EF1A86E0F801A6E5B2E0B3
:1045700001900D928A95E1F786CF8D879E878D8574
:104580009E850E94550C882309F1EE20F9F0809158
:104590005B02803270F020915602309157023887CA
:1045A0002F831986DB86CA868C87CE0107960E94E8
:1045B000EF1A86E0F801A6E5B2E001900D928A9527
:1045C000E1F70E949321FF24F3945DCFC8010E947C
:1045D000EF1AF9CF51110AC086E592E00E94EF1A56
:1045E00086E0F50111928A95E9F7B1CF49130FC022
:1045F00038130DC0E1100BC0F8012583C8010E94DB
:10460000EF1A86E0F50111928A95E9F73CCF8D8784
:104610009E878D859E850E94550C8823B9F2EE20D9
:10462000A9F280915B02803220F2209156023091F3
:1046300057023A8329831B82DD82CC828E83CE018E
:104640000196B5CFE83CF105E0F6FE2CEE2009F42A
:10465000BDCF491316C0381314C080915B0280FD92
:1046600083CF982F907F09F47FCFF8018583903F07
:1046700009F477CF982F907F905F8F70892B858377
:1046800070CF8D879E878D859E850E94550C8111E8
:1046900090CF80915B02816080935B02C8010E9491
:1046A000EF1AF1CEEE2009F491CF8D879E878D858C
:1046B0009E850E94550CF82E882309F487CF86E04A
:1046C000F801A6E5B2E001900D928A95E1F780919C
:1046D0005602909157020E944B0C0E949321D3CE18
:1046E00021E02E25EACE1F93CF93DF93CDB7DEB71F
:1046F00067970FB6F894DEBF0FBECDBF4B8B5C8BB8
:104700006D8B7E8B8F8B1A8A198A85E0FE017396DA
:10471000DE011D9601900D928A95E1F786E0FE017B
:104720003D96DE01179601900D928A95E1F7CE0134
:1047300007960E94E921811112C086E0FE0137969A
:10474000DE01119601900D928A95E1F78A859B858D
:10475000892B29F08F81988589238F3FB1F516E049
:1047600080918D0290915C0289131DC067960FB6EF
:10477000F894DEBF0FBECDBFDF91CF911F9108959A
:1047800096E0929FD001939FB00D1124A35ABD4F84
:10479000FE01319601900D929A95E1F780935C02AB
:1047A0000E942809DCCF819FC0011124835A9D4FAC
:1047B0000E94E9218823D1F280918D0290E0019638
:1047C0008770992780938D02CBCF20915C0230E0D7
:1047D000C90101968770992740918D0248171906E3
:1047E00079F60E940A1510925C0210928D0286E002
:1047F000E6E5F2E0DF011D928A95E9F7B0CF8F92EE
:104800009F92BF92CF92DF92EF92FF920F931F93EE
:10481000CF93DF938091180190911901892B91F02A
:104820008091BD018F5F8093BD0181110BC00E94FB
:104830000A1390E09093190180931801892B11F4C9
:104840000E94460D29ED822E22E0922E740110E086
:1048500000E097E0C92EC00E802F0E948C0E8C2D98
:104860000E948C0E802F0E948113E70199917E0196
:10487000D12C891729F0FE0131978083DD24D39450
:104880008C2D0E948113F7019681891709F47AC053
:10489000868381E08D29182B0E948E0C0F5F0730D4
:1048A000C1F60E94B3146091BF017091C001909352
:1048B000C0018093BF012091BE0130E0261B370B61
:1048C000820F931F6BEF70E00E94BA2AE82E392FF7
:1048D000082F8093BE01F090C201FF2009F4A3C00D
:1048E0001092C201E091D302F091D402AF01425F75
:1048F0005F4F20E08BEFB82E6BEF70E0A191AB3FE4
:1049000099F0CA2ED12C8E2D932F0A17E8F18C190D
:104910009D09092E000CAA0BBB0B4E97A105B105F2
:10492000C8F1DF011197BC92E417F50739F720931E
:10493000C201111102C0211178C01092C101A091D1
:10494000D302B091D4029091C201EFEEF2E080E088
:104950003191E40129914E01321751F03C913B3FD6
:10496000D9F40C93AF0141505109EA01288391E039
:104970001196D2E0ED3FFD0759F79093C201809365
:10498000C10157C080E086CFDB01AC19BD098A0F99
:104990009B1FBFCF2F2DC8CF81E0EACF9170892B0D
:1049A00009F458C08091C4019091C50181309847A5
:1049B00080F010922B036091250370912603809163
:1049C0002703909128030E94C3191092C5011092E9
:1049D000C4018091C4019091C50101969093C501D5
:1049E0008093C401812FDF91CF911F910F91FF9090
:1049F000EF90DF90CF90BF909F908F9008950E948E
:104A0000880C2EC0892B71F31092C5011092C4013D
:104A100060912503709126038091270390912803CC
:104A20000E94C319DFCF111188CF8091C10181117C
:104A300084CF8091C4019091C50120912B03222342
:104A400009F3009709F0AACF0E947F0C0E947C0C0A
:104A50000E94790CC091C301CC2389F20E947C0C86
:104A600081E0C827C093C3019DCFCDB7DEB7C9553C
:104A7000D1090FB6F894DEBF0FBECDBF84B7877FD4
:104A800084BF0FB6F894A8958091600088618093E8
:104A90006000109260000FBE80E890E00FB6F894BE
:104AA00080936100909361000FBE85B7806885BFD9
:104AB00085B7806885BF0E9496040E946305809137
:104AC000E20084608093E20078948091510388230F
:104AD000A1F01091E9001F709091EC00892F817076
:104AE00090FD80E8182B1092E9008091E80083FD8A
:104AF0000E941F151F701093E90082E084BD93E0AF
:104B000095BD9AEF97BD80936E000E940A1390E0C6
:104B100090931901809318010E948E0C0E949D0CA5
:104B2000E9EDF2E02FEE622E22E0722ED301119217
:104B30001D9222E0E73EF207D1F78EE090E00E945E
:104B4000532B8093D3029093D402FC010E962BEF4B
:104B500021938E179F07E1F790E080E00E94992C47
:104B60008F3E9E4F11F00E94110E89EA80938000C3
:104B700089E08093810024982C983F988AB18F7C9B
:104B80008AB96E98479A8BB180638BB9769A8FE019
:104B900090E00E94932C6093D5027093D60280938C
:104BA000D7029093D80267708FEF689FB0011124ED
:104BB00075956795759567957727709389006093CC
:104BC000880070938B0060938A0070938D006093CF
:104BD0008C000E94460D90E080E00E94992C8F3E50
:104BE0009E4F11F00E94110E82E090E00E948B2CEB
:104BF000809316030E94C00D9093E8028093E70211
:104C000083E090E00E948B2C682F70E090E080E0C1
:104C10000E9400156091250370912603809127035F
:104C2000909128030E94C3198091E902811136C036
:104C300090E080E00E94992C8F3E9E4F21F00E94D0
:104C4000110E0E94020E88E090E00E94932C609367
:104C500003037093040380930503909306036E7F10
:104C600071F40E94020E88E090E00E94932C609301
:104C700003037093040380930503909306030E943B
:104C80008409109209038091030380FF04C060E04F
:104C900086950E94541981E08093E9026091250372
:104CA0007091260380912703909128030E94C319D5
:104CB0008AE191E09093EB028093EA0218E1C12E21
:104CC000D12C0DEFA02E02E0B02E81E4882E912C85
:104CD0008C0E9D1E22E0820E911C80915103853026
:104CE000D9F4A0E4FA2EBEE0EB2EE60C5524539442
:104CF00000E112E180915103853009F4A1C10E94C5
:104D00000A150E9473091092EE028091ED02811142
:104D10000E948F190E943E190E94FF23E7E1F3E0F1
:104D2000AFEEB2E010E000E0302F8D912191281716
:104D300009F4EDC190E0FF24F3942827422F4F217E
:104D400009F4E0C161969FAF619762963FAF6297A9
:104D50008F2191E009F490E063969FAF63970E94E2
:104D6000B3148160782F65969FAF8EAF659761967B
:104D70004FAD619762965FAD629763966FAD639733
:104D800065968FAD65970E947323F801E95EFC4F2D
:104D90008081F826F08280910903882309F441C0BC
:104DA00080910803E0910303E695E81BE093FF027E
:104DB000823009F0D3C1F0E0E45FF84FE4910E2FA8
:104DC00010E0F6EFEF2EF1E1FF2E80910003882333
:104DD00089F0109200030E94B31498012095309539
:104DE000820F931F9093FE028093FD0210920203A4
:104DF000109201038091FD029091FE020E94CB0768
:104E00008017910770F0E091FD02F091FE020E0F05
:104E10001F1F1093FE020093FD028DEF92E0F70139
:104E2000099585E0E0E1F3E0DE01119601900D9235
:104E30008A95E1F7F0901103E090120310911303AB
:104E40000091140310921103109212031092130395
:104E5000109214038F2D8E2909F448C080910E03FF
:104E600090910F030E94CB079C0190910D03992311
:104E700009F482C225313105C8F19F3F19F09F5FC7
:104E800090930D03FF2059F00E943F079FEF1F14DE
:104E90000CF491E0899F802D112480931103EE2062
:104EA00059F00E943F079FEF1E140CF491E0899F78
:104EB000802D112480931203309111033323B1F01C
:104EC00020911203222391F045EB3403C0011124F9
:104ED000992309F4AFC19093110345EB240390018A
:104EE0001124332309F4AAC130931203812F802B9C
:104EF00009F448C080910B0390910C030E94CB07EA
:104F00009C0190910A03992309F431C2253131059E
:104F1000C8F19F3F19F09F5F90930A03112359F046
:104F20000E941F079FEF11160CF491E0899F802DBE
:104F3000112480931303002359F00E941F079FEF51
:104F400010160CF491E0899F802D11248093140396
:104F5000309113033323B1F020911403222391F0F5
:104F600045EB3403C0011124992309F46BC19093DC
:104F7000130345EB240390011124332309F466C184
:104F8000309314038091110390911203892B909117
:104F90001303892B90911403892B11F00E94BF14E5
:104FA00085E0FE013196A0E1B3E001900D928A9573
:104FB000E1F70E94730990911503891721F00E946F
:104FC00073098093150380915103843009F085CED5
:104FD00085E08093E9008091E80082FF7ECE809199
:104FE000E80090E085FF06C00E94B504882309F41C
:104FF00031C191E08091E8008B778093E80099239C
:1050000009F46BCE1981111141C180912B038823C2
:1050100009F457C110922B0381E080932A03229652
:105020001FAE229723961FAE23978EEF24968FAF45
:10503000249763E0CE018F5B9F4F0E9485064DCE83
:1050400080915103843009F43DC01092EC020FB6F8
:10505000F894A895C09260000FBEF0926000109284
:1050600009038091EE02811116C05092EE028091E8
:105070000303982F91709093ED028E7F809303032A
:105080004FEF80E792E0415080409040E1F700C050
:1050900000000E94E00E83B7817F846083BF83B7E6
:1050A000816083BF7894889583B78E7F83BF0FB666
:1050B000F894A895809160008861809360001092B8
:1050C00060000FBE80915003882309F413CE0E9424
:1050D0000A1390E090931901809318010E948E0C9E
:1050E0000E949D0CEFEEF2E01192AE16BF06E1F7C2
:1050F0000E94FF23EFEEF2E08191811122C1EE12B6
:10510000FBCFF8CD9F5FFF0C963009F017CE0F5FF5
:105110001F4F0E30110509F007CE8FEF66968FAF47
:10512000669767968FAF679768961FAE68970E94DD
:10513000B3148160782F6A969FAF8EAF6A97669698
:105140004FAD669767965FAD679768966FAD689746
:105150006A968FAD6A970E9473231DCE863059F4EC
:10516000F0E0E75FF84FE4910E2F10E0EAE0EE2E5A
:10517000E2E1FE2E2ACE893061F4E695F0E0EA5FA6
:10518000F84FE4910E2F10E07EEDE72E7FE0F72E32
:105190001CCE8F3061F4E695F0E0ED5FF84FE491BE
:1051A0000E2F10E068E0E62E60E1F62E0ECE85317F
:1051B00059F4F0E0E050F94FE4910E2F10E057E77A
:1051C000E52E50E1F52E01CE08E210E027ECE22EAC
:1051D00020E1F22E883109F4F8CD833249F4EEEF64
:1051E000F6E0059114914BE9E42E41E1F42EEDCD6A
:1051F00004EF11E090E5E92E91E1F92E843209F4F3
:10520000E4CD853281F48E2F63E00E94A02AE92F3D
:10521000F0E0E550F94FE4910E2F10E035E5E32E74
:105220003FE0F32ED2CD00ED17E081E8E82E86E0D6
:10523000F82ECBCD81E0809311034FCE81E0809397
:10524000120354CE81E08093130393CE81E08093C8
:10525000140398CE00E410E0CE0101967C01809109
:10526000E80085FD0AC08091E8008B778093E80014
:105270000E94B504882399F3BCCE8091F100F70118
:1052800081937F010150110951F7B3CE1130C9F458
:1052900022961FAE229723961FAF23978CE0E5E25C
:1052A000F1E0D40101900D928A95E1F78EEF6096BE
:1052B0008FAF60976FE0CE018F5B9F4F0E94850696
:1052C0000CCD80912A038823D1F1123041F01330A4
:1052D000F9F081E022968FAF229761E0ABCE60912A
:1052E00025037091260380912703909128030E9443
:1052F000390822961FAE229723961FAF2397249634
:105300008FAF24978EEF25968FAF259764E092CECE
:105310008A81813041F0882341F08230D1F681E0EA
:105320008093290302C01092290322961FAE229770
:1053300083E023968FAF239780912903E0CF8FEFEF
:10534000C9CF09BD19BD09B400FEFDCF8091D800B9
:105350008F7D8093D8008091E00082608093E00090
:105360008091E00081FDFCCF0E940A15C3CC213959
:10537000314008F0D0CD06CE232B09F080CDB6CD3C
:105380001F921FB61F9211248F939F93AF93BF93C9
:105390008091EC02811113C08091CE029091CF02D6
:1053A000A091D002B091D1024196A11DB11D809370
:1053B000CE029093CF02A093D002B093D102BF91BE
:1053C000AF919F918F911F901FBE1F9018951092C3
:1053D000B9008CE08093B8000895EF92FF920F938C
:1053E0001F93CF93DF93182FEB011092BC0084EA38
:1053F0008093BC000E94B3147C018091BC0087FFA5
:1054000027C08091B900887F883029F08091B90049
:10541000887F8031D9F51093BB0084E88093BC006D
:105420000E94B3148C018091BC0087FF24C020919E
:10543000B900287F90E080E02831B1F081E090E071
:10544000203411F490E080E09195819591090CC091
:10545000CF3FDC0791F20E94B3148E199F098C177D
:105460009D0758F28EEF9FEFDF91CF911F910F9123
:10547000FF90EF900895CF3FDC07A9F20E94B3148C
:10548000801B910B8C179D0770F2ECCF8FEF9FEF75
:10549000EBCF0F931F93CF93DF93EB018093BB0070
:1054A00084E88093BC000E94B3148C018091BC00FE
:1054B00087FF11C02091B900287F81E090E0283259
:1054C00011F490E080E0919581959109DF91CF9161
:1054D0001F910F910895CF3FDC0741F30E94B31451
:1054E000801B910B8C179D0708F38EEF9FEFEECF7B
:1054F0000F931F93CF93DF93EC0184E88093BC005C
:105500000E94B3148C018091BC0087FF08C0809179
:10551000BB0090E0DF91CF911F910F910895CF3F95
:10552000DC0789F30E94B314801B910B8C179D0735
:1055300050F38EEF9FEFEECF84E98093BC00089587
:10554000991B79E004C0991F961708F0961B881FD5
:105550007A95C9F78095089587FB082E062687FD62
:10556000819567FD61950E94A02A0EF4919507FC34
:1055700081950895AA1BBB1B51E107C0AA1FBB1F41
:10558000A617B70710F0A61BB70B881F991F5A95CF
:10559000A9F780959095BC01CD01089597FB072E42
:1055A00016F4009407D077FD09D00E94BA2A07FCB0
:1055B00005D03EF4909581959F4F08957095619523
:1055C0007F4F0895EE0FFF1F0590F491E02D099491
:1055D0000E94272D332312F48A1B9B0B0C94F22A72
:1055E0000E94272DB7FF0895821B930B08958F9279
:1055F0009F92AF92BF92CF92DF92EF92FF92CF93A2
:10560000DF93EC01688179818A819B816115710545
:105610008105910521F464E279ED8BE597E02DE1B8
:1056200033EF41E050E00E94D32C49015A019B0125
:10563000AC01A7EAB1E40E94F22C6B017C01ACEE54
:10564000B4EFA50194010E94002DDC01CB018C0D6B
:105650009D1DAE1DBF1DB7FF03C00197A109B04836
:1056600088839983AA83BB839F77DF91CF91FF9033
:10567000EF90DF90CF90BF90AF909F908F90089564
:105680000E94F72A089580E091E00E94F72A089589
:10569000B0E0A0E08093000190930101A09302018B
:1056A000B093030108950F931F93CF93DF9382303C
:1056B000910510F482E090E0E0916003F0916103C5
:1056C00030E020E0B0E0A0E0309799F421153105FA
:1056D00009F447C0281B390B24303105C0F58A81F5
:1056E0009B816115710571F1FB0193838283FE013A
:1056F00011C0408151810281138148175907F8F088
:105700004817590799F4109761F012960C93129765
:1057100013961C933296CF01DF91CF911F910F9179
:1057200008950093600310936103F4CF21153105B0
:1057300019F04217530718F49A01BD01EF01DF0178
:10574000F801C2CF9093610380936003D0CFFE0134
:10575000E20FF31F819391932250310939832883FB
:10576000DACF20915E0330915F03232B41F4209127
:1057700006013091070130935F0320935E0320916F
:105780000401309105012115310541F42DB73EB7D3
:105790004091080150910901241B350B40915E0393
:1057A00050915F034217530708F0B5CF241B350B08
:1057B0002817390708F4AFCFBC016E5F7F4F26175B
:1057C000370708F4A8CF640F751F70935F036093C9
:1057D0005E03FA01819391939ECFCF93DF9300975D
:1057E000E9F0FC01329713821282C0916003D091DC
:1057F0006103DE0130E020E02097A1F420813181B7
:10580000820F931F20915E0330915F0328173907A1
:1058100009F067C0F0935F03E0935E03DF91CF91DF
:105820000895DA01AE17BF0708F040C012964D91F7
:105830005C9113979D014115510599F7D901139674
:10584000FC93EE9312974D915D91A40FB51FEA174B
:10585000FB0779F4808191810296840F951FD9010D
:1058600011969C938E938281938113969C938E9331
:105870001297B0E0A0E08A819B810097B9F5FE0104
:1058800081919191E80FF91F80915E0390915F03E0
:105890008E179F0719F6109761F510926103109209
:1058A0006003D0935F03C0935E03B8CFB383A2833A
:1058B00040815181840F951FA817B90771F44E5F7D
:1058C0005F4F8D919C911197480F591F51834083D1
:1058D00012968D919C91938382832115310509F055
:1058E000ADCFF0936103E093600398CFDE01EC014C
:1058F000C2CF13961C921E921297D3CFFC01415037
:10590000504030F001900616D1F73197CF0108953D
:10591000882799270895F999FECF92BD81BDF89AFD
:10592000992780B50895A6E1B0E044E050E00C94DA
:10593000C52CA8E1B0E042E050E00C94C52C262F25
:10594000F999FECF92BD81BDF89A019700B4021675
:1059500039F01FBA20BD0FB6F894FA9AF99A0FBE23
:1059600008950396272F0E94A02C0E949F2C252F7C
:105970000E94A02C242F0C94A02C0196272F0E946B
:10598000A02C0C949F2CDC01CB01FC01F999FECFDB
:1059900006C0F2BDE1BDF89A319600B40D924150B7
:1059A0005040B8F70895052E97FB1EF400940E940E
:1059B000EA2C57FD07D00E94052D07FC03D04EF4BA
:1059C0000C94EA2C50954095309521953F4F4F4FC0
:1059D0005F4F089590958095709561957F4F8F4F9B
:1059E0009F4F08950E94272DA59F900DB49F900D65
:1059F000A49F800D911D11240895B7FF0C94F22CE3
:105A00000E94F22C821B930B0895A1E21A2EAA1B6E
:105A1000BB1BFD010DC0AA1FBB1FEE1FFF1FA2175E
:105A2000B307E407F50720F0A21BB30BE40BF50B5B
:105A3000661F771F881F991F1A9469F760957095E4
:105A4000809590959B01AC01BD01CF010895A29F67
:105A5000B001B39FC001A39F700D811D1124911D42
:105A6000B29F700D811D1124911D0895F894FFCFF0
:105A7000640C640C6D0C6D0C6F0C6D0C6D0C6D0C6E
:105A8000640C640C740C6D0C6D0C740C4016681670
:105A9000BD176816BD179B16BC16BD17681775177E
:105AA000E219F119001A0F1A321A391A371A001F9F
:105AB000001F7A1F7A1FC81FE21F351F351FED1FF9
:105AC000C320D220D2200D1E171E1E1E231E281EEC
:105AD0002D1E321E371E3C1E411E461EC11C4B1E73
