:100000000C94CE040C94EB040C94EB040C94EB04D1
:100010000C94EB040C94EB040C94EB040C94EB04A4
:100020000C94EB040C94EB040C94E5140C9402195E
:100030000C946E300C94EB040C94EB040C94EB04D5
:100040000C94EB040C94EB040C94EB040C94EB0474
:100050000C94EB040C94BC150C94EB040C94EB0482
:100060000C94EB040C94EB040C94EB040C94EB0454
:100070000C94EB040C94EB040C94EB040C94EB0444
:100080000C94EB040C94EB040C94EB040C94EB0434
:100090000C94EB040C94EB040C94EB040C94EB0424
:1000A0000C94EB040C94EB040C94EB040501098014
:1000B000A101850319012AB700150126B700950192
:1000C00075108100C0050C0901A101850419012AE0
:1000D000A002150126A002950175108100C005013E
:1000E0000906A1018505050719E029E71500250185
:1000F0009508750181020507190029EF15002501F2
:1001000095F075018102050819012905950575010C
:100110009102950175039101C005010902A1010930
:1001200001A100050919012905150025019505758D
:10013000018102950175038101050109300931151D
:1001400081257F95027508810609381581257F95DF
:100150000175088106050C0A38021581257F950175
:1001600075088106C0C005010906A101050719E04F
:1001700029E715002501950875018102950175088B
:1001800081010507190029FF150026FF0095067556
:100190000881000508190129059505750191029549
:1001A0000175039101C0000101010101010101017B
:1001B0000202020202020202020303030303030318
:1001C00003040404040404040505050505060606E5
:1001D0000606070707070708080808090909090AA2
:1001E0000A0A0B0B0B0C0C0C0D0D0D0E0E0E0F0F47
:1001F0000F101011111112121313141415151616D5
:100200001717181819191A1A1B1B1C1D1D1E1E1F43
:100210002020212222232424252626272829292A92
:100220002B2C2D2D2E2F30313232333435363738BA
:10023000393A3B3C3D3E3F404142434445464748B6
:10024000494A4C4D4E4F50515354555658595A5B8C
:100250005D5E5F616264656668696B6C6D6F70722C
:10026000737577787A7B7D7E8082838587888A8C98
:100270008E8F91939596989A9C9EA0A2A3A5A7A9CC
:10028000ABADAFB1B3B5B7BABCBEC0C2C4C6C9CBC3
:10029000CDCFD1D4D6D8DBDDDFE2E4E7E9EBEEF079
:1002A000F3F5F8FAFDFFFFAA7F5540222325262803
:1002B000292A2C2D2F3032333536383A3B3D3E40FB
:1002C00042434547494A4C4E5051535557595A5C41
:1002D0005E6062646668696B6D6F71737577797B58
:1002E0007D7F81838587898A8C8E90929496989A57
:1002F0009C9E9FA1A3A5A7A8AAACAEAFB1B3B4B66C
:10030000B8B9BBBCBEBFC1C2C3C5C6C7C9CACBCCC6
:10031000CDCED0D1D2D2D3D4D5D6D7D7D8D9D9DA99
:10032000DADBDBDBDCDCDCDCDCDDDDDDDDDCDCDC0E
:10033000DCDCDBDBDBDADAD9D9D8D7D7D6D5D4D336
:10034000D2D2D1D0CECDCCCBCAC9C7C6C5C3C2C10B
:10035000BFBEBCBBB9B8B6B4B3B1AFAEACAAA8A768
:10036000A5A3A19F9E9C9A98969492908E8C8A8920
:10037000878583817F7D7B79777573716F6D6B69FD
:1003800068666462605E5C5A5957555351504E4CD2
:100390004A4947454342403E3D3B3A383635333281
:1003A000302F2D2C2A29282625232200000000008A
:1003B0000000000000000000000000000000007EBF
:1003C0000F00D4FFFFFFC70000007800000000000E
:1003D0000000002A2B2800000000000000000000A0
:1003E00000000000000029000000002C1E34202125
:1003F0002224342627252E362D3738271E1F20216C
:1004000022232425263333362E37381F04050607CA
:1004100008090A0B0C0D0E0F1011121314151617E4
:1004200018191A1B1C1D2F3130232D350405060702
:1004300008090A0B0C0D0E0F1011121314151617C4
:1004400018191A1B1C1D2F3130354C0102E0010216
:10045000E30102E10101210103E10103E30103E002
:10046000000000000000000000000000000000008C
:1004700057086233000000000000003600126414C8
:1004800000000000000000370001570D00E30002EB
:10049000570000130018000E000158000000001C57
:1004A000000C001B00000000000000000000000025
:1004B000000000000000000000000000000000003C
:1004C0000000000900070005000000000000000A0D
:1004D0000016001000025800000000060017001A65
:1004E00000E400035700001500110019000000008F
:1004F0000000000F000B721D000000000000000053
:1005000000000000000000000001000100010001E7
:100510000001000000010031001E001E0201000168
:100520000001002F021F001F020100010001002F27
:1005300000200020020100010001002602045721D2
:1005400002145001000100380022002202000001C4
:100550000001000100000001000000010001000195
:1005600000000001000000010001002E0023002314
:100570000200000100010027022400240201000102
:1005800000010030002500250201000100010030BB
:1005900002260035000100010001002D0027003176
:1005A0000201000100010000000100010001000043
:1005B0000001000100010001000100000001000530
:1005C0005706570757010001000100F400F200FB35
:1005D00000010001000100F000F100FC000100E258
:1005E000000100F500F3002800135001000100F99C
:1005F00000FA00085700000100010001000000019E
:1006000000000001000100010000000100000001E5
:10061000000100A900AA00A8000000010001004A92
:10062000000957AC000100010001004E000A57AB61
:1006300000E400E10001004B000B57FD0000000149
:100640000001004D000C57FE0000000100010001F8
:100650000000000100000000000100010001000096
:1006600000010000000100C85CC95CC45C0100011D
:10067000000100C65CC75C2B5D000001000100CAE0
:100680005CCB5CC35C145C005C0100CC5CCD5C2C7E
:100690005D1050010001000000BD00BE000000011F
:1006A0000001000100000001000000010001000144
:1006B00000000001000000010001000000095D626F
:1006C000000000010001005F005C005900125001B1
:1006D00000010060005D005A000000E200010061BE
:1006E000005E005B0001000100010000000000004E
:1006F00000010001000100010000000000010000F5
:1007000000010001000100010001000000010029BA
:10071000001D081D0A0100010001000D57190850B5
:10072000010100010001002D5D5201510112500133
:10073000000100F900FA004F011050010001000013
:1007400000000000000000010001000100000001A5
:100750000000000100010001000000010000000194
:100760000001000100010001000000010001000182
:100770000001000100010001000100010001000171
:100780000001000100010001000100010001000161
:100790000001000100010001000100010001000151
:1007A00000010001000100000032190A00047F3F2F
:1007B0001F643214643214783C1E1E140A050A00A9
:1007C000000000000306B200080001000000A800BD
:1007D000080002000300A0001400030057494E5512
:1007E00053420000000000000000000084000400EC
:1007F00007002A0044006500760069006300650078
:1008000049006E00740065007200660061006300BC
:100810006500470055004900440073000000500087
:100820007B0039004400420037004600310046009A
:1008300044002D0037004500370041002D003400F2
:100840003000300038002D003900330036004200FF
:100850002D003600420041003600430031003900CF
:10086000410033003000380063007D0000000000CC
:100870001B0301636F6E6669677572652E6572672B
:100880006F646F782D657A2E636F6D0009026B00BF
:10089000040100A0FA09040000010301010009217C
:1008A000110100012240000705810308000A090424
:1008B00001000103010200092111010001224D0084
:1008C0000705820308000A09040200010300000072
:1008D000092111010001226D000705830320000A90
:1008E0000904030002FF000000070584034000051F
:1008F00007050503400005120110020000000897DB
:1009000032754901000102000122034500720067AF
:10091000006F0044006F007800200045005A00205E
:10092000005300680069006E006500000030035A43
:100930000053004100200054006500630068006E11
:10094000006F006C006F006700790020004C0061B0
:100950000062007300200049006E00630000000484
:10096000030904050F3900021C100500DF60DDD803
:100970008945C74C9CD2659D9E648A9F00000306F2
:10098000B20045001810050038B60834A909A04780
:100990008BFDA0768815B6650001420011241FBEAC
:1009A000CFEFDAE0DEBFCDBF24E0A2EDB2E001C0C0
:1009B0001D92A63BB207E1F712E0A0E0B1E0EAE445
:1009C000F8E602C005900D92A23DB107D9F70E944A
:1009D000E42B0C94E4330C940000E8EDF0E080810B
:1009E0008E7F80831092E2001092DA001092E10074
:1009F000A0EEB0E08C9181608C9380818F778083B2
:100A000019BCA7EDB0E08C918E7F8C9380818F7E96
:100A100080831092800408952091E4003091E500D5
:100A200095E6A9012091EC00822F817020FF06C07D
:100A30008091E80080FF06C080E008952091E800E2
:100A400022FD1AC08091A504882389F0853089F0A1
:100A50008091EB0085FD0FC02091E4003091E5000E
:100A600042175307F9F29150E1F684E0089582E0CD
:100A7000089583E0089581E00895EF92FF920F9327
:100A80001F93CF937C018B010E940C05C82F8823F4
:100A900071F08C2FCF911F910F91FF90EF900895DF
:100AA000F70181917F018093F10001501109011537
:100AB000110579F38091E80085FDF2CF8091E8007F
:100AC0008E778093E8000E940C05882381F3C82F5D
:100AD000E0CF8091A70487FF13C08091E80082FFD8
:100AE00006C08091E8008B778093E80004C0809175
:100AF000A5048111F2CF08958091A5048823D9F32C
:100B00008091E80080FFF8CF8091E8008E77ECCFED
:100B1000982F9093E900242F762F50E0891731F019
:100B20007091EC002091ED005091F00021FD07C084
:100B30009F5F973071F78093E90081E008953091CD
:100B4000EB003E7F3093EB003091ED003D7F309322
:100B5000ED003091EB0031603093EB007093EC00CE
:100B60002093ED005093F0002091EE0027FDE0CFA0
:100B700080E00895CF92DF92EF92FF920F931F9340
:100B8000CF93DF93C8EDD0E088818F7E8883E7ED37
:100B9000F0E080818160808384E082BF81E0809387
:100BA000800488818E7F888302EE10E0F801108235
:100BB0001092DA0081EEC82ED12CF60110828881C5
:100BC0008F77888388818068888388818F7D8883F8
:100BD00019BC1092A5041092A6041092A4041092BD
:100BE000A30490EEE92EF12CF70180818B7F8083A6
:100BF00088818160888342E060E080E00E9488050F
:100C0000F60180818E7F8083F801808181608083FE
:100C1000808188608083F70180818E7F80838881D6
:100C200080618883DF91CF911F910F91FF90EF90AA
:100C3000DF90CF900895FC018091AD049091AE04B7
:100C400086179707A0F06115710529F48091E800D7
:100C50008E778093E80090E06115710551F4911151
:100C600008C08091E80082FF35C080E00895BC0193
:100C7000F2CF8091A5048823C9F18530C9F1809114
:100C8000E80083FD31C08091E80082FDEACF8091C9
:100C9000E80080FFE1CF8091F3002091F200382F2F
:100CA0006115710519F02830310558F091E02830B0
:100CB000310509F090E08091E8008E778093E8009C
:100CC000CBCF84918093F1003196615071092F5FF1
:100CD0003F4FE6CF8091A504882341F0853041F055
:100CE0008091E80083FFBDCF81E0089582E0089500
:100CF00083E00895FC018091AD049091AE048617C5
:100D00009707A0F06115710529F49091E8009E778E
:100D10009093E80090E06115710551F4911108C0BD
:100D20008091E80082FF34C080E00895BC01F2CFDA
:100D30008091A5048823C1F18530C1F18091E8003C
:100D400083FD30C08091E80082FDEACF8091E80009
:100D500080FFE1CF8091F3002091F200382F6115E0
:100D6000710519F02830310558F091E0283031052F
:100D700009F090E02091E8002E772093E800CBCF97
:100D800081918093F100615071092F5F3F4FE7CF50
:100D90008091A504882341F0853041F08091E800DE
:100DA00083FFBECF81E0089582E0089583E0089537
:100DB00008958091820408952091A504243091F42F
:100DC0002093E90070E050E040E00E943D05882358
:100DD00021F010927E0410927F048091E8008E77BB
:100DE0008093E800089590916504803F59F48091C4
:100DF000660487FF0DC01092660491110BC010921B
:100E0000610408C0813F81F48091660418169CF348
:100E1000992381F08091670490916804892B09F0EF
:100E200064C010925E040895823F49F497FFF0CFAA
:100E300010926504809166048111ECCFE0CF833F6E
:100E400019F41916ACF3E4CF20916704893F29F413
:100E50001216F4F610926704DBCF8A3F19F427FFCD
:100E6000D7CFF8CF209168048B3F29F427FFD0CF4C
:100E700010926804CDCF8C3F19F41216CCF3C8CF72
:100E8000843F31F4809164048E7F80936404C0CFEA
:100E9000853F21F4809164048D7FF7CF863F21F454
:100EA000809164048B7FF1CF873F21F480916404AB
:100EB000877FEBCF883F21F4809164048F7EE5CF5C
:100EC0008D3F31F4809126048E7F80932604A0CF3D
:100ED0008E3F21F4809126048D7FF7CF8F3F09F05C
:100EE00097CF809126048B7FF0CF089580912604C0
:100EF00080FD1AC081FD14C082FD14C080915E0483
:100F0000882391F08C3370F427E0829FC001112474
:100F10006CE370E00E947C31862F672B29F00895E6
:100F200083E0089587E0089581E008958091260484
:100F300080FD16C081FD16C082FD18C0809161043D
:100F4000882391F08C3390F423E2829FC001112416
:100F50006CE370E00E947C31862F672B49F0089586
:100F600088E0089581E1089585E0089583E2089579
:100F700081E00895803F31F40E9496078195809327
:100F800066040895813F19F40E949607F8CF823FC6
:100F900031F40E9496078195809365040895833FFC
:100FA00019F40E949607F8CF893F29F40E9476072A
:100FB0008093670408958A3F21F40E947607819503
:100FC000F7CF8B3F31F40E947607819580936804B8
:100FD00008958C3F19F40E947607F8CF843F31F4CE
:100FE000809164048160809364040895853F21F4B6
:100FF000809164048260F7CF863F21F4809164047D
:101000008460F1CF873F21F4809164048860EBCF46
:10101000883F21F4809164048061E5CF8D3F31F4F5
:101020008091260481608093260408958E3F21F4E8
:10103000809126048260F7CF8F3FB9F78091260414
:101040008460F1CF9C014FB7F89480912204909175
:101050002304A0912404B09125044FBF821B930B5D
:10106000089520915A022223C9F020913B0427FFC2
:1010700015C0E62FE695E695E695EE31D8F4E80F33
:10108000F92FF11D677021E030E001C0220F6A9551
:10109000EAF720958281282322830895FC01329665
:1010A00008962191621303C0DF0111971C92E81783
:1010B000F907B9F7089520915A022223C1F020912F
:1010C0003B0427FF14C0E62FE695E695E695EE3142
:1010D000F8F4E80FF92FF11D677021E030E001C04E
:1010E000220F6A95EAF78281822B82830895FC01A0
:1010F00032962FEF30E04191641751F02F3F19F4F1
:10110000411101C0232F3F5F3630A9F72F3F09F46B
:101110000895820F911D27FD9A95FC016283089521
:10112000CF92DF92EF92FF926C01EE24FF2420E039
:10113000C114D104E104F10419F0C701B60120E1A2
:10114000C72ED82EE92EFF24C114D104E104F104E6
:1011500019F0285FC701B6016B017C0154E0F694D9
:10116000E794D794C7945A95D1F7C114D104E104F8
:10117000F10419F02C5FC701B6016B017C0142E05C
:10118000F694E794D794C7944A95D1F7C114D10443
:10119000E104F10419F02E5FC701B6019695879519
:1011A00077956795672B682B692B09F02F5F822F46
:1011B000FF90EF90DF90CF90089580911D048111F2
:1011C00010921D040895809590911C04982390938B
:1011D0001C04089580911C0490911B04892B90910C
:1011E0001A04892B8093D20290911D049923A1F0B7
:1011F000892B8093D20280915A02882341F18091F9
:101200003B0487FF24C08EE1E4EDF2E090E08150E2
:1012100000F591110E94DD08E0913E04F0913F0439
:101220003097E1F080915A02882359F080913B0475
:1012300087FF07C08091D2028093D30285E080931C
:10124000D2020280F381E02D82ED92E0099486E0E3
:10125000DBCF21912223D9F29F5FD9CF0895E92FC7
:10126000EE0FE90FEE0F8E0F982F977086958695EB
:10127000869525E0829FF0011124EE51FC4F50E04D
:1012800040E080E0219130E0092E02C0369527959C
:101290000A94E2F721703327042E01C0220F0A942A
:1012A000EAF7822B4F5F5F4F4530510559F708959C
:1012B000E92FEE0FE90FEE0F8E0F982F977041E098
:1012C00001C0440F9A95EAF786958695869595E034
:1012D000899FF0011124EE51FC4F30E020E070E0D6
:1012E0005191DF011197CB01022E02C0969587958F
:1012F0000A94E2F7817081958527842385278C9352
:101300002F5F3F4F2530310559F708958091E10354
:101310009091B003981301C008958F5F8770FACF42
:10132000882341F0809590911B04892380931B04AE
:101330000C94EA080895882339F090911B04982BA7
:1013400090931B040C94EA080895882321F00E94CE
:10135000E3080C94EA080895882339F090911C045E
:10136000982B90931C040C94EA0808952091A403F0
:101370003091A5032817390771F09093A503809346
:10138000A403E0913E04F0913F04309721F00084E3
:10139000F185E02D099408952091A2033091A303D3
:1013A0002817390771F09093A3038093A203E0916B
:1013B0003E04F0913F04309721F00680F781E02D44
:1013C00009940895E0913E04F0913F04309721F094
:1013D0000190F081E02D099480E00895CF93DF9390
:1013E000EC0181E0898B80911C049F81892B809383
:1013F0001C0480911B049885892B80931B040E94F8
:10140000EA08EA81FB81309739F06C897D89CE0149
:101410000696DF91CF910994DF91CF910895EF92D5
:10142000FF920F931F93CF93DF93EC018A85811175
:1014300039C0EB80FC8087E5F81A26E12E9DC001BB
:101440002F9D900D1124DC01A85EBE4F1496ED91E6
:10145000FC911597309731F054966D917C91825E96
:101460009E4F099586E18E9D80018F9D100D112460
:10147000085E1E4FF80187810E94E308F80180850D
:10148000982F909580911B04892380931B040E94C0
:10149000EA08188219861B861E821D821092A803F4
:1014A0001092A703DF91CF911F910F91FF90EF90C2
:1014B0000895FA01811101C0FB010994809157043C
:1014C000982F9E7F29F4817082608093570408953D
:1014D0008635E8F381708465F8CFAF92BF92DF92D2
:1014E000EF92FF920F931F93CF93DF93082F162F46
:1014F000E901E42FF0E0EA55FE4F611111C0E491DB
:101500005E2F4E2F4983E8835A831B82DF91CF9150
:101510001F910F91FF90EF90DF90BF90AF900895D3
:10152000E62EF12C4491D42EE42FF0E026E0829FA9
:10153000C00111242FEF30E0B9010E946831802FE3
:1015400090E0880F991F55E5569FD001579FB00D29
:1015500011248A1B9B0B982F990F890F5901AE18E4
:10156000BF08AE9ED001AF9EB00DBE9EB00D11243F
:101570005B2F189F80011124012F11275901A01AF8
:10158000B10AAE9E8001AF9E100DBE9E100D1124BB
:101590005901A81AB108AE9CC001AF9C900DBE9C29
:1015A000900D1124892F9927281B390B2E9FC001DC
:1015B0002F9F900D3E9F900D1124E92F62307105F1
:1015C000A1F050F46115710509F49CCF61307105EB
:1015D00081F0EB2F512F96CF6430710569F080F0C8
:1015E0006630710509F48ECFF4CFE42F4B2F592FBD
:1015F00089CFE42F412F86CFEB2F542F492F82CF55
:101600004B2F5D2DE12F7ECF90913B0492FF06C0C2
:10161000282F28712830F9F4877F846093FF06C053
:10162000282F28712831F1F4877E846120913C04B1
:1016300020FF06C0382F38713830D9F4877F816099
:1016400021FF06C0282F28712831D1F4877E8161BF
:1016500094FD877E0895282F24712430F9F68B7F1E
:101660008860DCCF282F2471243101F78B7E8861BC
:10167000DDCF382F3171313019F78E7F8860E0CFA0
:10168000282F2171213121F78E7E8861E1CFCF9300
:10169000DF93972F70E026E0929F600D711D11245B
:1016A000FB0134E5839FE00DF11D1124EE0FFF1FB8
:1016B000EF59FB4FC591D491CE01C238D105B9F194
:1016C000E8F5C133D10509F499C050F5C932D10507
:1016D00009F48DC0CA32D10509F497C0C11521E5BE
:1016E000D20708F0BFC0C11530E5D30708F016C116
:1016F000C83ED10508F09DC0C03ED10568F5C83A86
:10170000D10508F089C0C53AD10508F0FFC0C13045
:10171000D10511F1209709F443C02497E8F440C0A3
:10172000C533D10509F45CC0C933D105B9F62091A0
:101730003B04237089F080EE90E00EC0C33ED105DB
:1017400091F168F4C03ED105F9F0C23ED10531F601
:1017500020913B0422FD20C0DF91CF910895C63E29
:10176000D10561F1C73ED10581F1C43ED10509F033
:10177000B5CF20913C0421FFEFCF80913B0484FD45
:101780000FC087EE90E0E8CF20913B0420FD12C10E
:1017900030913C0430FFE0CF83EE90E024FFDCCFBB
:1017A00090E080E0D9CF20913B0422FD06C130912A
:1017B0003C0430FDC0CF24FFCFCFF2CF20913B04BB
:1017C00023FFCACF24FDECCFDCCF20913B0423FDC7
:1017D000F7C030913C0431FFEECF84EE90E0BCCFF7
:1017E00020913B0425FFB8CF89E290E0B5CF20914E
:1017F0003B0425FFB1CF85E390E0AECF20913B04C1
:1018000026FFAACF8AE290E0A7CF20913B0426FFD3
:10181000A3CF81E390E0A0CFCF3BD10508F6C85A13
:10182000D0E0CC0FDD1FCB56DD4F888199819464C9
:1018300093CFC11520E2D20760F4C11531E0D30780
:1018400008F08ACFCE019065C03FD10508F084CF63
:10185000A7CFC11580E4D80708F4A2CFCE019F70AE
:10186000906A7ACFC11595E5D90710F5C11524E521
:10187000D20708F088C0C11533E5D30708F06FC060
:10188000C11582E5D80708F465C09E01237033278F
:1018900081E090E002C0880F991F2A95E2F7C69573
:1018A000C69520E2C29FE00111248C2B9D2B50C0D5
:1018B000C11599E5D907A0F4C11528E5D20708F0AC
:1018C00067C0C11536E5D30708F06ACF8C2F0E9498
:1018D000040B90E0982F882788279F7190623CCF57
:1018E000C1158AE5D80708F458C0CE019056811575
:1018F000904208F055CF8D2F8F710E94040B90E01D
:10190000982F882788279F718C2BE8CFC55AD0E065
:10191000CE56DD4F888190E090641ECF9E01E4E0BA
:1019200036952795EA95E1F723708C2F8695869555
:10193000837030E2839FC0011124922BC37021E099
:1019400030E002C0220F331FCA95E2F7822B932B9F
:101950009C6802CF9C2F8827816F906AFDCE9E01E4
:101960002370332781E090E002C0880F991F2A95E9
:10197000E2F7C695C69530E2C39FE00111248C2B97
:101980009D2B9A68E9CE9C2F8827846F906AE4CEBD
:101990009C2F8827806F906ADFCE8C2F8F700E94DB
:1019A000040B34E0D695C7953A95E1F7CF709C2F9C
:1019B0009069D2CE89E390E0CFCE82EE90E0CCCE9B
:1019C00086EE90E0C9CEBF92CF92DF92EF92FF9267
:1019D0000F931F93CF93DF938C01C0907904D09025
:1019E0007A04E0907B04F0907C0480911E04909136
:1019F0001F04A0912004B0912104C82AD92AEA2A00
:101A0000FB2ACFE1D0E0BC2ED701C6010C2E04C0CA
:101A1000B695A795979587950A94D2F780FD0EC045
:101A2000219788F7B12C8B2DDF91CF911F910F91CA
:101A3000FF90EF90DF90CF90BF900895B8018C2F6A
:101A40000E94470B019761F3EECFCF93DF93EC0138
:101A50000E94E30CBE01DF91CF910C94470B0E94D2
:101A6000250D292F2F7092959F7092509E3078F4FB
:101A7000E92FF0E0EA51FC4C0C949031803F19F0D2
:101A800020F4883E20F481E00895843FE1F380E073
:101A90000895883EC0F3813FD1F7F5CF822F869518
:101AA000869586950895CF93DF939C013A952115ED
:101AB0003F4168F5EC01CC27D170DC01AA27B27058
:101AC000AC01442754709C012227387094FF11C048
:101AD00080E1CD2B09F480E0AB2B09F08062452B2F
:101AE00009F08064232B09F08068FB01DF91CF911E
:101AF000099481E0CD2B09F480E0AB2B09F08260E2
:101B0000452B09F08460232B81F38860EECFDF91B1
:101B1000CF910895FC018081813041F4918591112C
:101B200014C09285992389F082E00895823041F4AF
:101B30008185811107C08285811106C083E00895E7
:101B400086E0089585E0089584E0089527982F9809
:101B5000089526982E98089525982D9808955698BA
:101B60005E980895279A2F9A0895269A2E9A089596
:101B7000259A2D9A08952098289821982998229896
:101B80002A9823982B9852985A9853985B983E9885
:101B9000469808958098889A8198899A84988C9A12
:101BA00085988D9A86988E9A87988F9A0895CF9364
:101BB000DF9300D00F92CDB7DEB79091A50494309B
:101BC00019F589837B836A8383E08093E9008FEF33
:101BD0009091E800815095FD06C095ED9A95F1F73A
:101BE00000008111F5CF8091E80085FF0DC050E025
:101BF00040E063E070E0CE0101960E943D058091D7
:101C0000E8008E778093E8000F900F900F90DF919F
:101C1000CF910895BC0184E00C94D70DBC0183E002
:101C20000C94D70D9C0182E08093E9009FEF809196
:101C3000E800915085FD06C085ED8A95F1F700001A
:101C40009111F5CF8091E80085FF0CC050E040E095
:101C500065E070E0C9010E943D058091E8008E7743
:101C60008093E8000895CF93DF93EC0180915A02AE
:101C70008823B1F180913B0487FF32C060E283E0AA
:101C80008093E9008FEF9091E800815095FD06C0A8
:101C900095ED9A95F1F700008111F5CF8091E8005C
:101CA00085FF1BC080915A0270E050E040E0811136
:101CB00004C050E040E068E070E0CE010E943D05C5
:101CC0008091E8008E778093E80080E2FE01A3E82F
:101CD000B4E001900D928A95E1F7DF91CF910895DC
:101CE00068E081E0CDCFEF92FF920F931F93CF93E7
:101CF000DF930E94AF0D0E94AC0D0E94A90D0E94BF
:101D0000A60D88E8E82EF12C8FEF90E0F701918383
:101D100080830AE810E0F80191838083CCE8D0E06A
:101D2000998388830E94B80DFFEF20E782E0F1508D
:101D300020408040E1F700C000000E94B50D9FEFF9
:101D4000E0E7F2E09150E040F040E1F700C0000031
:101D50000E94B20D2FEF80E792E02150804090402A
:101D6000E1F700C000000E94AC0DEFEFF0E722E0C9
:101D7000E150F0402040E1F700C000000E94A90DB2
:101D80008FEF90E7E2E081509040E040E1F700C043
:101D900000000E94A60D809129048770FFEF8F9F9D
:101DA000C001112495958795959587959927F701F9
:101DB00091838083F80191838083998388830E9433
:101DC000AF0D0E94AC0D0E94A90DDF91CF911F9124
:101DD0000F91FF90EF900C94A60DCF9384E090E0CC
:101DE0000E943933C82F81E290E00E943933982F46
:101DF0008C2FCF910895CF92DF92EF92FF926B01DB
:101E00007C010E945E0AB701A60188E090E0FF9085
:101E1000EF90DF90CF900C945F3380915B04882328
:101E200019F0815080935B046091570470915804BD
:101E30008091590490915A040C94FB0E80915B049C
:101E4000833018F48F5F80935B0460915704709126
:101E500058048091590490915A040C94FB0EE7E5C4
:101E6000F4E083E0808311828FEF82838383148286
:101E700060817181828193810C94FB0E6FEE7EEF05
:101E800090E080E00E946B3360E082E090E00E948E
:101E90004D3360E083E090E00E944D3310921E04C9
:101EA00010921F04109220041092210460E084E03C
:101EB00090E00E944D3360E081E290E00E944D335B
:101EC00060E085E090E00E944D3360E086E090E0C5
:101ED0000E944D336FEF87E090E00E944D3340E069
:101EE00050E0BA0188E090E00E945F3360E08DE04E
:101EF00090E00E944D3340E050E0BA0188E190E06C
:101F00000E945F3360E087E190E00E944D3340E043
:101F100050E0BA018CE190E00E945F3360E080E223
:101F200090E00E944D3340E050E0BA0188E190E03B
:101F30000E945F331092290410922A0410922B04FD
:101F400010922C0484E0806180932904409129043C
:101F500050912A0460912B0470912C048FE090E042
:101F60000E945F3340E050E0BA0183E190E00C94BE
:101F70005F33CF93C82F873070F580914E029091D8
:101F80004F02892B89F564E670E080E40E949B3063
:101F900090934F0280934E02892BD1F464E670E057
:101FA00082E10E94F73090934F0280934E02892B7A
:101FB00079F481E090E001C0880FCA95EAF764E601
:101FC00070E080950E94F73090934F0280934E020C
:101FD000CF910C944A318A30B9F040F4883071F0D6
:101FE000893079F0209A2898CF9108958C3091F01B
:101FF00070F08D30B9F73E9A4698F6CF219A29981D
:10200000F3CF229A2A98F0CF239A2B98EDCF529AA9
:102010005A98EACF539A5B98E7CFCF93DF9380919A
:10202000570480FD0BC0EBE1F3E0118210821282B5
:102030001382349653E0E735F507B9F7CBE1D3E0E7
:10204000FE01928120813181892F291708F4822F86
:10205000381708F4832F8383381B3183281B208390
:10206000981B9283349683E0E735F80751F70E9476
:10207000953064E670E084E80E949B3064E670E08E
:1020800088810E94F73064E670E089810E94F73011
:1020900064E670E08A810E94F73064E670E08B812C
:1020A0000E94F730249693E0C735D90739F70E948C
:1020B0004A31579A3BB13F772BB120684FB7F8941C
:1020C0008BE193E0FC015191CF0168E02BB9000056
:1020D00000C057FF3BB9550F000000C000C000C052
:1020E0003BB900C06A9591F7F3E087359F0751F738
:1020F0004FBF8FE594E00197F1F700C00000DF913A
:10210000CF9108958F929F92AF92BF92CF92DF921C
:10211000EF92FF920F931F93CF93DF93FC01B28056
:10212000948081E08483C7E5D3E00BE113E08BE486
:10213000A82E88248394EE24EA94F12C2BE4C22E5A
:10214000D12C91101DC01B821A8298014A8169818D
:1021500088810E946D0A25960C5F1F4F83E0C23A6A
:10216000D80779F7DF91CF911F910F91FF90EF90F2
:10217000DF90CF90BF90AF909F908F900C940D10F8
:102180002B81222309F121502B833C818A2D821B34
:10219000311101C0822F90915A04899FC0011124EE
:1021A000B6010E9468316A83211104C0332311F003
:1021B0001C82AB8222E02B1540F280915804888368
:1021C000809159048983C1CF0E94F13182309140BE
:1021D0000CF0BBCF82E08B15C0F40E94F131B70147
:1021E0000E947C31888322E02B1590F40E94F1310B
:1021F000209159042695622F70E00E947C31280FAF
:1022000029831A82AB828C82A0CF80915804EACFB6
:1022100020915904F5CFEF92FF921F93CF93DF9354
:10222000EC018BE1E82E83E0F82E10E08C81970121
:1022300040915A0460915904810F0E946D0A1F5EFB
:1022400084E0E80EF11C1F3F89F70E940D109A816F
:102250008C8190FF08C08F5F8C83DF91CF911F919D
:10226000FF90EF9008958150F7CFBF92CF92DF9209
:10227000EF92FF920F931F93CF93DF93FC01828124
:10228000DD24DA9480FD02C0DD24D3940BE113E059
:10229000D0E0C0E02FE0B22EF8011182108212824D
:1022A000138294E0E92EF12CC12C809118038C0D3F
:1022B00080310CF43DC06B2D0E945A31892F082EBD
:1022C000000C990B8C179D0791F480915A048E9DF8
:1022D000A0018F9D500D1124559547955595479513
:1022E000980160915904809158040E946D0ACD0CA8
:1022F000F1E0EF1AF108C9F621960C5F1F4FCF30BD
:10230000D10551F60E940D108091180391E0D91269
:1023100015C0811111C08EE080931803DF91CF9119
:102320001F910F91FF90EF90DF90CF90BF90089595
:1023300087FFC5CF815FC3CF8150EECF90E001967C
:10234000BE010E947C31E8CF0F931F93CF93DF93A0
:10235000CBE1D3E0FE011182108212821382349607
:1023600083E0E735F807B9F710E000E08091190342
:10237000082E000C990B081719078CF18091160193
:10238000082E000C990B801791074CF19E0140918B
:102390005A0460915904809158040E946D0A0F5F9D
:1023A0001F4F24960F30110509F70E940D108091E0
:1023B000150190911903980F90931903209116011C
:1023C000280F20931601121614F49E301CF08195EC
:1023D00080931501DF91CF911F910F91089519827C
:1023E00018821A821B82DBCF8F929F92AF92BF928C
:1023F000CF92DF92EF92FF920F931F93CF93DF93D1
:10240000EC014C81042F10E09801D8010E94D533D3
:102410009B01AC010E94A0334B015C01E0E2F0E0C3
:10242000E01BF10BA5E5B0E0AC019B010E94A033DD
:102430006B017C019F01DF010E9496319B01AC0181
:102440000E94AB339B01AC01280D391D4A1D5B1D59
:10245000C701B6010E94B333F22E822F90E039E219
:102460003F15D8F143E0249F90011124359527951D
:10247000122F10959BE1C92E93E0D92E00E085E53F
:10248000E82EEF188E2D01FD8F2D9601412F6091C2
:1024900059040E946D0A0F5F54E0C50ED11C0F3025
:1024A00089F70E940D109C8181E0992319F09032E8
:1024B00019F48FEF8093170180911701890F8C8396
:1024C000DF91CF911F910F91FF90EF90DF90CF9010
:1024D000BF90AF909F908F90089525E530E0A901BF
:1024E000481B590BCA019A01220F331F280F391FAD
:1024F00037FFBCCF2F5F3F4FB9CFEF92FF920F93C3
:102500001F93CF93DF938C01CBE1D3E0F12CE12C2F
:10251000F80194816091590480915804F7E0EF1616
:10252000F104FCF49923F9F09E0140915A040E94B1
:102530006D0A2FEFE21AF20A24968FE0E816F104F2
:1025400039F70E940D10F801848190E001968170A6
:1025500099278483DF91CF911F910F91FF90EF9086
:102560000895992309F39E0140E0E1CF909157042B
:1025700090FF0DC0EBE1F3E081836083428313821F
:10258000349693E0E735F907B9F70C940D100895E8
:102590000F931F93CF93DF9300D000D0CDB7DEB75A
:1025A0008C0180911A0381110AC09E012F5F3F4F59
:1025B0004FEF6FEF0E946D0A8A8180931A03F80132
:1025C0006481613069F080911A0340E0662361F014
:1025D00040E0623011F440911A0380E060E004C0F2
:1025E00060911A0340E080E00E94B612F8018481F5
:1025F00090E0019663E070E00E947C3184830F904C
:102600000F900F900F90DF91CF911F910F91089530
:10261000CF93DF9300D000D0CDB7DEB790915704B1
:1026200090FF0AC09E012F5F3F4F0E946D0A4B81B1
:1026300069818A810E94B6120F900F900F900F90BF
:10264000DF91CF910895CF93DF93EC01EC81F0E01F
:10265000E555FD4F4491E7E5F4E0628181810E94F8
:1026600008138C818F5F8C83DF91CF910895CF9376
:10267000DF93EC01E7E5F4E0438162818C810E9405
:1026800008138C818F5F8C83DF91CF9108955F92C7
:102690006F927F928F929F92AF92BF92CF92DF9272
:1026A000EF92FF920F931F93CF93DF9300D000D050
:1026B000CDB7DEB7182F762E042F622E90915704D7
:1026C00090FF29C0E92FE695AE2FB0E0A959BD4F84
:1026D0008C9180935C049E7F923089F59E012F5FE0
:1026E0003F4F812F0E946D0A4B8169818A810E9430
:1026F000B612109358047092590400935A0466203D
:1027000051F0609157047091580480915904909150
:102710005A040E94FB0E0F900F900F900F90DF91C4
:10272000CF911F910F91FF90EF90DF90CF90BF90CE
:10273000AF909F908F907F906F905F9008958230C0
:1027400019F400915A04D5CF863019F41091580429
:10275000D0CF8930D9F3893161F6E9518E2F81705C
:10276000582EE695F0E0EA55FD4FA590B490BB24B5
:102770008BE1E82E83E0F82ED12CC12C9FE0892E2E
:10278000912CC601B4010E946831812F511013C0F1
:10279000860F9701402F672D0E946D0ACA0CDB1C23
:1027A00084E0E80EF11C87E5E81683E0F80649F7B7
:1027B0000E940D109ECF861BECCFE7E5F4E043812D
:1027C0002CE0421B08F440E021E0628181810C94FE
:1027D0004713E7E5F4E043812CE0420F08F44FEFA4
:1027E00021E0628181810C944713E7E5F4E0628186
:1027F0002FEF621B08F460E021E0438181810C949B
:102800004713E7E5F4E062812FEF620F08F46FEF02
:1028100021E0438181810C944713E7E5F4E0818155
:1028200021E0438162818C500C944713E7E5F4E08A
:10283000818121E043816281845F0C944713E7E545
:10284000F4E080818E7F80836081718182819381B9
:102850000E94FB0E10925D042FEF80E792E0215062
:1028600080409040E1F700C000000C940D1080E221
:1028700090E090934F0280934E028091F20281117A
:102880000EC00E94953081E08093F2022FEF83ED1D
:1028900090E3215080409040E1F700C0000064E6E2
:1028A00070E080E40E949B3090934F0280934E0230
:1028B000892B09F04EC064E670E080E00E94F7309A
:1028C00090934F0280934E02892B09F042C064E638
:1028D00070E080E00E94F73090934F0280934E02A8
:1028E000892BB9F564E670E08FE30E94F73090938E
:1028F0004F0280934E02892B61F50E944A3164E6B3
:1029000070E080E40E949B3090934F0280934E02CF
:10291000892BF9F464E670E08CE00E94F730909324
:102920004F0280934E02892BA1F464E670E080E0B0
:102930000E94F73090934F0280934E02892B49F406
:1029400064E670E08FE30E94F73090934F0280932B
:102950004E020E944A3180914E020895CF938730F3
:1029600050F580914E0290914F02C0E0892B71F496
:1029700064E670E081E40E949B3090934F02809364
:102980004E02892B31F0C0E00E944A318C2FCF914A
:10299000089584E690E00E94263197FF05C0909349
:1029A0004F0280934E02EFCFC82FC09510924F0276
:1029B00010924E02E9CFCFB18FB1869586958C7378
:1029C000C3708C2BC82FC095E1CF1F920F920FB60A
:1029D0000F9211242F933F934F935F936F937F93A5
:1029E0008F939F93AF93BF93EF93FF938091E100F9
:1029F00082FF09C08091E20082FF05C08091E10062
:102A00008B7F8093E1008091DA0080FF24C0809169
:102A1000D80080FF20C08091DA008E7F8093DA009A
:102A20008091D90080FF9BC080E189BD82E189BD92
:102A300009B400FEFDCF81E08093A504809180045D
:102A4000811109C00E94ED040E94BA058091E20044
:102A500084608093E2008091E10080FF17C0809144
:102A6000E20080FF13C08091E2008E7F8093E2003D
:102A70008091E20080618093E2008091D8008062C2
:102A80008093D80019BC85E08093A5048091E10073
:102A900084FF29C08091E20084FF25C080E189BDC8
:102AA00082E189BD89B5982F917080FFFBCF80911D
:102AB000D8008F7D8093D8008091E1008F7E809335
:102AC000E1008091E2008F7E8093E2008091E2003D
:102AD00081608093E2008091A604882309F445C0B8
:102AE00084E08093A5048091E10083FF27C080915A
:102AF000E20083FF23C08091E100877F8093E100A3
:102B000082E08093A5041092A6048091E1008E7F5C
:102B10008093E1008091E2008E7F8093E2008091BB
:102B2000E20080618093E20042E060E080E00E9489
:102B300088058091F00088608093F000FF91EF910C
:102B4000BF91AF919F918F917F916F915F914F91C5
:102B50003F912F910F900FBE0F901F90189519BCA9
:102B60001092A5041092800476CF8091E30087FD37
:102B700093E09093A504B7CF78941F921FB61F924D
:102B800011248F939F93AF93BF93809122049091D0
:102B90002304A0912404B09125040196A11DB11D28
:102BA0008093220490932304A0932404B0932504DB
:102BB000BF91AF919F918F911F901FBE1F9018954D
:102BC0002FB7F8948091220490912304A0912404BB
:102BD000B09125042FBF08950E94E0159C019091AB
:102BE000650480916604982B21F030936304209350
:102BF00062049091670480916804982B21F03093CF
:102C0000600420935F04E0913E04F0913F0430970C
:102C100031F00480F581E02D84E694E00994089574
:102C200010921B0410921A040E94EA0885E0E4E660
:102C3000F4E0DF011D928A95E9F710926104109289
:102C40005E04109226040E94EC1590E080E00E9441
:102C5000CC0990E080E00C94B60960931E04709358
:102C60001F0480932004909321040C94101610925A
:102C70001C0480915A02E4EDF2E0882359F080911F
:102C80003B0487FF07C08EE1DF011D928A95E9F7BB
:102C90000C94101686E0F8CF1F93CF93DF93CDB737
:102CA000DEB7AA970FB6F894DEBF0FBECDBF87EA96
:102CB00094E02091F100FC012193CF01F4E08F3AE0
:102CC0009F07B9F78091A804893009F444C018F52A
:102CD000823009F4B9C0833009F46EC0813031F517
:102CE0008091A704813A11F58091E800877F809355
:102CF000E8008091AB049091AC04892B41F560E22F
:102D000083E894E070E00E947A068091E8008B7777
:102D10008093E8000BC08B3009F46BC008F483C0CB
:102D2000823409F4A2C0853409F4BCC08091E80063
:102D300083FF50C28091A7049091A8049A3008F0B4
:102D400049C2E92FF0E0EC50FC4C0C94903160E06B
:102D500090E080E0D7CF8091A704813239F780914D
:102D6000AB049091AC04009711F00297F9F68091B2
:102D7000E800877F8093E8008091E80082FF17C019
:102D80009091F3008091F200029729F48091F10074
:102D90008B7F813021F48091F100809382048091B7
:102DA000E8008B778093E8000E946905BFCF80918F
:102DB000A5048111E1CFBACF8091A704813A09F02F
:102DC000B5CF8091AB049091AC04892B09F0AECFC4
:102DD0008091E800877F8093E8008091E80080FF81
:102DE000FCCF80915A028093F1008091E8008E77A9
:102DF000D9CF8091A704813209F098CF8091AB049C
:102E00009091AC04892B09F091CF8091E800877FE5
:102E10008093E8000E9469058091A90480935A027A
:102E20000E94371683CF8091A704813209F07ECFAC
:102E30008091E800877F8093E8000E946905809177
:102E4000AA048093810472CF8091A704813A09F08B
:102E50006DCF8091E800877F8093E8008091E80043
:102E600080FFFCCF80918104BECF8091A704803C7D
:102E700009F05CCF8091AB049091AC04029739F5D6
:102E80008091A9049091AA04892B09F58091E8000A
:102E9000877F8093E8006BE170E080E798E00E9414
:102EA0001B0682CF8091A704803C09F03FCF809120
:102EB000AB049091AC04079751F48091E800877FB0
:102EC0008093E80062EB70E08EEB97E0E8CF8091B2
:102ED000EB0080628093EB0029CF803899F0823834
:102EE00009F078C18091AB048F70873008F072C10F
:102EF0008093E9008091EB0085FB882780F9109290
:102F0000E90006C08091A3049091A404911182600D
:102F10009091E800977F9093E8008093F1001092E1
:102F2000F1008091E8008E7751C1882309F43FC1F8
:102F3000823009F04FC18091A904811142C1809172
:102F4000AB048F702FEF280F263008F043C1809319
:102F5000E9002091EB0020FF34C1933031F48091DF
:102F6000EB0080628093EB002CC19091EB009061AC
:102F70009093EB0021E030E001C0220F8A95EAF740
:102F80002093EA001092EA008091EB008860EACF7B
:102F9000811120C11091A9041F778091E3008078EE
:102FA000812B8093E3008091E800877F8093E80085
:102FB0000E9469058091E80080FFFCCF8091E300CA
:102FC00080688093E30082E0111183E08093A50480
:102FD00001C18058823008F0FDC08091A904909111
:102FE000AA048C3D23E09207A1F583E08A838AE25C
:102FF00089834FB7F894DE01139620E03EE051E25A
:10300000E32FF0E050935700E49120FF03C0E295D6
:10301000EF703F5FEF708E2F90E0EA30C0F0C79600
:103020008D939D932F5F243159F74FBF8091E80016
:10303000877F8093E8006AE270E0CE0101960E94EB
:103040007A068091E8008B778093E800C3C0C09631
:10305000E7CF2091AB043091AC04492F5527433082
:10306000510551F1A0F44130510509F459C06BE606
:1030700070E08CE898E04230510509F0ABC0209137
:10308000E800277F2093E8000E941B06DACF413238
:10309000510539F14232510591F14F30510509F096
:1030A00099C0E5E6F9E0649170E083E699E0611586
:1030B000710509F48FC0E3CF99278130910571F034
:1030C000009731F0029709F085C0E9E0F9E002C00D
:1030D000EFE5F9E0649170E0CF01E9CFEDE2F9E0CE
:1030E000F9CF2330310508F075C0220F331FF901E5
:1030F000E453FD4F8081918169E070E0C0CF2330BF
:10310000310508F067C0F901EE0FFF1FEA53FD4FCC
:10311000808191812D533D4FF901608170E0C7CFCF
:1031200062E170E087EF98E0AACF803809F052C0E2
:103130008091E800877F8093E8008091A6048093C7
:10314000F100EFCE811146C01091A904123008F0B1
:1031500041C08091E800877F8093E8001093A60427
:103160000E946905112311F084E005C08091E300FD
:1031700087FDFACF81E08093A50442E061EC81E015
:103180000E94880542E061EC82E00E94880542E2EC
:1031900061EC83E00E94880542E361EC84E00E94D8
:1031A000880542E360EC85E00E94880513C08091A9
:1031B000A904813079F481E0933009F080E08093B4
:1031C000A4041092E9008091E800877F8093E800D2
:1031D0000E9469058091E80083FF0AC08091E800A1
:1031E000877F8093E8008091EB0080628093EB0002
:1031F000AA960FB6F894DEBF0FBECDBFDF91CF9178
:103200001F9108951F920F920FB60F9211242F93C2
:103210003F934F935F936F937F938F939F93AF935E
:10322000BF93CF93DF93EF93FF93D091E900DF70CB
:103230008091EC00C82FC17080FDC0E81092E900B9
:103240008091F000877F8093F00078940E944C1664
:103250001092E9008091F00088608093F000CD2BFF
:10326000CF70C093E900FF91EF91DF91CF91BF91B3
:10327000AF919F918F917F916F915F914F913F910E
:103280002F910F900FBE0F901F901895882379F102
:103290009CEF980F913A38F4682F82ED92E00E94EB
:1032A00031080C94EA0890E2980F983050F4877037
:1032B00091E001C0990F8A95EAF7892F0E94E308EF
:1032C000F0CF9BE5980F933020F490E080E00C94D1
:1032D000CC0998E5980F973120F490E080E00C94A9
:1032E000B609803F20F00E94F3060C94EC15089577
:1032F000CF93DF93EC010E944619CE01805E9109C5
:1033000065EA79E0089710F060E979E0CE01DF9195
:10331000CF910C94530D8FE39CE90197F1F700C016
:10332000000080910E03833059F0853011F0813018
:1033300021F486E098E00E94781910920E03089517
:103340008BE198E0F8CF8FE39CE90197F1F700C09B
:10335000000080910C03833079F028F4811107C0BC
:1033600010920C030895843051F08530C9F78FE432
:1033700090E00E947819F4CF8FE494E0FACF8FE4C4
:1033800091E1F7CF8FE39CE90197F1F700C00000CE
:1033900080910A03833079F028F4811107C01092DC
:1033A0000A030895843051F08530C9F782E590E032
:1033B0000E947819F4CF82E594E0FACF82E591E19A
:1033C000F7CF8FE39CE90197F1F700C000008091EF
:1033D0000803833079F028F4811107C010920803A4
:1033E0000895843051F08530C9F781E590E00E945E
:1033F0007819F4CF81E594E0FACF81E591E1F7CF38
:103400008FE39CE90197F1F700C00000809106036B
:10341000833079F028F4811107C0109206030895D3
:10342000843051F08530C9F780E590E00E9478192A
:10343000F4CF80E594E0FACF80E591E1F7CF8FE318
:103440009CE90197F1F700C00000809104038430EB
:1034500069F028F4811105C01092040308958530A5
:10346000D9F78CE490E00E947819F6CF8CE494E0D0
:10347000FACF8FE39CE90197F1F700C0000080913B
:103480000203882341F0843010F0853021F485E375
:1034900090E00E9478191092020308958FE39CE94E
:1034A0000197F1F700C0000080910003882341F0EC
:1034B000843010F0853021F48BE290E00E9478197E
:1034C0001092000308958FE39CE90197F1F700C083
:1034D00000008091FE02882341F0843010F0853096
:1034E00021F489E290E00E9478191092FE0208957A
:1034F0008FE39CE90197F1F700C000008091FC0286
:10350000843069F028F4811105C01092FC020895FE
:103510008530D9F781E290E00E947819F6CF81E2F8
:103520009BE1FACF8FE39CE90197F1F700C000001F
:103530008091FA02843069F028F4811105C010925C
:10354000FA0208958530D9F78AE290E00E9478194E
:10355000F6CF8AE294E0FACF8FE39CE90197F1F786
:1035600000C000008091F802843069F028F48111D5
:1035700005C01092F80208958530D9F78CE290E0EA
:103580000E947819F6CF8CE294E0FACF8FE39CE9A1
:103590000197F1F700C000008091F602843069F0D5
:1035A00028F4811105C01092F60208958530D9F7EC
:1035B00084E090E00E947819F6CF84E098E0FACF9A
:1035C0008FE39CE90197F1F700C000008091F402BD
:1035D000833059F0853011F0813021F484E390E09C
:1035E0000E9478191092F402089585E390E0F8CFD4
:1035F000CF93C82F882309F46EC08CEF8C0F813ACB
:10360000B8F580915A02882311F180913B0487FF1D
:103610001EC0EC2FE695E695E695F0E0EE52FD4FE4
:10362000828190E04C2F477021E030E002C0220FF1
:10363000331F4A95E2F782239323892B89F06C2F5D
:1036400082ED92E00E9431080E94EA0809C0E4ED90
:10365000F2E08191C81799F382E0EA3DF807C9F7D3
:103660006C2F82ED92E00E945B08CF910C94EA08E7
:1036700080E28C0F883068F4C77021E030E001C030
:10368000220FCA95EAF780911C04822B80931C04B8
:10369000ECCFEBE5EC0FE33040F4F0E0EE56FD4FFD
:1036A000808190E0CF910C94CC09E8E5EC0FE731F4
:1036B00050F4F0E0EE0FFF1FEB56FD4F808191813B
:1036C000CF910C94B609C03F30F08C2F0E94BA07FE
:1036D000CF910C94EC15CF910895CF93C82F0E94F1
:1036E000F81AC93349F42FEF87EE93E02150804058
:1036F0009040E1F700C000008C2FCF910C94461948
:103700000F931F93CF93DF93C62FD42F022FFC016B
:1037100082818823A1F06093B1040E94E015909308
:10372000B0048093AF04C77081E001C0880FCA95D0
:10373000EAF7DF91CF911F910F910C94AC09809122
:10374000B104681335C08091AF049091B0040E9419
:103750002208883C910560F510E21D0FCD17B9F0E5
:1037600080E28C0F883040F4C77081E001C0880F80
:10377000CA95EAF70E94A509183048F481E09D2F08
:10378000977001C0880F9A95EAF70E94AC09802FC4
:103790000E946D1B183098F4D77081E001C0880F2B
:1037A000DA95EAF7DF91CF911F910F910C94A5095B
:1037B000C77081E001C0880FCA95EAF7F3CFDF91A7
:1037C000CF911F910F910895CF93DF93EC01805E0D
:1037D00091096CEA79E0089710F06BE979E0CE0185
:1037E0000E94530D8C2FDF91CF910C94F81ACF9338
:1037F000DF93EC010E94E41BCE01DF91CF910C948A
:103800007819CF93DF93EC018881833061F486E0EF
:1038100098E00E94F71B86E098E00E94F71B86E084
:1038200098E00E94F71B8881843030F086E098E0B1
:10383000DF91CF910C94F71BDF91CF910895CF9337
:10384000DF93EC018881833061F48FE490E00E9483
:10385000F71B8FE490E00E94F71B8FE490E00E943A
:10386000F71B8881843030F08FE490E0DF91CF91B6
:103870000C94F71BDF91CF910895CF93DF93EC0168
:103880008881833061F482E590E00E94F71B82E535
:1038900090E00E94F71B82E590E00E94F71B888170
:1038A000843030F082E590E0DF91CF910C94F71BEB
:1038B000DF91CF910895CF93DF93EC01888183301E
:1038C00061F481E590E00E94F71B81E590E00E94A1
:1038D000F71B81E590E00E94F71B8881843030F06F
:1038E00081E590E0DF91CF910C94F71BDF91CF91B0
:1038F0000895CF93DF93EC018881833061F480E5F4
:1039000090E00E94F71B80E590E00E94F71B80E5A5
:1039100090E00E94F71B8881843030F080E590E0D1
:10392000DF91CF910C94F71BDF91CF910895CF9346
:10393000DF93EC018881833061F48CE490E00E9495
:10394000F71B8CE490E00E94F71B8CE490E00E944F
:10395000F71B8881843030F08CE490E0DF91CF91C8
:103960000C94F71BDF91CF910895CF93DF93EC0177
:103970008881833061F485E390E00E94F71B85E342
:1039800090E00E94F71B85E390E00E94F71B88817E
:10399000843030F085E390E0DF91CF910C94F71BF9
:1039A000DF91CF910895CF93DF93EC01888183302D
:1039B00061F48BE290E00E94F71B8BE290E00E94A2
:1039C000F71B8BE290E00E94F71B8881843030F077
:1039D0008BE290E0DF91CF910C94F71BDF91CF91B8
:1039E0000895CF93DF93EC018881833061F489E2FD
:1039F00090E00E94F71B89E290E00E94F71B89E2A9
:103A000090E00E94F71B8881843030F089E290E0DA
:103A1000DF91CF910C94F71BDF91CF910895CF9355
:103A2000DF93EC018881833061F481E290E00E94B1
:103A3000F71B81E290E00E94F71B81E290E00E9478
:103A4000F71B8881843030F081E290E0DF91CF91E4
:103A50000C94F71BDF91CF910895CF93DF93EC0186
:103A60008881833061F48AE290E00E94F71B8AE249
:103A700090E00E94F71B8AE290E00E94F71B888189
:103A8000843030F08AE290E0DF91CF910C94F71B04
:103A9000DF91CF910895CF93DF93EC01888183303C
:103AA00061F48CE290E00E94F71B8CE290E00E94AF
:103AB000F71B8CE290E00E94F71B8881843030F085
:103AC0008CE290E0DF91CF910C94F71BDF91CF91C6
:103AD0000895CF93DF93EC018881833061F484E013
:103AE00090E00E94F71B84E090E00E94F71B84E0C6
:103AF00090E00E94F71B8881843030F084E090E0F1
:103B0000DF91CF910C94F71BDF91CF910895CF9364
:103B1000DF93EC018881833061F484E390E00E94BC
:103B2000F71B84E390E00E94F71B84E390E00E947F
:103B3000F71B8881843030F084E390E0DF91CF91EF
:103B40000C94F71BDF91CF9108950E948A0D80930A
:103B50000E03833039F0853049F0813061F486E01E
:103B600098E002C08BE198E00C94E41B86E098E0BA
:103B70000E94F71BF4CF08950E948A0D80930C03D6
:103B8000833049F018F4811111C00895843039F060
:103B9000853041F008958FE494E00C94E41B8FE4A9
:103BA00091E1FBCF8FE490E00E94F71B8FE490E05F
:103BB000F4CF0E948A0D80930A03833049F018F4F1
:103BC000811111C00895843039F0853041F0089595
:103BD00082E594E00C94E41B82E591E1FBCF82E561
:103BE00090E00E94F71B82E590E0F4CF0E948A0DDE
:103BF00080930803833049F018F4811111C00895AF
:103C0000843039F0853041F0089581E594E00C94DA
:103C1000E41B81E591E1FBCF81E590E00E94F71B79
:103C200081E590E0F4CF0E948A0D809306038330F3
:103C300049F018F4811111C00895843039F08530AD
:103C400041F0089580E594E00C94E41B80E591E157
:103C5000FBCF80E590E00E94F71B80E590E0F4CF79
:103C60000E948A0D80930403833049F018F4811177
:103C70000AC00895843051F0853061F008958CE4D5
:103C800090E00E94E41B8CE490E002C08CE494E09D
:103C90000C94E41B8CE490E00E94F71BF4CF0E948C
:103CA0008A0D80930203833039F018F4811108C023
:103CB0000895853049F0089585E390E00E94E41B63
:103CC00085E390E00C94E41B85E390E00E94F71BF1
:103CD000F7CF0E948A0D80930003833039F018F4E7
:103CE000811108C00895853049F008958BE290E075
:103CF0000E94E41B8BE290E00C94E41B8BE290E0CA
:103D00000E94F71BF7CF0E948A0D8093FE0283303A
:103D100039F018F4811108C00895853049F00895EC
:103D200089E290E00E94E41B89E290E00C94E41B9D
:103D300089E290E00E94F71BF7CF0E948A0D8093E2
:103D4000FC02833049F018F481110AC008958430D0
:103D500051F0853061F0089581E290E00E94E41B0B
:103D600081E290E002C081E29BE10C94E41B81E2DD
:103D700090E00E94F71BF4CF0E948A0D8093FA0214
:103D8000833049F018F481110AC00895843051F04D
:103D9000853061F008958AE290E00E94E41B8AE297
:103DA00090E002C08AE294E00C94E41B8AE290E086
:103DB0000E94F71BF4CF0E948A0D8093F802833093
:103DC00049F018F481110AC00895843051F085300B
:103DD00061F008958CE290E00E94E41B8CE290E098
:103DE00002C08CE294E00C94E41B8CE290E00E9410
:103DF000F71BF4CF0E948A0D8093F602833049F0BE
:103E000018F481110AC00895843051F0853061F0B2
:103E1000089584E090E00E94E41B84E090E002C0FA
:103E200084E098E00C94E41B84E090E00E94F71B8F
:103E3000F4CF0E948A0D8093F402833039F08530EC
:103E400049F0813061F484E390E002C085E390E0C2
:103E50000C94E41B84E390E00E94F71BF4CF0895D8
:103E600060915704669570E04BE050E08AE091E085
:103E70000E942C33892B19F481E080935D040E9409
:103E8000E015909352048093510408959091570443
:103E900090FF36C09170811129C0926090935704B1
:103EA000662351F060915704709158048091590431
:103EB00090915A040E94FB0E60915704669570E041
:103EC0004BE050E08AE091E00E942C33892BA9F06E
:103ED00010925D0481E08093540420E040915A04E4
:103EE00060915904809158040C9447138B3210F060
:103EF0009465D4CF880F982BD1CF0E94301FEACF82
:103F0000089560E00C94461FE7E5F4E0808181604D
:103F1000808386950C94811F61E00C94461FCF929C
:103F2000DF92EF92FF92CF93DF936B017C010E94AF
:103F30009008D82F0E94AF0D0E94AC0D0E94A90DD1
:103F40000E94A60DC091A603EFEFED0FE73008F039
:103F50006CC0F0E0E250FC4C0C9490310E94B80D23
:103F6000C11172C00E94841F81E00E94811F20E065
:103F700044EC6CE588E466C00E94B50DC11164C0D4
:103F80000E94841F81E00E94811F20E04CED6EE7BB
:103F900085E958C00E94B20DC11156C00E94841F0D
:103FA00081E00E94811F20E04FEF6FEF89E24AC05D
:103FB0000E94B80D0E94B50DC11146C00E94841F19
:103FC00081E00E94811F20E040ED68E98FEB3AC05C
:103FD0000E94B80D0E94B20DC11136C088E090E079
:103FE0000E9441336093570470935804809359049E
:103FF00090935A0460FF31C0862F816080935704EC
:1040000086950E948C1F8091570486950E948C1F74
:1040100021E040915A04609159048091580412C0E3
:104020000E94B80D0E94B50DD5CFD111D5CFC111C9
:104030000BC00E94841F81E00E94811F20E040EE9F
:104040006AE880E00E944713C701B601DF91CF9173
:10405000FF90EF90DF90CF9008950E941F14F4CF4F
:10406000CF92DF92EF92FF92CF93DF9300D000D0F8
:10407000CDB7DEB70E948F1F6B017C0180917D045C
:10408000882321F080917E04811115C0C0927904AB
:10409000D0927A04E0927B04F0927C040E94101685
:1040A0000F900F900F900F90DF91CF91FF90EF90B6
:1040B000DF90CF900895198282E08A83C701B6010C
:1040C0000E9490088B838EEF8C8364E0CE01019672
:1040D0000E94DC06DBCF0F931F9341E050E060E0CD
:1040E00070E004C0440F551F661F771F8A95D2F7F2
:1040F000CB01BA01609570958095909500917904F7
:1041000010917A0420917B0430917C046023712308
:10411000822393231F910F910C94302090911904C6
:104120008095892380931904282F277071F4282FF4
:10413000082E000C330B9217130639F085958595E0
:1041400085950E946B201092190408950F931F9378
:1041500041E050E060E070E004C0440F551F661F6E
:10416000771F8A95D2F78091790490917A04A09173
:104170007B04B0917C048A019B01082B192B2A2B0C
:104180003B2BC901B8011F910F910C9430208091F5
:1041900057048695815009F48AE261E00C94461F29
:1041A0008091570486958F5F8B3208F081E061E043
:1041B0000C94461F9091570490FF07C0969598174E
:1041C00020F0961710F40C94D0200C948C1F4F9272
:1041D0005F926F927F928F929F92AF92BF92CF9297
:1041E000DF92EF92FF920F931F93CF93DF9300D054
:1041F00000D00F92CDB7DEB77C01DC0113968D9114
:104200009C911497892B41F01C911196DC90812F81
:104210008D218F3F09F0C6C60F900F900F900F9021
:104220000F90DF91CF911F910F91FF90EF90DF9052
:10423000CF90BF90AF909F908F907F906F905F9046
:104240004F9008950E94E30C082F682F89819A816E
:104250000E945809E12FF0E0B6E0DB9EE00DF11D71
:10426000112424E5029FE00DF11D1124EE0FFF1F24
:10427000EF59FB4F05911491D70112968C91811142
:10428000E4C080917D04811121C10A32BDE51B0784
:1042900009F039C1F70182818823C9F1809129048D
:1042A00091E0980F9770887F953008F4892B809360
:1042B0002904809129048770FFEF8F9FC00111248A
:1042C00095958795959587959927909389008093E3
:1042D000880090938B0080938A0090938D00809348
:1042E0008C004091290450912A0460912B04709114
:1042F0002C048FE090E00E945F336091790470910C
:104300007A0480917B0490917C040E948F1FC801E5
:1043100097558F3F910511F008F0CEC120914C02C6
:1043200030914D022817390724F490934D02809361
:104330004C02D70112962C91129736E1389F50010A
:10434000399FB00C1124F501E85EFE4F6F01208B00
:1043500012969C918681992309F4A1C11287018745
:104360008F5F86830E94E015D6011E969C938E93E4
:104370001D9780911D0417968C93179780911B04AD
:1043800090911C04892B18968C931897ED91FC91B1
:104390001197309739F054966D917C91C501825EEA
:1043A0009E4F09951093A8030093A703D701129677
:1043B0009C91992309F408C61092B1040230BCE51F
:1043C0001B0708F486C20631ECE51E0738F0980199
:1043D0002B5F3C452730310508F07BC20E94ED0E73
:1043E00090933C0480933B040F30FCE51F0709F4D5
:1043F00051C208F0D2C108303CE5130709F434C2B9
:1044000008F0A5C104309CE5190709F421C208F0A1
:104410008DC10230BCE51B0709F416C280913B0434
:10442000826003301C4509F4A4C160913B041091E3
:104430003C0484E090E00E944D33612F81E290E0E3
:104440000E944D330E94371676C080914C029091A5
:104450004D02019609F415CFE8E1CE2EE1E0DE2E03
:10446000B12CA12C9924939480914C0290914D02EF
:104470008A159B050CF405CFF60186818823F9F097
:10448000818592858017910739F48091A7039091D7
:10449000A8038017910799F0D6011F969C921F9749
:1044A0001C961C930E931B9751968C91811103C0FF
:1044B000C6010E94EE09C60106960E940F0ABFEFD0
:1044C000AB1ABB0AE6E1CE0ED11CCECF80917E04A2
:1044D000882309F4DACE1982D70112968C918111C2
:1044E00010C082E18A83D7018C918B8311968C91C5
:1044F0008C838EEF8D8365E0CE0101960E94DC06F1
:10450000C4CE81E1EFCF0C322DE5120709F4BFC014
:104510000D323DE51307F1F00B328DE5180709F078
:10452000F6CEF7018281882331F08091A60391E0D5
:1045300089278093A60380911904877009F46CCEB3
:10454000D70112968C91882309F466CE82E00E94EE
:104550008E2062CED70112968C91882309F4D7CE93
:104560005BE4C52E54E0D52E6AE0662EF601249158
:10457000222309F4CCCE213009F048C03196849131
:10458000813059F4F2E0CF0ED11CF60184910E94E3
:104590006D1B2FEFC21AD20AE9CF823041F4F2E04C
:1045A000CF0ED11CF60184910E94F81AF2CF83300D
:1045B00041F4F2E0CF0ED11CF60184910E9446191D
:1045C000E8CF843009F061C0F2E0CF0ED11CF601D3
:1045D000249190E080E0F60131962053330B2A308D
:1045E000310548F00197A8F2AFE9BFE01197F1F764
:1045F00000C00000F7CF689EA001699E500D1124F5
:10460000C901840F951F24916F01E5CFE22FF0E0DF
:10461000E553FC4F7490822F86958695869590E0A1
:10462000FC01E554FC4F84902770912C022E02C0AF
:10463000959487940A94E2F7E1E08E229924FC0194
:10464000E555FC4FA490B12C02C0B594A7942A95CF
:10465000E2F7F1E0AF22BB248114910419F081EE5E
:104660000E94F81AA114B10419F086EE0E94F81AFB
:10467000872D0E946D1BAB2819F086EE0E9446190B
:10468000892809F486CF81EE99CF6F0182CFD701B7
:1046900012968C91882309F44ECF81E03CC1882387
:1046A00009F484CE8189882309F480CEC501825E15
:1046B0009E4F0E940F0A7ACE043FFCE51F0739F196
:1046C00088F4093D3CE51307F1F00A3D8CE5180735
:1046D00051F1083D9CE5190709F068CE26E241EE4C
:1046E00061EE0DC0063FACE51A07C9F0A0F027E265
:1046F00045EE66EE073FECE51E0709F057CEC70111
:104700000E94801B18CF27E245EE65EEF8CF26E227
:1047100041EE60EEF4CF27E245EE64EEF0CF26E204
:1047200041EE62EEECCF28E241E0EFCF80913B0416
:1047300080610630FCE51F07E1F080913B04886052
:1047400007301C45B0F080913B04806212C00B30F2
:104750003CE5130709F496C078F409309CE5190785
:1047600009F486C080913B048C600A301C4509F036
:104770005CCE80933B0459CE80913B048B7F0D30FF
:10478000BCE51B07B1F380913B048D7F0E301C45C7
:1047900080F380913B04877FECCF0B3FFCE51F0744
:1047A00009F45AC048F502313CE5130709F47AC010
:1047B00060F400319CE5190709F470C080913B0456
:1047C0008F7B01311C45A9F230CE0431BCE51B07BB
:1047D00009F476C008F46CC005311C4509F025CEFB
:1047E00080913B0482FB992790F921E0922790FB6E
:1047F00082F990FB83F9BDCF0E3F2CE5120709F437
:1048000045C070F40C3F8CE5180751F180913C04D1
:104810008E7F0D3F1C4509F008CE80933C0405CEE9
:104820000115ADE51A0709F447C040F101301D45F7
:1048300009F0FBCD80913C04982F909591708E7F6C
:10484000892B90FB81F9E9CF80913B04816091CF66
:1048500080913B0484608DCF80913C048160DDCFEA
:1048600080913C048260D9CF80913B04806481CFE9
:104870000E94371680913B0480687BCF80913C0476
:104880008360CBCF80913B048E7F73CF80913C04BB
:104890008D7FC3CF80913B048F7E6BCF80913B0493
:1048A0008F7D67CF0E94371680913B048F7761CF51
:1048B00080913B04837F5DCF80913C048C7FADCFA2
:1048C0000E94371690913B04892F97FB87F98058F7
:1048D00050CF80911C040631FCE51F0709F082C30C
:1048E0008A7A91E009F490E09093A90369E281113A
:1048F00065E382ED92E00E945B080E94EA081BCE0D
:104900008091570480FF03C00E941F1414CE816061
:104910008093570486950E948C1F0DCE47EC50E281
:1049200060ED70E20E94590A06CE40ED50E267EC5D
:1049300070E2F8CF4DE054E166E174E1F3CF46E177
:1049400054E16DE074E1EECF45EF53E161E074E1D5
:10495000E9CF41E054E165EF73E1E4CF4DED53E180
:1049600069EE73E1DFCF49EE53E16DED73E1DACF2C
:104970004DE05FE06EE17FE0D5CF4EE15FE06DE0BE
:104980007FE0D0CF65E082E00E94DA20D4CD68E0FD
:1049900086E0FACF6EE089E0F7CF64E18FE0F4CFF4
:1049A00067E185E1F1CF88E1B6CF62E289E1ECCF42
:1049B00083E2B1CF0F3D2CE5120709F446C0093060
:1049C0003DE5130709F444C001151C4509F047C033
:1049D0000E9437169FEFA4E3BCE09150A040B04086
:1049E000E1F700C00000F89481E08093E00080E2ED
:1049F0008093D8001092C900EFE1FEE43197F1F7FF
:104A000000C000001DBA109268001CBC10BE1FBA86
:104A100010927A0010926E0010926F001092710046
:104A2000109272001092C9001092BC0014B817B80E
:104A30001AB81DB810BA1092BC0015B818B81BB837
:104A40001EB811BA0C94003F76CD0E943E0F73CD74
:104A500080917F0491E0892780937F046CCDF701DA
:104A600000811181992309F440C0C8010E94E30C20
:104A7000D82E682FC8010E945809B8018D2D0E94B8
:104A8000470B8C01882ED7011596AC901597A294F0
:104A90004FE0A4221296DC90D11010921B0480915A
:104AA0001904877099F0DD2089F0812F807F803490
:104AB00021F080E2800F883048F082E00E948E2052
:104AC000809119048770CC24C3948111C12CB12E1C
:104AD000B2943FE0B322BBE0BB1508F43DC0EB2D20
:104AE000F0E0EB5FFB4C0C949031C8010E942F0961
:104AF000D82EC3CFE12FEF70AE2E107F19F0A29405
:104B000020EFA222DD20C9F0AA2069F080E2800F08
:104B1000883010F081100BC080911C04A82AA0924C
:104B20001C040E94EA08802F0E94F81A15C0809188
:104B30001B04A82AA0921B04F4CF802F0E944619C0
:104B4000AA2051F0005E083010F0811043C08A2D79
:104B50000E94E3080E94EA08AB2DA850BB0B1497F3
:104B600010F40E94E209CC20A9F08091190480FD84
:104B700011C0F70112828595859585950E94A62022
:104B8000C7010E94E7208091190485958595859538
:104B90000E946B2085E0F701DE01119601900D92D5
:104BA0008A95E1F789819A810E942F099A81E9818A
:104BB000F0E026E0929FE00DF11D112434E5839F83
:104BC000E00DF11D1124EE0FFF1FEF59FB4F8591F2
:104BD000949122CBA09480911B04A822A0921B0444
:104BE000B9CFF12FFF709F2E107F103219F09294E1
:104BF00090EF9922882041F021E0821631F1DD20EA
:104C000079F1AA2041F18FCFDD2091F090911D0420
:104C1000892D892BA11003C00E94AC099DCF31E0E2
:104C2000A312FACF981709F497CF80931D0494CF5D
:104C3000A11006C00E94DD08892D0E94A5098CCF15
:104C400081E0A81609F488CFF5CFDD2031F091E09E
:104C50009A1508F481CF892DDFCFA1107DCFECCF3D
:104C6000AA2051F3A9E38A1209C0BFEFE7EEF3E0EF
:104C7000B150E040F040E1F700C00000802F0E94FA
:104C800046196ACF812F86958695837061F08130B1
:104C900009F062CFC8019370D11002C090E080E0AB
:104CA0000E94B60959CFC8019370D11002C090E09C
:104CB00080E00E94CC0950CF802FDD2029F00E9497
:104CC000BA070E94EC1548CF0E94F306FACF812F55
:104CD000837009F066C0D1103FCF802F82958695F2
:104CE0008770880F880F602F6F70462E512C712CA3
:104CF000612C082E04C0440C551C661C771C0A94B9
:104D0000D2F740E050E0BA0104FF0FC04FE050E09E
:104D100060E070E004C0440F551F661F771F8A953E
:104D2000D2F74095509560957095812F8695869520
:104D30008370823019F1D8F400911E0410911F0481
:104D40002091200430912104813069F044295529B3
:104D500066297729CB01BA0160237123822393232B
:104D60000E942D16F9CE402A512A622A732ACB01BD
:104D7000BA016429752986299729F2CF4429552932
:104D80006629772900911E0410911F0420912004A8
:104D900030912104CB01BA01602771278227932724
:104DA000DFCF8695DD2011F0812F8170882309F4F3
:104DB000D3CE802F829586958770880F880F602FBD
:104DC0006F70462E512C712C612C082E04C0440C9F
:104DD000551C661C771C0A94D2F740E050E0BA01DB
:104DE00004FF0FC04FE050E060E070E004C0440FEB
:104DF000551F661F771F8A95D2F74095509560958D
:104E00007095812F869586958370823019F1D8F43C
:104E10000091790410917A0420917B0430917C04F4
:104E2000813069F04429552966297729CB01BA01D7
:104E300060237123822393230E9430208DCE402A49
:104E4000512A622A732ACB01BA016429752986295D
:104E50009729F2CF442955296629772900917904A9
:104E600010917A0420917B0430917C04CB01BA012B
:104E70006027712782279327DFCF1F70DD2029F05D
:104E8000812F0E94A620802FC7CE802F0E94A509C7
:104E9000812F0E946B2060CE802F22EF821609F4B2
:104EA0004EC0281578F030EF831619F191EF89166E
:104EB00009F43DC0DD2009F465C0A11034CE812F76
:104EC0008F713AC0A3EF8A1609F43EC0B4EF8B127B
:104ED000F1CFDD2009F44BC01F71812F0E94A62065
:104EE000F8E01F9FC0011124836080931904812F73
:104EF00023C0DD20B9F0A1102FCE1F7161E070E05A
:104F000080E090E004C0660F771F881F991F1A95F4
:104F1000D2F70091790410917A0420917B043091AA
:104F20007C04A6CFE1E0EA1508F416CEE6CF812F87
:104F30008F71DD2009F4ADCF0E94A6200DCE812F08
:104F40008F71DD20C9F3A5CF60E070E0CB01DD20DB
:104F500009F472CF1F7161E070E080E090E004C05E
:104F6000660F771F881F991F1A95D2F765CF81E0CA
:104F70000E948E2021E02A1508F0EECD82E00E94EA
:104F80008E20EACDAA2059F0893309F077CE3FEF81
:104F900087EE93E0315080409040E1F76DCE812F55
:104FA0008F7177CF85E0F701DE01119601900D92A8
:104FB0008A95E1F7F701228189819A81211142C9FD
:104FC0000E942F09082F46C906311C4509F047CD1C
:104FD0008091A90369E2811165E382ED92E00E946C
:104FE00031088BCC8272F801E35CFC45E431F105B9
:104FF00008F0E0CCEF5EFB4C0C9490311F93CF9304
:10500000DF938091AF03807FA9F48091AC03882364
:1050100089F08091E103D091B0036091AA0370916F
:10502000AB03A091AD03B091AE03C62FC72316E02A
:10503000D81304C0DF91CF911F91089590E010978D
:1050400011F0CF3F19F401968770F2CF189F9001AD
:10505000199F300D1124F901EF54FC4F4181471382
:10506000F2CF40814613EFCF42814111ECCF438113
:1050700054814A1B5B0B483C510528F78091AF03D4
:105080008F7080618093AF03F901EA54FC4F8081F7
:105090008F70806180838AEA93E00E94E720DF912D
:1050A000CF911F910C948609AF92BF92CF92DF925D
:1050B000EF92FF920F931F93CF93DF93CDB7DEB79D
:1050C00061970FB6F894DEBF0FBECDBF8C0185E0AF
:1050D000F801DE011D9601900D928A95E1F7F80125
:1050E00080819181E2802AEAA22E23E0B22E609193
:1050F000AD037091AE036115710509F43EC13091A5
:10510000AA034091AB03232F24232F3F09F435C179
:10511000C380D480F090AC03F601E61BF70BFF20B0
:1051200009F4FBC02091AF03522F507FE83CF105FA
:1051300008F0BBC0511178C0FE2C491321C03813B0
:105140001FC0E1101DC02F7020612093AF03C50167
:105150000E94E7208091AF03F80185838F2D61962F
:105160000FB6F894DEBF0FBECDBFDF91CF911F9178
:105170000F91FF90EF90DF90CF90BF90AF90089588
:10518000CD2829F0282F29232F3F09F014C120E032
:10519000F22FF170DF2E20FF3DC02091E1034091FE
:1051A000B00356E0241315C08D879E878D859E859C
:1051B0000E94250D292F22952F702230F8F02430DF
:1051C00020F59F70F9F0F8019581907FD9F4D12CEA
:1051D0001FC030E0529FF001539FF00D1124EF5497
:1051E000FC4F6181961306C06081861303C0628103
:1051F000E61210C02F5F3F4F2770D4CF9F7011F081
:10520000882329F3805E883010F3C8010E94E720CC
:10521000FD2CA4CFEE2009F4A1CF8091AF038160D3
:105220008093AF03F12C9ACF491312C0381310C0EA
:10523000E1100EC0F8012583C8010E94E72086E036
:10524000F801AAEAB3E001900D928A95E1F786CFC2
:105250008D879E878D859E850E942F0D882309F15D
:10526000EE20F9F08091AF03803270F02091AA0314
:105270003091AB0338872F831986DB86CA868C87EB
:10528000CE0107960E94E72086E0F801AAEAB3E083
:1052900001900D928A95E1F70E94FE27FF24F39476
:1052A0005DCFC8010E94E720F9CF51110AC08AEAF8
:1052B00093E00E94E72086E0F50111928A95E9F7D4
:1052C000B1CF49130FC038130DC0E1100BC0F80166
:1052D0002583C8010E94E72086E0F50111928A9596
:1052E000E9F73CCF8D879E878D859E850E942F0D87
:1052F0008823B9F2EE20A9F28091AF03803220F228
:105300002091AA033091AB033A8329831B82DD826B
:10531000CC828E83CE010196B5CFE83CF105E0F654
:10532000FE2CEE2009F4BDCF491316C0381314C06B
:105330008091AF0380FD83CF982F907F09F47FCFBA
:10534000F8018583903F09F477CF982F907F905F85
:105350008F70892B858370CF8D879E878D859E85E5
:105360000E942F0D811190CF8091AF0381608093B7
:10537000AF03C8010E94E720F1CEEE2009F491CFDF
:105380008D879E878D859E850E942F0DF82E882300
:1053900009F487CF86E0F801AAEAB3E001900D9204
:1053A0008A95E1F78091AA039091AB030E94250DA5
:1053B0000E94FE27D3CE21E02E25EACE1F93CF9365
:1053C000DF93CDB7DEB767970FB6F894DEBF0FBE99
:1053D000CDBF4B8B5C8B6D8B7E8B8F8B1A8A198A22
:1053E00085E0FE017396DE011D9601900D928A956F
:1053F000E1F786E0FE013D96DE01179601900D92E1
:105400008A95E1F7CE0107960E945428811112C0B7
:1054100086E0FE013796DE01119601900D928A9585
:10542000E1F78A859B85892B29F08F8198858923CF
:105430008F3FB1F516E08091E1039091B00389139D
:105440001DC067960FB6F894DEBF0FBECDBFDF91CB
:10545000CF911F91089596E0929FD001939FB00D38
:105460001124AF54BC4FFE01319601900D929A95D4
:10547000E1F78093B0030E948609DCCF819FC001D1
:1054800011248F549C4F0E9454288823D1F280917C
:10549000E10390E00196877099278093E103CBCFD9
:1054A0002091B00330E0C90101968770992740919F
:1054B000E1034817190679F60E9437161092B003D7
:1054C0001092E10386E0EAEAF3E0DF011D928A959B
:1054D000E9F7B0CF8F929F92BF92CF92DF92EF9277
:1054E000FF920F931F93CF93DF9380914E02909181
:1054F0004F02892B91F080910F038F5F80930F03F0
:1055000081110BC00E94371490E090934F0280935A
:105510004E02892B11F40E94730EEDE28E2EE4E010
:105520009E2E740110E000E077E0C72EC00E802FA1
:105530000E94B90F8C2D0E94B90F802F0E94AE14CB
:10554000E70199917E01D12C891729F0FE0131974D
:105550008083DD24D3948C2D0E94AE14F7019681B4
:10556000891709F47AC0868381E08D29182B0E945F
:10557000BB0D0F5F0730C1F60E94E015609111036B
:1055800070911203909312038093110320911003E2
:1055900030E0261B370B820F931F6BEF70E00E94E9
:1055A0006831E82E392F082F80931003F0901403F0
:1055B000FF2009F4E3C010921403E0912704F09156
:1055C0002804AF01425F5F4F20E06BEFB62E6BEF18
:1055D00070E0A191AB3F99F0CA2ED12C8E2D932F64
:1055E0000A17E8F18C199D09092E000CAA0BBB0BB8
:1055F0004E97A105B105C8F1DF011197BC92E417E0
:10560000F50739F720931403111102C02111B8C016
:1056100010921303A0912704B091280490911403D1
:10562000E3E4F4E080E03191E40129914E01321786
:1056300051F03C913B3FD9F40C93AF0141505109DB
:10564000EA01288391E01196D4E0E135FD0759F78E
:10565000909314038093130397C080E086CFDB01FF
:10566000AC19BD098A0F9B1FBFCF2F2DC8CF81E07A
:10567000EACFF89EF001F99EF00D1124E85EFE4F8E
:10568000C288D388C114D10419F428ECC22ED12CBD
:10569000F89EE001F99ED00D1124C85EDE4F8E8188
:1056A0008823B9F08D859E850E942208C816D906E8
:1056B00080F40F9D600111248989811105C0C60104
:1056C000885E9E4F0E94EE09C601825E9E4F0E9438
:1056D0000F0A0F5F802F90E020914C0230914D0215
:1056E0002817390734F657C000E086E1F82EF2CFCC
:1056F000009789F40E94AC0D0E94A90D0E94A60D8E
:10570000C0911503CC23B9F10E94A90D81E0C827EF
:10571000C093150303C09170892B91F380911603F8
:10572000909117038130984780F010927F04609128
:10573000790470917A0480917B0490917C040E949A
:105740008F1F1092170310921603809116039091E9
:10575000170301969093170380931603812FDF910F
:10576000CF911F910F91FF90EF90DF90CF90BF905E
:105770009F908F9008950E94B50DC8CF111148CF0A
:1057800080911303811144CF80914C0290914D027E
:10579000019609F0A9CF80911603909117032091EB
:1057A0007F042111A5CF892BC9F210921703109203
:1057B00016036091790470917A0480917B04909132
:1057C0007C040E948F1FCACFCDB7DEB7C955D1095F
:1057D0000FB6F894DEBF0FBECDBF84B7877F84BFFE
:1057E0000FB6F894A895809160008861809360005E
:1057F000109260000FBE80E890E00FB6F89480939E
:105800006100909361000FBE85B7806885BF85B742
:10581000806885BF0E94ED040E94BA058091E20075
:1058200084608093E20078948091A5048823A1F09D
:105830001091E9001F709091EC00892F817090FD0C
:1058400080E8182B1092E9008091E80083FD0E9407
:105850004C161F701093E90082E084BD93E095BD63
:105860009AEF97BD80936E000E94371490E090935A
:105870004F0280934E020E94BB0D0E94CA0DEDE2C2
:10588000F4E023E4622E24E0722ED30111921D92E3
:1058900024E0EB33F207D1F78EE090E00E94013272
:1058A0008093270490932804FC010E962BEF2193FC
:1058B0008E179F07E1F790E080E00E9447338F3E0C
:1058C0009E4F11F00E943E0F89EA8093800089E08C
:1058D0008093810024982C983F988AB18F7C8AB954
:1058E0006E98479A8BB180638BB9769A8FE090E07F
:1058F0000E9441336093290470932A0480932B04FF
:1059000090932C0467708FEF689FB00111247595F8
:1059100067957595679577277093890060938800E0
:1059200070938B0060938A0070938D0060938C005D
:105930000E94730E90E080E00E9447338F3E9E4F9E
:1059400011F00E943E0F82E090E00E943933809374
:105950006A040E94ED0E90933C0480933B0483E024
:1059600090E00E943933682F70E090E080E00E9460
:105970002D166091790470917A0480917B04909146
:105980007C040E948F1F80913D04811135C090E0FE
:1059900080E00E9447338F3E9E4F21F00E943E0FD1
:1059A0000E942F0F88E090E00E94413360935704DB
:1059B000709358048093590490935A046E7F71F445
:1059C0000E942F0F88E090E00E94413360935704BB
:1059D000709358048093590490935A040E945E0A6D
:1059E00010925D048091570480FF03C086950E9449
:1059F000811F81E080933D046091790470917A0465
:105A000080917B0490917C040E948F1F80E592E03E
:105A100090933F0480933E0418E1C12ED12C01E500
:105A2000A02E04E0B02E81E4882E912C8C0E9D1EB9
:105A300022E0820E911C8091A5048530D9F4A0E467
:105A4000FA2EBEE0EB2EE60C5524539400E112E151
:105A50008091A504853009F4A1C10E9437160E94E7
:105A6000E209109242048091410481110E94841F36
:105A70000E94301F0E946A2AEBE6F4E0A3E4B4E03F
:105A800010E000E0302F8D912191281709F4EDC12D
:105A900090E0FF24F3942827422F4F2109F4E0C11E
:105AA00061969FAF619762963FAF62978F2191E0B9
:105AB00009F490E063969FAF63970E94E0158160C0
:105AC000782F65969FAF8EAF659761964FAD6197C2
:105AD00062965FAD629763966FAD639765968FAD83
